{
  "contractName": "AddressPermissionList",
  "abi": [
    {
      "constant": false,
      "inputs": [
        {
          "name": "_value",
          "type": "bytes32"
        }
      ],
      "name": "add",
      "outputs": [],
      "payable": false,
      "stateMutability": "nonpayable",
      "type": "function"
    },
    {
      "constant": false,
      "inputs": [],
      "name": "renounceOwnership",
      "outputs": [],
      "payable": false,
      "stateMutability": "nonpayable",
      "type": "function"
    },
    {
      "constant": true,
      "inputs": [],
      "name": "owner",
      "outputs": [
        {
          "name": "",
          "type": "address"
        }
      ],
      "payable": false,
      "stateMutability": "view",
      "type": "function"
    },
    {
      "constant": false,
      "inputs": [
        {
          "name": "_value",
          "type": "bytes32"
        }
      ],
      "name": "remove",
      "outputs": [],
      "payable": false,
      "stateMutability": "nonpayable",
      "type": "function"
    },
    {
      "constant": false,
      "inputs": [
        {
          "name": "_newOwner",
          "type": "address"
        }
      ],
      "name": "transferOwnership",
      "outputs": [],
      "payable": false,
      "stateMutability": "nonpayable",
      "type": "function"
    },
    {
      "inputs": [
        {
          "name": "_blacklist",
          "type": "bool"
        }
      ],
      "payable": false,
      "stateMutability": "nonpayable",
      "type": "constructor"
    },
    {
      "anonymous": false,
      "inputs": [
        {
          "indexed": true,
          "name": "previousOwner",
          "type": "address"
        }
      ],
      "name": "OwnershipRenounced",
      "type": "event"
    },
    {
      "anonymous": false,
      "inputs": [
        {
          "indexed": true,
          "name": "previousOwner",
          "type": "address"
        },
        {
          "indexed": true,
          "name": "newOwner",
          "type": "address"
        }
      ],
      "name": "OwnershipTransferred",
      "type": "event"
    },
    {
      "constant": true,
      "inputs": [
        {
          "name": "_value",
          "type": "address"
        }
      ],
      "name": "isPermitted",
      "outputs": [
        {
          "name": "allowed",
          "type": "bool"
        }
      ],
      "payable": false,
      "stateMutability": "view",
      "type": "function"
    },
    {
      "constant": true,
      "inputs": [
        {
          "name": "_value",
          "type": "bytes32"
        }
      ],
      "name": "isPermitted",
      "outputs": [
        {
          "name": "allowed",
          "type": "bool"
        }
      ],
      "payable": false,
      "stateMutability": "view",
      "type": "function"
    }
  ],
  "bytecode": "0x608060405234801561001057600080fd5b5060405160208061073d8339810180604052810190808051906020019092919050505080336000806101000a81548173ffffffffffffffffffffffffffffffffffffffff021916908373ffffffffffffffffffffffffffffffffffffffff16021790555080600060146101000a81548160ff021916908315150217905550505061069e8061009f6000396000f300608060405260043610610083576000357c0100000000000000000000000000000000000000000000000000000000900463ffffffff1680633fd8cc4e14610088578063446bffba146100e3578063715018a6146101145780638da5cb5b1461012b57806395bc267314610182578063beabdb7b146101b3578063f2fde38b146101fc575b600080fd5b34801561009457600080fd5b506100c9600480360381019080803573ffffffffffffffffffffffffffffffffffffffff16906020019092919050505061023f565b604051808215151515815260200191505060405180910390f35b3480156100ef57600080fd5b506101126004803603810190808035600019169060200190929190505050610295565b005b34801561012057600080fd5b50610129610326565b005b34801561013757600080fd5b50610140610428565b604051808273ffffffffffffffffffffffffffffffffffffffff1673ffffffffffffffffffffffffffffffffffffffff16815260200191505060405180910390f35b34801561018e57600080fd5b506101b1600480360381019080803560001916906020019092919050505061044d565b005b3480156101bf57600080fd5b506101e260048036038101908080356000191690602001909291905050506104df565b604051808215151515815260200191505060405180910390f35b34801561020857600080fd5b5061023d600480360381019080803573ffffffffffffffffffffffffffffffffffffffff169060200190929190505050610511565b005b6000600260008373ffffffffffffffffffffffffffffffffffffffff1673ffffffffffffffffffffffffffffffffffffffff16815260200190815260200160002060009054906101000a900460ff169050919050565b6000809054906101000a900473ffffffffffffffffffffffffffffffffffffffff1673ffffffffffffffffffffffffffffffffffffffff163373ffffffffffffffffffffffffffffffffffffffff161415156102f057600080fd5b6001806000836000191660001916815260200190815260200160002060006101000a81548160ff02191690831515021790555050565b6000809054906101000a900473ffffffffffffffffffffffffffffffffffffffff1673ffffffffffffffffffffffffffffffffffffffff163373ffffffffffffffffffffffffffffffffffffffff1614151561038157600080fd5b6000809054906101000a900473ffffffffffffffffffffffffffffffffffffffff1673ffffffffffffffffffffffffffffffffffffffff167ff8df31144d9c2f0f6b59d69b8b98abd5459d07f2742c4df920b25aae33c6482060405160405180910390a260008060006101000a81548173ffffffffffffffffffffffffffffffffffffffff021916908373ffffffffffffffffffffffffffffffffffffffff160217905550565b6000809054906101000a900473ffffffffffffffffffffffffffffffffffffffff1681565b6000809054906101000a900473ffffffffffffffffffffffffffffffffffffffff1673ffffffffffffffffffffffffffffffffffffffff163373ffffffffffffffffffffffffffffffffffffffff161415156104a857600080fd5b600060016000836000191660001916815260200190815260200160002060006101000a81548160ff02191690831515021790555050565b600060016000836000191660001916815260200190815260200160002060009054906101000a900460ff169050919050565b6000809054906101000a900473ffffffffffffffffffffffffffffffffffffffff1673ffffffffffffffffffffffffffffffffffffffff163373ffffffffffffffffffffffffffffffffffffffff1614151561056c57600080fd5b61057581610578565b50565b600073ffffffffffffffffffffffffffffffffffffffff168173ffffffffffffffffffffffffffffffffffffffff16141515156105b457600080fd5b8073ffffffffffffffffffffffffffffffffffffffff166000809054906101000a900473ffffffffffffffffffffffffffffffffffffffff1673ffffffffffffffffffffffffffffffffffffffff167f8be0079c531659141344cd1fd0a4f28419497f9722a3daafe3b4186f6b6457e060405160405180910390a3806000806101000a81548173ffffffffffffffffffffffffffffffffffffffff021916908373ffffffffffffffffffffffffffffffffffffffff160217905550505600a165627a7a72305820f373aab10c6a6a1262038a74b7def3dfe338c3eef64388bb2aca713c688a53480029",
  "source": "/**\n *  @title Address Permission List\n *  @author Clément Lesaege - <clement@lesaege.com>\n */\n\npragma solidity ^0.4.15;\n\nimport \"./PermissionList.sol\";\n\n/**\n *  @title Address Permission List\n *  This is a permission list for addresses. The owner can add or remove addresses.\n */\ncontract AddressPermissionList is PermissionList {\n    /* Storage */\n\n    mapping(address => bool) list; // True if the address is registered.\n\n    /* Constructor */\n\n    /**\n     *  @dev Constructs the address permission list and sets the type.\n     *  @param _blacklist True if the list should function as a blacklist, false if it should function as a whitelist.\n     */\n    constructor(bool _blacklist) PermissionList(_blacklist) public {}\n\n    /* Public Views */\n\n    /**\n     *  @dev Return true if the address is allowed.\n     *  @param _value The address we want to check.\n     *  @return allowed True if the address is allowed, false otherwise.\n     */\n    function isPermitted(address _value) public view returns (bool allowed) {\n        return list[_value];\n    }\n}\n",
  "sourcePath": "/Users/epiqueras/Work/kleros/kleros-interaction/contracts/standard/permission/AddressPermissionList.sol",
  "compiler": {
    "name": "solc",
    "version": "0.4.24+commit.e67f0147.Emscripten.clang"
  },
  "schemaVersion": "2.0.1",
  "updatedAt": "2018-07-17T16:56:20.235Z"
}