{
  "contractName": "ArbitrableTransaction",
  "abi": [
    {
      "constant": false,
      "inputs": [
        {
          "name": "_extraData",
          "type": "bytes"
        }
      ],
      "name": "appeal",
      "outputs": [],
      "payable": true,
      "stateMutability": "payable",
      "type": "function"
    },
    {
      "constant": true,
      "inputs": [],
      "name": "arbitratorExtraData",
      "outputs": [
        {
          "name": "",
          "type": "bytes"
        }
      ],
      "payable": false,
      "stateMutability": "view",
      "type": "function"
    },
    {
      "constant": true,
      "inputs": [],
      "name": "partyA",
      "outputs": [
        {
          "name": "",
          "type": "address"
        }
      ],
      "payable": false,
      "stateMutability": "view",
      "type": "function"
    },
    {
      "constant": false,
      "inputs": [],
      "name": "timeOutByPartyA",
      "outputs": [],
      "payable": false,
      "stateMutability": "nonpayable",
      "type": "function"
    },
    {
      "constant": true,
      "inputs": [],
      "name": "status",
      "outputs": [
        {
          "name": "",
          "type": "uint8"
        }
      ],
      "payable": false,
      "stateMutability": "view",
      "type": "function"
    },
    {
      "constant": true,
      "inputs": [],
      "name": "partyB",
      "outputs": [
        {
          "name": "",
          "type": "address"
        }
      ],
      "payable": false,
      "stateMutability": "view",
      "type": "function"
    },
    {
      "constant": false,
      "inputs": [
        {
          "name": "_disputeID",
          "type": "uint256"
        },
        {
          "name": "_ruling",
          "type": "uint256"
        }
      ],
      "name": "rule",
      "outputs": [],
      "payable": false,
      "stateMutability": "nonpayable",
      "type": "function"
    },
    {
      "constant": true,
      "inputs": [],
      "name": "partyAFee",
      "outputs": [
        {
          "name": "",
          "type": "uint256"
        }
      ],
      "payable": false,
      "stateMutability": "view",
      "type": "function"
    },
    {
      "constant": true,
      "inputs": [],
      "name": "partyBFee",
      "outputs": [
        {
          "name": "",
          "type": "uint256"
        }
      ],
      "payable": false,
      "stateMutability": "view",
      "type": "function"
    },
    {
      "constant": true,
      "inputs": [],
      "name": "arbitrator",
      "outputs": [
        {
          "name": "",
          "type": "address"
        }
      ],
      "payable": false,
      "stateMutability": "view",
      "type": "function"
    },
    {
      "constant": true,
      "inputs": [],
      "name": "timeout",
      "outputs": [
        {
          "name": "",
          "type": "uint256"
        }
      ],
      "payable": false,
      "stateMutability": "view",
      "type": "function"
    },
    {
      "constant": false,
      "inputs": [],
      "name": "timeOutByPartyB",
      "outputs": [],
      "payable": false,
      "stateMutability": "nonpayable",
      "type": "function"
    },
    {
      "constant": true,
      "inputs": [],
      "name": "lastInteraction",
      "outputs": [
        {
          "name": "",
          "type": "uint256"
        }
      ],
      "payable": false,
      "stateMutability": "view",
      "type": "function"
    },
    {
      "constant": false,
      "inputs": [],
      "name": "payArbitrationFeeByPartyA",
      "outputs": [],
      "payable": true,
      "stateMutability": "payable",
      "type": "function"
    },
    {
      "constant": true,
      "inputs": [],
      "name": "amount",
      "outputs": [
        {
          "name": "",
          "type": "uint256"
        }
      ],
      "payable": false,
      "stateMutability": "view",
      "type": "function"
    },
    {
      "constant": true,
      "inputs": [],
      "name": "disputeID",
      "outputs": [
        {
          "name": "",
          "type": "uint256"
        }
      ],
      "payable": false,
      "stateMutability": "view",
      "type": "function"
    },
    {
      "constant": false,
      "inputs": [],
      "name": "payArbitrationFeeByPartyB",
      "outputs": [],
      "payable": true,
      "stateMutability": "payable",
      "type": "function"
    },
    {
      "constant": false,
      "inputs": [
        {
          "name": "_evidence",
          "type": "string"
        }
      ],
      "name": "submitEvidence",
      "outputs": [],
      "payable": false,
      "stateMutability": "nonpayable",
      "type": "function"
    },
    {
      "inputs": [
        {
          "name": "_arbitrator",
          "type": "address"
        },
        {
          "name": "_hashContract",
          "type": "bytes32"
        },
        {
          "name": "_timeout",
          "type": "uint256"
        },
        {
          "name": "_partyB",
          "type": "address"
        },
        {
          "name": "_arbitratorExtraData",
          "type": "bytes"
        }
      ],
      "payable": true,
      "stateMutability": "payable",
      "type": "constructor"
    },
    {
      "anonymous": false,
      "inputs": [
        {
          "indexed": false,
          "name": "_party",
          "type": "uint8"
        }
      ],
      "name": "HasToPayFee",
      "type": "event"
    },
    {
      "anonymous": false,
      "inputs": [
        {
          "indexed": true,
          "name": "_arbitrator",
          "type": "address"
        },
        {
          "indexed": true,
          "name": "_disputeID",
          "type": "uint256"
        },
        {
          "indexed": false,
          "name": "_rulingOptions",
          "type": "string"
        }
      ],
      "name": "Dispute",
      "type": "event"
    },
    {
      "anonymous": false,
      "inputs": [
        {
          "indexed": true,
          "name": "_arbitrator",
          "type": "address"
        },
        {
          "indexed": true,
          "name": "_disputeID",
          "type": "uint256"
        },
        {
          "indexed": false,
          "name": "_ruling",
          "type": "uint256"
        }
      ],
      "name": "Ruling",
      "type": "event"
    },
    {
      "anonymous": false,
      "inputs": [
        {
          "indexed": true,
          "name": "_arbitrator",
          "type": "address"
        },
        {
          "indexed": true,
          "name": "_disputeID",
          "type": "uint256"
        },
        {
          "indexed": false,
          "name": "_party",
          "type": "address"
        },
        {
          "indexed": false,
          "name": "_evidence",
          "type": "string"
        }
      ],
      "name": "Evidence",
      "type": "event"
    },
    {
      "anonymous": false,
      "inputs": [
        {
          "indexed": false,
          "name": "_contractHash",
          "type": "bytes32"
        }
      ],
      "name": "ContractHash",
      "type": "event"
    },
    {
      "constant": false,
      "inputs": [],
      "name": "pay",
      "outputs": [],
      "payable": false,
      "stateMutability": "nonpayable",
      "type": "function"
    },
    {
      "constant": false,
      "inputs": [
        {
          "name": "_amountReimbursed",
          "type": "uint256"
        }
      ],
      "name": "reimburse",
      "outputs": [],
      "payable": false,
      "stateMutability": "nonpayable",
      "type": "function"
    }
  ],
  "bytecode": "0x608060405260405162001abd38038062001abd83398101806040528101908080519060200190929190805190602001909291908051906020019092919080519060200190929190805182019291905050508484848484848185826000806101000a81548173ffffffffffffffffffffffffffffffffffffffff021916908373ffffffffffffffffffffffffffffffffffffffff1602179055508160019080519060200190620000b09291906200019c565b507f1892820d22f2ab2b60795935d39550f42562bf8862a0b3c2193b095baa40af218160405180826000191660001916815260200191505060405180910390a15050508260028190555033600360006101000a81548173ffffffffffffffffffffffffffffffffffffffff021916908373ffffffffffffffffffffffffffffffffffffffff16021790555081600460006101000a81548173ffffffffffffffffffffffffffffffffffffffff021916908373ffffffffffffffffffffffffffffffffffffffff160217905550505050505034600a6000828254019250508190555050505050506200024b565b828054600181600116156101000203166002900490600052602060002090601f016020900481019282601f10620001df57805160ff191683800117855562000210565b8280016001018555821562000210579182015b828111156200020f578251825591602001919060010190620001f2565b5b5090506200021f919062000223565b5090565b6200024891905b80821115620002445760008160009055506001016200022a565b5090565b90565b611862806200025b6000396000f300608060405260043610610112576000357c0100000000000000000000000000000000000000000000000000000000900463ffffffff168063069fae2a146101175780630c7ac7b61461017357806310e1d8ca1461020357806319e2641e1461025a5780631b9265b814610271578063200d2ed21461028857806329040113146102c1578063311a6c56146103185780634a44c2e41461034f5780634b40c9741461037c578063512491f1146103a75780636cc6cde1146103d257806370dea79a14610429578063853c80ce146104545780638f71a2651461046b578063a010963114610496578063aa8c217c146104a0578063b0a1e2b4146104cb578063b1bcce3a146104f6578063bac91e2e14610500575b600080fd5b610171600480360381019080803590602001908201803590602001908080601f0160208091040260200160405190810160405280939291908181526020018383808284378201915050505050509192919290505050610569565b005b34801561017f57600080fd5b50610188610738565b6040518080602001828103825283818151815260200191508051906020019080838360005b838110156101c85780820151818401526020810190506101ad565b50505050905090810190601f1680156101f55780820380516001836020036101000a031916815260200191505b509250505060405180910390f35b34801561020f57600080fd5b506102186107d6565b604051808273ffffffffffffffffffffffffffffffffffffffff1673ffffffffffffffffffffffffffffffffffffffff16815260200191505060405180910390f35b34801561026657600080fd5b5061026f6107fc565b005b34801561027d57600080fd5b506102866108b3565b005b34801561029457600080fd5b5061029d610984565b604051808260048111156102ad57fe5b60ff16815260200191505060405180910390f35b3480156102cd57600080fd5b506102d6610997565b604051808273ffffffffffffffffffffffffffffffffffffffff1673ffffffffffffffffffffffffffffffffffffffff16815260200191505060405180910390f35b34801561032457600080fd5b5061034d60048036038101908080359060200190929190803590602001909291905050506109bd565b005b34801561035b57600080fd5b5061037a60048036038101908080359060200190929190505050610a75565b005b34801561038857600080fd5b50610391610b5e565b6040518082815260200191505060405180910390f35b3480156103b357600080fd5b506103bc610b64565b6040518082815260200191505060405180910390f35b3480156103de57600080fd5b506103e7610b6a565b604051808273ffffffffffffffffffffffffffffffffffffffff1673ffffffffffffffffffffffffffffffffffffffff16815260200191505060405180910390f35b34801561043557600080fd5b5061043e610b8f565b6040518082815260200191505060405180910390f35b34801561046057600080fd5b50610469610b95565b005b34801561047757600080fd5b50610480610c4c565b6040518082815260200191505060405180910390f35b61049e610c52565b005b3480156104ac57600080fd5b506104b5610ee1565b6040518082815260200191505060405180910390f35b3480156104d757600080fd5b506104e0610ee7565b6040518082815260200191505060405180910390f35b6104fe610eed565b005b34801561050c57600080fd5b50610567600480360381019080803590602001908201803590602001908080601f016020809104026020016040519081016040528093929190818152602001838380828437820191505050505050919291929050505061117c565b005b600360009054906101000a900473ffffffffffffffffffffffffffffffffffffffff1673ffffffffffffffffffffffffffffffffffffffff163373ffffffffffffffffffffffffffffffffffffffff1614806106125750600460009054906101000a900473ffffffffffffffffffffffffffffffffffffffff1673ffffffffffffffffffffffffffffffffffffffff163373ffffffffffffffffffffffffffffffffffffffff16145b151561061d57600080fd5b6000809054906101000a900473ffffffffffffffffffffffffffffffffffffffff1673ffffffffffffffffffffffffffffffffffffffff166349912f8834600854846040518463ffffffff167c01000000000000000000000000000000000000000000000000000000000281526004018083815260200180602001828103825283818151815260200191508051906020019080838360005b838110156106d05780820151818401526020810190506106b5565b50505050905090810190601f1680156106fd5780820380516001836020036101000a031916815260200191505b5093505050506000604051808303818588803b15801561071c57600080fd5b505af1158015610730573d6000803e3d6000fd5b505050505050565b60018054600181600116156101000203166002900480601f0160208091040260200160405190810160405280929190818152602001828054600181600116156101000203166002900480156107ce5780601f106107a3576101008083540402835291602001916107ce565b820191906000526020600020905b8154815290600101906020018083116107b157829003601f168201915b505050505081565b600360009054906101000a900473ffffffffffffffffffffffffffffffffffffffff1681565b600360009054906101000a900473ffffffffffffffffffffffffffffffffffffffff1673ffffffffffffffffffffffffffffffffffffffff163373ffffffffffffffffffffffffffffffffffffffff1614151561085857600080fd5b6002600481111561086557fe5b600960009054906101000a900460ff16600481111561088057fe5b14151561088c57600080fd5b6002546007540142101515156108a157600080fd5b6108b1600854600160ff16611373565b565b600360009054906101000a900473ffffffffffffffffffffffffffffffffffffffff1673ffffffffffffffffffffffffffffffffffffffff163373ffffffffffffffffffffffffffffffffffffffff1614151561090f57600080fd5b600460009054906101000a900473ffffffffffffffffffffffffffffffffffffffff1673ffffffffffffffffffffffffffffffffffffffff166108fc600a549081150290604051600060405180830381858888f19350505050158015610979573d6000803e3d6000fd5b506000600a81905550565b600960009054906101000a900460ff1681565b600460009054906101000a900473ffffffffffffffffffffffffffffffffffffffff1681565b6000809054906101000a900473ffffffffffffffffffffffffffffffffffffffff1673ffffffffffffffffffffffffffffffffffffffff163373ffffffffffffffffffffffffffffffffffffffff16141515610a1857600080fd5b813373ffffffffffffffffffffffffffffffffffffffff167f394027a5fa6e098a1191094d1719d6929b9abc535fcc0c8f448d6a4e75622276836040518082815260200191505060405180910390a3610a718282611373565b5050565b600460009054906101000a900473ffffffffffffffffffffffffffffffffffffffff1673ffffffffffffffffffffffffffffffffffffffff163373ffffffffffffffffffffffffffffffffffffffff16141515610ad157600080fd5b600a548111151515610ae257600080fd5b600360009054906101000a900473ffffffffffffffffffffffffffffffffffffffff1673ffffffffffffffffffffffffffffffffffffffff166108fc829081150290604051600060405180830381858888f19350505050158015610b4a573d6000803e3d6000fd5b5080600a6000828254039250508190555050565b60055481565b60065481565b6000809054906101000a900473ffffffffffffffffffffffffffffffffffffffff1681565b60025481565b600460009054906101000a900473ffffffffffffffffffffffffffffffffffffffff1673ffffffffffffffffffffffffffffffffffffffff163373ffffffffffffffffffffffffffffffffffffffff16141515610bf157600080fd5b60016004811115610bfe57fe5b600960009054906101000a900460ff166004811115610c1957fe5b141515610c2557600080fd5b600254600754014210151515610c3a57600080fd5b610c4a600854600260ff16611373565b565b60075481565b6000600360009054906101000a900473ffffffffffffffffffffffffffffffffffffffff1673ffffffffffffffffffffffffffffffffffffffff163373ffffffffffffffffffffffffffffffffffffffff16141515610cb057600080fd5b6000809054906101000a900473ffffffffffffffffffffffffffffffffffffffff1673ffffffffffffffffffffffffffffffffffffffff1663f7434ea960016040518263ffffffff167c01000000000000000000000000000000000000000000000000000000000281526004018080602001828103825283818154600181600116156101000203166002900481526020019150805460018160011615610100020316600290048015610da35780601f10610d7857610100808354040283529160200191610da3565b820191906000526020600020905b815481529060010190602001808311610d8657829003601f168201915b505092505050602060405180830381600087803b158015610dc357600080fd5b505af1158015610dd7573d6000803e3d6000fd5b505050506040513d6020811015610ded57600080fd5b810190808051906020019092919050505090503460056000828254019250508190555080600554141515610e2057600080fd5b60036004811115610e2d57fe5b600960009054906101000a900460ff166004811115610e4857fe5b101515610e5457600080fd5b42600781905550806006541015610ed4576002600960006101000a81548160ff02191690836004811115610e8457fe5b02179055507fba8db766b5582c21593909b57af48297714ea2c508bfff6c537ce36bb853e568600160405180826001811115610ebc57fe5b60ff16815260200191505060405180910390a1610ede565b610edd8161145c565b5b50565b600a5481565b60085481565b6000600460009054906101000a900473ffffffffffffffffffffffffffffffffffffffff1673ffffffffffffffffffffffffffffffffffffffff163373ffffffffffffffffffffffffffffffffffffffff16141515610f4b57600080fd5b6000809054906101000a900473ffffffffffffffffffffffffffffffffffffffff1673ffffffffffffffffffffffffffffffffffffffff1663f7434ea960016040518263ffffffff167c0100000000000000000000000000000000000000000000000000000000028152600401808060200182810382528381815460018160011615610100020316600290048152602001915080546001816001161561010002031660029004801561103e5780601f106110135761010080835404028352916020019161103e565b820191906000526020600020905b81548152906001019060200180831161102157829003601f168201915b505092505050602060405180830381600087803b15801561105e57600080fd5b505af1158015611072573d6000803e3d6000fd5b505050506040513d602081101561108857600080fd5b8101908080519060200190929190505050905034600660008282540192505081905550806006541415156110bb57600080fd5b600360048111156110c857fe5b600960009054906101000a900460ff1660048111156110e357fe5b1015156110ef57600080fd5b4260078190555080600554101561116f576001600960006101000a81548160ff0219169083600481111561111f57fe5b02179055507fba8db766b5582c21593909b57af48297714ea2c508bfff6c537ce36bb853e56860006040518082600181111561115757fe5b60ff16815260200191505060405180910390a1611179565b6111788161145c565b5b50565b600360009054906101000a900473ffffffffffffffffffffffffffffffffffffffff1673ffffffffffffffffffffffffffffffffffffffff163373ffffffffffffffffffffffffffffffffffffffff1614806112255750600460009054906101000a900473ffffffffffffffffffffffffffffffffffffffff1673ffffffffffffffffffffffffffffffffffffffff163373ffffffffffffffffffffffffffffffffffffffff16145b151561123057600080fd5b6003600481111561123d57fe5b600960009054906101000a900460ff16600481111561125857fe5b1015151561126557600080fd5b6008546000809054906101000a900473ffffffffffffffffffffffffffffffffffffffff1673ffffffffffffffffffffffffffffffffffffffff167fdccf2f8b2cc26eafcd61905cba744cff4b81d14740725f6376390dc6298a6a3c3384604051808373ffffffffffffffffffffffffffffffffffffffff1673ffffffffffffffffffffffffffffffffffffffff16815260200180602001828103825283818151815260200191508051906020019080838360005b8381101561133557808201518184015260208101905061131a565b50505050905090810190601f1680156113625780820380516001836020036101000a031916815260200191505b50935050505060405180910390a350565b61137d82826116f0565b600160ff168114156113e857600360009054906101000a900473ffffffffffffffffffffffffffffffffffffffff1673ffffffffffffffffffffffffffffffffffffffff166108fc600a549081150290604051600060405180830381858888f1935050505050611450565b600260ff1681141561144f57600460009054906101000a900473ffffffffffffffffffffffffffffffffffffffff1673ffffffffffffffffffffffffffffffffffffffff166108fc600a549081150290604051600060405180830381858888f19350505050505b5b6000600a819055505050565b6003600960006101000a81548160ff0219169083600481111561147b57fe5b02179055506000809054906101000a900473ffffffffffffffffffffffffffffffffffffffff1673ffffffffffffffffffffffffffffffffffffffff1663c13517e182600260016040518463ffffffff167c0100000000000000000000000000000000000000000000000000000000028152600401808360ff1681526020018060200182810382528381815460018160011615610100020316600290048152602001915080546001816001161561010002031660029004801561157f5780601f106115545761010080835404028352916020019161157f565b820191906000526020600020905b81548152906001019060200180831161156257829003601f168201915b505093505050506020604051808303818588803b15801561159f57600080fd5b505af11580156115b3573d6000803e3d6000fd5b50505050506040513d60208110156115ca57600080fd5b81019080805190602001909291905050506008819055506008546000809054906101000a900473ffffffffffffffffffffffffffffffffffffffff1673ffffffffffffffffffffffffffffffffffffffff167f775071bee3f2d409883bcb9dfcef6befa9343668ab341f76fcc5817b52a126116040805190810160405280601981526020017f506172747920412077696e733b506172747920422077696e73000000000000008152506040518080602001828103825283818151815260200191508051906020019080838360005b838110156116b3578082015181840152602081019050611698565b50505050905090810190601f1680156116e05780820380516001836020036101000a031916815260200191505b509250505060405180910390a350565b6008548214151561170057600080fd5b600260ff16811115151561171357600080fd5b600160ff1681141561179257600360009054906101000a900473ffffffffffffffffffffffffffffffffffffffff1673ffffffffffffffffffffffffffffffffffffffff166108fc6006546005541161176e57600654611772565b6005545b9081150290604051600060405180830381858888f193505050505061180e565b600260ff1681141561180d57600460009054906101000a900473ffffffffffffffffffffffffffffffffffffffff1673ffffffffffffffffffffffffffffffffffffffff166108fc600654600554116117ed576006546117f1565b6005545b9081150290604051600060405180830381858888f19350505050505b5b6004600960006101000a81548160ff0219169083600481111561182d57fe5b021790555050505600a165627a7a72305820441a3cf29cbcb54d82b6434f58cec27e4d2e17ceff3b6850b0c04099632e6a650029",
  "source": "/**\n *  @title Arbitrable Transaction\n *  @author Clément Lesaege - <clement@lesaege.com>\n *  Bug Bounties: This code hasn't undertaken a bug bounty program yet.\n */\n\n\npragma solidity ^0.4.15;\nimport \"./TwoPartyArbitrable.sol\";\n\n/** @title Arbitrable Transaction\n *  This is a a contract for an arbitrated transaction which can be reversed by the arbitrator.\n *  This can be used for buying goods, services and for paying freelancers.\n *  Party A is the payer. Party B is the payee.\n */\n contract ArbitrableTransaction is TwoPartyArbitrable {\n    string constant RULING_OPTIONS = \"Reimburse partyA;Pay partyB\";\n    \n    uint public amount; // Amount sent by party A.\n    \n    \n    /** @dev Constructor. Choose the arbitrator. Should be called by party A (the payer).\n     *  @param _arbitrator The arbitrator of the contract.\n     *  @param _hashContract Keccak hash of the plain English contract.\n     *  @param _timeout Time after which a party automatically loose a dispute.\n     *  @param _partyB The recipient of the transaction.\n     *  @param _arbitratorExtraData Extra data for the arbitrator.\n     */\n    function ArbitrableTransaction(Arbitrator _arbitrator, bytes32 _hashContract, uint _timeout, address _partyB, bytes _arbitratorExtraData) TwoPartyArbitrable(_arbitrator,_hashContract,_timeout,_partyB,_arbitratorExtraData) payable {\n        amount+=msg.value;\n    }\n\n    /** @dev Pay the party B. To be called when the good is delivered or the service rendered.\n     */\n    function pay() onlyPartyA {\n        partyB.transfer(amount);\n        amount=0;\n    }\n    \n    /** @dev Reimburse party A. To be called if the good or service can't be fully provided.\n     *  @param _amountReimbursed Amount to reimburse in wei.\n     */\n    function reimburse(uint _amountReimbursed) onlyPartyB {\n        require(_amountReimbursed<=amount);\n        partyA.transfer(_amountReimbursed);\n        amount-=_amountReimbursed;\n    }\n    \n    /** @dev Execute a ruling of a dispute. It reimburse the fee to the winning party.\n     *  This need to be extended by contract inheriting from it.\n     *  @param _disputeID ID of the dispute in the Arbitrator contract.\n     *  @param _ruling Ruling given by the arbitrator. 1 : Reimburse the partyA. 2 : Pay the partyB.\n     */\n    function executeRuling(uint _disputeID, uint _ruling) internal {\n        super.executeRuling(_disputeID,_ruling);\n        if (_ruling==PARTY_A_WINS)\n            partyA.send(amount);\n        else if (_ruling==PARTY_B_WINS)\n            partyB.send(amount);\n            \n        amount=0;\n    }\n    \n    \n }\n \n",
  "sourcePath": "/Users/epiqueras/Work/kleros/kleros-interaction/contracts/standard/arbitration/ArbitrableTransaction.sol",
  "compiler": {
    "name": "solc",
    "version": "0.4.23+commit.124ca40d.Emscripten.clang"
  },
  "schemaVersion": "2.0.0",
  "updatedAt": "2018-06-26T20:15:53.346Z"
}