{
  "contractName": "ArbitrablePermissionList",
  "abi": [
    {
      "constant": true,
      "inputs": [],
      "name": "timeToChallenge",
      "outputs": [
        {
          "name": "",
          "type": "uint256"
        }
      ],
      "payable": false,
      "stateMutability": "view",
      "type": "function"
    },
    {
      "constant": true,
      "inputs": [],
      "name": "arbitratorExtraData",
      "outputs": [
        {
          "name": "",
          "type": "bytes"
        }
      ],
      "payable": false,
      "stateMutability": "view",
      "type": "function"
    },
    {
      "constant": false,
      "inputs": [
        {
          "name": "_disputeID",
          "type": "uint256"
        },
        {
          "name": "_ruling",
          "type": "uint256"
        }
      ],
      "name": "rule",
      "outputs": [],
      "payable": false,
      "stateMutability": "nonpayable",
      "type": "function"
    },
    {
      "constant": true,
      "inputs": [],
      "name": "stake",
      "outputs": [
        {
          "name": "",
          "type": "uint256"
        }
      ],
      "payable": false,
      "stateMutability": "view",
      "type": "function"
    },
    {
      "constant": true,
      "inputs": [
        {
          "name": "",
          "type": "uint256"
        }
      ],
      "name": "disputeIDToItem",
      "outputs": [
        {
          "name": "",
          "type": "bytes32"
        }
      ],
      "payable": false,
      "stateMutability": "view",
      "type": "function"
    },
    {
      "constant": true,
      "inputs": [
        {
          "name": "",
          "type": "bytes32"
        }
      ],
      "name": "items",
      "outputs": [
        {
          "name": "status",
          "type": "uint8"
        },
        {
          "name": "lastAction",
          "type": "uint256"
        },
        {
          "name": "submitter",
          "type": "address"
        },
        {
          "name": "challenger",
          "type": "address"
        },
        {
          "name": "balance",
          "type": "uint256"
        },
        {
          "name": "disputed",
          "type": "bool"
        },
        {
          "name": "disputeID",
          "type": "uint256"
        }
      ],
      "payable": false,
      "stateMutability": "view",
      "type": "function"
    },
    {
      "constant": true,
      "inputs": [],
      "name": "arbitrator",
      "outputs": [
        {
          "name": "",
          "type": "address"
        }
      ],
      "payable": false,
      "stateMutability": "view",
      "type": "function"
    },
    {
      "constant": true,
      "inputs": [
        {
          "name": "",
          "type": "uint256"
        }
      ],
      "name": "itemsList",
      "outputs": [
        {
          "name": "",
          "type": "bytes32"
        }
      ],
      "payable": false,
      "stateMutability": "view",
      "type": "function"
    },
    {
      "inputs": [
        {
          "name": "_contractHash",
          "type": "bytes32"
        },
        {
          "name": "_blacklist",
          "type": "bool"
        },
        {
          "name": "_appendOnly",
          "type": "bool"
        },
        {
          "name": "_arbitrator",
          "type": "address"
        },
        {
          "name": "_arbitratorExtraData",
          "type": "bytes"
        },
        {
          "name": "_stake",
          "type": "uint256"
        },
        {
          "name": "_timeToChallenge",
          "type": "uint256"
        }
      ],
      "payable": false,
      "stateMutability": "nonpayable",
      "type": "constructor"
    },
    {
      "anonymous": false,
      "inputs": [
        {
          "indexed": true,
          "name": "_value",
          "type": "bytes32"
        },
        {
          "indexed": false,
          "name": "_newStatus",
          "type": "uint8"
        },
        {
          "indexed": false,
          "name": "_newDisputed",
          "type": "bool"
        }
      ],
      "name": "ItemStatusChange",
      "type": "event"
    },
    {
      "anonymous": false,
      "inputs": [
        {
          "indexed": true,
          "name": "_arbitrator",
          "type": "address"
        },
        {
          "indexed": true,
          "name": "_disputeID",
          "type": "uint256"
        },
        {
          "indexed": false,
          "name": "_rulingOptions",
          "type": "string"
        }
      ],
      "name": "Dispute",
      "type": "event"
    },
    {
      "anonymous": false,
      "inputs": [
        {
          "indexed": true,
          "name": "_arbitrator",
          "type": "address"
        },
        {
          "indexed": true,
          "name": "_disputeID",
          "type": "uint256"
        },
        {
          "indexed": false,
          "name": "_ruling",
          "type": "uint256"
        }
      ],
      "name": "Ruling",
      "type": "event"
    },
    {
      "anonymous": false,
      "inputs": [
        {
          "indexed": true,
          "name": "_arbitrator",
          "type": "address"
        },
        {
          "indexed": true,
          "name": "_disputeID",
          "type": "uint256"
        },
        {
          "indexed": false,
          "name": "_party",
          "type": "address"
        },
        {
          "indexed": false,
          "name": "_evidence",
          "type": "string"
        }
      ],
      "name": "Evidence",
      "type": "event"
    },
    {
      "anonymous": false,
      "inputs": [
        {
          "indexed": false,
          "name": "_contractHash",
          "type": "bytes32"
        }
      ],
      "name": "ContractHash",
      "type": "event"
    },
    {
      "constant": false,
      "inputs": [
        {
          "name": "_value",
          "type": "bytes32"
        }
      ],
      "name": "requestRegistering",
      "outputs": [],
      "payable": true,
      "stateMutability": "payable",
      "type": "function"
    },
    {
      "constant": false,
      "inputs": [
        {
          "name": "_value",
          "type": "bytes32"
        }
      ],
      "name": "requestClearing",
      "outputs": [],
      "payable": true,
      "stateMutability": "payable",
      "type": "function"
    },
    {
      "constant": false,
      "inputs": [
        {
          "name": "_value",
          "type": "bytes32"
        }
      ],
      "name": "challengeRegistering",
      "outputs": [],
      "payable": true,
      "stateMutability": "payable",
      "type": "function"
    },
    {
      "constant": false,
      "inputs": [
        {
          "name": "_value",
          "type": "bytes32"
        }
      ],
      "name": "challengeClearing",
      "outputs": [],
      "payable": true,
      "stateMutability": "payable",
      "type": "function"
    },
    {
      "constant": false,
      "inputs": [
        {
          "name": "_value",
          "type": "bytes32"
        }
      ],
      "name": "appeal",
      "outputs": [],
      "payable": true,
      "stateMutability": "payable",
      "type": "function"
    },
    {
      "constant": false,
      "inputs": [
        {
          "name": "_value",
          "type": "bytes32"
        }
      ],
      "name": "executeRequest",
      "outputs": [],
      "payable": false,
      "stateMutability": "nonpayable",
      "type": "function"
    },
    {
      "constant": true,
      "inputs": [
        {
          "name": "_value",
          "type": "bytes32"
        }
      ],
      "name": "isPermitted",
      "outputs": [
        {
          "name": "allowed",
          "type": "bool"
        }
      ],
      "payable": false,
      "stateMutability": "view",
      "type": "function"
    },
    {
      "constant": true,
      "inputs": [],
      "name": "itemsCount",
      "outputs": [
        {
          "name": "count",
          "type": "uint256"
        }
      ],
      "payable": false,
      "stateMutability": "view",
      "type": "function"
    },
    {
      "constant": true,
      "inputs": [
        {
          "name": "_cursor",
          "type": "bytes32"
        },
        {
          "name": "_count",
          "type": "uint256"
        },
        {
          "name": "_filter",
          "type": "bool[6]"
        },
        {
          "name": "_sort",
          "type": "bool"
        }
      ],
      "name": "queryItems",
      "outputs": [
        {
          "name": "values",
          "type": "bytes32[]"
        },
        {
          "name": "hasMore",
          "type": "bool"
        }
      ],
      "payable": false,
      "stateMutability": "view",
      "type": "function"
    }
  ],
  "bytecode": "0x60806040523480156200001157600080fd5b5060405162002ac638038062002ac683398101806040528101908080519060200190929190805190602001909291908051906020019092919080519060200190929190805182019291906020018051906020019092919080519060200190929190505050838388826000806101000a81548173ffffffffffffffffffffffffffffffffffffffff021916908373ffffffffffffffffffffffffffffffffffffffff1602179055508160019080519060200190620000d0929190620001bb565b507f1892820d22f2ab2b60795935d39550f42562bf8862a0b3c2193b095baa40af218160405180826000191660001916815260200191505060405180910390a150505085600260006101000a81548160ff02191690831515021790555084600260016101000a81548160ff021916908315150217905550836002806101000a81548173ffffffffffffffffffffffffffffffffffffffff021916908373ffffffffffffffffffffffffffffffffffffffff16021790555082600390805190602001906200019f929190620001bb565b508160048190555080600581905550505050505050506200026a565b828054600181600116156101000203166002900490600052602060002090601f016020900481019282601f10620001fe57805160ff19168380011785556200022f565b828001600101855582156200022f579182015b828111156200022e57825182559160200191906001019062000211565b5b5090506200023e919062000242565b5090565b6200026791905b808211156200026357600081600090555060010162000249565b5090565b90565b61284c806200027a6000396000f3006080604052600436106100f1576000357c0100000000000000000000000000000000000000000000000000000000900463ffffffff1680630689d0ff146100f65780630c7ac7b614610121578063311a6c56146101b1578063342d9a04146101e85780633a4b66f11461020c578063409c88281461023757806348f343f3146102805780636cc6cde1146103595780638e604b1d146103b057806393519d6614610486578063beabdb7b146104aa578063c2bd9d95146104f3578063e2c03ace1461053c578063e5217ebc14610567578063e9c241661461058b578063ece1de44146105bc578063fce80654146105e0575b600080fd5b34801561010257600080fd5b5061010b610604565b6040518082815260200191505060405180910390f35b34801561012d57600080fd5b5061013661060a565b6040518080602001828103825283818151815260200191508051906020019080838360005b8381101561017657808201518184015260208101905061015b565b50505050905090810190601f1680156101a35780820380516001836020036101000a031916815260200191505b509250505060405180910390f35b3480156101bd57600080fd5b506101e660048036038101908080359060200190929190803590602001909291905050506106a8565b005b61020a6004803603810190808035600019169060200190929190505050610760565b005b34801561021857600080fd5b50610221610d26565b6040518082815260200191505060405180910390f35b34801561024357600080fd5b5061026260048036038101908080359060200190929190505050610d2c565b60405180826000191660001916815260200191505060405180910390f35b34801561028c57600080fd5b506102af6004803603810190808035600019169060200190929190505050610d44565b604051808860068111156102bf57fe5b60ff1681526020018781526020018673ffffffffffffffffffffffffffffffffffffffff1673ffffffffffffffffffffffffffffffffffffffff1681526020018573ffffffffffffffffffffffffffffffffffffffff1673ffffffffffffffffffffffffffffffffffffffff1681526020018481526020018315151515815260200182815260200197505050505050505060405180910390f35b34801561036557600080fd5b5061036e610de0565b604051808273ffffffffffffffffffffffffffffffffffffffff1673ffffffffffffffffffffffffffffffffffffffff16815260200191505060405180910390f35b3480156103bc57600080fd5b506104246004803603810190808035600019169060200190929190803590602001909291908060c00190600680602002604051908101604052809291908260066020028082843782019150505050509192919290803515159060200190929190505050610e05565b604051808060200183151515158152602001828103825284818151815260200191508051906020019060200280838360005b83811015610471578082015181840152602081019050610456565b50505050905001935050505060405180910390f35b6104a86004803603810190808035600019169060200190929190505050611296565b005b3480156104b657600080fd5b506104d960048036038101908080356000191690602001909291905050506115cc565b604051808215151515815260200191505060405180910390f35b3480156104ff57600080fd5b5061051e6004803603810190808035906020019092919050505061168e565b60405180826000191660001916815260200191505060405180910390f35b34801561054857600080fd5b506105516116b1565b6040518082815260200191505060405180910390f35b61058960048036038101908080356000191690602001909291905050506116be565b005b34801561059757600080fd5b506105ba6004803603810190808035600019169060200190929190505050611c85565b005b6105de6004803603810190808035600019169060200190929190505050611eb4565b005b610602600480360381019080803560001916906020019092919050505061200f565b005b60055481565b60038054600181600116156101000203166002900480601f0160208091040260200160405190810160405280929190818152602001828054600181600116156101000203166002900480156106a05780601f10610675576101008083540402835291602001916106a0565b820191906000526020600020905b81548152906001019060200180831161068357829003601f168201915b505050505081565b6000809054906101000a900473ffffffffffffffffffffffffffffffffffffffff1673ffffffffffffffffffffffffffffffffffffffff163373ffffffffffffffffffffffffffffffffffffffff1614151561070357600080fd5b813373ffffffffffffffffffffffffffffffffffffffff167f394027a5fa6e098a1191094d1719d6929b9abc535fcc0c8f448d6a4e75622276836040518082815260200191505060405180910390a361075c8282612369565b5050565b60008060066000846000191660001916815260200190815260200160002091506002809054906101000a900473ffffffffffffffffffffffffffffffffffffffff1673ffffffffffffffffffffffffffffffffffffffff1663f7434ea960036040518263ffffffff167c010000000000000000000000000000000000000000000000000000000002815260040180806020018281038252838181546001816001161561010002031660029004815260200191508054600181600116156101000203166002900480156108735780601f1061084857610100808354040283529160200191610873565b820191906000526020600020905b81548152906001019060200180831161085657829003601f168201915b505092505050602060405180830381600087803b15801561089357600080fd5b505af11580156108a7573d6000803e3d6000fd5b505050506040513d60208110156108bd57600080fd5b81019080805190602001909291905050509050806004540134101515156108e357600080fd5b600560068111156108f057fe5b8260000160009054906101000a900460ff16600681111561090d57fe5b148061093f575060068081111561092057fe5b8260000160009054906101000a900460ff16600681111561093d57fe5b145b151561094a57600080fd5b8160050160009054906101000a900460ff1615151561096857600080fd5b808260040154101515610b6e57338260030160006101000a81548173ffffffffffffffffffffffffffffffffffffffff021916908373ffffffffffffffffffffffffffffffffffffffff160217905550803403826004016000828254019250508190555060018260050160006101000a81548160ff0219169083151502179055506002809054906101000a900473ffffffffffffffffffffffffffffffffffffffff1673ffffffffffffffffffffffffffffffffffffffff1663c13517e182600260036040518463ffffffff167c01000000000000000000000000000000000000000000000000000000000281526004018083815260200180602001828103825283818154600181600116156101000203166002900481526020019150805460018160011615610100020316600290048015610ae55780601f10610aba57610100808354040283529160200191610ae5565b820191906000526020600020905b815481529060010190602001808311610ac857829003601f168201915b505093505050506020604051808303818588803b158015610b0557600080fd5b505af1158015610b19573d6000803e3d6000fd5b50505050506040513d6020811015610b3057600080fd5b810190808051906020019092919050505082600601819055508260076000846006015481526020019081526020016000208160001916905550610ca0565b60056006811115610b7b57fe5b8260000160009054906101000a900460ff166006811115610b9857fe5b1415610bc95760038260000160006101000a81548160ff02191690836006811115610bbf57fe5b0217905550610bf0565b60008260000160006101000a81548160ff02191690836006811115610bea57fe5b02179055505b8160020160009054906101000a900473ffffffffffffffffffffffffffffffffffffffff1673ffffffffffffffffffffffffffffffffffffffff166108fc83600401549081150290604051600060405180830381858888f1935050505050600082600401819055503373ffffffffffffffffffffffffffffffffffffffff166108fc349081150290604051600060405180830381858888f19350505050158015610c9e573d6000803e3d6000fd5b505b42826001018190555082600019167fcfec32a0a4c9252b74de54ca8c7380c65a582e10ee68c0789e0d2d57d1ce39658360000160009054906101000a900460ff168460050160009054906101000a900460ff1660405180836006811115610d0357fe5b60ff168152602001821515151581526020019250505060405180910390a2505050565b60045481565b60076020528060005260406000206000915090505481565b60066020528060005260406000206000915090508060000160009054906101000a900460ff16908060010154908060020160009054906101000a900473ffffffffffffffffffffffffffffffffffffffff16908060030160009054906101000a900473ffffffffffffffffffffffffffffffffffffffff16908060040154908060050160009054906101000a900460ff16908060060154905087565b6002809054906101000a900473ffffffffffffffffffffffffffffffffffffffff1681565b606060008060008060008089604051908082528060200260200182016040528015610e3f5781602001602082028038833980820191505090505b5096506000935060006001028b600019161415610e5f5760009450610ec0565b600092505b600880549050831015610eaf578a60001916600884815481101515610e8557fe5b9060005260206000200154600019161415610ea257829450610eaf565b8280600101935050610e64565b60008514151515610ebf57600080fd5b5b60008514610ee75787610edd576001856008805490500301610ee2565b600185015b610efa565b87610ef3576001610ef6565b60005b60ff165b91505b87610f1057600880549050821115610f19565b60088054905082105b15611288576006600060088a610f36578460088054905003610f38565b845b815481101515610f4457fe5b906000526020600020015460001916600019168152602001908152602001600020905060006006811115610f7457fe5b8160000160009054906101000a900460ff166006811115610f9157fe5b14158015610fc65750600680811115610fa657fe5b8160000160009054906101000a900460ff166006811115610fc357fe5b14155b80156112045750886000600681101515610fdc57fe5b60200201518015611046575060026006811115610ff557fe5b8160000160009054906101000a900460ff16600681111561101257fe5b148061104557506004600681111561102657fe5b8160000160009054906101000a900460ff16600681111561104357fe5b145b5b8061107b575088600160068110151561105b57fe5b6020020151801561107a57508060050160009054906101000a900460ff165b5b806110c9575088600260068110151561109057fe5b602002015180156110c85750600360068111156110a957fe5b8160000160009054906101000a900460ff1660068111156110c657fe5b145b5b8061111757508860036006811015156110de57fe5b602002015180156111165750600160068111156110f757fe5b8160000160009054906101000a900460ff16600681111561111457fe5b145b5b8061118d575088600460068110151561112c57fe5b6020020151801561118c57503373ffffffffffffffffffffffffffffffffffffffff168160020160009054906101000a900473ffffffffffffffffffffffffffffffffffffffff1673ffffffffffffffffffffffffffffffffffffffff16145b5b8061120357508860056006811015156111a257fe5b6020020151801561120257503373ffffffffffffffffffffffffffffffffffffffff168160030160009054906101000a900473ffffffffffffffffffffffffffffffffffffffff1673ffffffffffffffffffffffffffffffffffffffff16145b5b5b1561127b578984101561127157600888611225578260088054905003611227565b825b81548110151561123357fe5b9060005260206000200154878581518110151561124c57fe5b906020019060200201906000191690816000191681525050838060010194505061127a565b60019550611288565b5b8180600101925050610efd565b505050505094509492505050565b60008060066000846000191660001916815260200190815260200160002091506002809054906101000a900473ffffffffffffffffffffffffffffffffffffffff1673ffffffffffffffffffffffffffffffffffffffff1663f7434ea960036040518263ffffffff167c010000000000000000000000000000000000000000000000000000000002815260040180806020018281038252838181546001816001161561010002031660029004815260200191508054600181600116156101000203166002900480156113a95780601f1061137e576101008083540402835291602001916113a9565b820191906000526020600020905b81548152906001019060200180831161138c57829003601f168201915b505092505050602060405180830381600087803b1580156113c957600080fd5b505af11580156113dd573d6000803e3d6000fd5b505050506040513d60208110156113f357600080fd5b81019080805190602001909291905050509050600260019054906101000a900460ff1615151561142257600080fd5b8060045401341015151561143557600080fd5b6003600681111561144257fe5b8260000160009054906101000a900460ff16600681111561145f57fe5b14156114905760058260000160006101000a81548160ff0219169083600681111561148657fe5b02179055506114f1565b6000600681111561149d57fe5b8260000160009054906101000a900460ff1660068111156114ba57fe5b14156114eb5760068260000160006101000a81548160ff021916908360068111156114e157fe5b02179055506114f0565b600080fd5b5b338260020160006101000a81548173ffffffffffffffffffffffffffffffffffffffff021916908373ffffffffffffffffffffffffffffffffffffffff16021790555034826004016000828254019250508190555042826001018190555082600019167fcfec32a0a4c9252b74de54ca8c7380c65a582e10ee68c0789e0d2d57d1ce39658360000160009054906101000a900460ff168460050160009054906101000a900460ff16604051808360068111156115a957fe5b60ff168152602001821515151581526020019250505060405180910390a2505050565b60008060006006600085600019166000191681526020019081526020016000209150600260068111156115fb57fe5b8260000160009054906101000a900460ff16600681111561161857fe5b111580611666575060068081111561162c57fe5b8260000160009054906101000a900460ff16600681111561164957fe5b14801561166557508160050160009054906101000a900460ff16155b5b9050600260009054906101000a900460ff166116825780611685565b80155b92505050919050565b60088181548110151561169d57fe5b906000526020600020016000915090505481565b6000600880549050905090565b60008060066000846000191660001916815260200190815260200160002091506002809054906101000a900473ffffffffffffffffffffffffffffffffffffffff1673ffffffffffffffffffffffffffffffffffffffff1663f7434ea960036040518263ffffffff167c010000000000000000000000000000000000000000000000000000000002815260040180806020018281038252838181546001816001161561010002031660029004815260200191508054600181600116156101000203166002900480156117d15780601f106117a6576101008083540402835291602001916117d1565b820191906000526020600020905b8154815290600101906020018083116117b457829003601f168201915b505092505050602060405180830381600087803b1580156117f157600080fd5b505af1158015611805573d6000803e3d6000fd5b505050506040513d602081101561181b57600080fd5b810190808051906020019092919050505090508060045401341015151561184157600080fd5b6002600681111561184e57fe5b8260000160009054906101000a900460ff16600681111561186b57fe5b148061189e57506004600681111561187f57fe5b8260000160009054906101000a900460ff16600681111561189c57fe5b145b15156118a957600080fd5b8160050160009054906101000a900460ff161515156118c757600080fd5b808260040154101515611acd57338260030160006101000a81548173ffffffffffffffffffffffffffffffffffffffff021916908373ffffffffffffffffffffffffffffffffffffffff160217905550803403826004016000828254019250508190555060018260050160006101000a81548160ff0219169083151502179055506002809054906101000a900473ffffffffffffffffffffffffffffffffffffffff1673ffffffffffffffffffffffffffffffffffffffff1663c13517e182600260036040518463ffffffff167c01000000000000000000000000000000000000000000000000000000000281526004018083815260200180602001828103825283818154600181600116156101000203166002900481526020019150805460018160011615610100020316600290048015611a445780601f10611a1957610100808354040283529160200191611a44565b820191906000526020600020905b815481529060010190602001808311611a2757829003601f168201915b505093505050506020604051808303818588803b158015611a6457600080fd5b505af1158015611a78573d6000803e3d6000fd5b50505050506040513d6020811015611a8f57600080fd5b810190808051906020019092919050505082600601819055508260076000846006015481526020019081526020016000208160001916905550611bff565b60026006811115611ada57fe5b8260000160009054906101000a900460ff166006811115611af757fe5b1415611b285760018260000160006101000a81548160ff02191690836006811115611b1e57fe5b0217905550611b4f565b60008260000160006101000a81548160ff02191690836006811115611b4957fe5b02179055505b8160020160009054906101000a900473ffffffffffffffffffffffffffffffffffffffff1673ffffffffffffffffffffffffffffffffffffffff166108fc83600401549081150290604051600060405180830381858888f1935050505050600082600401819055503373ffffffffffffffffffffffffffffffffffffffff166108fc349081150290604051600060405180830381858888f19350505050158015611bfd573d6000803e3d6000fd5b505b42826001018190555082600019167fcfec32a0a4c9252b74de54ca8c7380c65a582e10ee68c0789e0d2d57d1ce39658360000160009054906101000a900460ff168460050160009054906101000a900460ff1660405180836006811115611c6257fe5b60ff168152602001821515151581526020019250505060405180910390a2505050565b600060066000836000191660001916815260200190815260200160002090506005548160010154420310151515611cbb57600080fd5b60026006811115611cc857fe5b8160000160009054906101000a900460ff166006811115611ce557fe5b1480611d18575060046006811115611cf957fe5b8160000160009054906101000a900460ff166006811115611d1657fe5b145b15611d485760038160000160006101000a81548160ff02191690836006811115611d3e57fe5b0217905550611dda565b60056006811115611d5557fe5b8160000160009054906101000a900460ff166006811115611d7257fe5b1480611da45750600680811115611d8557fe5b8160000160009054906101000a900460ff166006811115611da257fe5b145b15611dd45760018160000160006101000a81548160ff02191690836006811115611dca57fe5b0217905550611dd9565b600080fd5b5b8060020160009054906101000a900473ffffffffffffffffffffffffffffffffffffffff1673ffffffffffffffffffffffffffffffffffffffff166108fc82600401549081150290604051600060405180830381858888f193505050505081600019167fcfec32a0a4c9252b74de54ca8c7380c65a582e10ee68c0789e0d2d57d1ce39658260000160009054906101000a900460ff168360050160009054906101000a900460ff1660405180836006811115611e9257fe5b60ff168152602001821515151581526020019250505060405180910390a25050565b600060066000836000191660001916815260200190815260200160002090506002809054906101000a900473ffffffffffffffffffffffffffffffffffffffff1673ffffffffffffffffffffffffffffffffffffffff166349912f8834836006015460036040518463ffffffff167c01000000000000000000000000000000000000000000000000000000000281526004018083815260200180602001828103825283818154600181600116156101000203166002900481526020019150805460018160011615610100020316600290048015611fd25780601f10611fa757610100808354040283529160200191611fd2565b820191906000526020600020905b815481529060010190602001808311611fb557829003601f168201915b505093505050506000604051808303818588803b158015611ff257600080fd5b505af1158015612006573d6000803e3d6000fd5b50505050505050565b60008060066000846000191660001916815260200190815260200160002091506002809054906101000a900473ffffffffffffffffffffffffffffffffffffffff1673ffffffffffffffffffffffffffffffffffffffff1663f7434ea960036040518263ffffffff167c010000000000000000000000000000000000000000000000000000000002815260040180806020018281038252838181546001816001161561010002031660029004815260200191508054600181600116156101000203166002900480156121225780601f106120f757610100808354040283529160200191612122565b820191906000526020600020905b81548152906001019060200180831161210557829003601f168201915b505092505050602060405180830381600087803b15801561214257600080fd5b505af1158015612156573d6000803e3d6000fd5b505050506040513d602081101561216c57600080fd5b810190808051906020019092919050505090508060045401341015151561219257600080fd5b6000600681111561219f57fe5b8260000160009054906101000a900460ff1660068111156121bc57fe5b14156121ed5760048260000160006101000a81548160ff021916908360068111156121e357fe5b021790555061224e565b600160068111156121fa57fe5b8260000160009054906101000a900460ff16600681111561221757fe5b14156122485760028260000160006101000a81548160ff0219169083600681111561223e57fe5b021790555061224d565b600080fd5b5b60008260010154141561228e5760088390806001815401808255809150509060018203906000526020600020016000909192909190915090600019169055505b338260020160006101000a81548173ffffffffffffffffffffffffffffffffffffffff021916908373ffffffffffffffffffffffffffffffffffffffff16021790555034826004016000828254019250508190555042826001018190555082600019167fcfec32a0a4c9252b74de54ca8c7380c65a582e10ee68c0789e0d2d57d1ce39658360000160009054906101000a900460ff168460050160009054906101000a900460ff166040518083600681111561234657fe5b60ff168152602001821515151581526020019250505060405180910390a2505050565b60006006600060076000868152602001908152602001600020546000191660001916815260200190815260200160002090508060050160009054906101000a900460ff1615156123b857600080fd5b600160ff1682141561251357600260068111156123d157fe5b8160000160009054906101000a900460ff1660068111156123ee57fe5b148061242157506004600681111561240257fe5b8160000160009054906101000a900460ff16600681111561241f57fe5b145b15612489578060020160009054906101000a900473ffffffffffffffffffffffffffffffffffffffff1673ffffffffffffffffffffffffffffffffffffffff166108fc82600401549081150290604051600060405180830381858888f19350505050506124e8565b8060030160009054906101000a900473ffffffffffffffffffffffffffffffffffffffff1673ffffffffffffffffffffffffffffffffffffffff166108fc82600401549081150290604051600060405180830381858888f19350505050505b60038160000160006101000a81548160ff0219169083600681111561250957fe5b0217905550612769565b600260ff1682141561266d5760068081111561252b57fe5b8160000160009054906101000a900460ff16600681111561254857fe5b148061257b57506005600681111561255c57fe5b8160000160009054906101000a900460ff16600681111561257957fe5b145b156125e3578060020160009054906101000a900473ffffffffffffffffffffffffffffffffffffffff1673ffffffffffffffffffffffffffffffffffffffff166108fc82600401549081150290604051600060405180830381858888f1935050505050612642565b8060030160009054906101000a900473ffffffffffffffffffffffffffffffffffffffff1673ffffffffffffffffffffffffffffffffffffffff166108fc82600401549081150290604051600060405180830381858888f19350505050505b60018160000160006101000a81548160ff0219169083600681111561266357fe5b0217905550612768565b60008160000160006101000a81548160ff0219169083600681111561268e57fe5b02179055508060020160009054906101000a900473ffffffffffffffffffffffffffffffffffffffff1673ffffffffffffffffffffffffffffffffffffffff166108fc600283600401548115156126e157fe5b049081150290604051600060405180830381858888f19350505050508060030160009054906101000a900473ffffffffffffffffffffffffffffffffffffffff1673ffffffffffffffffffffffffffffffffffffffff166108fc6002836004015481151561274b57fe5b049081150290604051600060405180830381858888f19350505050505b5b60008160050160006101000a81548160ff021916908315150217905550600081600401819055506007600084815260200190815260200160002054600019167fcfec32a0a4c9252b74de54ca8c7380c65a582e10ee68c0789e0d2d57d1ce39658260000160009054906101000a900460ff168360050160009054906101000a900460ff16604051808360068111156127fd57fe5b60ff168152602001821515151581526020019250505060405180910390a25050505600a165627a7a72305820984921add568e9849426bae8c1a87bb0af31f26da162bbc882fe72aff311ef1b0029",
  "source": " /**\n *  @title Arbitrable Permission List\n *  @author Clment Lesaege - <clement@lesaege.com>\n *  This code hasn't undertaken bug bounty programs yet.\n *  This code requires truffle tests.\n */\n\npragma solidity ^0.4.23;\n\nimport \"../arbitration/Arbitrable.sol\";\nimport \"./PermissionInterface.sol\";\n\n/**\n *  @title Arbitrable Permission List\n *  @dev This is an arbitrator curated registry. Anyone can post an item with a deposit. If no one complains within a defined time period, the item is added to the registry.\n *  Someone can complain and also post a deposit, if, someone does, a dispute is created. The winner of the dispute gets the deposit of the other party and the item is added or removed accordingly.\n *  During the time of the dispute, the item is shown as blacklisted unless it already won a previous dispute. This follows the philosophy that it is better to show the user a warning about a potentially harmless listing than to take the risk of the user being scammed or exposed to inappropriate content without warning.\n *  To make a request, parties have to deposit a stake and the arbitration fees. If the arbitration fees change between the submitter's payment and the challenger's payment, a part of the submitter stake can be used as an arbitration fee deposit.\n *  In case the arbitrator refuses to rule, the item is put in the initial absent status and the balance is split equally between parties.\n */\ncontract ArbitrablePermissionList is PermissionInterface, Arbitrable {\n    /* Enums */\n\n    enum ItemStatus {\n        Absent, // The item has never been submitted.\n        Cleared, // The item has been submitted and the dispute resolution process determined it should not be added or a clearing request has been submitted and not contested.\n        Resubmitted, // The item has been cleared but someone has resubmitted it.\n        Registered, // The item has been submitted and the dispute resolution process determined it should be added or the submission was never contested.\n        Submitted, // The item has been submitted.\n        ClearingRequested, // The item is registered, but someone has requested to remove it.\n        PreventiveClearingRequested // The item has never been registered, but someone asked to clear it preemptively to avoid it being shown as not registered during the dispute resolution process.\n    }\n\n    /* Structs */\n\n    struct Item {\n        ItemStatus status; // Status of the item.\n        uint lastAction; // Time of the last action.\n        address submitter; // Address of the submitter, if any.\n        address challenger; // Address of the challenger, if any.\n        // The total amount of funds to be given to the winner of a potential dispute. Includes stake and reimbursement of arbitration fees.\n        uint balance;\n        bool disputed; // True if a dispute is taking place.\n        uint disputeID; // ID of the dispute, if any.\n    }\n\n    /* Events */\n\n    /**\n     *  @dev Called when the item's status changes or when it is contested/resolved.\n     *  @param _value The value of the item.\n     *  @param _newStatus The new status of the item.\n     *  @param _newDisputed The new disputed state of the item.\n     */\n    event ItemStatusChange(bytes32 indexed _value, ItemStatus _newStatus, bool _newDisputed);\n\n    /* Storage */\n\n    // Settings\n    bool blacklist; // True if the list should function as a blacklist, false if it should function as a whitelist.\n    bool appendOnly; // True if the list should be append only.\n    Arbitrator public arbitrator;\n    bytes public arbitratorExtraData;\n    uint public stake;\n    uint public timeToChallenge;\n\n    // Ruling Options\n    uint8 constant REGISTER = 1;\n    uint8 constant CLEAR = 2;\n    string constant RULING_OPTIONS = \"Register;Clear\";\n\n    // Items\n    mapping(bytes32 => Item) public items;\n    mapping(uint => bytes32) public disputeIDToItem;\n    bytes32[] public itemsList;\n\n    /* Constructor */\n\n    /**\n     *  @dev Constructs the arbitrable permission list and sets the type.\n     *  @param _contractHash Keccak256 hash of the plain contract.\n     *  @param _blacklist True if the list should function as a blacklist, false if it should function as a whitelist.\n     *  @param _appendOnly True if the list should be append only.\n     *  @param _arbitrator The chosen arbitrator.\n     *  @param _arbitratorExtraData Extra data for the arbitrator contract.\n     *  @param _stake The amount in Weis of deposit required for a submission or a challenge.\n     *  @param _timeToChallenge The time in seconds, other parties have to challenge.\n     */\n    function ArbitrablePermissionList(\n        bytes32 _contractHash,\n        bool _blacklist,\n        bool _appendOnly,\n        Arbitrator _arbitrator,\n        bytes _arbitratorExtraData,\n        uint _stake,\n        uint _timeToChallenge) Arbitrable(_arbitrator, _arbitratorExtraData, _contractHash) public {\n        blacklist = _blacklist;\n        appendOnly = _appendOnly;\n        arbitrator = _arbitrator;\n        arbitratorExtraData = _arbitratorExtraData;\n        stake = _stake;\n        timeToChallenge = _timeToChallenge;\n    }\n\n    /* Public */\n\n    /**\n     *  @dev Request an item to be registered.\n     *  @param _value The value of the item to register.\n     */\n    function requestRegistering(bytes32 _value) public payable {\n        Item storage item = items[_value];\n        uint arbitratorCost = arbitrator.arbitrationCost(arbitratorExtraData);\n        require(msg.value >= stake + arbitratorCost);\n\n        if (item.status == ItemStatus.Absent)\n            item.status = ItemStatus.Submitted;\n        else if (item.status == ItemStatus.Cleared)\n            item.status = ItemStatus.Resubmitted;\n        else\n            revert(); // If the item is neither Absent nor Cleared, it is not possible to request registering it.\n\n        if (item.lastAction == 0) itemsList.push(_value);\n\n        item.submitter = msg.sender;\n        item.balance += msg.value;\n        item.lastAction = now;\n\n        emit ItemStatusChange(_value, item.status, item.disputed);\n    }\n\n    /**\n     *  @dev Request an item to be cleared.\n     *  @param _value The value of the item to clear.\n     */\n    function requestClearing(bytes32 _value) public payable {\n        Item storage item = items[_value];\n        uint arbitratorCost = arbitrator.arbitrationCost(arbitratorExtraData);\n        require(!appendOnly);\n        require(msg.value >= stake + arbitratorCost);\n\n        if (item.status == ItemStatus.Registered)\n            item.status = ItemStatus.ClearingRequested;\n        else if (item.status == ItemStatus.Absent)\n            item.status = ItemStatus.PreventiveClearingRequested;\n        else\n            revert(); // If the item is neither Registered nor Absent, it is not possible to request clearing it.\n\n        item.submitter = msg.sender;\n        item.balance += msg.value;\n        item.lastAction = now;\n\n        emit ItemStatusChange(_value, item.status, item.disputed);\n    }\n\n    /**\n     *  @dev Challenge a registering request.\n     *  @param _value The value of the item subject to the registering request.\n     */\n    function challengeRegistering(bytes32 _value) public payable {\n        Item storage item = items[_value];\n        uint arbitratorCost = arbitrator.arbitrationCost(arbitratorExtraData);\n        require(msg.value >= stake + arbitratorCost);\n        require(item.status == ItemStatus.Resubmitted || item.status == ItemStatus.Submitted);\n        require(!item.disputed);\n\n        if (item.balance >= arbitratorCost) { // In the general case, create a dispute.\n            item.challenger = msg.sender;\n            item.balance += msg.value-arbitratorCost;\n            item.disputed = true;\n            item.disputeID = arbitrator.createDispute.value(arbitratorCost)(2,arbitratorExtraData);\n            disputeIDToItem[item.disputeID] = _value;\n        } else { // In the case the arbitration fees increase so much that the deposit of the requester is not high enough. Cancel the request.\n            if (item.status == ItemStatus.Resubmitted)\n                item.status = ItemStatus.Cleared;\n            else\n                item.status = ItemStatus.Absent;\n\n            item.submitter.send(item.balance); // Deliberate use of send in order to not block the contract in case of reverting fallback.\n            item.balance = 0;\n            msg.sender.transfer(msg.value);\n        }\n\n        item.lastAction = now;\n\n        emit ItemStatusChange(_value, item.status, item.disputed);\n    }\n\n    /**\n     *  @dev Challenge a clearing request.\n     *  @param _value The value of the item subject to the clearing request.\n     */\n    function challengeClearing(bytes32 _value) public payable {\n        Item storage item = items[_value];\n        uint arbitratorCost = arbitrator.arbitrationCost(arbitratorExtraData);\n        require(msg.value >= stake + arbitratorCost);\n        require(item.status == ItemStatus.ClearingRequested || item.status == ItemStatus.PreventiveClearingRequested);\n        require(!item.disputed);\n\n        if (item.balance >= arbitratorCost) { // In the general case, create a dispute.\n            item.challenger = msg.sender;\n            item.balance += msg.value-arbitratorCost;\n            item.disputed = true;\n            item.disputeID = arbitrator.createDispute.value(arbitratorCost)(2,arbitratorExtraData);\n            disputeIDToItem[item.disputeID] = _value;\n        } else { // In the case the arbitration fees increase so much that the deposit of the requester is not high enough. Cancel the request.\n            if (item.status == ItemStatus.ClearingRequested)\n                item.status = ItemStatus.Registered;\n            else\n                item.status = ItemStatus.Absent;\n\n            item.submitter.send(item.balance); // Deliberate use of send in order to not block the contract in case of reverting fallback.\n            item.balance = 0;\n            msg.sender.transfer(msg.value);\n        }\n\n        item.lastAction = now;\n\n        emit ItemStatusChange(_value, item.status, item.disputed);\n    }\n\n    /**\n     *  @dev Appeal ruling. Anyone can appeal to prevent a malicious actor from challenging its own submission and loosing on purpose.\n     *  @param _value The value of the item with the dispute to appeal on.\n     */\n    function appeal(bytes32 _value) public payable {\n        Item storage item = items[_value];\n        arbitrator.appeal.value(msg.value)(item.disputeID,arbitratorExtraData); // Appeal, no need to check anything as the arbitrator does it.\n    }\n\n    /**\n     *  @dev Execute a request after the time for challenging it has passed. Can be called by anyone.\n     *  @param _value The value of the item with the request to execute.\n     */\n    function executeRequest(bytes32 _value) public {\n        Item storage item = items[_value];\n        require(now - item.lastAction >= timeToChallenge);\n\n        if (item.status == ItemStatus.Resubmitted || item.status == ItemStatus.Submitted)\n            item.status = ItemStatus.Registered;\n        else if (item.status == ItemStatus.ClearingRequested || item.status == ItemStatus.PreventiveClearingRequested)\n            item.status = ItemStatus.Cleared;\n        else\n            revert();\n\n        item.submitter.send(item.balance); // Deliberate use of send in order to not block the contract in case of reverting fallback.\n\n        emit ItemStatusChange(_value, item.status, item.disputed);\n    }\n\n    /* Public Views */\n\n    /**\n     *  @dev Return true if the item is allowed. We take a conservative approach and return false if the status of the item is contested and it has not won a previous dispute.\n     *  @param _value The value of the item to check.\n     *  @return allowed True if the item is allowed, false otherwise.\n     */\n    function isPermitted(bytes32 _value) public view returns (bool allowed) {\n        Item storage item = items[_value];\n        bool _registered = item.status <= ItemStatus.Resubmitted ||\n            (item.status == ItemStatus.PreventiveClearingRequested && !item.disputed);\n        return blacklist ? !_registered : _registered;\n    }\n\n    /* Internal */\n\n    /**\n     *  @dev Execute the ruling of a dispute.\n     *  @param _disputeID ID of the dispute in the Arbitrator contract.\n     *  @param _ruling Ruling given by the arbitrator. Note that 0 is reserved for \"Not able/wanting to make a decision\".\n     */\n    function executeRuling(uint _disputeID, uint _ruling) internal {\n        Item storage item = items[disputeIDToItem[_disputeID]];\n        require(item.disputed);\n\n        if (_ruling == REGISTER) {\n            if (item.status == ItemStatus.Resubmitted || item.status == ItemStatus.Submitted)\n                item.submitter.send(item.balance); // Deliberate use of send in order to not block the contract in case of reverting fallback.\n            else\n                item.challenger.send(item.balance);\n\n            item.status = ItemStatus.Registered;\n        } else if (_ruling == CLEAR) {\n            if (item.status == ItemStatus.PreventiveClearingRequested || item.status == ItemStatus.ClearingRequested)\n                item.submitter.send(item.balance);\n            else\n                item.challenger.send(item.balance);\n\n            item.status = ItemStatus.Cleared;\n        } else { // Split the balance 50-50 and give the item the initial status.\n            item.status = ItemStatus.Absent;\n            item.submitter.send(item.balance / 2);\n            item.challenger.send(item.balance / 2);\n        }\n\n        item.disputed = false;\n        item.balance = 0;\n\n        emit ItemStatusChange(disputeIDToItem[_disputeID], item.status, item.disputed);\n    }\n\n    /* Interface Views */\n\n    /**\n     *  @dev Return the number of items in the list.\n     *  @return The number of items in the list.\n     */\n    function itemsCount() public view returns (uint count) {\n        count = itemsList.length;\n    }\n\n    /**\n     *  @dev Return the values of the items the query finds.\n     *  This function is O(n) at worst, where n is the number of items. This could exceed the gas limit, therefore this function should only be used for interface display and not by other contracts.\n     *  @param _cursor The pagination cursor.\n     *  @param _count The number of items to return.\n     *  @param _filter The filter to use.\n     *  @param _sort The sort order to use.\n     *  @return The values of the items found and wether there are more items for the current filter and sort.\n     */\n    function queryItems(bytes32 _cursor, uint _count, bool[6] _filter, bool _sort) public view returns (bytes32[] values, bool hasMore) {\n        uint _cursorIndex;\n        values = new bytes32[](_count);\n        uint _index = 0;\n\n        if (_cursor == 0)\n            _cursorIndex = 0;\n        else {\n            for (uint j = 0; j < itemsList.length; j++) {\n                if (itemsList[j] == _cursor) {\n                    _cursorIndex = j;\n                    break;\n                }\n            }\n            require(_cursorIndex != 0);\n        }\n\n        for (\n                uint i = _cursorIndex == 0 ? (_sort ? 0 : 1) : (_sort ? _cursorIndex + 1 : itemsList.length - _cursorIndex + 1);\n                _sort ? i < itemsList.length : i <= itemsList.length;\n                i++\n            ) { // Oldest or newest first\n            Item storage item = items[itemsList[_sort ? i : itemsList.length - i]];\n            if (\n                item.status != ItemStatus.Absent && item.status != ItemStatus.PreventiveClearingRequested && (\n                    (_filter[0] && (item.status == ItemStatus.Resubmitted || item.status == ItemStatus.Submitted)) || // Pending\n                    (_filter[1] && item.disputed) || // Challenged\n                    (_filter[2] && item.status == ItemStatus.Registered) || // Accepted\n                    (_filter[3] && item.status == ItemStatus.Cleared) || // Rejected\n                    (_filter[4] && item.submitter == msg.sender) || // My Submissions\n                    (_filter[5] && item.challenger == msg.sender) // My Challenges\n                )\n            ) {\n                if (_index < _count) {\n                    values[_index] = itemsList[_sort ? i : itemsList.length - i];\n                    _index++;\n                } else {\n                    hasMore = true;\n                    break;\n                }\n            }\n        }\n    }\n}\n",
  "sourcePath": "/Users/epiqueras/Work/kleros/kleros-interaction/contracts/standard/permission/ArbitrablePermissionList.sol",
  "compiler": {
    "name": "solc",
    "version": "0.4.23+commit.124ca40d.Emscripten.clang"
  },
  "schemaVersion": "2.0.0",
  "updatedAt": "2018-07-13T16:46:19.487Z"
}