{
  "contractName": "ArbitrableDeposit",
  "abi": [
    {
      "constant": true,
      "inputs": [],
      "name": "arbitratorExtraData",
      "outputs": [
        {
          "name": "",
          "type": "bytes"
        }
      ],
      "payable": false,
      "stateMutability": "view",
      "type": "function"
    },
    {
      "constant": true,
      "inputs": [],
      "name": "status",
      "outputs": [
        {
          "name": "",
          "type": "uint8"
        }
      ],
      "payable": false,
      "stateMutability": "view",
      "type": "function"
    },
    {
      "constant": true,
      "inputs": [],
      "name": "claimantFee",
      "outputs": [
        {
          "name": "",
          "type": "uint256"
        }
      ],
      "payable": false,
      "stateMutability": "view",
      "type": "function"
    },
    {
      "constant": false,
      "inputs": [
        {
          "name": "_disputeID",
          "type": "uint256"
        },
        {
          "name": "_ruling",
          "type": "uint256"
        }
      ],
      "name": "rule",
      "outputs": [],
      "payable": false,
      "stateMutability": "nonpayable",
      "type": "function"
    },
    {
      "constant": true,
      "inputs": [],
      "name": "arbitrator",
      "outputs": [
        {
          "name": "",
          "type": "address"
        }
      ],
      "payable": false,
      "stateMutability": "view",
      "type": "function"
    },
    {
      "constant": true,
      "inputs": [],
      "name": "timeout",
      "outputs": [
        {
          "name": "",
          "type": "uint256"
        }
      ],
      "payable": false,
      "stateMutability": "view",
      "type": "function"
    },
    {
      "constant": true,
      "inputs": [],
      "name": "claimDepositAmount",
      "outputs": [
        {
          "name": "",
          "type": "uint256"
        }
      ],
      "payable": false,
      "stateMutability": "view",
      "type": "function"
    },
    {
      "constant": true,
      "inputs": [],
      "name": "claimAmount",
      "outputs": [
        {
          "name": "",
          "type": "uint256"
        }
      ],
      "payable": false,
      "stateMutability": "view",
      "type": "function"
    },
    {
      "constant": true,
      "inputs": [],
      "name": "claimRate",
      "outputs": [
        {
          "name": "",
          "type": "uint256"
        }
      ],
      "payable": false,
      "stateMutability": "view",
      "type": "function"
    },
    {
      "constant": true,
      "inputs": [],
      "name": "owner",
      "outputs": [
        {
          "name": "",
          "type": "address"
        }
      ],
      "payable": false,
      "stateMutability": "view",
      "type": "function"
    },
    {
      "constant": true,
      "inputs": [],
      "name": "lastInteraction",
      "outputs": [
        {
          "name": "",
          "type": "uint256"
        }
      ],
      "payable": false,
      "stateMutability": "view",
      "type": "function"
    },
    {
      "constant": true,
      "inputs": [],
      "name": "amount",
      "outputs": [
        {
          "name": "",
          "type": "uint256"
        }
      ],
      "payable": false,
      "stateMutability": "view",
      "type": "function"
    },
    {
      "constant": true,
      "inputs": [],
      "name": "disputeID",
      "outputs": [
        {
          "name": "",
          "type": "uint256"
        }
      ],
      "payable": false,
      "stateMutability": "view",
      "type": "function"
    },
    {
      "constant": true,
      "inputs": [],
      "name": "claimant",
      "outputs": [
        {
          "name": "",
          "type": "address"
        }
      ],
      "payable": false,
      "stateMutability": "view",
      "type": "function"
    },
    {
      "constant": true,
      "inputs": [],
      "name": "ownerFee",
      "outputs": [
        {
          "name": "",
          "type": "uint256"
        }
      ],
      "payable": false,
      "stateMutability": "view",
      "type": "function"
    },
    {
      "inputs": [
        {
          "name": "_arbitrator",
          "type": "address"
        },
        {
          "name": "_timeout",
          "type": "uint256"
        },
        {
          "name": "_arbitratorExtraData",
          "type": "bytes"
        },
        {
          "name": "_claimRate",
          "type": "uint256"
        }
      ],
      "payable": true,
      "stateMutability": "payable",
      "type": "constructor"
    },
    {
      "anonymous": false,
      "inputs": [
        {
          "indexed": false,
          "name": "_party",
          "type": "uint8"
        }
      ],
      "name": "HasToPayFee",
      "type": "event"
    },
    {
      "anonymous": false,
      "inputs": [
        {
          "indexed": true,
          "name": "_arbitrator",
          "type": "address"
        },
        {
          "indexed": true,
          "name": "_disputeID",
          "type": "uint256"
        },
        {
          "indexed": false,
          "name": "_rulingOptions",
          "type": "string"
        }
      ],
      "name": "Dispute",
      "type": "event"
    },
    {
      "anonymous": false,
      "inputs": [
        {
          "indexed": true,
          "name": "_arbitrator",
          "type": "address"
        },
        {
          "indexed": true,
          "name": "_disputeID",
          "type": "uint256"
        },
        {
          "indexed": false,
          "name": "_ruling",
          "type": "uint256"
        }
      ],
      "name": "Ruling",
      "type": "event"
    },
    {
      "anonymous": false,
      "inputs": [
        {
          "indexed": true,
          "name": "_metaEvidenceID",
          "type": "uint256"
        },
        {
          "indexed": false,
          "name": "_evidence",
          "type": "string"
        }
      ],
      "name": "MetaEvidence",
      "type": "event"
    },
    {
      "anonymous": false,
      "inputs": [
        {
          "indexed": true,
          "name": "_arbitrator",
          "type": "address"
        },
        {
          "indexed": true,
          "name": "_disputeID",
          "type": "uint256"
        },
        {
          "indexed": false,
          "name": "_metaEvidenceID",
          "type": "uint256"
        }
      ],
      "name": "LinkMetaEvidence",
      "type": "event"
    },
    {
      "anonymous": false,
      "inputs": [
        {
          "indexed": true,
          "name": "_arbitrator",
          "type": "address"
        },
        {
          "indexed": true,
          "name": "_disputeID",
          "type": "uint256"
        },
        {
          "indexed": false,
          "name": "_party",
          "type": "address"
        },
        {
          "indexed": false,
          "name": "_evidence",
          "type": "string"
        }
      ],
      "name": "Evidence",
      "type": "event"
    },
    {
      "constant": false,
      "inputs": [
        {
          "name": "_amount",
          "type": "uint256"
        }
      ],
      "name": "deposit",
      "outputs": [],
      "payable": false,
      "stateMutability": "nonpayable",
      "type": "function"
    },
    {
      "constant": false,
      "inputs": [
        {
          "name": "_claimAmount",
          "type": "uint256"
        }
      ],
      "name": "makeClaim",
      "outputs": [],
      "payable": false,
      "stateMutability": "nonpayable",
      "type": "function"
    },
    {
      "constant": false,
      "inputs": [
        {
          "name": "_responseAmount",
          "type": "uint256"
        }
      ],
      "name": "claimResponse",
      "outputs": [],
      "payable": false,
      "stateMutability": "nonpayable",
      "type": "function"
    },
    {
      "constant": false,
      "inputs": [],
      "name": "payArbitrationFeeByOwner",
      "outputs": [],
      "payable": true,
      "stateMutability": "payable",
      "type": "function"
    },
    {
      "constant": false,
      "inputs": [],
      "name": "payArbitrationFeeByClaimant",
      "outputs": [],
      "payable": true,
      "stateMutability": "payable",
      "type": "function"
    },
    {
      "constant": false,
      "inputs": [],
      "name": "timeOutByOwner",
      "outputs": [],
      "payable": false,
      "stateMutability": "nonpayable",
      "type": "function"
    },
    {
      "constant": false,
      "inputs": [],
      "name": "timeOutByClaimant",
      "outputs": [],
      "payable": false,
      "stateMutability": "nonpayable",
      "type": "function"
    }
  ],
  "bytecode": "0x6080604052604051620017e3380380620017e3833981018060405281019080805190602001909291908051906020019092919080518201929190602001805190602001909291905050508382816000806101000a81548173ffffffffffffffffffffffffffffffffffffffff021916908373ffffffffffffffffffffffffffffffffffffffff1602179055508060019080519060200190620000a39291906200017e565b5050508260048190555080600b819055506000600e60006101000a81548160ff02191690836004811115620000d457fe5b02179055503460096000828254019250508190555033600260006101000a81548173ffffffffffffffffffffffffffffffffffffffff021916908373ffffffffffffffffffffffffffffffffffffffff1602179055503073ffffffffffffffffffffffffffffffffffffffff166108fc6009549081150290604051600060405180830381858888f1935050505015801562000173573d6000803e3d6000fd5b50505050506200022d565b828054600181600116156101000203166002900490600052602060002090601f016020900481019282601f10620001c157805160ff1916838001178555620001f2565b82800160010185558215620001f2579182015b82811115620001f1578251825591602001919060010190620001d4565b5b50905062000201919062000205565b5090565b6200022a91905b80821115620002265760008160009055506001016200020c565b5090565b90565b6115a6806200023d6000396000f300608060405260043610610128576000357c0100000000000000000000000000000000000000000000000000000000900463ffffffff16806307c665c11461012d5780630c7ac7b6146101445780631077f06c146101d4578063200d2ed2146102015780632e7bb8d21461023a578063311a6c561461026557806360c1f8001461029c57806361aab938146102a65780636cc6cde1146102d357806370dea79a1461032a5780637c10024714610355578063830953ab14610380578063898fdf94146103ab5780638da5cb5b146103d65780638f71a2651461042d578063a243437b14610458578063aa8c217c14610462578063b0a1e2b41461048d578063b6b55f25146104b8578063ce008b9f146104e5578063d28720af146104fc578063d5b2a01a14610553575b600080fd5b34801561013957600080fd5b5061014261057e565b005b34801561015057600080fd5b50610159610635565b6040518080602001828103825283818151815260200191508051906020019080838360005b8381101561019957808201518184015260208101905061017e565b50505050905090810190601f1680156101c65780820380516001836020036101000a031916815260200191505b509250505060405180910390f35b3480156101e057600080fd5b506101ff600480360381019080803590602001909291905050506106d3565b005b34801561020d57600080fd5b5061021661081d565b6040518082600481111561022657fe5b60ff16815260200191505060405180910390f35b34801561024657600080fd5b5061024f610830565b6040518082815260200191505060405180910390f35b34801561027157600080fd5b5061029a6004803603810190808035906020019092919080359060200190929190505050610836565b005b6102a46108ee565b005b3480156102b257600080fd5b506102d160048036038101908080359060200190929190505050610b7d565b005b3480156102df57600080fd5b506102e8610cb6565b604051808273ffffffffffffffffffffffffffffffffffffffff1673ffffffffffffffffffffffffffffffffffffffff16815260200191505060405180910390f35b34801561033657600080fd5b5061033f610cdb565b6040518082815260200191505060405180910390f35b34801561036157600080fd5b5061036a610ce1565b6040518082815260200191505060405180910390f35b34801561038c57600080fd5b50610395610ce7565b6040518082815260200191505060405180910390f35b3480156103b757600080fd5b506103c0610ced565b6040518082815260200191505060405180910390f35b3480156103e257600080fd5b506103eb610cf3565b604051808273ffffffffffffffffffffffffffffffffffffffff1673ffffffffffffffffffffffffffffffffffffffff16815260200191505060405180910390f35b34801561043957600080fd5b50610442610d19565b6040518082815260200191505060405180910390f35b610460610d1f565b005b34801561046e57600080fd5b50610477610fae565b6040518082815260200191505060405180910390f35b34801561049957600080fd5b506104a2610fb4565b6040518082815260200191505060405180910390f35b3480156104c457600080fd5b506104e360048036038101908080359060200190929190505050610fba565b005b3480156104f157600080fd5b506104fa611070565b005b34801561050857600080fd5b50610511611127565b604051808273ffffffffffffffffffffffffffffffffffffffff1673ffffffffffffffffffffffffffffffffffffffff16815260200191505060405180910390f35b34801561055f57600080fd5b5061056861114d565b6040518082815260200191505060405180910390f35b600360009054906101000a900473ffffffffffffffffffffffffffffffffffffffff1673ffffffffffffffffffffffffffffffffffffffff163373ffffffffffffffffffffffffffffffffffffffff161415156105da57600080fd5b600160048111156105e757fe5b600e60009054906101000a900460ff16600481111561060257fe5b14151561060e57600080fd5b60045460075401421015151561062357600080fd5b610633600854600260ff16611153565b565b60018054600181600116156101000203166002900480601f0160208091040260200160405190810160405280929190818152602001828054600181600116156101000203166002900480156106cb5780601f106106a0576101008083540402835291602001916106cb565b820191906000526020600020905b8154815290600101906020018083116106ae57829003601f168201915b505050505081565b600260009054906101000a900473ffffffffffffffffffffffffffffffffffffffff1673ffffffffffffffffffffffffffffffffffffffff163373ffffffffffffffffffffffffffffffffffffffff161415151561073057600080fd5b6000811015801561074357506009548111155b151561074e57600080fd5b33600360006101000a81548173ffffffffffffffffffffffffffffffffffffffff021916908373ffffffffffffffffffffffffffffffffffffffff16021790555080600a819055506064600b5482028115156107a657fe5b04600d819055503073ffffffffffffffffffffffffffffffffffffffff166108fc600d549081150290604051600060405180830381858888f193505050501580156107f5573d6000803e3d6000fd5b506001600e60006101000a81548160ff0219169083600481111561081557fe5b021790555050565b600e60009054906101000a900460ff1681565b60065481565b6000809054906101000a900473ffffffffffffffffffffffffffffffffffffffff1673ffffffffffffffffffffffffffffffffffffffff163373ffffffffffffffffffffffffffffffffffffffff1614151561089157600080fd5b813373ffffffffffffffffffffffffffffffffffffffff167f394027a5fa6e098a1191094d1719d6929b9abc535fcc0c8f448d6a4e75622276836040518082815260200191505060405180910390a36108ea8282611153565b5050565b6000600260009054906101000a900473ffffffffffffffffffffffffffffffffffffffff1673ffffffffffffffffffffffffffffffffffffffff163373ffffffffffffffffffffffffffffffffffffffff1614151561094c57600080fd5b6000809054906101000a900473ffffffffffffffffffffffffffffffffffffffff1673ffffffffffffffffffffffffffffffffffffffff1663f7434ea960016040518263ffffffff167c01000000000000000000000000000000000000000000000000000000000281526004018080602001828103825283818154600181600116156101000203166002900481526020019150805460018160011615610100020316600290048015610a3f5780601f10610a1457610100808354040283529160200191610a3f565b820191906000526020600020905b815481529060010190602001808311610a2257829003601f168201915b505092505050602060405180830381600087803b158015610a5f57600080fd5b505af1158015610a73573d6000803e3d6000fd5b505050506040513d6020811015610a8957600080fd5b810190808051906020019092919050505090503460056000828254019250508190555080600554141515610abc57600080fd5b60036004811115610ac957fe5b600e60009054906101000a900460ff166004811115610ae457fe5b101515610af057600080fd5b42600781905550806006541015610b70576002600e60006101000a81548160ff02191690836004811115610b2057fe5b02179055507fba8db766b5582c21593909b57af48297714ea2c508bfff6c537ce36bb853e568600160405180826001811115610b5857fe5b60ff16815260200191505060405180910390a1610b7a565b610b79816112e6565b5b50565b600260009054906101000a900473ffffffffffffffffffffffffffffffffffffffff1673ffffffffffffffffffffffffffffffffffffffff163373ffffffffffffffffffffffffffffffffffffffff16141515610bd957600080fd5b60008110158015610bec5750600d548111155b1515610bf757600080fd5b80600c81905550600d54811415610caa57600360009054906101000a900473ffffffffffffffffffffffffffffffffffffffff1673ffffffffffffffffffffffffffffffffffffffff166108fc829081150290604051600060405180830381858888f19350505050158015610c70573d6000803e3d6000fd5b506000600a8190555060006009819055506004600e60006101000a81548160ff02191690836004811115610ca057fe5b0217905550610cb3565b610cb26108ee565b5b50565b6000809054906101000a900473ffffffffffffffffffffffffffffffffffffffff1681565b60045481565b600d5481565b600a5481565b600b5481565b600260009054906101000a900473ffffffffffffffffffffffffffffffffffffffff1681565b60075481565b6000600360009054906101000a900473ffffffffffffffffffffffffffffffffffffffff1673ffffffffffffffffffffffffffffffffffffffff163373ffffffffffffffffffffffffffffffffffffffff16141515610d7d57600080fd5b6000809054906101000a900473ffffffffffffffffffffffffffffffffffffffff1673ffffffffffffffffffffffffffffffffffffffff1663f7434ea960016040518263ffffffff167c01000000000000000000000000000000000000000000000000000000000281526004018080602001828103825283818154600181600116156101000203166002900481526020019150805460018160011615610100020316600290048015610e705780601f10610e4557610100808354040283529160200191610e70565b820191906000526020600020905b815481529060010190602001808311610e5357829003601f168201915b505092505050602060405180830381600087803b158015610e9057600080fd5b505af1158015610ea4573d6000803e3d6000fd5b505050506040513d6020811015610eba57600080fd5b810190808051906020019092919050505090503460066000828254019250508190555080600654141515610eed57600080fd5b60036004811115610efa57fe5b600e60009054906101000a900460ff166004811115610f1557fe5b101515610f2157600080fd5b42600781905550806005541015610fa1576001600e60006101000a81548160ff02191690836004811115610f5157fe5b02179055507fba8db766b5582c21593909b57af48297714ea2c508bfff6c537ce36bb853e568600160405180826001811115610f8957fe5b60ff16815260200191505060405180910390a1610fab565b610faa816112e6565b5b50565b60095481565b60085481565b600260009054906101000a900473ffffffffffffffffffffffffffffffffffffffff1673ffffffffffffffffffffffffffffffffffffffff163373ffffffffffffffffffffffffffffffffffffffff1614151561101657600080fd5b806009600082825401925050819055503073ffffffffffffffffffffffffffffffffffffffff166108fc829081150290604051600060405180830381858888f1935050505015801561106c573d6000803e3d6000fd5b5050565b600260009054906101000a900473ffffffffffffffffffffffffffffffffffffffff1673ffffffffffffffffffffffffffffffffffffffff163373ffffffffffffffffffffffffffffffffffffffff161415156110cc57600080fd5b600260048111156110d957fe5b600e60009054906101000a900460ff1660048111156110f457fe5b14151561110057600080fd5b60045460075401421015151561111557600080fd5b611125600854600160ff16611153565b565b600360009054906101000a900473ffffffffffffffffffffffffffffffffffffffff1681565b60055481565b6008548214151561116357600080fd5b600260ff16811115151561117657600080fd5b600160ff1681141561126157600260009054906101000a900473ffffffffffffffffffffffffffffffffffffffff1673ffffffffffffffffffffffffffffffffffffffff166108fc600a54600954019081150290604051600060405180830381858888f193505050501580156111f0573d6000803e3d6000fd5b50600360009054906101000a900473ffffffffffffffffffffffffffffffffffffffff1673ffffffffffffffffffffffffffffffffffffffff166108fc600c549081150290604051600060405180830381858888f1935050505015801561125b573d6000803e3d6000fd5b506112da565b600260ff168114156112d957600360009054906101000a900473ffffffffffffffffffffffffffffffffffffffff1673ffffffffffffffffffffffffffffffffffffffff166108fc6009549081150290604051600060405180830381858888f193505050501580156112d7573d6000803e3d6000fd5b505b5b60006009819055505050565b6003600e60006101000a81548160ff0219169083600481111561130557fe5b02179055506000809054906101000a900473ffffffffffffffffffffffffffffffffffffffff1673ffffffffffffffffffffffffffffffffffffffff1663c13517e182600260016040518463ffffffff167c0100000000000000000000000000000000000000000000000000000000028152600401808360ff168152602001806020018281038252838181546001816001161561010002031660029004815260200191508054600181600116156101000203166002900480156114095780601f106113de57610100808354040283529160200191611409565b820191906000526020600020905b8154815290600101906020018083116113ec57829003601f168201915b505093505050506020604051808303818588803b15801561142957600080fd5b505af115801561143d573d6000803e3d6000fd5b50505050506040513d602081101561145457600080fd5b81019080805190602001909291905050506008819055506008546000809054906101000a900473ffffffffffffffffffffffffffffffffffffffff1673ffffffffffffffffffffffffffffffffffffffff167f775071bee3f2d409883bcb9dfcef6befa9343668ab341f76fcc5817b52a126116040805190810160405280601881526020017f4f776e65722077696e733b436c61696d616e742077696e7300000000000000008152506040518080602001828103825283818151815260200191508051906020019080838360005b8381101561153d578082015181840152602081019050611522565b50505050905090810190601f16801561156a5780820380516001836020036101000a031916815260200191505b509250505060405180910390a3505600a165627a7a723058209820784972f112c20898c6ac2feb49e06136e87f9b20a2ddfb122e58534fc0b60029",
  "source": "/**\n *  @title ArbitrableDeposit\n *  @author Luke Hartman - <lhartman3@zagmail.gonzaga.edu>\n *  Bug Bounties: This code hasn't undertaken a bug bounty program yet.\n */\n\n\npragma solidity ^0.4.15;\nimport \"./Arbitrable.sol\";\n\n\n/** @title Arbitrable Deposit\n *  This is a a contract which allow for an owner deposit. Anyone besides the owner can seek arbitration/file a claim as a claimant.\n * To develop a contract inheriting from this one, you need to:\n *  - Redefine RULING_OPTIONS to explain the consequences of the possible rulings.\n *  - Redefine executeRuling while still calling super.executeRuling to implement the results of the arbitration.\n */\ncontract ArbitrableDeposit is Arbitrable {\n    address public owner;\n    address public claimant;\n    uint public timeout; // Time in seconds a party can take before being considered unresponding and lose the dispute.\n    uint public ownerFee; // Total fees paid by the owner.\n    uint public claimantFee; // Total fees paid by the claimant.\n    uint public lastInteraction; // Last interaction for the dispute procedure.\n    uint public disputeID;\n    uint public amount; // Total amount deposited by owner.\n    uint public claimAmount; // Claim amount a claimant proposes.\n    uint public claimRate; // Rate of a claim the claimant must deposit as an integer.\n    uint internal claimResponseAmount; // Amount which the Owner responds to the claimant's asking claim.\n    uint public claimDepositAmount; // Total amount a claimant must deposit.\n\n    enum Status {NoDispute, WaitingOwner, WaitingClaimant, DisputeCreated, Resolved}\n    Status public status;\n\n    uint8 constant AMOUNT_OF_CHOICES = 2;\n    uint8 constant OWNER_WINS = 1;\n    uint8 constant CLAIMANT_WINS = 2;\n    string constant RULING_OPTIONS = \"Owner wins;Claimant wins\"; // A plain English of what rulings do. Need to be redefined by the child class.\n\n    modifier onlyOwner{ require(msg.sender==address(owner)); _; }\n    modifier onlyNotOwner{ require(msg.sender!=address(owner)); _;}\n    modifier onlyClaimant{ require(msg.sender==address(claimant)); _;}\n\n    enum Party {Owner, Claimant}\n\n    /** @dev Indicate that a party has to pay a fee or would otherwise be considered as loosing.\n     *  @param _party The party who has to pay.\n     */\n    event HasToPayFee(Party _party);\n\n    /** @dev Constructor. Choose the arbitrator\n     *  @param _arbitrator The arbitrator of the contract.\n     *  @param _timeout Time after which a party automatically loose a dispute.\n     *  @param _arbitratorExtraData Extra data for the arbitrator.\n     */\n    constructor(Arbitrator _arbitrator, uint _timeout, bytes _arbitratorExtraData, uint _claimRate) Arbitrable(_arbitrator, _arbitratorExtraData) public payable {\n        timeout = _timeout;\n        claimRate = _claimRate;\n        status = Status.NoDispute;\n        amount += msg.value;\n        owner = msg.sender;\n        address(this).transfer(amount);\n    }\n\n    /** @dev Owner deposit to contract. To be called when the owner makes a deposit.\n     */\n    function deposit(uint _amount) public onlyOwner {\n        amount += _amount;\n        address(this).transfer(_amount);\n    }\n\n    /** @dev File a claim against owner. To be called when someone makes a claim.\n     *  @param _claimAmount The proposed claim amount by the claimant.\n     */\n    function makeClaim(uint _claimAmount) public onlyNotOwner {\n        require(_claimAmount >= 0 && _claimAmount <= amount);\n        claimant = msg.sender;\n        claimAmount = _claimAmount;\n        claimDepositAmount = (_claimAmount * claimRate)/100;\n        address(this).transfer(claimDepositAmount);\n        status = Status.WaitingOwner;\n    }\n\n    /** @dev Owner response to claimant. To be called when the owner initates a\n     *  a response.\n     *  @param _responseAmount The counter-offer amount the Owner proposes to a claimant.\n     */\n    function claimResponse(uint _responseAmount) public onlyOwner {\n        require(_responseAmount >= 0 && _responseAmount <= claimDepositAmount);\n        claimResponseAmount = _responseAmount;\n        if (_responseAmount == claimDepositAmount) {\n            claimant.transfer(_responseAmount);\n            claimAmount = 0;\n            amount = 0;\n            status = Status.Resolved;\n        }  else {\n            payArbitrationFeeByOwner();\n        }\n    }\n\n    /** @dev Pay the arbitration fee to raise a dispute. To be called by the owner. UNTRUSTED.\n     *  Note that the arbitrator can have createDispute throw, which will make this function throw and therefore lead to a party being timed-out.\n     *  This is not a vulnerability as the arbitrator can rule in favor of one party anyway.\n     */\n    function payArbitrationFeeByOwner() public payable onlyOwner{\n        uint arbitrationCost = arbitrator.arbitrationCost(arbitratorExtraData);\n        ownerFee += msg.value;\n        require(ownerFee == arbitrationCost); // Require that the total pay at least the arbitration cost.\n        require(status<Status.DisputeCreated); // Make sure a dispute has not been created yet.\n\n        lastInteraction = now;\n        if (claimantFee < arbitrationCost) { // The claimant still has to pay.\n        // This can also happens if he has paid, but arbitrationCost has increased.\n            status = Status.WaitingClaimant;\n            emit HasToPayFee(Party.Claimant);\n        } else { // The claimant has also paid the fee. We create the dispute\n            raiseDispute(arbitrationCost);\n        }\n    }\n\n    /** @dev Pay the arbitration fee to raise a dispute. To be called by the claimant. UNTRUSTED.\n     *  Note that this function mirror payArbitrationFeeByOwner.\n     */\n    function payArbitrationFeeByClaimant() public payable onlyClaimant {\n        uint arbitrationCost = arbitrator.arbitrationCost(arbitratorExtraData);\n        claimantFee += msg.value;\n        require(claimantFee == arbitrationCost); // Require that the total pay at least the arbitration cost.\n        require(status<Status.DisputeCreated); // Make sure a dispute has not been created yet.\n\n        lastInteraction = now;\n        if (ownerFee < arbitrationCost) { // The owner still has to pay. This can also happens if he has paid, but arbitrationCost has increased.\n            status = Status.WaitingOwner;\n            emit HasToPayFee(Party.Claimant);\n        } else { // The owner has also paid the fee. We create the dispute\n            raiseDispute(arbitrationCost);\n        }\n    }\n\n    /** @dev Create a dispute. UNTRUSTED.\n     *  @param _arbitrationCost Amount to pay the arbitrator.\n     */\n    function raiseDispute(uint _arbitrationCost) internal {\n        status = Status.DisputeCreated;\n        disputeID = arbitrator.createDispute.value(_arbitrationCost)(AMOUNT_OF_CHOICES,arbitratorExtraData);\n        emit Dispute(arbitrator,disputeID,RULING_OPTIONS);\n    }\n\n    /** @dev Reimburse owner if claimant fails to pay the fee.\n     */\n    function timeOutByOwner() public onlyOwner {\n        require(status==Status.WaitingClaimant);\n        require(now >= lastInteraction + timeout);\n\n        executeRuling(disputeID,OWNER_WINS);\n    }\n\n    /** @dev Pay claimant if owner fails to pay the fee.\n     */\n    function timeOutByClaimant() public onlyClaimant {\n        require(status==Status.WaitingOwner);\n        require(now >= lastInteraction+timeout);\n\n        executeRuling(disputeID,CLAIMANT_WINS);\n    }\n\n    /** @dev Execute a ruling of a dispute. Pays parties respective amounts based on ruling.\n     *  This needs to be extended by contract inheriting from it.\n     *  @param _disputeID ID of the dispute in the Arbitrator contract.\n     *  @param _ruling Ruling given by the arbitrator. 1 : Allow owner deposit. 2 : Pay claimant.\n     */\n    function executeRuling(uint _disputeID, uint _ruling) internal {\n        require(_disputeID==disputeID);\n        require(_ruling<=AMOUNT_OF_CHOICES);\n\n        if (_ruling==OWNER_WINS) {\n            owner.transfer(amount + claimAmount);\n            claimant.transfer(claimResponseAmount);\n        } else if (_ruling==CLAIMANT_WINS)\n            claimant.transfer(amount);\n        amount = 0;\n    }\n}\n",
  "sourcePath": "/Users/epiqueras/Work/kleros/kleros-interaction/contracts/standard/arbitration/ArbitrableDeposit.sol",
  "compiler": {
    "name": "solc",
    "version": "0.4.24+commit.e67f0147.Emscripten.clang"
  },
  "schemaVersion": "2.0.1",
  "updatedAt": "2018-07-17T16:56:20.163Z"
}