{
  "contractName": "ArbitratorVersioningProxy",
  "abi": [
    {
      "constant": true,
      "inputs": [
        {
          "name": "",
          "type": "uint256"
        }
      ],
      "name": "tags",
      "outputs": [
        {
          "name": "",
          "type": "bytes32"
        }
      ],
      "payable": false,
      "stateMutability": "view",
      "type": "function"
    },
    {
      "constant": true,
      "inputs": [],
      "name": "stable",
      "outputs": [
        {
          "name": "tag",
          "type": "bytes32"
        },
        {
          "name": "_address",
          "type": "address"
        }
      ],
      "payable": false,
      "stateMutability": "view",
      "type": "function"
    },
    {
      "constant": true,
      "inputs": [
        {
          "name": "",
          "type": "uint256"
        }
      ],
      "name": "disputes",
      "outputs": [
        {
          "name": "arbitrator",
          "type": "address"
        },
        {
          "name": "disputeID",
          "type": "uint256"
        },
        {
          "name": "choices",
          "type": "uint256"
        }
      ],
      "payable": false,
      "stateMutability": "view",
      "type": "function"
    },
    {
      "constant": true,
      "inputs": [],
      "name": "implementation",
      "outputs": [
        {
          "name": "",
          "type": "address"
        }
      ],
      "payable": false,
      "stateMutability": "view",
      "type": "function"
    },
    {
      "constant": false,
      "inputs": [
        {
          "name": "_nextTag",
          "type": "bytes32"
        },
        {
          "name": "_nextAddress",
          "type": "address"
        }
      ],
      "name": "publish",
      "outputs": [],
      "payable": false,
      "stateMutability": "nonpayable",
      "type": "function"
    },
    {
      "constant": true,
      "inputs": [
        {
          "name": "",
          "type": "bytes32"
        }
      ],
      "name": "addresses",
      "outputs": [
        {
          "name": "",
          "type": "address"
        }
      ],
      "payable": false,
      "stateMutability": "view",
      "type": "function"
    },
    {
      "constant": true,
      "inputs": [],
      "name": "owner",
      "outputs": [
        {
          "name": "",
          "type": "address"
        }
      ],
      "payable": false,
      "stateMutability": "view",
      "type": "function"
    },
    {
      "constant": false,
      "inputs": [],
      "name": "rollback",
      "outputs": [
        {
          "name": "_success",
          "type": "bool"
        }
      ],
      "payable": false,
      "stateMutability": "nonpayable",
      "type": "function"
    },
    {
      "constant": false,
      "inputs": [
        {
          "name": "_nextTag",
          "type": "bytes32"
        }
      ],
      "name": "setStable",
      "outputs": [],
      "payable": false,
      "stateMutability": "nonpayable",
      "type": "function"
    },
    {
      "constant": true,
      "inputs": [],
      "name": "allTags",
      "outputs": [
        {
          "name": "_tags",
          "type": "bytes32[]"
        }
      ],
      "payable": false,
      "stateMutability": "view",
      "type": "function"
    },
    {
      "inputs": [
        {
          "name": "_firstAddress",
          "type": "address"
        }
      ],
      "payable": false,
      "stateMutability": "nonpayable",
      "type": "constructor"
    },
    {
      "anonymous": false,
      "inputs": [
        {
          "indexed": false,
          "name": "_prevTag",
          "type": "bytes32"
        },
        {
          "indexed": false,
          "name": "_prevAddress",
          "type": "address"
        },
        {
          "indexed": false,
          "name": "_nextTag",
          "type": "bytes32"
        },
        {
          "indexed": false,
          "name": "_nextAddress",
          "type": "address"
        }
      ],
      "name": "OnStableChange",
      "type": "event"
    },
    {
      "anonymous": false,
      "inputs": [
        {
          "indexed": false,
          "name": "_disputeID",
          "type": "uint256"
        }
      ],
      "name": "AppealPossible",
      "type": "event"
    },
    {
      "anonymous": false,
      "inputs": [
        {
          "indexed": true,
          "name": "_disputeID",
          "type": "uint256"
        },
        {
          "indexed": false,
          "name": "_arbitrable",
          "type": "address"
        }
      ],
      "name": "DisputeCreation",
      "type": "event"
    },
    {
      "anonymous": false,
      "inputs": [
        {
          "indexed": true,
          "name": "_disputeID",
          "type": "uint256"
        },
        {
          "indexed": false,
          "name": "_arbitrable",
          "type": "address"
        }
      ],
      "name": "AppealDecision",
      "type": "event"
    },
    {
      "constant": false,
      "inputs": [
        {
          "name": "_choices",
          "type": "uint256"
        },
        {
          "name": "_extraData",
          "type": "bytes"
        }
      ],
      "name": "createDispute",
      "outputs": [
        {
          "name": "_disputeID",
          "type": "uint256"
        }
      ],
      "payable": true,
      "stateMutability": "payable",
      "type": "function"
    },
    {
      "constant": false,
      "inputs": [
        {
          "name": "_disputeID",
          "type": "uint256"
        },
        {
          "name": "_extraData",
          "type": "bytes"
        }
      ],
      "name": "appeal",
      "outputs": [],
      "payable": true,
      "stateMutability": "payable",
      "type": "function"
    },
    {
      "constant": true,
      "inputs": [
        {
          "name": "_extraData",
          "type": "bytes"
        }
      ],
      "name": "arbitrationCost",
      "outputs": [
        {
          "name": "_fee",
          "type": "uint256"
        }
      ],
      "payable": false,
      "stateMutability": "view",
      "type": "function"
    },
    {
      "constant": true,
      "inputs": [
        {
          "name": "_disputeID",
          "type": "uint256"
        },
        {
          "name": "_extraData",
          "type": "bytes"
        }
      ],
      "name": "appealCost",
      "outputs": [
        {
          "name": "_fee",
          "type": "uint256"
        }
      ],
      "payable": false,
      "stateMutability": "view",
      "type": "function"
    },
    {
      "constant": true,
      "inputs": [
        {
          "name": "_disputeID",
          "type": "uint256"
        }
      ],
      "name": "currentRuling",
      "outputs": [
        {
          "name": "_ruling",
          "type": "uint256"
        }
      ],
      "payable": false,
      "stateMutability": "view",
      "type": "function"
    },
    {
      "constant": true,
      "inputs": [
        {
          "name": "_disputeID",
          "type": "uint256"
        }
      ],
      "name": "disputeStatus",
      "outputs": [
        {
          "name": "_status",
          "type": "uint8"
        }
      ],
      "payable": false,
      "stateMutability": "view",
      "type": "function"
    }
  ],
  "bytecode": "0x6080604052336000806101000a81548173ffffffffffffffffffffffffffffffffffffffff021916908373ffffffffffffffffffffffffffffffffffffffff1602179055503480156200005157600080fd5b5060405160208062001c77833981018060405281019080805190602001909291905050507f302e302e310000000000000000000000000000000000000000000000000000008180600160006101000a81548173ffffffffffffffffffffffffffffffffffffffff021916908373ffffffffffffffffffffffffffffffffffffffff160217905550620000f38282620000fc640100000000026401000000009004565b505050620004ba565b3373ffffffffffffffffffffffffffffffffffffffff166000809054906101000a900473ffffffffffffffffffffffffffffffffffffffff1673ffffffffffffffffffffffffffffffffffffffff161415156200015857600080fd5b60028290806001815401808255809150509060018203906000526020600020016000909192909190915090600019169055508060036000846000191660001916815260200190815260200160002060006101000a81548173ffffffffffffffffffffffffffffffffffffffff021916908373ffffffffffffffffffffffffffffffffffffffff160217905550620001fe8262000202640100000000026401000000009004565b5050565b60008060003373ffffffffffffffffffffffffffffffffffffffff166000809054906101000a900473ffffffffffffffffffffffffffffffffffffffff1673ffffffffffffffffffffffffffffffffffffffff161415156200026357600080fd5b60036000856000191660001916815260200190815260200160002060009054906101000a900473ffffffffffffffffffffffffffffffffffffffff169250600073ffffffffffffffffffffffffffffffffffffffff168373ffffffffffffffffffffffffffffffffffffffff1614151515620002de57600080fd5b6004600001549150600460010160009054906101000a900473ffffffffffffffffffffffffffffffffffffffff1690506040805190810160405280856000191681526020018473ffffffffffffffffffffffffffffffffffffffff1681525060046000820151816000019060001916905560208201518160010160006101000a81548173ffffffffffffffffffffffffffffffffffffffff021916908373ffffffffffffffffffffffffffffffffffffffff160217905550905050620003b682828686620004b4640100000000026401000000009004565b7f4f08c95ff89163f080e17ce39ace3dcf153ad5485ff5cd5657bddbc22f116e11828286866040518085600019166000191681526020018473ffffffffffffffffffffffffffffffffffffffff1673ffffffffffffffffffffffffffffffffffffffff16815260200183600019166000191681526020018273ffffffffffffffffffffffffffffffffffffffff1673ffffffffffffffffffffffffffffffffffffffff16815260200194505050505060405180910390a182600160006101000a81548173ffffffffffffffffffffffffffffffffffffffff021916908373ffffffffffffffffffffffffffffffffffffffff16021790555050505050565b50505050565b6117ad80620004ca6000396000f3006080604052600436106100e6576000357c0100000000000000000000000000000000000000000000000000000000900463ffffffff16806310f169e8146100eb5780631c3db16d1461013a57806320822abc1461017b57806322be3de1146101c457806349912f881461022a578063564a565d146102905780635c60da1b1461030b5780636824898314610362578063699f200f146103b35780638da5cb5b146104245780639afd9d781461047b578063c13517e1146104aa578063d646fa4b14610524578063e675be4014610555578063f23f16e6146105c1578063f7434ea914610648575b600080fd5b3480156100f757600080fd5b50610116600480360381019080803590602001909291905050506106c5565b6040518082600281111561012657fe5b60ff16815260200191505060405180910390f35b34801561014657600080fd5b50610165600480360381019080803590602001909291905050506107d8565b6040518082815260200191505060405180910390f35b34801561018757600080fd5b506101a6600480360381019080803590602001909291905050506108eb565b60405180826000191660001916815260200191505060405180910390f35b3480156101d057600080fd5b506101d961090e565b6040518083600019166000191681526020018273ffffffffffffffffffffffffffffffffffffffff1673ffffffffffffffffffffffffffffffffffffffff1681526020019250505060405180910390f35b61028e60048036038101908080359060200190929190803590602001908201803590602001908080601f0160208091040260200160405190810160405280939291908181526020018383808284378201915050505050509192919290505050610940565b005b34801561029c57600080fd5b506102bb60048036038101908080359060200190929190505050610d46565b604051808473ffffffffffffffffffffffffffffffffffffffff1673ffffffffffffffffffffffffffffffffffffffff168152602001838152602001828152602001935050505060405180910390f35b34801561031757600080fd5b50610320610d9f565b604051808273ffffffffffffffffffffffffffffffffffffffff1673ffffffffffffffffffffffffffffffffffffffff16815260200191505060405180910390f35b34801561036e57600080fd5b506103b16004803603810190808035600019169060200190929190803573ffffffffffffffffffffffffffffffffffffffff169060200190929190505050610dc5565b005b3480156103bf57600080fd5b506103e26004803603810190808035600019169060200190929190505050610eb9565b604051808273ffffffffffffffffffffffffffffffffffffffff1673ffffffffffffffffffffffffffffffffffffffff16815260200191505060405180910390f35b34801561043057600080fd5b50610439610eec565b604051808273ffffffffffffffffffffffffffffffffffffffff1673ffffffffffffffffffffffffffffffffffffffff16815260200191505060405180910390f35b34801561048757600080fd5b50610490610f11565b604051808215151515815260200191505060405180910390f35b61050e60048036038101908080359060200190929190803590602001908201803590602001908080601f0160208091040260200160405190810160405280939291908181526020018383808284378201915050505050509192919290505050610fbd565b6040518082815260200191505060405180910390f35b34801561053057600080fd5b5061055360048036038101908080356000191690602001909291905050506111e3565b005b34801561056157600080fd5b5061056a611482565b6040518080602001828103825283818151815260200191508051906020019060200280838360005b838110156105ad578082015181840152602081019050610592565b505050509050019250505060405180910390f35b3480156105cd57600080fd5b5061063260048036038101908080359060200190929190803590602001908201803590602001908080601f01602080910402602001604051908101604052809392919081815260200183838082843782019150505050505091929192905050506114de565b6040518082815260200191505060405180910390f35b34801561065457600080fd5b506106af600480360381019080803590602001908201803590602001908080601f0160208091040260200160405190810160405280939291908181526020018383808284378201915050505050509192919290505050611641565b6040518082815260200191505060405180910390f35b60006006828154811015156106d657fe5b906000526020600020906003020160000160009054906101000a900473ffffffffffffffffffffffffffffffffffffffff1673ffffffffffffffffffffffffffffffffffffffff166310f169e860068481548110151561073257fe5b9060005260206000209060030201600101546040518263ffffffff167c010000000000000000000000000000000000000000000000000000000002815260040180828152602001915050602060405180830381600087803b15801561079657600080fd5b505af11580156107aa573d6000803e3d6000fd5b505050506040513d60208110156107c057600080fd5b81019080805190602001909291905050509050919050565b60006006828154811015156107e957fe5b906000526020600020906003020160000160009054906101000a900473ffffffffffffffffffffffffffffffffffffffff1673ffffffffffffffffffffffffffffffffffffffff16631c3db16d60068481548110151561084557fe5b9060005260206000209060030201600101546040518263ffffffff167c010000000000000000000000000000000000000000000000000000000002815260040180828152602001915050602060405180830381600087803b1580156108a957600080fd5b505af11580156108bd573d6000803e3d6000fd5b505050506040513d60208110156108d357600080fd5b81019080805190602001909291905050509050919050565b6002818154811015156108fa57fe5b906000526020600020016000915090505481565b60048060000154908060010160009054906101000a900473ffffffffffffffffffffffffffffffffffffffff16905082565b600080600160009054906101000a900473ffffffffffffffffffffffffffffffffffffffff1673ffffffffffffffffffffffffffffffffffffffff1660068581548110151561098b57fe5b906000526020600020906003020160000160009054906101000a900473ffffffffffffffffffffffffffffffffffffffff1673ffffffffffffffffffffffffffffffffffffffff16141515610c09576006848154811015156109e957fe5b9060005260206000209060030201600201549150600160009054906101000a900473ffffffffffffffffffffffffffffffffffffffff1673ffffffffffffffffffffffffffffffffffffffff1663c13517e13484866040518463ffffffff167c01000000000000000000000000000000000000000000000000000000000281526004018083815260200180602001828103825283818151815260200191508051906020019080838360005b83811015610aaf578082015181840152602081019050610a94565b50505050905090810190601f168015610adc5780820380516001836020036101000a031916815260200191505b5093505050506020604051808303818588803b158015610afb57600080fd5b505af1158015610b0f573d6000803e3d6000fd5b50505050506040513d6020811015610b2657600080fd5b81019080805190602001909291905050509050606060405190810160405280600160009054906101000a900473ffffffffffffffffffffffffffffffffffffffff1673ffffffffffffffffffffffffffffffffffffffff16815260200182815260200183815250600685815481101515610b9c57fe5b906000526020600020906003020160008201518160000160006101000a81548173ffffffffffffffffffffffffffffffffffffffff021916908373ffffffffffffffffffffffffffffffffffffffff16021790555060208201518160010155604082015181600201559050505b600160009054906101000a900473ffffffffffffffffffffffffffffffffffffffff1673ffffffffffffffffffffffffffffffffffffffff166349912f8834600687815481101515610c5757fe5b906000526020600020906003020160010154866040518463ffffffff167c01000000000000000000000000000000000000000000000000000000000281526004018083815260200180602001828103825283818151815260200191508051906020019080838360005b83811015610cdb578082015181840152602081019050610cc0565b50505050905090810190601f168015610d085780820380516001836020036101000a031916815260200191505b5093505050506000604051808303818588803b158015610d2757600080fd5b505af1158015610d3b573d6000803e3d6000fd5b505050505050505050565b600681815481101515610d5557fe5b90600052602060002090600302016000915090508060000160009054906101000a900473ffffffffffffffffffffffffffffffffffffffff16908060010154908060020154905083565b600160009054906101000a900473ffffffffffffffffffffffffffffffffffffffff1681565b3373ffffffffffffffffffffffffffffffffffffffff166000809054906101000a900473ffffffffffffffffffffffffffffffffffffffff1673ffffffffffffffffffffffffffffffffffffffff16141515610e2057600080fd5b60028290806001815401808255809150509060018203906000526020600020016000909192909190915090600019169055508060036000846000191660001916815260200190815260200160002060006101000a81548173ffffffffffffffffffffffffffffffffffffffff021916908373ffffffffffffffffffffffffffffffffffffffff160217905550610eb5826111e3565b5050565b60036020528060005260406000206000915054906101000a900473ffffffffffffffffffffffffffffffffffffffff1681565b6000809054906101000a900473ffffffffffffffffffffffffffffffffffffffff1681565b60008060003373ffffffffffffffffffffffffffffffffffffffff166000809054906101000a900473ffffffffffffffffffffffffffffffffffffffff1673ffffffffffffffffffffffffffffffffffffffff16141515610f7157600080fd5b6002805490509150600282111515610f8c5760009250610fb8565b6002808303815481101515610f9d57fe5b90600052602060002001549050610fb3816111e3565b600192505b505090565b600080600160009054906101000a900473ffffffffffffffffffffffffffffffffffffffff1673ffffffffffffffffffffffffffffffffffffffff1663c13517e13486866040518463ffffffff167c01000000000000000000000000000000000000000000000000000000000281526004018083815260200180602001828103825283818151815260200191508051906020019080838360005b83811015611072578082015181840152602081019050611057565b50505050905090810190601f16801561109f5780820380516001836020036101000a031916815260200191505b5093505050506020604051808303818588803b1580156110be57600080fd5b505af11580156110d2573d6000803e3d6000fd5b50505050506040513d60208110156110e957600080fd5b810190808051906020019092919050505090506006606060405190810160405280600160009054906101000a900473ffffffffffffffffffffffffffffffffffffffff1673ffffffffffffffffffffffffffffffffffffffff168152602001838152602001868152509080600181540180825580915050906001820390600052602060002090600302016000909192909190915060008201518160000160006101000a81548173ffffffffffffffffffffffffffffffffffffffff021916908373ffffffffffffffffffffffffffffffffffffffff1602179055506020820151816001015560408201518160020155505091505092915050565b60008060003373ffffffffffffffffffffffffffffffffffffffff166000809054906101000a900473ffffffffffffffffffffffffffffffffffffffff1673ffffffffffffffffffffffffffffffffffffffff1614151561124357600080fd5b60036000856000191660001916815260200190815260200160002060009054906101000a900473ffffffffffffffffffffffffffffffffffffffff169250600073ffffffffffffffffffffffffffffffffffffffff168373ffffffffffffffffffffffffffffffffffffffff16141515156112bd57600080fd5b6004600001549150600460010160009054906101000a900473ffffffffffffffffffffffffffffffffffffffff1690506040805190810160405280856000191681526020018473ffffffffffffffffffffffffffffffffffffffff1681525060046000820151816000019060001916905560208201518160010160006101000a81548173ffffffffffffffffffffffffffffffffffffffff021916908373ffffffffffffffffffffffffffffffffffffffff1602179055509050506113848282868661177b565b7f4f08c95ff89163f080e17ce39ace3dcf153ad5485ff5cd5657bddbc22f116e11828286866040518085600019166000191681526020018473ffffffffffffffffffffffffffffffffffffffff1673ffffffffffffffffffffffffffffffffffffffff16815260200183600019166000191681526020018273ffffffffffffffffffffffffffffffffffffffff1673ffffffffffffffffffffffffffffffffffffffff16815260200194505050505060405180910390a182600160006101000a81548173ffffffffffffffffffffffffffffffffffffffff021916908373ffffffffffffffffffffffffffffffffffffffff16021790555050505050565b606060028054806020026020016040519081016040528092919081815260200182805480156114d457602002820191906000526020600020905b815460001916815260200190600101908083116114bc575b5050505050905090565b6000600160009054906101000a900473ffffffffffffffffffffffffffffffffffffffff1673ffffffffffffffffffffffffffffffffffffffff1663f23f16e660068581548110151561152d57fe5b906000526020600020906003020160010154846040518363ffffffff167c01000000000000000000000000000000000000000000000000000000000281526004018083815260200180602001828103825283818151815260200191508051906020019080838360005b838110156115b1578082015181840152602081019050611596565b50505050905090810190601f1680156115de5780820380516001836020036101000a031916815260200191505b509350505050602060405180830381600087803b1580156115fe57600080fd5b505af1158015611612573d6000803e3d6000fd5b505050506040513d602081101561162857600080fd5b8101908080519060200190929190505050905092915050565b6000600160009054906101000a900473ffffffffffffffffffffffffffffffffffffffff1673ffffffffffffffffffffffffffffffffffffffff1663f7434ea9836040518263ffffffff167c01000000000000000000000000000000000000000000000000000000000281526004018080602001828103825283818151815260200191508051906020019080838360005b838110156116ed5780820151818401526020810190506116d2565b50505050905090810190601f16801561171a5780820380516001836020036101000a031916815260200191505b5092505050602060405180830381600087803b15801561173957600080fd5b505af115801561174d573d6000803e3d6000fd5b505050506040513d602081101561176357600080fd5b81019080805190602001909291905050509050919050565b505050505600a165627a7a7230582036172bb55186121138b0456cf3d8eb9ea4cd694012170e70e1b08c1953b098db0029",
  "source": "pragma solidity ^0.4.15;\n\nimport \"../arbitration/Arbitrator.sol\";\n\nimport \"./VersioningProxy.sol\";\n\n/**\n *  @title ArbitratorVersioningProxy\n *  @author Enrique Piqueras - <epiquerass@gmail.com>\n *  @notice An Arbitrator proxy that only exposes methods in the Arbitrator spec.\n */\ncontract ArbitratorVersioningProxy is Arbitrator, VersioningProxy {\n    /* Structs */\n\n    struct Dispute {\n        Arbitrator arbitrator;\n        uint256 disputeID;\n        uint256 choices;\n    }\n\n    /* Storage */\n\n    Dispute[] public disputes;\n\n    /* Constructor */\n\n    /**\n     * @notice Constructs the arbitrator versioning proxy with the first arbitrator contract version address and tags it v0.0.1.\n     * @param _firstAddress The address of the first arbitrator contract version.\n     */\n    constructor(Arbitrator _firstAddress) VersioningProxy(\"0.0.1\", _firstAddress) public {}\n\n    /* Public */\n\n    /** @notice Creates a dispute in the current `implementation` contract. Must be called by the arbitrable contract.\n     *  @param _choices The amount of choices the arbitrator can make in this dispute.\n     *  @param _extraData Can be used to give additional info on the dispute to be created.\n     *  @return The ID of the created dispute in the context of this contract.\n     */\n    function createDispute(uint256 _choices, bytes _extraData) public payable returns(uint256 _disputeID) {\n        uint256 _arbitratorDisputeID = Arbitrator(implementation).createDispute.value(msg.value)(_choices, _extraData);\n        return disputes.push(\n            Dispute({\n                arbitrator: Arbitrator(implementation),\n                disputeID: _arbitratorDisputeID,\n                choices: _choices\n            })\n        );\n    }\n\n    /** @notice Appeals a ruling to the current `implementation` contract.\n     *  @param _disputeID The ID of the dispute to be appealed.\n     *  @param _extraData Can be used to give extra info on the appeal.\n     */\n    function appeal(uint256 _disputeID, bytes _extraData) public payable {\n        if (disputes[_disputeID].arbitrator != implementation) { // Arbitrator has been upgraded, create a new dispute in the new arbitrator\n            uint256 _choices = disputes[_disputeID].choices;\n            uint256 _arbitratorDisputeID = Arbitrator(implementation).createDispute.value(msg.value)(_choices, _extraData);\n            disputes[_disputeID] = Dispute({ arbitrator: Arbitrator(implementation), disputeID: _arbitratorDisputeID, choices: _choices });\n        }\n\n        Arbitrator(implementation).appeal.value(msg.value)(disputes[_disputeID].disputeID, _extraData);\n    }\n\n    /* Public Views */\n\n    /** @notice Computes the cost of arbitration in the current `implementation` contract. It is recommended not to increase it often, as it can be highly time and gas consuming for the arbitrated contracts to cope with fee augmentation.\n     *  @param _extraData Can be used to give additional info on the dispute to be created.\n     *  @return _fee The arbitration cost.\n     */\n    function arbitrationCost(bytes _extraData) public view returns(uint256 _fee) {\n        return Arbitrator(implementation).arbitrationCost(_extraData);\n    }\n\n    /** @notice Computes the cost of appealing to the current `implementation` contract. It is recommended not to increase it often, as it can be highly time and gas consuming for the arbitrated contracts to cope with fee augmentation.\n     *  @param _disputeID The ID of the dispute to be appealed.\n     *  @param _extraData Can be used to give additional info on the dispute to be created.\n     *  @return _fee The appeal cost.\n     */\n    function appealCost(uint256 _disputeID, bytes _extraData) public view returns(uint256 _fee) {\n        return Arbitrator(implementation).appealCost(disputes[_disputeID].disputeID, _extraData);\n    }\n\n    /** @notice Get the current ruling of a dispute. This is useful for parties to know if they should appeal.\n     *  @param _disputeID The ID of the dispute.\n     *  @return _ruling The current ruling which will be given if there is no appeal or which has been given.\n     */\n    function currentRuling(uint256 _disputeID) public view returns(uint256 _ruling) {\n        return disputes[_disputeID].arbitrator.currentRuling(disputes[_disputeID].disputeID);\n    }\n\n    /** @notice Get the status of a dispute.\n     *  @param _disputeID The ID of the dispute.\n     *  @return _status The status of the dispute.\n     */\n    function disputeStatus(uint256 _disputeID) public view returns(Arbitrator.DisputeStatus _status) {\n        return disputes[_disputeID].arbitrator.disputeStatus(disputes[_disputeID].disputeID);\n    }\n}\n",
  "sourcePath": "/Users/epiqueras/Work/kleros/kleros-interaction/contracts/standard/proxy/ArbitratorVersioningProxy.sol",
  "compiler": {
    "name": "solc",
    "version": "0.4.24+commit.e67f0147.Emscripten.clang"
  },
  "schemaVersion": "2.0.1",
  "updatedAt": "2018-07-17T16:56:20.251Z"
}