{
  "contractName": "ArbitrableBlacklist",
  "abi": [
    {
      "constant": true,
      "inputs": [],
      "name": "timeToChallenge",
      "outputs": [
        {
          "name": "",
          "type": "uint256"
        }
      ],
      "payable": false,
      "stateMutability": "view",
      "type": "function"
    },
    {
      "constant": true,
      "inputs": [],
      "name": "arbitratorExtraData",
      "outputs": [
        {
          "name": "",
          "type": "bytes"
        }
      ],
      "payable": false,
      "stateMutability": "view",
      "type": "function"
    },
    {
      "constant": false,
      "inputs": [
        {
          "name": "_disputeID",
          "type": "uint256"
        },
        {
          "name": "_ruling",
          "type": "uint256"
        }
      ],
      "name": "rule",
      "outputs": [],
      "payable": false,
      "stateMutability": "nonpayable",
      "type": "function"
    },
    {
      "constant": true,
      "inputs": [],
      "name": "stake",
      "outputs": [
        {
          "name": "",
          "type": "uint256"
        }
      ],
      "payable": false,
      "stateMutability": "view",
      "type": "function"
    },
    {
      "constant": true,
      "inputs": [
        {
          "name": "",
          "type": "uint256"
        }
      ],
      "name": "disputeIDToItem",
      "outputs": [
        {
          "name": "",
          "type": "bytes32"
        }
      ],
      "payable": false,
      "stateMutability": "view",
      "type": "function"
    },
    {
      "constant": true,
      "inputs": [
        {
          "name": "",
          "type": "bytes32"
        }
      ],
      "name": "items",
      "outputs": [
        {
          "name": "status",
          "type": "uint8"
        },
        {
          "name": "lastAction",
          "type": "uint256"
        },
        {
          "name": "submitter",
          "type": "address"
        },
        {
          "name": "challenger",
          "type": "address"
        },
        {
          "name": "balance",
          "type": "uint256"
        },
        {
          "name": "disputed",
          "type": "bool"
        },
        {
          "name": "disputeID",
          "type": "uint256"
        }
      ],
      "payable": false,
      "stateMutability": "view",
      "type": "function"
    },
    {
      "constant": true,
      "inputs": [],
      "name": "arbitrator",
      "outputs": [
        {
          "name": "",
          "type": "address"
        }
      ],
      "payable": false,
      "stateMutability": "view",
      "type": "function"
    },
    {
      "inputs": [
        {
          "name": "_arbitrator",
          "type": "address"
        },
        {
          "name": "_arbitratorExtraData",
          "type": "bytes"
        },
        {
          "name": "_stake",
          "type": "uint256"
        },
        {
          "name": "_timeToChallenge",
          "type": "uint256"
        }
      ],
      "payable": false,
      "stateMutability": "nonpayable",
      "type": "constructor"
    },
    {
      "anonymous": false,
      "inputs": [
        {
          "indexed": true,
          "name": "_arbitrator",
          "type": "address"
        },
        {
          "indexed": true,
          "name": "_disputeID",
          "type": "uint256"
        },
        {
          "indexed": false,
          "name": "_rulingOptions",
          "type": "string"
        }
      ],
      "name": "Dispute",
      "type": "event"
    },
    {
      "anonymous": false,
      "inputs": [
        {
          "indexed": true,
          "name": "_arbitrator",
          "type": "address"
        },
        {
          "indexed": true,
          "name": "_disputeID",
          "type": "uint256"
        },
        {
          "indexed": false,
          "name": "_ruling",
          "type": "uint256"
        }
      ],
      "name": "Ruling",
      "type": "event"
    },
    {
      "anonymous": false,
      "inputs": [
        {
          "indexed": true,
          "name": "_metaEvidenceID",
          "type": "uint256"
        },
        {
          "indexed": false,
          "name": "_evidence",
          "type": "string"
        }
      ],
      "name": "MetaEvidence",
      "type": "event"
    },
    {
      "anonymous": false,
      "inputs": [
        {
          "indexed": true,
          "name": "_arbitrator",
          "type": "address"
        },
        {
          "indexed": true,
          "name": "_disputeID",
          "type": "uint256"
        },
        {
          "indexed": false,
          "name": "_metaEvidenceID",
          "type": "uint256"
        }
      ],
      "name": "LinkMetaEvidence",
      "type": "event"
    },
    {
      "anonymous": false,
      "inputs": [
        {
          "indexed": true,
          "name": "_arbitrator",
          "type": "address"
        },
        {
          "indexed": true,
          "name": "_disputeID",
          "type": "uint256"
        },
        {
          "indexed": false,
          "name": "_party",
          "type": "address"
        },
        {
          "indexed": false,
          "name": "_evidence",
          "type": "string"
        }
      ],
      "name": "Evidence",
      "type": "event"
    },
    {
      "constant": true,
      "inputs": [
        {
          "name": "_value",
          "type": "bytes32"
        }
      ],
      "name": "isPermitted",
      "outputs": [
        {
          "name": "allowed",
          "type": "bool"
        }
      ],
      "payable": false,
      "stateMutability": "view",
      "type": "function"
    },
    {
      "constant": false,
      "inputs": [
        {
          "name": "_value",
          "type": "bytes32"
        }
      ],
      "name": "requestBlacklisting",
      "outputs": [],
      "payable": true,
      "stateMutability": "payable",
      "type": "function"
    },
    {
      "constant": false,
      "inputs": [
        {
          "name": "_value",
          "type": "bytes32"
        }
      ],
      "name": "requestClearing",
      "outputs": [],
      "payable": true,
      "stateMutability": "payable",
      "type": "function"
    },
    {
      "constant": false,
      "inputs": [
        {
          "name": "_value",
          "type": "bytes32"
        }
      ],
      "name": "challengeBlacklisting",
      "outputs": [],
      "payable": true,
      "stateMutability": "payable",
      "type": "function"
    },
    {
      "constant": false,
      "inputs": [
        {
          "name": "_value",
          "type": "bytes32"
        }
      ],
      "name": "challengeClearing",
      "outputs": [],
      "payable": true,
      "stateMutability": "payable",
      "type": "function"
    },
    {
      "constant": false,
      "inputs": [
        {
          "name": "_value",
          "type": "bytes32"
        }
      ],
      "name": "executeRequest",
      "outputs": [],
      "payable": false,
      "stateMutability": "nonpayable",
      "type": "function"
    },
    {
      "constant": false,
      "inputs": [
        {
          "name": "_value",
          "type": "bytes32"
        }
      ],
      "name": "appeal",
      "outputs": [],
      "payable": true,
      "stateMutability": "payable",
      "type": "function"
    }
  ],
  "bytecode": "0x60806040523480156200001157600080fd5b506040516200216138038062002161833981018060405281019080805190602001909291908051820192919060200180519060200190929190805190602001909291905050508383816000806101000a81548173ffffffffffffffffffffffffffffffffffffffff021916908373ffffffffffffffffffffffffffffffffffffffff1602179055508060019080519060200190620000b192919062000126565b50505083600260006101000a81548173ffffffffffffffffffffffffffffffffffffffff021916908373ffffffffffffffffffffffffffffffffffffffff16021790555082600390805190602001906200010d92919062000126565b50816004819055508060058190555050505050620001d5565b828054600181600116156101000203166002900490600052602060002090601f016020900481019282601f106200016957805160ff19168380011785556200019a565b828001600101855582156200019a579182015b82811115620001995782518255916020019190600101906200017c565b5b509050620001a99190620001ad565b5090565b620001d291905b80821115620001ce576000816000905550600101620001b4565b5090565b90565b611f7c80620001e56000396000f3006080604052600436106100d0576000357c0100000000000000000000000000000000000000000000000000000000900463ffffffff1680630689d0ff146100d55780630c7ac7b614610100578063311a6c5614610190578063342d9a04146101c75780633a4b66f1146101eb578063409c88281461021657806348f343f31461025f5780636cc6cde11461033857806393519d661461038f578063bd6f0d9e146103b3578063beabdb7b146103d7578063cf8b49d514610420578063e9c2416614610444578063ece1de4414610475575b600080fd5b3480156100e157600080fd5b506100ea610499565b6040518082815260200191505060405180910390f35b34801561010c57600080fd5b5061011561049f565b6040518080602001828103825283818151815260200191508051906020019080838360005b8381101561015557808201518184015260208101905061013a565b50505050905090810190601f1680156101825780820380516001836020036101000a031916815260200191505b509250505060405180910390f35b34801561019c57600080fd5b506101c5600480360381019080803590602001909291908035906020019092919050505061053d565b005b6101e960048036038101908080356000191690602001909291905050506105f5565b005b3480156101f757600080fd5b50610200610b45565b6040518082815260200191505060405180910390f35b34801561022257600080fd5b5061024160048036038101908080359060200190929190505050610b4b565b60405180826000191660001916815260200191505060405180910390f35b34801561026b57600080fd5b5061028e6004803603810190808035600019169060200190929190505050610b63565b6040518088600681111561029e57fe5b60ff1681526020018781526020018673ffffffffffffffffffffffffffffffffffffffff1673ffffffffffffffffffffffffffffffffffffffff1681526020018573ffffffffffffffffffffffffffffffffffffffff1673ffffffffffffffffffffffffffffffffffffffff1681526020018481526020018315151515815260200182815260200197505050505050505060405180910390f35b34801561034457600080fd5b5061034d610bff565b604051808273ffffffffffffffffffffffffffffffffffffffff1673ffffffffffffffffffffffffffffffffffffffff16815260200191505060405180910390f35b6103b16004803603810190808035600019169060200190929190505050610c25565b005b6103d56004803603810190808035600019169060200190929190505050610ec8565b005b3480156103e357600080fd5b506104066004803603810190808035600019169060200190929190505050611419565b604051808215151515815260200191505060405180910390f35b61044260048036038101908080356000191690602001909291905050506114e8565b005b34801561045057600080fd5b5061047360048036038101908080356000191690602001909291905050506117f3565b005b61049760048036038101908080356000191690602001909291905050506119c8565b005b60055481565b60038054600181600116156101000203166002900480601f0160208091040260200160405190810160405280929190818152602001828054600181600116156101000203166002900480156105355780601f1061050a57610100808354040283529160200191610535565b820191906000526020600020905b81548152906001019060200180831161051857829003601f168201915b505050505081565b6000809054906101000a900473ffffffffffffffffffffffffffffffffffffffff1673ffffffffffffffffffffffffffffffffffffffff163373ffffffffffffffffffffffffffffffffffffffff1614151561059857600080fd5b813373ffffffffffffffffffffffffffffffffffffffff167f394027a5fa6e098a1191094d1719d6929b9abc535fcc0c8f448d6a4e75622276836040518082815260200191505060405180910390a36105f18282611b24565b5050565b6000806006600084600019166000191681526020019081526020016000209150600260009054906101000a900473ffffffffffffffffffffffffffffffffffffffff1673ffffffffffffffffffffffffffffffffffffffff1663f7434ea960036040518263ffffffff167c010000000000000000000000000000000000000000000000000000000002815260040180806020018281038252838181546001816001161561010002031660029004815260200191508054600181600116156101000203166002900480156107095780601f106106de57610100808354040283529160200191610709565b820191906000526020600020905b8154815290600101906020018083116106ec57829003601f168201915b505092505050602060405180830381600087803b15801561072957600080fd5b505af115801561073d573d6000803e3d6000fd5b505050506040513d602081101561075357600080fd5b810190808051906020019092919050505090508060045401341015151561077957600080fd5b6005600681111561078657fe5b8260000160009054906101000a900460ff1660068111156107a357fe5b14806107d557506006808111156107b657fe5b8260000160009054906101000a900460ff1660068111156107d357fe5b145b15156107e057600080fd5b8160050160009054906101000a900460ff161515156107fe57600080fd5b808260040154101515610a0557338260030160006101000a81548173ffffffffffffffffffffffffffffffffffffffff021916908373ffffffffffffffffffffffffffffffffffffffff160217905550803403826004016000828254019250508190555060018260050160006101000a81548160ff021916908315150217905550600260009054906101000a900473ffffffffffffffffffffffffffffffffffffffff1673ffffffffffffffffffffffffffffffffffffffff1663c13517e182600260036040518463ffffffff167c0100000000000000000000000000000000000000000000000000000000028152600401808381526020018060200182810382528381815460018160011615610100020316600290048152602001915080546001816001161561010002031660029004801561097c5780601f106109515761010080835404028352916020019161097c565b820191906000526020600020905b81548152906001019060200180831161095f57829003601f168201915b505093505050506020604051808303818588803b15801561099c57600080fd5b505af11580156109b0573d6000803e3d6000fd5b50505050506040513d60208110156109c757600080fd5b810190808051906020019092919050505082600601819055508260076000846006015481526020019081526020016000208160001916905550610b37565b60056006811115610a1257fe5b8260000160009054906101000a900460ff166006811115610a2f57fe5b1415610a605760038260000160006101000a81548160ff02191690836006811115610a5657fe5b0217905550610a87565b60008260000160006101000a81548160ff02191690836006811115610a8157fe5b02179055505b8160020160009054906101000a900473ffffffffffffffffffffffffffffffffffffffff1673ffffffffffffffffffffffffffffffffffffffff166108fc83600401549081150290604051600060405180830381858888f1935050505050600082600401819055503373ffffffffffffffffffffffffffffffffffffffff166108fc349081150290604051600060405180830381858888f19350505050158015610b35573d6000803e3d6000fd5b505b428260010181905550505050565b60045481565b60076020528060005260406000206000915090505481565b60066020528060005260406000206000915090508060000160009054906101000a900460ff16908060010154908060020160009054906101000a900473ffffffffffffffffffffffffffffffffffffffff16908060030160009054906101000a900473ffffffffffffffffffffffffffffffffffffffff16908060040154908060050160009054906101000a900460ff16908060060154905087565b600260009054906101000a900473ffffffffffffffffffffffffffffffffffffffff1681565b6000806006600084600019166000191681526020019081526020016000209150600260009054906101000a900473ffffffffffffffffffffffffffffffffffffffff1673ffffffffffffffffffffffffffffffffffffffff1663f7434ea960036040518263ffffffff167c01000000000000000000000000000000000000000000000000000000000281526004018080602001828103825283818154600181600116156101000203166002900481526020019150805460018160011615610100020316600290048015610d395780601f10610d0e57610100808354040283529160200191610d39565b820191906000526020600020905b815481529060010190602001808311610d1c57829003601f168201915b505092505050602060405180830381600087803b158015610d5957600080fd5b505af1158015610d6d573d6000803e3d6000fd5b505050506040513d6020811015610d8357600080fd5b8101908080519060200190929190505050905080600454013410151515610da957600080fd5b60036006811115610db657fe5b8260000160009054906101000a900460ff166006811115610dd357fe5b1415610e045760058260000160006101000a81548160ff02191690836006811115610dfa57fe5b0217905550610e65565b60006006811115610e1157fe5b8260000160009054906101000a900460ff166006811115610e2e57fe5b1415610e5f5760068260000160006101000a81548160ff02191690836006811115610e5557fe5b0217905550610e64565b600080fd5b5b338260020160006101000a81548173ffffffffffffffffffffffffffffffffffffffff021916908373ffffffffffffffffffffffffffffffffffffffff160217905550348260040160008282540192505081905550428260010181905550505050565b6000806006600084600019166000191681526020019081526020016000209150600260009054906101000a900473ffffffffffffffffffffffffffffffffffffffff1673ffffffffffffffffffffffffffffffffffffffff1663f7434ea960036040518263ffffffff167c01000000000000000000000000000000000000000000000000000000000281526004018080602001828103825283818154600181600116156101000203166002900481526020019150805460018160011615610100020316600290048015610fdc5780601f10610fb157610100808354040283529160200191610fdc565b820191906000526020600020905b815481529060010190602001808311610fbf57829003601f168201915b505092505050602060405180830381600087803b158015610ffc57600080fd5b505af1158015611010573d6000803e3d6000fd5b505050506040513d602081101561102657600080fd5b810190808051906020019092919050505090508060045401341015151561104c57600080fd5b6002600681111561105957fe5b8260000160009054906101000a900460ff16600681111561107657fe5b14806110a957506004600681111561108a57fe5b8260000160009054906101000a900460ff1660068111156110a757fe5b145b15156110b457600080fd5b8160050160009054906101000a900460ff161515156110d257600080fd5b8082600401541015156112d957338260030160006101000a81548173ffffffffffffffffffffffffffffffffffffffff021916908373ffffffffffffffffffffffffffffffffffffffff160217905550803403826004016000828254019250508190555060018260050160006101000a81548160ff021916908315150217905550600260009054906101000a900473ffffffffffffffffffffffffffffffffffffffff1673ffffffffffffffffffffffffffffffffffffffff1663c13517e182600260036040518463ffffffff167c010000000000000000000000000000000000000000000000000000000002815260040180838152602001806020018281038252838181546001816001161561010002031660029004815260200191508054600181600116156101000203166002900480156112505780601f1061122557610100808354040283529160200191611250565b820191906000526020600020905b81548152906001019060200180831161123357829003601f168201915b505093505050506020604051808303818588803b15801561127057600080fd5b505af1158015611284573d6000803e3d6000fd5b50505050506040513d602081101561129b57600080fd5b81019080805190602001909291905050508260060181905550826007600084600601548152602001908152602001600020816000191690555061140b565b600260068111156112e657fe5b8260000160009054906101000a900460ff16600681111561130357fe5b14156113345760018260000160006101000a81548160ff0219169083600681111561132a57fe5b021790555061135b565b60008260000160006101000a81548160ff0219169083600681111561135557fe5b02179055505b8160020160009054906101000a900473ffffffffffffffffffffffffffffffffffffffff1673ffffffffffffffffffffffffffffffffffffffff166108fc83600401549081150290604051600060405180830381858888f1935050505050600082600401819055503373ffffffffffffffffffffffffffffffffffffffff166108fc349081150290604051600060405180830381858888f19350505050158015611409573d6000803e3d6000fd5b505b428260010181905550505050565b60006002600681111561142857fe5b60066000846000191660001916815260200190815260200160002060000160009054906101000a900460ff16600681111561145f57fe5b1115806114e1575060068081111561147357fe5b60066000846000191660001916815260200190815260200160002060000160009054906101000a900460ff1660068111156114aa57fe5b1480156114e0575060066000836000191660001916815260200190815260200160002060050160009054906101000a900460ff16155b5b9050919050565b6000806006600084600019166000191681526020019081526020016000209150600260009054906101000a900473ffffffffffffffffffffffffffffffffffffffff1673ffffffffffffffffffffffffffffffffffffffff1663f7434ea960036040518263ffffffff167c010000000000000000000000000000000000000000000000000000000002815260040180806020018281038252838181546001816001161561010002031660029004815260200191508054600181600116156101000203166002900480156115fc5780601f106115d1576101008083540402835291602001916115fc565b820191906000526020600020905b8154815290600101906020018083116115df57829003601f168201915b505092505050602060405180830381600087803b15801561161c57600080fd5b505af1158015611630573d6000803e3d6000fd5b505050506040513d602081101561164657600080fd5b810190808051906020019092919050505090508060045401341015151561166c57600080fd5b6000600681111561167957fe5b60066000856000191660001916815260200190815260200160002060000160009054906101000a900460ff1660068111156116b057fe5b14156116fb57600460066000856000191660001916815260200190815260200160002060000160006101000a81548160ff021916908360068111156116f157fe5b0217905550611790565b6001600681111561170857fe5b60066000856000191660001916815260200190815260200160002060000160009054906101000a900460ff16600681111561173f57fe5b141561178a57600260066000856000191660001916815260200190815260200160002060000160006101000a81548160ff0219169083600681111561178057fe5b021790555061178f565b600080fd5b5b338260020160006101000a81548173ffffffffffffffffffffffffffffffffffffffff021916908373ffffffffffffffffffffffffffffffffffffffff160217905550348260040160008282540192505081905550428260010181905550505050565b60006006600083600019166000191681526020019081526020016000209050600554816001015442031015151561182957600080fd5b8060050160009054906101000a900460ff1615151561184757600080fd5b6002600681111561185457fe5b8160000160009054906101000a900460ff16600681111561187157fe5b14806118a457506004600681111561188557fe5b8160000160009054906101000a900460ff1660068111156118a257fe5b145b156118d45760038160000160006101000a81548160ff021916908360068111156118ca57fe5b0217905550611966565b600560068111156118e157fe5b8160000160009054906101000a900460ff1660068111156118fe57fe5b1480611930575060068081111561191157fe5b8160000160009054906101000a900460ff16600681111561192e57fe5b145b156119605760018160000160006101000a81548160ff0219169083600681111561195657fe5b0217905550611965565b600080fd5b5b8060020160009054906101000a900473ffffffffffffffffffffffffffffffffffffffff1673ffffffffffffffffffffffffffffffffffffffff166108fc82600401549081150290604051600060405180830381858888f19350505050505050565b60006006600083600019166000191681526020019081526020016000209050600260009054906101000a900473ffffffffffffffffffffffffffffffffffffffff1673ffffffffffffffffffffffffffffffffffffffff166349912f8834836006015460036040518463ffffffff167c01000000000000000000000000000000000000000000000000000000000281526004018083815260200180602001828103825283818154600181600116156101000203166002900481526020019150805460018160011615610100020316600290048015611ae75780601f10611abc57610100808354040283529160200191611ae7565b820191906000526020600020905b815481529060010190602001808311611aca57829003601f168201915b505093505050506000604051808303818588803b158015611b0757600080fd5b505af1158015611b1b573d6000803e3d6000fd5b50505050505050565b60006006600060076000868152602001908152602001600020546000191660001916815260200190815260200160002090508060050160009054906101000a900460ff161515611b7357600080fd5b600160ff16821415611cce5760026006811115611b8c57fe5b8160000160009054906101000a900460ff166006811115611ba957fe5b1480611bdc575060046006811115611bbd57fe5b8160000160009054906101000a900460ff166006811115611bda57fe5b145b15611c44578060020160009054906101000a900473ffffffffffffffffffffffffffffffffffffffff1673ffffffffffffffffffffffffffffffffffffffff166108fc82600401549081150290604051600060405180830381858888f1935050505050611ca3565b8060030160009054906101000a900473ffffffffffffffffffffffffffffffffffffffff1673ffffffffffffffffffffffffffffffffffffffff166108fc82600401549081150290604051600060405180830381858888f19350505050505b60038160000160006101000a81548160ff02191690836006811115611cc457fe5b0217905550611f24565b600260ff16821415611e2857600680811115611ce657fe5b8160000160009054906101000a900460ff166006811115611d0357fe5b1480611d36575060056006811115611d1757fe5b8160000160009054906101000a900460ff166006811115611d3457fe5b145b15611d9e578060020160009054906101000a900473ffffffffffffffffffffffffffffffffffffffff1673ffffffffffffffffffffffffffffffffffffffff166108fc82600401549081150290604051600060405180830381858888f1935050505050611dfd565b8060030160009054906101000a900473ffffffffffffffffffffffffffffffffffffffff1673ffffffffffffffffffffffffffffffffffffffff166108fc82600401549081150290604051600060405180830381858888f19350505050505b60018160000160006101000a81548160ff02191690836006811115611e1e57fe5b0217905550611f23565b60008160000160006101000a81548160ff02191690836006811115611e4957fe5b02179055508060020160009054906101000a900473ffffffffffffffffffffffffffffffffffffffff1673ffffffffffffffffffffffffffffffffffffffff166108fc60028360040154811515611e9c57fe5b049081150290604051600060405180830381858888f19350505050508060030160009054906101000a900473ffffffffffffffffffffffffffffffffffffffff1673ffffffffffffffffffffffffffffffffffffffff166108fc60028360040154811515611f0657fe5b049081150290604051600060405180830381858888f19350505050505b5b60008160050160006101000a81548160ff021916908315150217905550600081600401819055505050505600a165627a7a72305820870548d11e5be6b1099a862d008d14574e0683e85d8205cc6e26d2fad872a31d0029",
  "source": " /**\n *  @title Arbitrable Blacklist\n *  @author Clment Lesaege - <clement@lesaege.com>\n *  This code hasn't undertaken bug bounty program yet.\n *  This code requires truffle tests.\n */\n\npragma solidity ^0.4.18;\n\nimport \"../arbitration/Arbitrable.sol\";\nimport \"./PermissionInterface.sol\";\n\n/**\n *  @title Arbitrable Blacklist\n *  This is a arbitrator curated blacklist registry. Anyone can post an item with a deposit. If no one complains within a defined time period, the item is added to the blacklist registry.\n *  Someone can complain and also post a deposit, if, someone does, a dispute is created. The winner of the dispute gets the deposit of the other party and the item is added or removed accordingly.\n *  During the time of the dispute, the item is shown as blacklisted unless it already won a dispute before. This follows the philosophy that it is better to show the user a warning about a potentially harmless listing than to take the risk of the user to be scammed or exposed to inappropriate content without warning.\n *  To make a request, parties have to deposit a stake and the arbitration fees. If the arbitration fees change between the submitter payment and the challenger payment, a part of the submitter stake can be used as an arbitration fee deposit.\n *  In case the arbitrator refuses to rule, the item is put in the initial absent status and the balance is split equally between parties.\n *\n *  Example of uses of this blacklist contract are:\n *    - ENS blacklist: Blacklisted (hash of) names would lead to the user receiving a warning in its UI when trying to interact with one.\n *    - Social Network Safe For Work/Kids sections: Blacklist (hash of) words / sentences refering or leading to NSFW/NSFK content. This may be enforced by voluntary censorship on the UI or make participants violating the SFW/SFK rules lose a deposit.\n *    - Listing blacklist: Blacklist categories of items which are forbiden on a marketplace or market place section (it can be terms refering to weapons or child porn material). The mechanism can be similar to the SFW/SFK example.\n */\ncontract ArbitrableBlacklist is PermissionInterface, Arbitrable {\n\n    Arbitrator public arbitrator;\n    bytes public arbitratorExtraData;\n    uint public stake;\n    uint public timeToChallenge;\n    enum ItemStatus {\n        Absent,                      // The item has never been submitted.\n        Cleared,                     // The item has been submitted and the dispute resolution process determined it was not forbidden. Or a clearing request has been submitted and not contested.\n        Resubmitted,                 // The item has been cleared but someone has resubmitted a blacklist request.\n        Blacklisted,                 // The item has been submitted and the dispute resolution process determined it was forbidden. Or a blacklist request has been submitted and not contested.\n        Submitted,                   // There is a blacklist request for this item.\n        ClearingRequested,           // The item is blacklisted but someone has submitted a clearing request.\n        PreventiveClearingRequested  // The item has never been blacklisted but someone asked to clear it preventively to avoid it being shown as not permitted during the dispute process.\n    }\n    struct Item {\n        ItemStatus status;       // Status of the item.\n        uint lastAction;         // Time of the last action.\n        address submitter;       // Address of the submitter if any.\n        address challenger;      // Address of the challenger if any.\n        uint balance;            // The total amount of funds to be given to the winner of a potential dispute. Include stake and reimbursement of arbitration fee.\n        bool disputed;           // True if a dispute is taking place.\n        uint disputeID;          // ID of the dispute, if any.\n    }\n\n    mapping(bytes32 => Item) public items;           // Return True if the item is in the list.\n    mapping(uint => bytes32) public disputeIDToItem; // Give the item from the disputeID.\n\n    uint8 constant BLACKLIST = 1;\n    uint8 constant CLEAR = 2;\n    string constant RULING_OPTIONS = \"Blacklist;Clear\"; // A plain English of what rulings do.\n\n\n    /** @dev Constructor.\n     *  @param _stake The amount in weis of deposit required for a submission or a challenge.\n     *  @param _timeToChallenge The time in second, others parties have to challenge\n     */\n    constructor(Arbitrator _arbitrator, bytes _arbitratorExtraData, uint _stake, uint _timeToChallenge) Arbitrable(_arbitrator, _arbitratorExtraData) public {\n        arbitrator=_arbitrator;\n        arbitratorExtraData=_arbitratorExtraData;\n        stake=_stake;\n        timeToChallenge=_timeToChallenge;\n    }\n\n    /** @dev Return true if the item is allowed. We take a conservative approach and return false if the status of the item is contested and it has not won a previous dispute.\n     *  @param _value The value of item we want to know if allowed.\n     *  @return allowed True if the item is allowed, false otherwise.\n     */\n    function isPermitted(bytes32 _value) public view returns (bool allowed) {\n        return items[_value].status<=ItemStatus.Resubmitted || (items[_value].status==ItemStatus.PreventiveClearingRequested && !items[_value].disputed);\n\n    }\n\n    /** @dev Request an item to be blacklisted.\n     *  @param _value The value of item to blacklist.\n     */\n    function requestBlacklisting(bytes32 _value) public payable {\n        Item storage item=items[_value];\n        uint arbitratorCost=arbitrator.arbitrationCost(arbitratorExtraData);\n        require(msg.value>=stake+arbitratorCost);\n        if (items[_value].status==ItemStatus.Absent)\n            items[_value].status=ItemStatus.Submitted;\n        else if (items[_value].status==ItemStatus.Cleared)\n            items[_value].status=ItemStatus.Resubmitted;\n        else\n            revert(); // It the item is neither Absent nor Cleared, it is not possible to request blacklisting.\n\n        item.submitter=msg.sender;\n        item.balance+=msg.value;\n        item.lastAction=now;\n    }\n\n    /** @dev Request an item to be cleared.\n     *  @param _value The value of item to be cleared.\n     */\n    function requestClearing(bytes32 _value) public payable {\n        Item storage item=items[_value];\n        uint arbitratorCost=arbitrator.arbitrationCost(arbitratorExtraData);\n        require(msg.value>=stake+arbitratorCost);\n        if (item.status==ItemStatus.Blacklisted)\n            item.status=ItemStatus.ClearingRequested;\n        else if (item.status==ItemStatus.Absent)\n            item.status=ItemStatus.PreventiveClearingRequested;\n        else\n            revert();\n        item.submitter=msg.sender;\n        item.balance+=msg.value;\n        item.lastAction=now;\n    }\n\n    /** @dev Challenge a blacklisting request.\n     *  @param _value The value of item subject to the blacklist request.\n     */\n    function challengeBlacklisting(bytes32 _value) public payable {\n       Item storage item=items[_value];\n       uint arbitratorCost=arbitrator.arbitrationCost(arbitratorExtraData);\n       require(msg.value>=stake+arbitratorCost);\n       require(item.status==ItemStatus.Resubmitted || item.status==ItemStatus.Submitted);\n       require(!item.disputed);\n\n       if (item.balance>=arbitratorCost) { // In the general case, create a dispute.\n            item.challenger=msg.sender;\n            item.balance+=msg.value-arbitratorCost;\n            item.disputed=true;\n            item.disputeID=arbitrator.createDispute.value(arbitratorCost)(2,arbitratorExtraData);\n            disputeIDToItem[item.disputeID]=_value;\n       }\n       else { // In the case the arbitration fees would have increased so much that the deposit of the requester is not high enough. Cancel the request.\n            if (item.status==ItemStatus.Resubmitted)\n                item.status=ItemStatus.Cleared;\n            else\n                item.status=ItemStatus.Absent;\n            item.submitter.send(item.balance); // On purpose use of send in order not to block the contract in case of reverting fallback.\n            item.balance=0;\n            msg.sender.transfer(msg.value);\n       }\n       item.lastAction=now;\n    }\n\n    /** @dev Challenge a clearing request.\n     *  @param _value The value of item subject to the clearing request.\n     */\n    function challengeClearing(bytes32 _value) public payable {\n       Item storage item=items[_value];\n       uint arbitratorCost=arbitrator.arbitrationCost(arbitratorExtraData);\n       require(msg.value>=stake+arbitratorCost);\n       require(item.status==ItemStatus.ClearingRequested || item.status==ItemStatus.PreventiveClearingRequested);\n       require(!item.disputed);\n\n       if (item.balance>=arbitratorCost) {\n            item.challenger=msg.sender;\n            item.balance+=msg.value-arbitratorCost;\n            item.disputed=true;\n            item.disputeID=arbitrator.createDispute.value(arbitratorCost)(2,arbitratorExtraData);\n            disputeIDToItem[item.disputeID]=_value;\n       }\n       else { // In the case the arbitration fees would have increased so much that the deposit of the requester is not high enough. Cancel the request.\n            if (item.status==ItemStatus.ClearingRequested)\n                item.status=ItemStatus.Blacklisted;\n            else\n                item.status=ItemStatus.Absent;\n            item.submitter.send(item.balance); // On purpose use of send in order not to block the contract in case of reverting fallback.\n            item.balance=0;\n            msg.sender.transfer(msg.value);\n       }\n       item.lastAction=now;\n    }\n\n    /** @dev Execute a request after the time for challenge has passed. Can be called by anyone.\n     *  @param _value The value of item to execute the request.\n     */\n    function executeRequest(bytes32 _value) public {\n       Item storage item=items[_value];\n       require(now-item.lastAction >=  timeToChallenge);\n       require(!item.disputed);\n       if (item.status==ItemStatus.Resubmitted || item.status==ItemStatus.Submitted)\n           item.status=ItemStatus.Blacklisted;\n       else if (item.status==ItemStatus.ClearingRequested || item.status==ItemStatus.PreventiveClearingRequested)\n           item.status=ItemStatus.Cleared;\n       else\n           revert();\n       item.submitter.send(item.balance); // On purpose use of send in order not to block the contract in case of reverting fallback.\n    }\n\n    /** @dev Appeal. Anyone can appeal to prevent a malicious actor from challenging its own submission and loosing on purpose.\n     *  @param _value The value of item to execute the appeal.\n     */\n    function appeal(bytes32 _value) public payable {\n        Item storage item=items[_value];\n        arbitrator.appeal.value(msg.value)(item.disputeID,arbitratorExtraData); // Appeal, no need to check anything as the arbitrator does.\n    }\n\n    /** @dev Execute a ruling of a dispute.\n     *  @param _disputeID ID of the dispute in the Arbitrator contract.\n     *  @param _ruling Ruling given by the arbitrator. Note that 0 is reserved for \"Not able/wanting to make a decision\".\n     */\n    function executeRuling(uint _disputeID, uint _ruling) internal {\n        Item storage item=items[disputeIDToItem[_disputeID]];\n        require(item.disputed);\n        if (_ruling==BLACKLIST) {\n            if (item.status==ItemStatus.Resubmitted || item.status==ItemStatus.Submitted)\n                item.submitter.send(item.balance); // The send are on purpose to prevent blocking.\n            else\n                item.challenger.send(item.balance);\n            item.status=ItemStatus.Blacklisted;\n        } else if (_ruling==CLEAR) {\n            if (item.status==ItemStatus.PreventiveClearingRequested || item.status==ItemStatus.ClearingRequested)\n                item.submitter.send(item.balance);\n            else\n                item.challenger.send(item.balance);\n            item.status=ItemStatus.Cleared;\n        } else { // Split the balance 50-50 and put the item in the absent initial state.\n            item.status=ItemStatus.Absent;\n            item.submitter.send(item.balance/2);\n            item.challenger.send(item.balance/2);\n        }\n        item.disputed=false;\n        item.balance=0;\n    }\n}\n",
  "sourcePath": "/Users/epiqueras/Work/kleros/kleros-interaction/contracts/standard/permission/ArbitrableBlacklist.sol",
  "compiler": {
    "name": "solc",
    "version": "0.4.24+commit.e67f0147.Emscripten.clang"
  },
  "schemaVersion": "2.0.1",
  "updatedAt": "2018-07-17T16:56:20.265Z"
}