{
  "contractName": "ArbitrablePermissionList",
  "abi": [
    {
      "constant": true,
      "inputs": [],
      "name": "timeToChallenge",
      "outputs": [
        {
          "name": "",
          "type": "uint256"
        }
      ],
      "payable": false,
      "stateMutability": "view",
      "type": "function"
    },
    {
      "constant": true,
      "inputs": [],
      "name": "arbitratorExtraData",
      "outputs": [
        {
          "name": "",
          "type": "bytes"
        }
      ],
      "payable": false,
      "stateMutability": "view",
      "type": "function"
    },
    {
      "constant": false,
      "inputs": [
        {
          "name": "_disputeID",
          "type": "uint256"
        },
        {
          "name": "_ruling",
          "type": "uint256"
        }
      ],
      "name": "rule",
      "outputs": [],
      "payable": false,
      "stateMutability": "nonpayable",
      "type": "function"
    },
    {
      "constant": true,
      "inputs": [],
      "name": "stake",
      "outputs": [
        {
          "name": "",
          "type": "uint256"
        }
      ],
      "payable": false,
      "stateMutability": "view",
      "type": "function"
    },
    {
      "constant": true,
      "inputs": [
        {
          "name": "",
          "type": "uint256"
        }
      ],
      "name": "disputeIDToItem",
      "outputs": [
        {
          "name": "",
          "type": "bytes32"
        }
      ],
      "payable": false,
      "stateMutability": "view",
      "type": "function"
    },
    {
      "constant": true,
      "inputs": [
        {
          "name": "",
          "type": "bytes32"
        }
      ],
      "name": "items",
      "outputs": [
        {
          "name": "status",
          "type": "uint8"
        },
        {
          "name": "lastAction",
          "type": "uint256"
        },
        {
          "name": "submitter",
          "type": "address"
        },
        {
          "name": "challenger",
          "type": "address"
        },
        {
          "name": "balance",
          "type": "uint256"
        },
        {
          "name": "disputed",
          "type": "bool"
        },
        {
          "name": "disputeID",
          "type": "uint256"
        }
      ],
      "payable": false,
      "stateMutability": "view",
      "type": "function"
    },
    {
      "constant": true,
      "inputs": [],
      "name": "arbitrator",
      "outputs": [
        {
          "name": "",
          "type": "address"
        }
      ],
      "payable": false,
      "stateMutability": "view",
      "type": "function"
    },
    {
      "constant": true,
      "inputs": [
        {
          "name": "",
          "type": "uint256"
        }
      ],
      "name": "itemsList",
      "outputs": [
        {
          "name": "",
          "type": "bytes32"
        }
      ],
      "payable": false,
      "stateMutability": "view",
      "type": "function"
    },
    {
      "inputs": [
        {
          "name": "_contractHash",
          "type": "bytes32"
        },
        {
          "name": "_blacklist",
          "type": "bool"
        },
        {
          "name": "_appendOnly",
          "type": "bool"
        },
        {
          "name": "_arbitrator",
          "type": "address"
        },
        {
          "name": "_arbitratorExtraData",
          "type": "bytes"
        },
        {
          "name": "_stake",
          "type": "uint256"
        },
        {
          "name": "_timeToChallenge",
          "type": "uint256"
        }
      ],
      "payable": false,
      "stateMutability": "nonpayable",
      "type": "constructor"
    },
    {
      "anonymous": false,
      "inputs": [
        {
          "indexed": true,
          "name": "_value",
          "type": "bytes32"
        },
        {
          "indexed": false,
          "name": "_newStatus",
          "type": "uint8"
        },
        {
          "indexed": false,
          "name": "_newDisputed",
          "type": "bool"
        }
      ],
      "name": "ItemStatusChange",
      "type": "event"
    },
    {
      "anonymous": false,
      "inputs": [
        {
          "indexed": true,
          "name": "_arbitrator",
          "type": "address"
        },
        {
          "indexed": true,
          "name": "_disputeID",
          "type": "uint256"
        },
        {
          "indexed": false,
          "name": "_rulingOptions",
          "type": "string"
        }
      ],
      "name": "Dispute",
      "type": "event"
    },
    {
      "anonymous": false,
      "inputs": [
        {
          "indexed": true,
          "name": "_arbitrator",
          "type": "address"
        },
        {
          "indexed": true,
          "name": "_disputeID",
          "type": "uint256"
        },
        {
          "indexed": false,
          "name": "_ruling",
          "type": "uint256"
        }
      ],
      "name": "Ruling",
      "type": "event"
    },
    {
      "anonymous": false,
      "inputs": [
        {
          "indexed": true,
          "name": "_arbitrator",
          "type": "address"
        },
        {
          "indexed": true,
          "name": "_disputeID",
          "type": "uint256"
        },
        {
          "indexed": false,
          "name": "_party",
          "type": "address"
        },
        {
          "indexed": false,
          "name": "_evidence",
          "type": "string"
        }
      ],
      "name": "Evidence",
      "type": "event"
    },
    {
      "anonymous": false,
      "inputs": [
        {
          "indexed": false,
          "name": "_contractHash",
          "type": "bytes32"
        }
      ],
      "name": "ContractHash",
      "type": "event"
    },
    {
      "constant": false,
      "inputs": [
        {
          "name": "_value",
          "type": "bytes32"
        }
      ],
      "name": "requestRegistering",
      "outputs": [],
      "payable": true,
      "stateMutability": "payable",
      "type": "function"
    },
    {
      "constant": false,
      "inputs": [
        {
          "name": "_value",
          "type": "bytes32"
        }
      ],
      "name": "requestClearing",
      "outputs": [],
      "payable": true,
      "stateMutability": "payable",
      "type": "function"
    },
    {
      "constant": false,
      "inputs": [
        {
          "name": "_value",
          "type": "bytes32"
        }
      ],
      "name": "challengeRegistering",
      "outputs": [],
      "payable": true,
      "stateMutability": "payable",
      "type": "function"
    },
    {
      "constant": false,
      "inputs": [
        {
          "name": "_value",
          "type": "bytes32"
        }
      ],
      "name": "challengeClearing",
      "outputs": [],
      "payable": true,
      "stateMutability": "payable",
      "type": "function"
    },
    {
      "constant": false,
      "inputs": [
        {
          "name": "_value",
          "type": "bytes32"
        }
      ],
      "name": "appeal",
      "outputs": [],
      "payable": true,
      "stateMutability": "payable",
      "type": "function"
    },
    {
      "constant": false,
      "inputs": [
        {
          "name": "_value",
          "type": "bytes32"
        }
      ],
      "name": "executeRequest",
      "outputs": [],
      "payable": false,
      "stateMutability": "nonpayable",
      "type": "function"
    },
    {
      "constant": true,
      "inputs": [
        {
          "name": "_value",
          "type": "bytes32"
        }
      ],
      "name": "isPermitted",
      "outputs": [
        {
          "name": "allowed",
          "type": "bool"
        }
      ],
      "payable": false,
      "stateMutability": "view",
      "type": "function"
    },
    {
      "constant": true,
      "inputs": [
        {
          "name": "_cursor",
          "type": "uint256"
        },
        {
          "name": "_count",
          "type": "uint256"
        },
        {
          "name": "_filter",
          "type": "bool[6]"
        },
        {
          "name": "_sort",
          "type": "bool"
        }
      ],
      "name": "queryItems",
      "outputs": [
        {
          "name": "",
          "type": "bytes32[]"
        }
      ],
      "payable": false,
      "stateMutability": "view",
      "type": "function"
    }
  ],
  "bytecode": "0x60806040523480156200001157600080fd5b5060405162002a0238038062002a0283398101806040528101908080519060200190929190805190602001909291908051906020019092919080519060200190929190805182019291906020018051906020019092919080519060200190929190505050838388826000806101000a81548173ffffffffffffffffffffffffffffffffffffffff021916908373ffffffffffffffffffffffffffffffffffffffff1602179055508160019080519060200190620000d0929190620001bb565b507f1892820d22f2ab2b60795935d39550f42562bf8862a0b3c2193b095baa40af218160405180826000191660001916815260200191505060405180910390a150505085600260006101000a81548160ff02191690831515021790555084600260016101000a81548160ff021916908315150217905550836002806101000a81548173ffffffffffffffffffffffffffffffffffffffff021916908373ffffffffffffffffffffffffffffffffffffffff16021790555082600390805190602001906200019f929190620001bb565b508160048190555080600581905550505050505050506200026a565b828054600181600116156101000203166002900490600052602060002090601f016020900481019282601f10620001fe57805160ff19168380011785556200022f565b828001600101855582156200022f579182015b828111156200022e57825182559160200191906001019062000211565b5b5090506200023e919062000242565b5090565b6200026791905b808211156200026357600081600090555060010162000249565b5090565b90565b612788806200027a6000396000f3006080604052600436106100e6576000357c0100000000000000000000000000000000000000000000000000000000900463ffffffff1680630689d0ff146100eb5780630c7ac7b614610116578063311a6c56146101a6578063342d9a04146101dd5780633a4b66f114610201578063409c88281461022c57806348f343f3146102755780636cc6cde11461034e57806393519d66146103a5578063a30b5c0b146103c9578063beabdb7b14610490578063c2bd9d95146104d9578063e5217ebc14610522578063e9c2416614610546578063ece1de4414610577578063fce806541461059b575b600080fd5b3480156100f757600080fd5b506101006105bf565b6040518082815260200191505060405180910390f35b34801561012257600080fd5b5061012b6105c5565b6040518080602001828103825283818151815260200191508051906020019080838360005b8381101561016b578082015181840152602081019050610150565b50505050905090810190601f1680156101985780820380516001836020036101000a031916815260200191505b509250505060405180910390f35b3480156101b257600080fd5b506101db6004803603810190808035906020019092919080359060200190929190505050610663565b005b6101ff600480360381019080803560001916906020019092919050505061071b565b005b34801561020d57600080fd5b50610216610ce1565b6040518082815260200191505060405180910390f35b34801561023857600080fd5b5061025760048036038101908080359060200190929190505050610ce7565b60405180826000191660001916815260200191505060405180910390f35b34801561028157600080fd5b506102a46004803603810190808035600019169060200190929190505050610cff565b604051808860068111156102b457fe5b60ff1681526020018781526020018673ffffffffffffffffffffffffffffffffffffffff1673ffffffffffffffffffffffffffffffffffffffff1681526020018573ffffffffffffffffffffffffffffffffffffffff1673ffffffffffffffffffffffffffffffffffffffff1681526020018481526020018315151515815260200182815260200197505050505050505060405180910390f35b34801561035a57600080fd5b50610363610d9b565b604051808273ffffffffffffffffffffffffffffffffffffffff1673ffffffffffffffffffffffffffffffffffffffff16815260200191505060405180910390f35b6103c76004803603810190808035600019169060200190929190505050610dc0565b005b3480156103d557600080fd5b5061043960048036038101908080359060200190929190803590602001909291908060c001906006806020026040519081016040528092919082600660200280828437820191505050505091929192908035151590602001909291905050506110f6565b6040518080602001828103825283818151815260200191508051906020019060200280838360005b8381101561047c578082015181840152602081019050610461565b505050509050019250505060405180910390f35b34801561049c57600080fd5b506104bf6004803603810190808035600019169060200190929190505050611515565b604051808215151515815260200191505060405180910390f35b3480156104e557600080fd5b50610504600480360381019080803590602001909291905050506115d7565b60405180826000191660001916815260200191505060405180910390f35b61054460048036038101908080356000191690602001909291905050506115fa565b005b34801561055257600080fd5b506105756004803603810190808035600019169060200190929190505050611bc1565b005b6105996004803603810190808035600019169060200190929190505050611df0565b005b6105bd6004803603810190808035600019169060200190929190505050611f4b565b005b60055481565b60038054600181600116156101000203166002900480601f01602080910402602001604051908101604052809291908181526020018280546001816001161561010002031660029004801561065b5780601f106106305761010080835404028352916020019161065b565b820191906000526020600020905b81548152906001019060200180831161063e57829003601f168201915b505050505081565b6000809054906101000a900473ffffffffffffffffffffffffffffffffffffffff1673ffffffffffffffffffffffffffffffffffffffff163373ffffffffffffffffffffffffffffffffffffffff161415156106be57600080fd5b813373ffffffffffffffffffffffffffffffffffffffff167f394027a5fa6e098a1191094d1719d6929b9abc535fcc0c8f448d6a4e75622276836040518082815260200191505060405180910390a361071782826122a5565b5050565b60008060066000846000191660001916815260200190815260200160002091506002809054906101000a900473ffffffffffffffffffffffffffffffffffffffff1673ffffffffffffffffffffffffffffffffffffffff1663f7434ea960036040518263ffffffff167c0100000000000000000000000000000000000000000000000000000000028152600401808060200182810382528381815460018160011615610100020316600290048152602001915080546001816001161561010002031660029004801561082e5780601f106108035761010080835404028352916020019161082e565b820191906000526020600020905b81548152906001019060200180831161081157829003601f168201915b505092505050602060405180830381600087803b15801561084e57600080fd5b505af1158015610862573d6000803e3d6000fd5b505050506040513d602081101561087857600080fd5b810190808051906020019092919050505090508060045401341015151561089e57600080fd5b600560068111156108ab57fe5b8260000160009054906101000a900460ff1660068111156108c857fe5b14806108fa57506006808111156108db57fe5b8260000160009054906101000a900460ff1660068111156108f857fe5b145b151561090557600080fd5b8160050160009054906101000a900460ff1615151561092357600080fd5b808260040154101515610b2957338260030160006101000a81548173ffffffffffffffffffffffffffffffffffffffff021916908373ffffffffffffffffffffffffffffffffffffffff160217905550803403826004016000828254019250508190555060018260050160006101000a81548160ff0219169083151502179055506002809054906101000a900473ffffffffffffffffffffffffffffffffffffffff1673ffffffffffffffffffffffffffffffffffffffff1663c13517e182600260036040518463ffffffff167c01000000000000000000000000000000000000000000000000000000000281526004018083815260200180602001828103825283818154600181600116156101000203166002900481526020019150805460018160011615610100020316600290048015610aa05780601f10610a7557610100808354040283529160200191610aa0565b820191906000526020600020905b815481529060010190602001808311610a8357829003601f168201915b505093505050506020604051808303818588803b158015610ac057600080fd5b505af1158015610ad4573d6000803e3d6000fd5b50505050506040513d6020811015610aeb57600080fd5b810190808051906020019092919050505082600601819055508260076000846006015481526020019081526020016000208160001916905550610c5b565b60056006811115610b3657fe5b8260000160009054906101000a900460ff166006811115610b5357fe5b1415610b845760038260000160006101000a81548160ff02191690836006811115610b7a57fe5b0217905550610bab565b60008260000160006101000a81548160ff02191690836006811115610ba557fe5b02179055505b8160020160009054906101000a900473ffffffffffffffffffffffffffffffffffffffff1673ffffffffffffffffffffffffffffffffffffffff166108fc83600401549081150290604051600060405180830381858888f1935050505050600082600401819055503373ffffffffffffffffffffffffffffffffffffffff166108fc349081150290604051600060405180830381858888f19350505050158015610c59573d6000803e3d6000fd5b505b42826001018190555082600019167fcfec32a0a4c9252b74de54ca8c7380c65a582e10ee68c0789e0d2d57d1ce39658360000160009054906101000a900460ff168460050160009054906101000a900460ff1660405180836006811115610cbe57fe5b60ff168152602001821515151581526020019250505060405180910390a2505050565b60045481565b60076020528060005260406000206000915090505481565b60066020528060005260406000206000915090508060000160009054906101000a900460ff16908060010154908060020160009054906101000a900473ffffffffffffffffffffffffffffffffffffffff16908060030160009054906101000a900473ffffffffffffffffffffffffffffffffffffffff16908060040154908060050160009054906101000a900460ff16908060060154905087565b6002809054906101000a900473ffffffffffffffffffffffffffffffffffffffff1681565b60008060066000846000191660001916815260200190815260200160002091506002809054906101000a900473ffffffffffffffffffffffffffffffffffffffff1673ffffffffffffffffffffffffffffffffffffffff1663f7434ea960036040518263ffffffff167c01000000000000000000000000000000000000000000000000000000000281526004018080602001828103825283818154600181600116156101000203166002900481526020019150805460018160011615610100020316600290048015610ed35780601f10610ea857610100808354040283529160200191610ed3565b820191906000526020600020905b815481529060010190602001808311610eb657829003601f168201915b505092505050602060405180830381600087803b158015610ef357600080fd5b505af1158015610f07573d6000803e3d6000fd5b505050506040513d6020811015610f1d57600080fd5b81019080805190602001909291905050509050600260019054906101000a900460ff16151515610f4c57600080fd5b80600454013410151515610f5f57600080fd5b60036006811115610f6c57fe5b8260000160009054906101000a900460ff166006811115610f8957fe5b1415610fba5760058260000160006101000a81548160ff02191690836006811115610fb057fe5b021790555061101b565b60006006811115610fc757fe5b8260000160009054906101000a900460ff166006811115610fe457fe5b14156110155760068260000160006101000a81548160ff0219169083600681111561100b57fe5b021790555061101a565b600080fd5b5b338260020160006101000a81548173ffffffffffffffffffffffffffffffffffffffff021916908373ffffffffffffffffffffffffffffffffffffffff16021790555034826004016000828254019250508190555042826001018190555082600019167fcfec32a0a4c9252b74de54ca8c7380c65a582e10ee68c0789e0d2d57d1ce39658360000160009054906101000a900460ff168460050160009054906101000a900460ff16604051808360068111156110d357fe5b60ff168152602001821515151581526020019250505060405180910390a2505050565b60608060008060008760405190808252806020026020018201604052801561112d5781602001602082028038833980820191505090505b509350600092506008805490508910151561114757600080fd5b6000891461116e5785611164576001896008805490500301611169565b600189015b611181565b8561117a57600161117d565b60005b60ff165b91505b85611197576008805490508211156111a0565b60088054905082105b1561150657600660006008886111bd5784600880549050036111bf565b845b8154811015156111cb57fe5b9060005260206000200154600019166000191681526020019081526020016000209050600060068111156111fb57fe5b8160000160009054906101000a900460ff16600681111561121857fe5b1415801561124d575060068081111561122d57fe5b8160000160009054906101000a900460ff16600681111561124a57fe5b14155b801561148b575086600060068110151561126357fe5b602002015180156112cd57506002600681111561127c57fe5b8160000160009054906101000a900460ff16600681111561129957fe5b14806112cc5750600460068111156112ad57fe5b8160000160009054906101000a900460ff1660068111156112ca57fe5b145b5b8061130257508660016006811015156112e257fe5b6020020151801561130157508060050160009054906101000a900460ff165b5b80611350575086600260068110151561131757fe5b6020020151801561134f57506003600681111561133057fe5b8160000160009054906101000a900460ff16600681111561134d57fe5b145b5b8061139e575086600360068110151561136557fe5b6020020151801561139d57506001600681111561137e57fe5b8160000160009054906101000a900460ff16600681111561139b57fe5b145b5b8061141457508660046006811015156113b357fe5b6020020151801561141357503373ffffffffffffffffffffffffffffffffffffffff168160020160009054906101000a900473ffffffffffffffffffffffffffffffffffffffff1673ffffffffffffffffffffffffffffffffffffffff16145b5b8061148a575086600560068110151561142957fe5b6020020151801561148957503373ffffffffffffffffffffffffffffffffffffffff168160030160009054906101000a900473ffffffffffffffffffffffffffffffffffffffff1673ffffffffffffffffffffffffffffffffffffffff16145b5b5b156114f9576008866114a45782600880549050036114a6565b825b8154811015156114b257fe5b906000526020600020015484848151811015156114cb57fe5b9060200190602002019060001916908160001916815250508280600101935050878314156114f857611506565b5b8180600101925050611184565b83945050505050949350505050565b600080600060066000856000191660001916815260200190815260200160002091506002600681111561154457fe5b8260000160009054906101000a900460ff16600681111561156157fe5b1115806115af575060068081111561157557fe5b8260000160009054906101000a900460ff16600681111561159257fe5b1480156115ae57508160050160009054906101000a900460ff16155b5b9050600260009054906101000a900460ff166115cb57806115ce565b80155b92505050919050565b6008818154811015156115e657fe5b906000526020600020016000915090505481565b60008060066000846000191660001916815260200190815260200160002091506002809054906101000a900473ffffffffffffffffffffffffffffffffffffffff1673ffffffffffffffffffffffffffffffffffffffff1663f7434ea960036040518263ffffffff167c0100000000000000000000000000000000000000000000000000000000028152600401808060200182810382528381815460018160011615610100020316600290048152602001915080546001816001161561010002031660029004801561170d5780601f106116e25761010080835404028352916020019161170d565b820191906000526020600020905b8154815290600101906020018083116116f057829003601f168201915b505092505050602060405180830381600087803b15801561172d57600080fd5b505af1158015611741573d6000803e3d6000fd5b505050506040513d602081101561175757600080fd5b810190808051906020019092919050505090508060045401341015151561177d57600080fd5b6002600681111561178a57fe5b8260000160009054906101000a900460ff1660068111156117a757fe5b14806117da5750600460068111156117bb57fe5b8260000160009054906101000a900460ff1660068111156117d857fe5b145b15156117e557600080fd5b8160050160009054906101000a900460ff1615151561180357600080fd5b808260040154101515611a0957338260030160006101000a81548173ffffffffffffffffffffffffffffffffffffffff021916908373ffffffffffffffffffffffffffffffffffffffff160217905550803403826004016000828254019250508190555060018260050160006101000a81548160ff0219169083151502179055506002809054906101000a900473ffffffffffffffffffffffffffffffffffffffff1673ffffffffffffffffffffffffffffffffffffffff1663c13517e182600260036040518463ffffffff167c010000000000000000000000000000000000000000000000000000000002815260040180838152602001806020018281038252838181546001816001161561010002031660029004815260200191508054600181600116156101000203166002900480156119805780601f1061195557610100808354040283529160200191611980565b820191906000526020600020905b81548152906001019060200180831161196357829003601f168201915b505093505050506020604051808303818588803b1580156119a057600080fd5b505af11580156119b4573d6000803e3d6000fd5b50505050506040513d60208110156119cb57600080fd5b810190808051906020019092919050505082600601819055508260076000846006015481526020019081526020016000208160001916905550611b3b565b60026006811115611a1657fe5b8260000160009054906101000a900460ff166006811115611a3357fe5b1415611a645760018260000160006101000a81548160ff02191690836006811115611a5a57fe5b0217905550611a8b565b60008260000160006101000a81548160ff02191690836006811115611a8557fe5b02179055505b8160020160009054906101000a900473ffffffffffffffffffffffffffffffffffffffff1673ffffffffffffffffffffffffffffffffffffffff166108fc83600401549081150290604051600060405180830381858888f1935050505050600082600401819055503373ffffffffffffffffffffffffffffffffffffffff166108fc349081150290604051600060405180830381858888f19350505050158015611b39573d6000803e3d6000fd5b505b42826001018190555082600019167fcfec32a0a4c9252b74de54ca8c7380c65a582e10ee68c0789e0d2d57d1ce39658360000160009054906101000a900460ff168460050160009054906101000a900460ff1660405180836006811115611b9e57fe5b60ff168152602001821515151581526020019250505060405180910390a2505050565b600060066000836000191660001916815260200190815260200160002090506005548160010154420310151515611bf757600080fd5b60026006811115611c0457fe5b8160000160009054906101000a900460ff166006811115611c2157fe5b1480611c54575060046006811115611c3557fe5b8160000160009054906101000a900460ff166006811115611c5257fe5b145b15611c845760038160000160006101000a81548160ff02191690836006811115611c7a57fe5b0217905550611d16565b60056006811115611c9157fe5b8160000160009054906101000a900460ff166006811115611cae57fe5b1480611ce05750600680811115611cc157fe5b8160000160009054906101000a900460ff166006811115611cde57fe5b145b15611d105760018160000160006101000a81548160ff02191690836006811115611d0657fe5b0217905550611d15565b600080fd5b5b8060020160009054906101000a900473ffffffffffffffffffffffffffffffffffffffff1673ffffffffffffffffffffffffffffffffffffffff166108fc82600401549081150290604051600060405180830381858888f193505050505081600019167fcfec32a0a4c9252b74de54ca8c7380c65a582e10ee68c0789e0d2d57d1ce39658260000160009054906101000a900460ff168360050160009054906101000a900460ff1660405180836006811115611dce57fe5b60ff168152602001821515151581526020019250505060405180910390a25050565b600060066000836000191660001916815260200190815260200160002090506002809054906101000a900473ffffffffffffffffffffffffffffffffffffffff1673ffffffffffffffffffffffffffffffffffffffff166349912f8834836006015460036040518463ffffffff167c01000000000000000000000000000000000000000000000000000000000281526004018083815260200180602001828103825283818154600181600116156101000203166002900481526020019150805460018160011615610100020316600290048015611f0e5780601f10611ee357610100808354040283529160200191611f0e565b820191906000526020600020905b815481529060010190602001808311611ef157829003601f168201915b505093505050506000604051808303818588803b158015611f2e57600080fd5b505af1158015611f42573d6000803e3d6000fd5b50505050505050565b60008060066000846000191660001916815260200190815260200160002091506002809054906101000a900473ffffffffffffffffffffffffffffffffffffffff1673ffffffffffffffffffffffffffffffffffffffff1663f7434ea960036040518263ffffffff167c0100000000000000000000000000000000000000000000000000000000028152600401808060200182810382528381815460018160011615610100020316600290048152602001915080546001816001161561010002031660029004801561205e5780601f106120335761010080835404028352916020019161205e565b820191906000526020600020905b81548152906001019060200180831161204157829003601f168201915b505092505050602060405180830381600087803b15801561207e57600080fd5b505af1158015612092573d6000803e3d6000fd5b505050506040513d60208110156120a857600080fd5b81019080805190602001909291905050509050806004540134101515156120ce57600080fd5b600060068111156120db57fe5b8260000160009054906101000a900460ff1660068111156120f857fe5b14156121295760048260000160006101000a81548160ff0219169083600681111561211f57fe5b021790555061218a565b6001600681111561213657fe5b8260000160009054906101000a900460ff16600681111561215357fe5b14156121845760028260000160006101000a81548160ff0219169083600681111561217a57fe5b0217905550612189565b600080fd5b5b6000826001015414156121ca5760088390806001815401808255809150509060018203906000526020600020016000909192909190915090600019169055505b338260020160006101000a81548173ffffffffffffffffffffffffffffffffffffffff021916908373ffffffffffffffffffffffffffffffffffffffff16021790555034826004016000828254019250508190555042826001018190555082600019167fcfec32a0a4c9252b74de54ca8c7380c65a582e10ee68c0789e0d2d57d1ce39658360000160009054906101000a900460ff168460050160009054906101000a900460ff166040518083600681111561228257fe5b60ff168152602001821515151581526020019250505060405180910390a2505050565b60006006600060076000868152602001908152602001600020546000191660001916815260200190815260200160002090508060050160009054906101000a900460ff1615156122f457600080fd5b600160ff1682141561244f576002600681111561230d57fe5b8160000160009054906101000a900460ff16600681111561232a57fe5b148061235d57506004600681111561233e57fe5b8160000160009054906101000a900460ff16600681111561235b57fe5b145b156123c5578060020160009054906101000a900473ffffffffffffffffffffffffffffffffffffffff1673ffffffffffffffffffffffffffffffffffffffff166108fc82600401549081150290604051600060405180830381858888f1935050505050612424565b8060030160009054906101000a900473ffffffffffffffffffffffffffffffffffffffff1673ffffffffffffffffffffffffffffffffffffffff166108fc82600401549081150290604051600060405180830381858888f19350505050505b60038160000160006101000a81548160ff0219169083600681111561244557fe5b02179055506126a5565b600260ff168214156125a95760068081111561246757fe5b8160000160009054906101000a900460ff16600681111561248457fe5b14806124b757506005600681111561249857fe5b8160000160009054906101000a900460ff1660068111156124b557fe5b145b1561251f578060020160009054906101000a900473ffffffffffffffffffffffffffffffffffffffff1673ffffffffffffffffffffffffffffffffffffffff166108fc82600401549081150290604051600060405180830381858888f193505050505061257e565b8060030160009054906101000a900473ffffffffffffffffffffffffffffffffffffffff1673ffffffffffffffffffffffffffffffffffffffff166108fc82600401549081150290604051600060405180830381858888f19350505050505b60018160000160006101000a81548160ff0219169083600681111561259f57fe5b02179055506126a4565b60008160000160006101000a81548160ff021916908360068111156125ca57fe5b02179055508060020160009054906101000a900473ffffffffffffffffffffffffffffffffffffffff1673ffffffffffffffffffffffffffffffffffffffff166108fc6002836004015481151561261d57fe5b049081150290604051600060405180830381858888f19350505050508060030160009054906101000a900473ffffffffffffffffffffffffffffffffffffffff1673ffffffffffffffffffffffffffffffffffffffff166108fc6002836004015481151561268757fe5b049081150290604051600060405180830381858888f19350505050505b5b60008160050160006101000a81548160ff021916908315150217905550600081600401819055506007600084815260200190815260200160002054600019167fcfec32a0a4c9252b74de54ca8c7380c65a582e10ee68c0789e0d2d57d1ce39658260000160009054906101000a900460ff168360050160009054906101000a900460ff166040518083600681111561273957fe5b60ff168152602001821515151581526020019250505060405180910390a25050505600a165627a7a72305820202df8590ace4ccc574a337a6e657ae2c3a3a44bebab1f0cf429ca6ae157a41f0029",
  "source": " /**\n *  @title Arbitrable Permission List\n *  @author Clment Lesaege - <clement@lesaege.com>\n *  This code hasn't undertaken bug bounty programs yet.\n *  This code requires truffle tests.\n */\n\npragma solidity ^0.4.23;\n\nimport \"../arbitration/Arbitrable.sol\";\nimport \"./PermissionInterface.sol\";\n\n/**\n *  @title Arbitrable Permission List\n *  @dev This is an arbitrator curated registry. Anyone can post an item with a deposit. If no one complains within a defined time period, the item is added to the registry.\n *  Someone can complain and also post a deposit, if, someone does, a dispute is created. The winner of the dispute gets the deposit of the other party and the item is added or removed accordingly.\n *  During the time of the dispute, the item is shown as blacklisted unless it already won a previous dispute. This follows the philosophy that it is better to show the user a warning about a potentially harmless listing than to take the risk of the user being scammed or exposed to inappropriate content without warning.\n *  To make a request, parties have to deposit a stake and the arbitration fees. If the arbitration fees change between the submitter's payment and the challenger's payment, a part of the submitter stake can be used as an arbitration fee deposit.\n *  In case the arbitrator refuses to rule, the item is put in the initial absent status and the balance is split equally between parties.\n */\ncontract ArbitrablePermissionList is PermissionInterface, Arbitrable {\n    /* Enums */\n\n    enum ItemStatus {\n        Absent, // The item has never been submitted.\n        Cleared, // The item has been submitted and the dispute resolution process determined it should not be added or a clearing request has been submitted and not contested.\n        Resubmitted, // The item has been cleared but someone has resubmitted it.\n        Registered, // The item has been submitted and the dispute resolution process determined it should be added or the submission was never contested.\n        Submitted, // The item has been submitted.\n        ClearingRequested, // The item is registered, but someone has requested to remove it.\n        PreventiveClearingRequested // The item has never been registered, but someone asked to clear it preemptively to avoid it being shown as not registered during the dispute resolution process.\n    }\n\n    /* Structs */\n\n    struct Item {\n        ItemStatus status; // Status of the item.\n        uint lastAction; // Time of the last action.\n        address submitter; // Address of the submitter, if any.\n        address challenger; // Address of the challenger, if any.\n        // The total amount of funds to be given to the winner of a potential dispute. Includes stake and reimbursement of arbitration fees.\n        uint balance;\n        bool disputed; // True if a dispute is taking place.\n        uint disputeID; // ID of the dispute, if any.\n    }\n\n    /* Events */\n\n    /**\n     *  @dev Called when the item's status changes or when it is contested/resolved.\n     *  @param _value The value of the item.\n     *  @param _newStatus The new status of the item.\n     *  @param _newDisputed The new disputed state of the item.\n     */\n    event ItemStatusChange(bytes32 indexed _value, ItemStatus _newStatus, bool _newDisputed);\n\n    /* Storage */\n\n    // Settings\n    bool blacklist; // True if the list should function as a blacklist, false if it should function as a whitelist.\n    bool appendOnly; // True if the list should be append only.\n    Arbitrator public arbitrator;\n    bytes public arbitratorExtraData;\n    uint public stake;\n    uint public timeToChallenge;\n\n    // Ruling Options\n    uint8 constant REGISTER = 1;\n    uint8 constant CLEAR = 2;\n    string constant RULING_OPTIONS = \"Register;Clear\";\n\n    // Items\n    mapping(bytes32 => Item) public items;\n    mapping(uint => bytes32) public disputeIDToItem;\n    bytes32[] public itemsList;\n\n    /* Constructor */\n\n    /**\n     *  @dev Constructs the arbitrable permission list and sets the type.\n     *  @param _contractHash Keccak256 hash of the plain contract.\n     *  @param _blacklist True if the list should function as a blacklist, false if it should function as a whitelist.\n     *  @param _appendOnly True if the list should be append only.\n     *  @param _arbitrator The chosen arbitrator.\n     *  @param _arbitratorExtraData Extra data for the arbitrator contract.\n     *  @param _stake The amount in Weis of deposit required for a submission or a challenge.\n     *  @param _timeToChallenge The time in seconds, other parties have to challenge.\n     */\n    function ArbitrablePermissionList(\n        bytes32 _contractHash,\n        bool _blacklist,\n        bool _appendOnly,\n        Arbitrator _arbitrator,\n        bytes _arbitratorExtraData,\n        uint _stake,\n        uint _timeToChallenge) Arbitrable(_arbitrator, _arbitratorExtraData, _contractHash) public {\n        blacklist = _blacklist;\n        appendOnly = _appendOnly;\n        arbitrator = _arbitrator;\n        arbitratorExtraData = _arbitratorExtraData;\n        stake = _stake;\n        timeToChallenge = _timeToChallenge;\n    }\n\n    /* Public */\n\n    /**\n     *  @dev Request an item to be registered.\n     *  @param _value The value of the item to register.\n     */\n    function requestRegistering(bytes32 _value) public payable {\n        Item storage item = items[_value];\n        uint arbitratorCost = arbitrator.arbitrationCost(arbitratorExtraData);\n        require(msg.value >= stake + arbitratorCost);\n\n        if (item.status == ItemStatus.Absent)\n            item.status = ItemStatus.Submitted;\n        else if (item.status == ItemStatus.Cleared)\n            item.status = ItemStatus.Resubmitted;\n        else\n            revert(); // If the item is neither Absent nor Cleared, it is not possible to request registering it.\n\n        if (item.lastAction == 0) itemsList.push(_value);\n\n        item.submitter = msg.sender;\n        item.balance += msg.value;\n        item.lastAction = now;\n\n        emit ItemStatusChange(_value, item.status, item.disputed);\n    }\n\n    /**\n     *  @dev Request an item to be cleared.\n     *  @param _value The value of the item to clear.\n     */\n    function requestClearing(bytes32 _value) public payable {\n        Item storage item = items[_value];\n        uint arbitratorCost = arbitrator.arbitrationCost(arbitratorExtraData);\n        require(!appendOnly);\n        require(msg.value >= stake + arbitratorCost);\n\n        if (item.status == ItemStatus.Registered)\n            item.status = ItemStatus.ClearingRequested;\n        else if (item.status == ItemStatus.Absent)\n            item.status = ItemStatus.PreventiveClearingRequested;\n        else\n            revert(); // If the item is neither Registered nor Absent, it is not possible to request clearing it.\n\n        item.submitter = msg.sender;\n        item.balance += msg.value;\n        item.lastAction = now;\n\n        emit ItemStatusChange(_value, item.status, item.disputed);\n    }\n\n    /**\n     *  @dev Challenge a registering request.\n     *  @param _value The value of the item subject to the registering request.\n     */\n    function challengeRegistering(bytes32 _value) public payable {\n        Item storage item = items[_value];\n        uint arbitratorCost = arbitrator.arbitrationCost(arbitratorExtraData);\n        require(msg.value >= stake + arbitratorCost);\n        require(item.status == ItemStatus.Resubmitted || item.status == ItemStatus.Submitted);\n        require(!item.disputed);\n\n        if (item.balance >= arbitratorCost) { // In the general case, create a dispute.\n            item.challenger = msg.sender;\n            item.balance += msg.value-arbitratorCost;\n            item.disputed = true;\n            item.disputeID = arbitrator.createDispute.value(arbitratorCost)(2,arbitratorExtraData);\n            disputeIDToItem[item.disputeID] = _value;\n        } else { // In the case the arbitration fees increase so much that the deposit of the requester is not high enough. Cancel the request.\n            if (item.status == ItemStatus.Resubmitted)\n                item.status = ItemStatus.Cleared;\n            else\n                item.status = ItemStatus.Absent;\n\n            item.submitter.send(item.balance); // Deliberate use of send in order to not block the contract in case of reverting fallback.\n            item.balance = 0;\n            msg.sender.transfer(msg.value);\n        }\n\n        item.lastAction = now;\n\n        emit ItemStatusChange(_value, item.status, item.disputed);\n    }\n\n    /**\n     *  @dev Challenge a clearing request.\n     *  @param _value The value of the item subject to the clearing request.\n     */\n    function challengeClearing(bytes32 _value) public payable {\n        Item storage item = items[_value];\n        uint arbitratorCost = arbitrator.arbitrationCost(arbitratorExtraData);\n        require(msg.value >= stake + arbitratorCost);\n        require(item.status == ItemStatus.ClearingRequested || item.status == ItemStatus.PreventiveClearingRequested);\n        require(!item.disputed);\n\n        if (item.balance >= arbitratorCost) { // In the general case, create a dispute.\n            item.challenger = msg.sender;\n            item.balance += msg.value-arbitratorCost;\n            item.disputed = true;\n            item.disputeID = arbitrator.createDispute.value(arbitratorCost)(2,arbitratorExtraData);\n            disputeIDToItem[item.disputeID] = _value;\n        } else { // In the case the arbitration fees increase so much that the deposit of the requester is not high enough. Cancel the request.\n            if (item.status == ItemStatus.ClearingRequested)\n                item.status = ItemStatus.Registered;\n            else\n                item.status = ItemStatus.Absent;\n\n            item.submitter.send(item.balance); // Deliberate use of send in order to not block the contract in case of reverting fallback.\n            item.balance = 0;\n            msg.sender.transfer(msg.value);\n        }\n\n        item.lastAction = now;\n\n        emit ItemStatusChange(_value, item.status, item.disputed);\n    }\n\n    /**\n     *  @dev Appeal ruling. Anyone can appeal to prevent a malicious actor from challenging its own submission and loosing on purpose.\n     *  @param _value The value of the item with the dispute to appeal on.\n     */\n    function appeal(bytes32 _value) public payable {\n        Item storage item = items[_value];\n        arbitrator.appeal.value(msg.value)(item.disputeID,arbitratorExtraData); // Appeal, no need to check anything as the arbitrator does it.\n    }\n\n    /**\n     *  @dev Execute a request after the time for challenging it has passed. Can be called by anyone.\n     *  @param _value The value of the item with the request to execute.\n     */\n    function executeRequest(bytes32 _value) public {\n        Item storage item = items[_value];\n        require(now - item.lastAction >= timeToChallenge);\n\n        if (item.status == ItemStatus.Resubmitted || item.status == ItemStatus.Submitted)\n            item.status = ItemStatus.Registered;\n        else if (item.status == ItemStatus.ClearingRequested || item.status == ItemStatus.PreventiveClearingRequested)\n            item.status = ItemStatus.Cleared;\n        else\n            revert();\n\n        item.submitter.send(item.balance); // Deliberate use of send in order to not block the contract in case of reverting fallback.\n\n        emit ItemStatusChange(_value, item.status, item.disputed);\n    }\n\n    /* Public Views */\n\n    /**\n     *  @dev Return true if the item is allowed. We take a conservative approach and return false if the status of the item is contested and it has not won a previous dispute.\n     *  @param _value The value of the item to check.\n     *  @return allowed True if the item is allowed, false otherwise.\n     */\n    function isPermitted(bytes32 _value) public view returns (bool allowed) {\n        Item storage item = items[_value];\n        bool _registered = item.status <= ItemStatus.Resubmitted ||\n            (item.status == ItemStatus.PreventiveClearingRequested && !item.disputed);\n        return blacklist ? !_registered : _registered;\n    }\n\n    /* Internal */\n\n    /**\n     *  @dev Execute the ruling of a dispute.\n     *  @param _disputeID ID of the dispute in the Arbitrator contract.\n     *  @param _ruling Ruling given by the arbitrator. Note that 0 is reserved for \"Not able/wanting to make a decision\".\n     */\n    function executeRuling(uint _disputeID, uint _ruling) internal {\n        Item storage item = items[disputeIDToItem[_disputeID]];\n        require(item.disputed);\n\n        if (_ruling == REGISTER) {\n            if (item.status == ItemStatus.Resubmitted || item.status == ItemStatus.Submitted)\n                item.submitter.send(item.balance); // Deliberate use of send in order to not block the contract in case of reverting fallback.\n            else\n                item.challenger.send(item.balance);\n\n            item.status = ItemStatus.Registered;\n        } else if (_ruling == CLEAR) {\n            if (item.status == ItemStatus.PreventiveClearingRequested || item.status == ItemStatus.ClearingRequested)\n                item.submitter.send(item.balance);\n            else\n                item.challenger.send(item.balance);\n\n            item.status = ItemStatus.Cleared;\n        } else { // Split the balance 50-50 and give the item the initial status.\n            item.status = ItemStatus.Absent;\n            item.submitter.send(item.balance / 2);\n            item.challenger.send(item.balance / 2);\n        }\n\n        item.disputed = false;\n        item.balance = 0;\n\n        emit ItemStatusChange(disputeIDToItem[_disputeID], item.status, item.disputed);\n    }\n\n    /* Interface Views */\n\n    /**\n     *  @dev Return the values of the items the query finds.\n     *  This function is O(n) at worst, where n is the number of items. This could exceed the gas limit, therefore this function should only be used for interface display and not by other contracts.\n     *  @param _cursor The pagination cursor.\n     *  @param _count The number of items to return.\n     *  @param _filter The filter to use.\n     *  @param _sort The sort order to use.\n     *  @return values The values of the items found.\n     */\n    function queryItems(uint _cursor, uint _count, bool[6] _filter, bool _sort) public view returns (bytes32[]) {\n        bytes32[] memory values = new bytes32[](_count);\n        uint index = 0;\n        require(_cursor < itemsList.length);\n\n        for (\n                uint i = _cursor == 0 ? (_sort ? 0 : 1) : (_sort ? _cursor + 1 : itemsList.length - _cursor + 1);\n                _sort ? i < itemsList.length : i <= itemsList.length;\n                i++\n            ) { // Oldest or newest first\n            Item storage item = items[itemsList[_sort ? i : itemsList.length - i]];\n            if (\n                item.status != ItemStatus.Absent && item.status != ItemStatus.PreventiveClearingRequested && (\n                    (_filter[0] && (item.status == ItemStatus.Resubmitted || item.status == ItemStatus.Submitted)) || // Pending\n                    (_filter[1] && item.disputed) || // Challenged\n                    (_filter[2] && item.status == ItemStatus.Registered) || // Accepted\n                    (_filter[3] && item.status == ItemStatus.Cleared) || // Rejected\n                    (_filter[4] && item.submitter == msg.sender) || // My Submissions\n                    (_filter[5] && item.challenger == msg.sender) // My Challenges\n                )\n            ) {\n                values[index] = itemsList[_sort ? i : itemsList.length - i];\n                index++;\n                if (index == _count) break;\n            }\n        }\n        \n        return values;\n    }\n}\n",
  "sourcePath": "/Users/epiqueras/Work/kleros/kleros-interaction/contracts/standard/permission/ArbitrablePermissionList.sol",
  "compiler": {
    "name": "solc",
    "version": "0.4.23+commit.124ca40d.Emscripten.clang"
  },
  "schemaVersion": "2.0.0",
  "updatedAt": "2018-06-29T04:53:54.316Z"
}