{
  "contractName": "ArbitrablePermissionList",
  "abi": [
    {
      "constant": true,
      "inputs": [],
      "name": "timeToChallenge",
      "outputs": [
        {
          "name": "",
          "type": "uint256"
        }
      ],
      "payable": false,
      "stateMutability": "view",
      "type": "function"
    },
    {
      "constant": true,
      "inputs": [],
      "name": "arbitratorExtraData",
      "outputs": [
        {
          "name": "",
          "type": "bytes"
        }
      ],
      "payable": false,
      "stateMutability": "view",
      "type": "function"
    },
    {
      "constant": false,
      "inputs": [
        {
          "name": "_disputeID",
          "type": "uint256"
        },
        {
          "name": "_ruling",
          "type": "uint256"
        }
      ],
      "name": "rule",
      "outputs": [],
      "payable": false,
      "stateMutability": "nonpayable",
      "type": "function"
    },
    {
      "constant": true,
      "inputs": [],
      "name": "stake",
      "outputs": [
        {
          "name": "",
          "type": "uint256"
        }
      ],
      "payable": false,
      "stateMutability": "view",
      "type": "function"
    },
    {
      "constant": true,
      "inputs": [
        {
          "name": "",
          "type": "uint256"
        }
      ],
      "name": "disputeIDToItem",
      "outputs": [
        {
          "name": "",
          "type": "bytes32"
        }
      ],
      "payable": false,
      "stateMutability": "view",
      "type": "function"
    },
    {
      "constant": true,
      "inputs": [
        {
          "name": "",
          "type": "bytes32"
        }
      ],
      "name": "items",
      "outputs": [
        {
          "name": "status",
          "type": "uint8"
        },
        {
          "name": "lastAction",
          "type": "uint256"
        },
        {
          "name": "submitter",
          "type": "address"
        },
        {
          "name": "challenger",
          "type": "address"
        },
        {
          "name": "balance",
          "type": "uint256"
        },
        {
          "name": "disputed",
          "type": "bool"
        },
        {
          "name": "disputeID",
          "type": "uint256"
        }
      ],
      "payable": false,
      "stateMutability": "view",
      "type": "function"
    },
    {
      "constant": true,
      "inputs": [],
      "name": "appendOnly",
      "outputs": [
        {
          "name": "",
          "type": "bool"
        }
      ],
      "payable": false,
      "stateMutability": "view",
      "type": "function"
    },
    {
      "constant": true,
      "inputs": [],
      "name": "arbitrator",
      "outputs": [
        {
          "name": "",
          "type": "address"
        }
      ],
      "payable": false,
      "stateMutability": "view",
      "type": "function"
    },
    {
      "constant": true,
      "inputs": [],
      "name": "blacklist",
      "outputs": [
        {
          "name": "",
          "type": "bool"
        }
      ],
      "payable": false,
      "stateMutability": "view",
      "type": "function"
    },
    {
      "constant": true,
      "inputs": [
        {
          "name": "",
          "type": "uint256"
        }
      ],
      "name": "itemsList",
      "outputs": [
        {
          "name": "",
          "type": "bytes32"
        }
      ],
      "payable": false,
      "stateMutability": "view",
      "type": "function"
    },
    {
      "inputs": [
        {
          "name": "_blacklist",
          "type": "bool"
        },
        {
          "name": "_appendOnly",
          "type": "bool"
        },
        {
          "name": "_arbitrator",
          "type": "address"
        },
        {
          "name": "_arbitratorExtraData",
          "type": "bytes"
        },
        {
          "name": "_stake",
          "type": "uint256"
        },
        {
          "name": "_timeToChallenge",
          "type": "uint256"
        }
      ],
      "payable": false,
      "stateMutability": "nonpayable",
      "type": "constructor"
    },
    {
      "anonymous": false,
      "inputs": [
        {
          "indexed": true,
          "name": "submitter",
          "type": "address"
        },
        {
          "indexed": true,
          "name": "challenger",
          "type": "address"
        },
        {
          "indexed": true,
          "name": "value",
          "type": "bytes32"
        },
        {
          "indexed": false,
          "name": "newStatus",
          "type": "uint8"
        },
        {
          "indexed": false,
          "name": "newDisputed",
          "type": "bool"
        }
      ],
      "name": "ItemStatusChange",
      "type": "event"
    },
    {
      "anonymous": false,
      "inputs": [
        {
          "indexed": true,
          "name": "_arbitrator",
          "type": "address"
        },
        {
          "indexed": true,
          "name": "_disputeID",
          "type": "uint256"
        },
        {
          "indexed": false,
          "name": "_rulingOptions",
          "type": "string"
        }
      ],
      "name": "Dispute",
      "type": "event"
    },
    {
      "anonymous": false,
      "inputs": [
        {
          "indexed": true,
          "name": "_arbitrator",
          "type": "address"
        },
        {
          "indexed": true,
          "name": "_disputeID",
          "type": "uint256"
        },
        {
          "indexed": false,
          "name": "_ruling",
          "type": "uint256"
        }
      ],
      "name": "Ruling",
      "type": "event"
    },
    {
      "anonymous": false,
      "inputs": [
        {
          "indexed": true,
          "name": "_metaEvidenceID",
          "type": "uint256"
        },
        {
          "indexed": false,
          "name": "_evidence",
          "type": "string"
        }
      ],
      "name": "MetaEvidence",
      "type": "event"
    },
    {
      "anonymous": false,
      "inputs": [
        {
          "indexed": true,
          "name": "_arbitrator",
          "type": "address"
        },
        {
          "indexed": true,
          "name": "_disputeID",
          "type": "uint256"
        },
        {
          "indexed": false,
          "name": "_metaEvidenceID",
          "type": "uint256"
        }
      ],
      "name": "LinkMetaEvidence",
      "type": "event"
    },
    {
      "anonymous": false,
      "inputs": [
        {
          "indexed": true,
          "name": "_arbitrator",
          "type": "address"
        },
        {
          "indexed": true,
          "name": "_disputeID",
          "type": "uint256"
        },
        {
          "indexed": false,
          "name": "_party",
          "type": "address"
        },
        {
          "indexed": false,
          "name": "_evidence",
          "type": "string"
        }
      ],
      "name": "Evidence",
      "type": "event"
    },
    {
      "constant": false,
      "inputs": [
        {
          "name": "_value",
          "type": "bytes32"
        }
      ],
      "name": "requestRegistering",
      "outputs": [],
      "payable": true,
      "stateMutability": "payable",
      "type": "function"
    },
    {
      "constant": false,
      "inputs": [
        {
          "name": "_value",
          "type": "bytes32"
        }
      ],
      "name": "requestClearing",
      "outputs": [],
      "payable": true,
      "stateMutability": "payable",
      "type": "function"
    },
    {
      "constant": false,
      "inputs": [
        {
          "name": "_value",
          "type": "bytes32"
        }
      ],
      "name": "challengeRegistering",
      "outputs": [],
      "payable": true,
      "stateMutability": "payable",
      "type": "function"
    },
    {
      "constant": false,
      "inputs": [
        {
          "name": "_value",
          "type": "bytes32"
        }
      ],
      "name": "challengeClearing",
      "outputs": [],
      "payable": true,
      "stateMutability": "payable",
      "type": "function"
    },
    {
      "constant": false,
      "inputs": [
        {
          "name": "_value",
          "type": "bytes32"
        }
      ],
      "name": "appeal",
      "outputs": [],
      "payable": true,
      "stateMutability": "payable",
      "type": "function"
    },
    {
      "constant": false,
      "inputs": [
        {
          "name": "_value",
          "type": "bytes32"
        }
      ],
      "name": "executeRequest",
      "outputs": [],
      "payable": false,
      "stateMutability": "nonpayable",
      "type": "function"
    },
    {
      "constant": true,
      "inputs": [
        {
          "name": "_value",
          "type": "bytes32"
        }
      ],
      "name": "isPermitted",
      "outputs": [
        {
          "name": "allowed",
          "type": "bool"
        }
      ],
      "payable": false,
      "stateMutability": "view",
      "type": "function"
    },
    {
      "constant": true,
      "inputs": [],
      "name": "itemsCount",
      "outputs": [
        {
          "name": "count",
          "type": "uint256"
        }
      ],
      "payable": false,
      "stateMutability": "view",
      "type": "function"
    },
    {
      "constant": true,
      "inputs": [
        {
          "name": "_cursor",
          "type": "bytes32"
        },
        {
          "name": "_count",
          "type": "uint256"
        },
        {
          "name": "_filter",
          "type": "bool[6]"
        },
        {
          "name": "_sort",
          "type": "bool"
        }
      ],
      "name": "queryItems",
      "outputs": [
        {
          "name": "values",
          "type": "bytes32[]"
        },
        {
          "name": "hasMore",
          "type": "bool"
        }
      ],
      "payable": false,
      "stateMutability": "view",
      "type": "function"
    }
  ],
  "bytecode": "0x60806040523480156200001157600080fd5b5060405162002df638038062002df68339810180604052810190808051906020019092919080519060200190929190805190602001909291908051820192919060200180519060200190929190805190602001909291905050508383816000806101000a81548173ffffffffffffffffffffffffffffffffffffffff021916908373ffffffffffffffffffffffffffffffffffffffff1602179055508060019080519060200190620000c59291906200016f565b50505085600260006101000a81548160ff02191690831515021790555084600260016101000a81548160ff021916908315150217905550836002806101000a81548173ffffffffffffffffffffffffffffffffffffffff021916908373ffffffffffffffffffffffffffffffffffffffff1602179055508260039080519060200190620001549291906200016f565b5081600481905550806005819055505050505050506200021e565b828054600181600116156101000203166002900490600052602060002090601f016020900481019282601f10620001b257805160ff1916838001178555620001e3565b82800160010185558215620001e3579182015b82811115620001e2578251825591602001919060010190620001c5565b5b509050620001f29190620001f6565b5090565b6200021b91905b8082111562000217576000816000905550600101620001fd565b5090565b90565b612bc8806200022e6000396000f300608060405260043610610107576000357c0100000000000000000000000000000000000000000000000000000000900463ffffffff1680630689d0ff1461010c5780630c7ac7b614610137578063311a6c56146101c7578063342d9a04146101fe5780633a4b66f114610222578063409c88281461024d57806348f343f314610296578063675629fe1461036f5780636cc6cde11461039e5780638e604b1d146103f557806393519d66146104cb578063a4b5fa56146104ef578063beabdb7b1461051e578063c2bd9d9514610567578063e2c03ace146105b0578063e5217ebc146105db578063e9c24166146105ff578063ece1de4414610630578063fce8065414610654575b600080fd5b34801561011857600080fd5b50610121610678565b6040518082815260200191505060405180910390f35b34801561014357600080fd5b5061014c61067e565b6040518080602001828103825283818151815260200191508051906020019080838360005b8381101561018c578082015181840152602081019050610171565b50505050905090810190601f1680156101b95780820380516001836020036101000a031916815260200191505b509250505060405180910390f35b3480156101d357600080fd5b506101fc600480360381019080803590602001909291908035906020019092919050505061071c565b005b61022060048036038101908080356000191690602001909291905050506107d4565b005b34801561022e57600080fd5b50610237610e10565b6040518082815260200191505060405180910390f35b34801561025957600080fd5b5061027860048036038101908080359060200190929190505050610e16565b60405180826000191660001916815260200191505060405180910390f35b3480156102a257600080fd5b506102c56004803603810190808035600019169060200190929190505050610e2e565b604051808860068111156102d557fe5b60ff1681526020018781526020018673ffffffffffffffffffffffffffffffffffffffff1673ffffffffffffffffffffffffffffffffffffffff1681526020018573ffffffffffffffffffffffffffffffffffffffff1673ffffffffffffffffffffffffffffffffffffffff1681526020018481526020018315151515815260200182815260200197505050505050505060405180910390f35b34801561037b57600080fd5b50610384610eca565b604051808215151515815260200191505060405180910390f35b3480156103aa57600080fd5b506103b3610edd565b604051808273ffffffffffffffffffffffffffffffffffffffff1673ffffffffffffffffffffffffffffffffffffffff16815260200191505060405180910390f35b34801561040157600080fd5b506104696004803603810190808035600019169060200190929190803590602001909291908060c00190600680602002604051908101604052809291908260066020028082843782019150505050509192919290803515159060200190929190505050610f02565b604051808060200183151515158152602001828103825284818151815260200191508051906020019060200280838360005b838110156104b657808201518184015260208101905061049b565b50505050905001935050505060405180910390f35b6104ed6004803603810190808035600019169060200190929190505050611393565b005b3480156104fb57600080fd5b5061050461173f565b604051808215151515815260200191505060405180910390f35b34801561052a57600080fd5b5061054d6004803603810190808035600019169060200190929190505050611752565b604051808215151515815260200191505060405180910390f35b34801561057357600080fd5b5061059260048036038101908080359060200190929190505050611814565b60405180826000191660001916815260200191505060405180910390f35b3480156105bc57600080fd5b506105c5611837565b6040518082815260200191505060405180910390f35b6105fd6004803603810190808035600019169060200190929190505050611844565b005b34801561060b57600080fd5b5061062e6004803603810190808035600019169060200190929190505050611e81565b005b6106526004803603810190808035600019169060200190929190505050612144565b005b610676600480360381019080803560001916906020019092919050505061229f565b005b60055481565b60038054600181600116156101000203166002900480601f0160208091040260200160405190810160405280929190818152602001828054600181600116156101000203166002900480156107145780601f106106e957610100808354040283529160200191610714565b820191906000526020600020905b8154815290600101906020018083116106f757829003601f168201915b505050505081565b6000809054906101000a900473ffffffffffffffffffffffffffffffffffffffff1673ffffffffffffffffffffffffffffffffffffffff163373ffffffffffffffffffffffffffffffffffffffff1614151561077757600080fd5b813373ffffffffffffffffffffffffffffffffffffffff167f394027a5fa6e098a1191094d1719d6929b9abc535fcc0c8f448d6a4e75622276836040518082815260200191505060405180910390a36107d0828261266f565b5050565b60008060066000846000191660001916815260200190815260200160002091506002809054906101000a900473ffffffffffffffffffffffffffffffffffffffff1673ffffffffffffffffffffffffffffffffffffffff1663f7434ea960036040518263ffffffff167c010000000000000000000000000000000000000000000000000000000002815260040180806020018281038252838181546001816001161561010002031660029004815260200191508054600181600116156101000203166002900480156108e75780601f106108bc576101008083540402835291602001916108e7565b820191906000526020600020905b8154815290600101906020018083116108ca57829003601f168201915b505092505050602060405180830381600087803b15801561090757600080fd5b505af115801561091b573d6000803e3d6000fd5b505050506040513d602081101561093157600080fd5b810190808051906020019092919050505090508060045401341015151561095757600080fd5b6005600681111561096457fe5b8260000160009054906101000a900460ff16600681111561098157fe5b14806109b3575060068081111561099457fe5b8260000160009054906101000a900460ff1660068111156109b157fe5b145b15156109be57600080fd5b8160050160009054906101000a900460ff161515156109dc57600080fd5b808260040154101515610be257338260030160006101000a81548173ffffffffffffffffffffffffffffffffffffffff021916908373ffffffffffffffffffffffffffffffffffffffff160217905550803403826004016000828254019250508190555060018260050160006101000a81548160ff0219169083151502179055506002809054906101000a900473ffffffffffffffffffffffffffffffffffffffff1673ffffffffffffffffffffffffffffffffffffffff1663c13517e182600260036040518463ffffffff167c01000000000000000000000000000000000000000000000000000000000281526004018083815260200180602001828103825283818154600181600116156101000203166002900481526020019150805460018160011615610100020316600290048015610b595780601f10610b2e57610100808354040283529160200191610b59565b820191906000526020600020905b815481529060010190602001808311610b3c57829003601f168201915b505093505050506020604051808303818588803b158015610b7957600080fd5b505af1158015610b8d573d6000803e3d6000fd5b50505050506040513d6020811015610ba457600080fd5b810190808051906020019092919050505082600601819055508260076000846006015481526020019081526020016000208160001916905550610d14565b60056006811115610bef57fe5b8260000160009054906101000a900460ff166006811115610c0c57fe5b1415610c3d5760038260000160006101000a81548160ff02191690836006811115610c3357fe5b0217905550610c64565b60008260000160006101000a81548160ff02191690836006811115610c5e57fe5b02179055505b8160020160009054906101000a900473ffffffffffffffffffffffffffffffffffffffff1673ffffffffffffffffffffffffffffffffffffffff166108fc83600401549081150290604051600060405180830381858888f1935050505050600082600401819055503373ffffffffffffffffffffffffffffffffffffffff166108fc349081150290604051600060405180830381858888f19350505050158015610d12573d6000803e3d6000fd5b505b42826001018190555082600019168260030160009054906101000a900473ffffffffffffffffffffffffffffffffffffffff1673ffffffffffffffffffffffffffffffffffffffff168360020160009054906101000a900473ffffffffffffffffffffffffffffffffffffffff1673ffffffffffffffffffffffffffffffffffffffff167fa4beab79462e336293c2f229498d5942d3b4642806ab2820d6b7846d42d7e21a8560000160009054906101000a900460ff168660050160009054906101000a900460ff1660405180836006811115610ded57fe5b60ff168152602001821515151581526020019250505060405180910390a4505050565b60045481565b60076020528060005260406000206000915090505481565b60066020528060005260406000206000915090508060000160009054906101000a900460ff16908060010154908060020160009054906101000a900473ffffffffffffffffffffffffffffffffffffffff16908060030160009054906101000a900473ffffffffffffffffffffffffffffffffffffffff16908060040154908060050160009054906101000a900460ff16908060060154905087565b600260019054906101000a900460ff1681565b6002809054906101000a900473ffffffffffffffffffffffffffffffffffffffff1681565b606060008060008060008089604051908082528060200260200182016040528015610f3c5781602001602082028038833980820191505090505b5096506000935060006001028b600019161415610f5c5760009450610fbd565b600092505b600880549050831015610fac578a60001916600884815481101515610f8257fe5b9060005260206000200154600019161415610f9f57829450610fac565b8280600101935050610f61565b60008514151515610fbc57600080fd5b5b60008514610fe45787610fda576001856008805490500301610fdf565b600185015b610ff7565b87610ff0576001610ff3565b60005b60ff165b91505b8761100d57600880549050821115611016565b60088054905082105b15611385576006600060088a611033578460088054905003611035565b845b81548110151561104157fe5b90600052602060002001546000191660001916815260200190815260200160002090506000600681111561107157fe5b8160000160009054906101000a900460ff16600681111561108e57fe5b141580156110c357506006808111156110a357fe5b8160000160009054906101000a900460ff1660068111156110c057fe5b14155b801561130157508860006006811015156110d957fe5b602002015180156111435750600260068111156110f257fe5b8160000160009054906101000a900460ff16600681111561110f57fe5b148061114257506004600681111561112357fe5b8160000160009054906101000a900460ff16600681111561114057fe5b145b5b80611178575088600160068110151561115857fe5b6020020151801561117757508060050160009054906101000a900460ff165b5b806111c6575088600260068110151561118d57fe5b602002015180156111c55750600360068111156111a657fe5b8160000160009054906101000a900460ff1660068111156111c357fe5b145b5b8061121457508860036006811015156111db57fe5b602002015180156112135750600160068111156111f457fe5b8160000160009054906101000a900460ff16600681111561121157fe5b145b5b8061128a575088600460068110151561122957fe5b6020020151801561128957503373ffffffffffffffffffffffffffffffffffffffff168160020160009054906101000a900473ffffffffffffffffffffffffffffffffffffffff1673ffffffffffffffffffffffffffffffffffffffff16145b5b80611300575088600560068110151561129f57fe5b602002015180156112ff57503373ffffffffffffffffffffffffffffffffffffffff168160030160009054906101000a900473ffffffffffffffffffffffffffffffffffffffff1673ffffffffffffffffffffffffffffffffffffffff16145b5b5b15611378578984101561136e57600888611322578260088054905003611324565b825b81548110151561133057fe5b9060005260206000200154878581518110151561134957fe5b9060200190602002019060001916908160001916815250508380600101945050611377565b60019550611385565b5b8180600101925050610ffa565b505050505094509492505050565b60008060066000846000191660001916815260200190815260200160002091506002809054906101000a900473ffffffffffffffffffffffffffffffffffffffff1673ffffffffffffffffffffffffffffffffffffffff1663f7434ea960036040518263ffffffff167c010000000000000000000000000000000000000000000000000000000002815260040180806020018281038252838181546001816001161561010002031660029004815260200191508054600181600116156101000203166002900480156114a65780601f1061147b576101008083540402835291602001916114a6565b820191906000526020600020905b81548152906001019060200180831161148957829003601f168201915b505092505050602060405180830381600087803b1580156114c657600080fd5b505af11580156114da573d6000803e3d6000fd5b505050506040513d60208110156114f057600080fd5b81019080805190602001909291905050509050600260019054906101000a900460ff1615151561151f57600080fd5b8060045401341015151561153257600080fd5b6003600681111561153f57fe5b8260000160009054906101000a900460ff16600681111561155c57fe5b141561158d5760058260000160006101000a81548160ff0219169083600681111561158357fe5b02179055506115ee565b6000600681111561159a57fe5b8260000160009054906101000a900460ff1660068111156115b757fe5b14156115e85760068260000160006101000a81548160ff021916908360068111156115de57fe5b02179055506115ed565b600080fd5b5b338260020160006101000a81548173ffffffffffffffffffffffffffffffffffffffff021916908373ffffffffffffffffffffffffffffffffffffffff16021790555034826004016000828254019250508190555042826001018190555082600019168260030160009054906101000a900473ffffffffffffffffffffffffffffffffffffffff1673ffffffffffffffffffffffffffffffffffffffff168360020160009054906101000a900473ffffffffffffffffffffffffffffffffffffffff1673ffffffffffffffffffffffffffffffffffffffff167fa4beab79462e336293c2f229498d5942d3b4642806ab2820d6b7846d42d7e21a8560000160009054906101000a900460ff168660050160009054906101000a900460ff166040518083600681111561171c57fe5b60ff168152602001821515151581526020019250505060405180910390a4505050565b600260009054906101000a900460ff1681565b600080600060066000856000191660001916815260200190815260200160002091506002600681111561178157fe5b8260000160009054906101000a900460ff16600681111561179e57fe5b1115806117ec57506006808111156117b257fe5b8260000160009054906101000a900460ff1660068111156117cf57fe5b1480156117eb57508160050160009054906101000a900460ff16155b5b9050600260009054906101000a900460ff16611808578061180b565b80155b92505050919050565b60088181548110151561182357fe5b906000526020600020016000915090505481565b6000600880549050905090565b60008060066000846000191660001916815260200190815260200160002091506002809054906101000a900473ffffffffffffffffffffffffffffffffffffffff1673ffffffffffffffffffffffffffffffffffffffff1663f7434ea960036040518263ffffffff167c010000000000000000000000000000000000000000000000000000000002815260040180806020018281038252838181546001816001161561010002031660029004815260200191508054600181600116156101000203166002900480156119575780601f1061192c57610100808354040283529160200191611957565b820191906000526020600020905b81548152906001019060200180831161193a57829003601f168201915b505092505050602060405180830381600087803b15801561197757600080fd5b505af115801561198b573d6000803e3d6000fd5b505050506040513d60208110156119a157600080fd5b81019080805190602001909291905050509050806004540134101515156119c757600080fd5b600260068111156119d457fe5b8260000160009054906101000a900460ff1660068111156119f157fe5b1480611a24575060046006811115611a0557fe5b8260000160009054906101000a900460ff166006811115611a2257fe5b145b1515611a2f57600080fd5b8160050160009054906101000a900460ff16151515611a4d57600080fd5b808260040154101515611c5357338260030160006101000a81548173ffffffffffffffffffffffffffffffffffffffff021916908373ffffffffffffffffffffffffffffffffffffffff160217905550803403826004016000828254019250508190555060018260050160006101000a81548160ff0219169083151502179055506002809054906101000a900473ffffffffffffffffffffffffffffffffffffffff1673ffffffffffffffffffffffffffffffffffffffff1663c13517e182600260036040518463ffffffff167c01000000000000000000000000000000000000000000000000000000000281526004018083815260200180602001828103825283818154600181600116156101000203166002900481526020019150805460018160011615610100020316600290048015611bca5780601f10611b9f57610100808354040283529160200191611bca565b820191906000526020600020905b815481529060010190602001808311611bad57829003601f168201915b505093505050506020604051808303818588803b158015611bea57600080fd5b505af1158015611bfe573d6000803e3d6000fd5b50505050506040513d6020811015611c1557600080fd5b810190808051906020019092919050505082600601819055508260076000846006015481526020019081526020016000208160001916905550611d85565b60026006811115611c6057fe5b8260000160009054906101000a900460ff166006811115611c7d57fe5b1415611cae5760018260000160006101000a81548160ff02191690836006811115611ca457fe5b0217905550611cd5565b60008260000160006101000a81548160ff02191690836006811115611ccf57fe5b02179055505b8160020160009054906101000a900473ffffffffffffffffffffffffffffffffffffffff1673ffffffffffffffffffffffffffffffffffffffff166108fc83600401549081150290604051600060405180830381858888f1935050505050600082600401819055503373ffffffffffffffffffffffffffffffffffffffff166108fc349081150290604051600060405180830381858888f19350505050158015611d83573d6000803e3d6000fd5b505b42826001018190555082600019168260030160009054906101000a900473ffffffffffffffffffffffffffffffffffffffff1673ffffffffffffffffffffffffffffffffffffffff168360020160009054906101000a900473ffffffffffffffffffffffffffffffffffffffff1673ffffffffffffffffffffffffffffffffffffffff167fa4beab79462e336293c2f229498d5942d3b4642806ab2820d6b7846d42d7e21a8560000160009054906101000a900460ff168660050160009054906101000a900460ff1660405180836006811115611e5e57fe5b60ff168152602001821515151581526020019250505060405180910390a4505050565b600060066000836000191660001916815260200190815260200160002090506005548160010154420310151515611eb757600080fd5b8060050160009054906101000a900460ff16151515611ed557600080fd5b60026006811115611ee257fe5b8160000160009054906101000a900460ff166006811115611eff57fe5b1480611f32575060046006811115611f1357fe5b8160000160009054906101000a900460ff166006811115611f3057fe5b145b15611f625760038160000160006101000a81548160ff02191690836006811115611f5857fe5b0217905550611ff4565b60056006811115611f6f57fe5b8160000160009054906101000a900460ff166006811115611f8c57fe5b1480611fbe5750600680811115611f9f57fe5b8160000160009054906101000a900460ff166006811115611fbc57fe5b145b15611fee5760018160000160006101000a81548160ff02191690836006811115611fe457fe5b0217905550611ff3565b600080fd5b5b8060020160009054906101000a900473ffffffffffffffffffffffffffffffffffffffff1673ffffffffffffffffffffffffffffffffffffffff166108fc82600401549081150290604051600060405180830381858888f193505050505081600019168160030160009054906101000a900473ffffffffffffffffffffffffffffffffffffffff1673ffffffffffffffffffffffffffffffffffffffff168260020160009054906101000a900473ffffffffffffffffffffffffffffffffffffffff1673ffffffffffffffffffffffffffffffffffffffff167fa4beab79462e336293c2f229498d5942d3b4642806ab2820d6b7846d42d7e21a8460000160009054906101000a900460ff168560050160009054906101000a900460ff166040518083600681111561212257fe5b60ff168152602001821515151581526020019250505060405180910390a45050565b600060066000836000191660001916815260200190815260200160002090506002809054906101000a900473ffffffffffffffffffffffffffffffffffffffff1673ffffffffffffffffffffffffffffffffffffffff166349912f8834836006015460036040518463ffffffff167c010000000000000000000000000000000000000000000000000000000002815260040180838152602001806020018281038252838181546001816001161561010002031660029004815260200191508054600181600116156101000203166002900480156122625780601f1061223757610100808354040283529160200191612262565b820191906000526020600020905b81548152906001019060200180831161224557829003601f168201915b505093505050506000604051808303818588803b15801561228257600080fd5b505af1158015612296573d6000803e3d6000fd5b50505050505050565b60008060066000846000191660001916815260200190815260200160002091506002809054906101000a900473ffffffffffffffffffffffffffffffffffffffff1673ffffffffffffffffffffffffffffffffffffffff1663f7434ea960036040518263ffffffff167c010000000000000000000000000000000000000000000000000000000002815260040180806020018281038252838181546001816001161561010002031660029004815260200191508054600181600116156101000203166002900480156123b25780601f10612387576101008083540402835291602001916123b2565b820191906000526020600020905b81548152906001019060200180831161239557829003601f168201915b505092505050602060405180830381600087803b1580156123d257600080fd5b505af11580156123e6573d6000803e3d6000fd5b505050506040513d60208110156123fc57600080fd5b810190808051906020019092919050505090508060045401341015151561242257600080fd5b6000600681111561242f57fe5b8260000160009054906101000a900460ff16600681111561244c57fe5b141561247d5760048260000160006101000a81548160ff0219169083600681111561247357fe5b02179055506124de565b6001600681111561248a57fe5b8260000160009054906101000a900460ff1660068111156124a757fe5b14156124d85760028260000160006101000a81548160ff021916908360068111156124ce57fe5b02179055506124dd565b600080fd5b5b60008260010154141561251e5760088390806001815401808255809150509060018203906000526020600020016000909192909190915090600019169055505b338260020160006101000a81548173ffffffffffffffffffffffffffffffffffffffff021916908373ffffffffffffffffffffffffffffffffffffffff16021790555034826004016000828254019250508190555042826001018190555082600019168260030160009054906101000a900473ffffffffffffffffffffffffffffffffffffffff1673ffffffffffffffffffffffffffffffffffffffff168360020160009054906101000a900473ffffffffffffffffffffffffffffffffffffffff1673ffffffffffffffffffffffffffffffffffffffff167fa4beab79462e336293c2f229498d5942d3b4642806ab2820d6b7846d42d7e21a8560000160009054906101000a900460ff168660050160009054906101000a900460ff166040518083600681111561264c57fe5b60ff168152602001821515151581526020019250505060405180910390a4505050565b60006006600060076000868152602001908152602001600020546000191660001916815260200190815260200160002090508060050160009054906101000a900460ff1615156126be57600080fd5b600160ff1682141561281957600260068111156126d757fe5b8160000160009054906101000a900460ff1660068111156126f457fe5b148061272757506004600681111561270857fe5b8160000160009054906101000a900460ff16600681111561272557fe5b145b1561278f578060020160009054906101000a900473ffffffffffffffffffffffffffffffffffffffff1673ffffffffffffffffffffffffffffffffffffffff166108fc82600401549081150290604051600060405180830381858888f19350505050506127ee565b8060030160009054906101000a900473ffffffffffffffffffffffffffffffffffffffff1673ffffffffffffffffffffffffffffffffffffffff166108fc82600401549081150290604051600060405180830381858888f19350505050505b60038160000160006101000a81548160ff0219169083600681111561280f57fe5b0217905550612a6f565b600260ff168214156129735760068081111561283157fe5b8160000160009054906101000a900460ff16600681111561284e57fe5b148061288157506005600681111561286257fe5b8160000160009054906101000a900460ff16600681111561287f57fe5b145b156128e9578060020160009054906101000a900473ffffffffffffffffffffffffffffffffffffffff1673ffffffffffffffffffffffffffffffffffffffff166108fc82600401549081150290604051600060405180830381858888f1935050505050612948565b8060030160009054906101000a900473ffffffffffffffffffffffffffffffffffffffff1673ffffffffffffffffffffffffffffffffffffffff166108fc82600401549081150290604051600060405180830381858888f19350505050505b60018160000160006101000a81548160ff0219169083600681111561296957fe5b0217905550612a6e565b60008160000160006101000a81548160ff0219169083600681111561299457fe5b02179055508060020160009054906101000a900473ffffffffffffffffffffffffffffffffffffffff1673ffffffffffffffffffffffffffffffffffffffff166108fc600283600401548115156129e757fe5b049081150290604051600060405180830381858888f19350505050508060030160009054906101000a900473ffffffffffffffffffffffffffffffffffffffff1673ffffffffffffffffffffffffffffffffffffffff166108fc60028360040154811515612a5157fe5b049081150290604051600060405180830381858888f19350505050505b5b60008160050160006101000a81548160ff021916908315150217905550600081600401819055506007600084815260200190815260200160002054600019168160030160009054906101000a900473ffffffffffffffffffffffffffffffffffffffff1673ffffffffffffffffffffffffffffffffffffffff168260020160009054906101000a900473ffffffffffffffffffffffffffffffffffffffff1673ffffffffffffffffffffffffffffffffffffffff167fa4beab79462e336293c2f229498d5942d3b4642806ab2820d6b7846d42d7e21a8460000160009054906101000a900460ff168560050160009054906101000a900460ff1660405180836006811115612b7957fe5b60ff168152602001821515151581526020019250505060405180910390a45050505600a165627a7a72305820a7bfd5f64ece38956c949994427a08896465104e138f5cdf8175b6f5724bfb3f0029",
  "source": " /**\n *  @title Arbitrable Permission List\n *  @author Clment Lesaege - <clement@lesaege.com>\n *  This code hasn't undertaken bug bounty programs yet.\n *  This code requires truffle tests.\n */\n\npragma solidity ^0.4.23;\n\nimport \"../arbitration/Arbitrable.sol\";\nimport \"./PermissionInterface.sol\";\n\n/**\n *  @title Arbitrable Permission List\n *  @dev This is an arbitrator curated registry. Anyone can post an item with a deposit. If no one complains within a defined time period, the item is added to the registry.\n *  Someone can complain and also post a deposit, if, someone does, a dispute is created. The winner of the dispute gets the deposit of the other party and the item is added or removed accordingly.\n *  During the time of the dispute, the item is shown as blacklisted unless it already won a previous dispute. This follows the philosophy that it is better to show the user a warning about a potentially harmless listing than to take the risk of the user being scammed or exposed to inappropriate content without warning.\n *  To make a request, parties have to deposit a stake and the arbitration fees. If the arbitration fees change between the submitter's payment and the challenger's payment, a part of the submitter stake can be used as an arbitration fee deposit.\n *  In case the arbitrator refuses to rule, the item is put in the initial absent status and the balance is split equally between parties.\n */\ncontract ArbitrablePermissionList is PermissionInterface, Arbitrable {\n    /* Enums */\n\n    enum ItemStatus {\n        Absent, // The item has never been submitted.\n        Cleared, // The item has been submitted and the dispute resolution process determined it should not be added or a clearing request has been submitted and not contested.\n        Resubmitted, // The item has been cleared but someone has resubmitted it.\n        Registered, // The item has been submitted and the dispute resolution process determined it should be added or the submission was never contested.\n        Submitted, // The item has been submitted.\n        ClearingRequested, // The item is registered, but someone has requested to remove it.\n        PreventiveClearingRequested // The item has never been registered, but someone asked to clear it preemptively to avoid it being shown as not registered during the dispute resolution process.\n    }\n\n    /* Structs */\n\n    struct Item {\n        ItemStatus status; // Status of the item.\n        uint lastAction; // Time of the last action.\n        address submitter; // Address of the submitter, if any.\n        address challenger; // Address of the challenger, if any.\n        // The total amount of funds to be given to the winner of a potential dispute. Includes stake and reimbursement of arbitration fees.\n        uint balance;\n        bool disputed; // True if a dispute is taking place.\n        uint disputeID; // ID of the dispute, if any.\n    }\n\n    /* Events */\n\n    /**\n     *  @dev Called when the item's status changes or when it is contested/resolved.\n     *  @param submitter Address of the submitter, if any.\n     *  @param challenger Address of the challenger, if any.\n     *  @param value The value of the item.\n     *  @param newStatus The new status of the item.\n     *  @param newDisputed The new disputed state of the item.\n     */\n    event ItemStatusChange(\n        address indexed submitter,\n        address indexed challenger,\n        bytes32 indexed value,\n        ItemStatus newStatus,\n        bool newDisputed\n    );\n\n    /* Storage */\n\n    // Settings\n    bool public blacklist; // True if the list should function as a blacklist, false if it should function as a whitelist.\n    bool public appendOnly; // True if the list should be append only.\n    Arbitrator public arbitrator;\n    bytes public arbitratorExtraData;\n    uint public stake;\n    uint public timeToChallenge;\n\n    // Ruling Options\n    uint8 constant REGISTER = 1;\n    uint8 constant CLEAR = 2;\n    string constant RULING_OPTIONS = \"Register;Clear\";\n\n    // Items\n    mapping(bytes32 => Item) public items;\n    mapping(uint => bytes32) public disputeIDToItem;\n    bytes32[] public itemsList;\n\n    /* Constructor */\n\n    /**\n     *  @dev Constructs the arbitrable permission list and sets the type.\n     *  @param _blacklist True if the list should function as a blacklist, false if it should function as a whitelist.\n     *  @param _appendOnly True if the list should be append only.\n     *  @param _arbitrator The chosen arbitrator.\n     *  @param _arbitratorExtraData Extra data for the arbitrator contract.\n     *  @param _stake The amount in Weis of deposit required for a submission or a challenge.\n     *  @param _timeToChallenge The time in seconds, other parties have to challenge.\n     */\n    constructor(\n        bool _blacklist,\n        bool _appendOnly,\n        Arbitrator _arbitrator,\n        bytes _arbitratorExtraData,\n        uint _stake,\n        uint _timeToChallenge) Arbitrable(_arbitrator, _arbitratorExtraData) public {\n        blacklist = _blacklist;\n        appendOnly = _appendOnly;\n        arbitrator = _arbitrator;\n        arbitratorExtraData = _arbitratorExtraData;\n        stake = _stake;\n        timeToChallenge = _timeToChallenge;\n    }\n\n    /* Public */\n\n    /**\n     *  @dev Request an item to be registered.\n     *  @param _value The value of the item to register.\n     */\n    function requestRegistering(bytes32 _value) public payable {\n        Item storage item = items[_value];\n        uint arbitratorCost = arbitrator.arbitrationCost(arbitratorExtraData);\n        require(msg.value >= stake + arbitratorCost);\n\n        if (item.status == ItemStatus.Absent)\n            item.status = ItemStatus.Submitted;\n        else if (item.status == ItemStatus.Cleared)\n            item.status = ItemStatus.Resubmitted;\n        else\n            revert(); // If the item is neither Absent nor Cleared, it is not possible to request registering it.\n\n        if (item.lastAction == 0) itemsList.push(_value);\n\n        item.submitter = msg.sender;\n        item.balance += msg.value;\n        item.lastAction = now;\n\n        emit ItemStatusChange(item.submitter, item.challenger, _value, item.status, item.disputed);\n    }\n\n    /**\n     *  @dev Request an item to be cleared.\n     *  @param _value The value of the item to clear.\n     */\n    function requestClearing(bytes32 _value) public payable {\n        Item storage item = items[_value];\n        uint arbitratorCost = arbitrator.arbitrationCost(arbitratorExtraData);\n        require(!appendOnly);\n        require(msg.value >= stake + arbitratorCost);\n\n        if (item.status == ItemStatus.Registered)\n            item.status = ItemStatus.ClearingRequested;\n        else if (item.status == ItemStatus.Absent)\n            item.status = ItemStatus.PreventiveClearingRequested;\n        else\n            revert(); // If the item is neither Registered nor Absent, it is not possible to request clearing it.\n\n        item.submitter = msg.sender;\n        item.balance += msg.value;\n        item.lastAction = now;\n\n        emit ItemStatusChange(item.submitter, item.challenger, _value, item.status, item.disputed);\n    }\n\n    /**\n     *  @dev Challenge a registering request.\n     *  @param _value The value of the item subject to the registering request.\n     */\n    function challengeRegistering(bytes32 _value) public payable {\n        Item storage item = items[_value];\n        uint arbitratorCost = arbitrator.arbitrationCost(arbitratorExtraData);\n        require(msg.value >= stake + arbitratorCost);\n        require(item.status == ItemStatus.Resubmitted || item.status == ItemStatus.Submitted);\n        require(!item.disputed);\n\n        if (item.balance >= arbitratorCost) { // In the general case, create a dispute.\n            item.challenger = msg.sender;\n            item.balance += msg.value-arbitratorCost;\n            item.disputed = true;\n            item.disputeID = arbitrator.createDispute.value(arbitratorCost)(2,arbitratorExtraData);\n            disputeIDToItem[item.disputeID] = _value;\n        } else { // In the case the arbitration fees increase so much that the deposit of the requester is not high enough. Cancel the request.\n            if (item.status == ItemStatus.Resubmitted)\n                item.status = ItemStatus.Cleared;\n            else\n                item.status = ItemStatus.Absent;\n\n            item.submitter.send(item.balance); // Deliberate use of send in order to not block the contract in case of reverting fallback.\n            item.balance = 0;\n            msg.sender.transfer(msg.value);\n        }\n\n        item.lastAction = now;\n\n        emit ItemStatusChange(item.submitter, item.challenger, _value, item.status, item.disputed);\n    }\n\n    /**\n     *  @dev Challenge a clearing request.\n     *  @param _value The value of the item subject to the clearing request.\n     */\n    function challengeClearing(bytes32 _value) public payable {\n        Item storage item = items[_value];\n        uint arbitratorCost = arbitrator.arbitrationCost(arbitratorExtraData);\n        require(msg.value >= stake + arbitratorCost);\n        require(item.status == ItemStatus.ClearingRequested || item.status == ItemStatus.PreventiveClearingRequested);\n        require(!item.disputed);\n\n        if (item.balance >= arbitratorCost) { // In the general case, create a dispute.\n            item.challenger = msg.sender;\n            item.balance += msg.value-arbitratorCost;\n            item.disputed = true;\n            item.disputeID = arbitrator.createDispute.value(arbitratorCost)(2,arbitratorExtraData);\n            disputeIDToItem[item.disputeID] = _value;\n        } else { // In the case the arbitration fees increase so much that the deposit of the requester is not high enough. Cancel the request.\n            if (item.status == ItemStatus.ClearingRequested)\n                item.status = ItemStatus.Registered;\n            else\n                item.status = ItemStatus.Absent;\n\n            item.submitter.send(item.balance); // Deliberate use of send in order to not block the contract in case of reverting fallback.\n            item.balance = 0;\n            msg.sender.transfer(msg.value);\n        }\n\n        item.lastAction = now;\n\n        emit ItemStatusChange(item.submitter, item.challenger, _value, item.status, item.disputed);\n    }\n\n    /**\n     *  @dev Appeal ruling. Anyone can appeal to prevent a malicious actor from challenging its own submission and loosing on purpose.\n     *  @param _value The value of the item with the dispute to appeal on.\n     */\n    function appeal(bytes32 _value) public payable {\n        Item storage item = items[_value];\n        arbitrator.appeal.value(msg.value)(item.disputeID,arbitratorExtraData); // Appeal, no need to check anything as the arbitrator does it.\n    }\n\n    /**\n     *  @dev Execute a request after the time for challenging it has passed. Can be called by anyone.\n     *  @param _value The value of the item with the request to execute.\n     */\n    function executeRequest(bytes32 _value) public {\n        Item storage item = items[_value];\n        require(now - item.lastAction >= timeToChallenge);\n        require(!item.disputed);\n\n        if (item.status == ItemStatus.Resubmitted || item.status == ItemStatus.Submitted)\n            item.status = ItemStatus.Registered;\n        else if (item.status == ItemStatus.ClearingRequested || item.status == ItemStatus.PreventiveClearingRequested)\n            item.status = ItemStatus.Cleared;\n        else\n            revert();\n\n        item.submitter.send(item.balance); // Deliberate use of send in order to not block the contract in case of reverting fallback.\n\n        emit ItemStatusChange(item.submitter, item.challenger, _value, item.status, item.disputed);\n    }\n\n    /* Public Views */\n\n    /**\n     *  @dev Return true if the item is allowed. We take a conservative approach and return false if the status of the item is contested and it has not won a previous dispute.\n     *  @param _value The value of the item to check.\n     *  @return allowed True if the item is allowed, false otherwise.\n     */\n    function isPermitted(bytes32 _value) public view returns (bool allowed) {\n        Item storage item = items[_value];\n        bool _registered = item.status <= ItemStatus.Resubmitted ||\n            (item.status == ItemStatus.PreventiveClearingRequested && !item.disputed);\n        return blacklist ? !_registered : _registered;\n    }\n\n    /* Internal */\n\n    /**\n     *  @dev Execute the ruling of a dispute.\n     *  @param _disputeID ID of the dispute in the Arbitrator contract.\n     *  @param _ruling Ruling given by the arbitrator. Note that 0 is reserved for \"Not able/wanting to make a decision\".\n     */\n    function executeRuling(uint _disputeID, uint _ruling) internal {\n        Item storage item = items[disputeIDToItem[_disputeID]];\n        require(item.disputed);\n\n        if (_ruling == REGISTER) {\n            if (item.status == ItemStatus.Resubmitted || item.status == ItemStatus.Submitted)\n                item.submitter.send(item.balance); // Deliberate use of send in order to not block the contract in case of reverting fallback.\n            else\n                item.challenger.send(item.balance);\n\n            item.status = ItemStatus.Registered;\n        } else if (_ruling == CLEAR) {\n            if (item.status == ItemStatus.PreventiveClearingRequested || item.status == ItemStatus.ClearingRequested)\n                item.submitter.send(item.balance);\n            else\n                item.challenger.send(item.balance);\n\n            item.status = ItemStatus.Cleared;\n        } else { // Split the balance 50-50 and give the item the initial status.\n            item.status = ItemStatus.Absent;\n            item.submitter.send(item.balance / 2);\n            item.challenger.send(item.balance / 2);\n        }\n\n        item.disputed = false;\n        item.balance = 0;\n\n        emit ItemStatusChange(item.submitter, item.challenger, disputeIDToItem[_disputeID], item.status, item.disputed);\n    }\n\n    /* Interface Views */\n\n    /**\n     *  @dev Return the number of items in the list.\n     *  @return The number of items in the list.\n     */\n    function itemsCount() public view returns (uint count) {\n        count = itemsList.length;\n    }\n\n    /**\n     *  @dev Return the values of the items the query finds.\n     *  This function is O(n) at worst, where n is the number of items. This could exceed the gas limit, therefore this function should only be used for interface display and not by other contracts.\n     *  @param _cursor The pagination cursor.\n     *  @param _count The number of items to return.\n     *  @param _filter The filter to use.\n     *  @param _sort The sort order to use.\n     *  @return The values of the items found and wether there are more items for the current filter and sort.\n     */\n    function queryItems(bytes32 _cursor, uint _count, bool[6] _filter, bool _sort) public view returns (bytes32[] values, bool hasMore) {\n        uint _cursorIndex;\n        values = new bytes32[](_count);\n        uint _index = 0;\n\n        if (_cursor == 0)\n            _cursorIndex = 0;\n        else {\n            for (uint j = 0; j < itemsList.length; j++) {\n                if (itemsList[j] == _cursor) {\n                    _cursorIndex = j;\n                    break;\n                }\n            }\n            require(_cursorIndex != 0);\n        }\n\n        for (\n                uint i = _cursorIndex == 0 ? (_sort ? 0 : 1) : (_sort ? _cursorIndex + 1 : itemsList.length - _cursorIndex + 1);\n                _sort ? i < itemsList.length : i <= itemsList.length;\n                i++\n            ) { // Oldest or newest first\n            Item storage item = items[itemsList[_sort ? i : itemsList.length - i]];\n            if (\n                item.status != ItemStatus.Absent && item.status != ItemStatus.PreventiveClearingRequested && (\n                    (_filter[0] && (item.status == ItemStatus.Resubmitted || item.status == ItemStatus.Submitted)) || // Pending\n                    (_filter[1] && item.disputed) || // Challenged\n                    (_filter[2] && item.status == ItemStatus.Registered) || // Accepted\n                    (_filter[3] && item.status == ItemStatus.Cleared) || // Rejected\n                    (_filter[4] && item.submitter == msg.sender) || // My Submissions\n                    (_filter[5] && item.challenger == msg.sender) // My Challenges\n                )\n            ) {\n                if (_index < _count) {\n                    values[_index] = itemsList[_sort ? i : itemsList.length - i];\n                    _index++;\n                } else {\n                    hasMore = true;\n                    break;\n                }\n            }\n        }\n    }\n}\n",
  "sourcePath": "/Users/epiqueras/Work/kleros/kleros-interaction/contracts/standard/permission/ArbitrablePermissionList.sol",
  "compiler": {
    "name": "solc",
    "version": "0.4.24+commit.e67f0147.Emscripten.clang"
  },
  "schemaVersion": "2.0.1",
  "updatedAt": "2018-07-17T16:56:20.340Z"
}