{
  "contractName": "BlockHashRNG",
  "abi": [
    {
      "constant": true,
      "inputs": [
        {
          "name": "_block",
          "type": "uint256"
        }
      ],
      "name": "getUncorrelatedRN",
      "outputs": [
        {
          "name": "RN",
          "type": "uint256"
        }
      ],
      "payable": false,
      "stateMutability": "view",
      "type": "function"
    },
    {
      "constant": false,
      "inputs": [
        {
          "name": "_block",
          "type": "uint256"
        }
      ],
      "name": "requestRN",
      "outputs": [],
      "payable": true,
      "stateMutability": "payable",
      "type": "function"
    },
    {
      "constant": true,
      "inputs": [
        {
          "name": "",
          "type": "uint256"
        }
      ],
      "name": "reward",
      "outputs": [
        {
          "name": "",
          "type": "uint256"
        }
      ],
      "payable": false,
      "stateMutability": "view",
      "type": "function"
    },
    {
      "constant": true,
      "inputs": [
        {
          "name": "",
          "type": "uint256"
        }
      ],
      "name": "randomNumber",
      "outputs": [
        {
          "name": "",
          "type": "uint256"
        }
      ],
      "payable": false,
      "stateMutability": "view",
      "type": "function"
    },
    {
      "constant": false,
      "inputs": [
        {
          "name": "_block",
          "type": "uint256"
        }
      ],
      "name": "contribute",
      "outputs": [],
      "payable": true,
      "stateMutability": "payable",
      "type": "function"
    },
    {
      "constant": true,
      "inputs": [
        {
          "name": "_block",
          "type": "uint256"
        }
      ],
      "name": "getRN",
      "outputs": [
        {
          "name": "RN",
          "type": "uint256"
        }
      ],
      "payable": false,
      "stateMutability": "view",
      "type": "function"
    },
    {
      "constant": false,
      "inputs": [
        {
          "name": "_block",
          "type": "uint256"
        }
      ],
      "name": "saveRN",
      "outputs": [],
      "payable": false,
      "stateMutability": "nonpayable",
      "type": "function"
    }
  ],
  "bytecode": "0x608060405234801561001057600080fd5b506103f0806100206000396000f300608060405260043610610083576000357c0100000000000000000000000000000000000000000000000000000000900463ffffffff1680631c73601e146100885780637b9c34e0146100c9578063a9fb763c146100e9578063b9a522031461012a578063c1cbbca714610157578063ca4742f114610177578063f970dd02146101b8575b600080fd5b34801561009457600080fd5b506100b3600480360381019080803590602001909291905050506101f9565b6040518082815260200191505060405180910390f35b6100e76004803603810190808035906020019092919050505061027f565b005b3480156100f557600080fd5b506101146004803603810190808035906020019092919050505061028b565b6040518082815260200191505060405180910390f35b34801561013657600080fd5b50610155600480360381019080803590602001909291905050506102a3565b005b6101756004803603810190808035906020019092919050505061033c565b005b34801561018357600080fd5b506101a260048036038101908080359060200190929190505050610360565b6040518082815260200191505060405180910390f35b3480156101c457600080fd5b506101e3600480360381019080803590602001909291905050506103ac565b6040518082815260200191505060405180910390f35b60008061020583610360565b905060008114156102195760009150610279565b3381604051808373ffffffffffffffffffffffffffffffffffffffff1673ffffffffffffffffffffffffffffffffffffffff166c010000000000000000000000000281526014018281526020019250505060405180910390206001900491505b50919050565b6102888161033c565b50565b60016020528060005260406000206000915090505481565b600080600102824060001916141515610338576001600083815260200190815260200160002054905060006001600084815260200190815260200160002081905550814060019004600080848152602001908152602001600020819055503373ffffffffffffffffffffffffffffffffffffffff166108fc829081150290604051600060405180830381858888f19350505050505b5050565b34600160008381526020019081526020016000206000828254019250508190555050565b600080600083815260200190815260200160002054905060008114156103a357610389826102a3565b6000808381526020019081526020016000205490506103a7565b8090505b919050565b600060205280600052604060002060009150905054815600a165627a7a72305820ce14a32667f738925da59b37868fa5e2ca4515aa454afbf2983eeeba53ca0c220029",
  "source": "/**\n *  @title Random Number Generator usign blockhash\n *  @author Clément Lesaege - <clement@lesaege.com>\n *  \n *  This contract implement the RNG standard and giving parties incentives in saving the blockhash to avoid it to become unreachable after 256 blocks.\n * \n */\npragma solidity ^0.4.15;\n \nimport \"./RNG.sol\";\n\n/** Simple Random Number Generator returning the blockhash.\n *  Allows saving the random number for use in the future. \n *  It allows the contract to still access the blockhash even after 256 blocks.\n *  The first party to call the save function gets the reward.\n */\ncontract BlockHashRNG is RNG {\n    \n    mapping (uint => uint) public randomNumber; // RN[block] is the random number for this block 0 otherwise.\n    mapping (uint => uint) public reward; // reward[block] is the amount to be paid to the party w.\n    \n\n    \n    /** @dev Contribute to the reward of a random number.\n     *  @param _block Block the random number is linked to.\n     */\n    function contribute(uint _block) public payable { reward[_block]+=msg.value; }\n    \n    \n    /** @dev Return the random number. If it has not been saved and is still computable compute it.\n     *  @param _block Block the random number is linked to.\n     *  @return RN Random Number. If the number is not ready or has not been requested 0 instead.\n     */\n    function getRN(uint _block) public constant returns (uint RN) {\n        RN=randomNumber[_block];\n        if (RN==0){\n            saveRN(_block);\n            return randomNumber[_block];\n        }\n        else\n            return RN;\n    }\n    \n    /** @dev Save the random number for this blockhash and give the reward to the caller.\n     *  @param _block Block the random number is linked to.\n     */\n    function saveRN(uint _block) public {\n        if (block.blockhash(_block)!=0x0) {\n            uint rewardToSend=reward[_block];\n            reward[_block]=0;\n            randomNumber[_block]=uint(block.blockhash(_block));\n            \n            msg.sender.send(rewardToSend); // Note that the use of send is on purpose as we don't want to block in case the msg.sender has a fallback issue.\n            \n        }  \n    }\n    \n}\n",
  "sourcePath": "/Users/epiqueras/Work/kleros/kleros-interaction/contracts/standard/rng/BlockhashRNG.sol",
  "compiler": {
    "name": "solc",
    "version": "0.4.23+commit.124ca40d.Emscripten.clang"
  },
  "schemaVersion": "2.0.0",
  "updatedAt": "2018-06-26T20:15:53.362Z"
}