{
  "contractName": "CentralizedArbitrator",
  "abi": [
    {
      "constant": false,
      "inputs": [
        {
          "name": "_disputeID",
          "type": "uint256"
        },
        {
          "name": "_extraData",
          "type": "bytes"
        }
      ],
      "name": "appeal",
      "outputs": [],
      "payable": true,
      "stateMutability": "payable",
      "type": "function"
    },
    {
      "constant": true,
      "inputs": [
        {
          "name": "",
          "type": "uint256"
        }
      ],
      "name": "disputes",
      "outputs": [
        {
          "name": "arbitrated",
          "type": "address"
        },
        {
          "name": "choices",
          "type": "uint256"
        },
        {
          "name": "fee",
          "type": "uint256"
        },
        {
          "name": "ruling",
          "type": "uint256"
        },
        {
          "name": "status",
          "type": "uint8"
        }
      ],
      "payable": false,
      "stateMutability": "view",
      "type": "function"
    },
    {
      "constant": true,
      "inputs": [],
      "name": "owner",
      "outputs": [
        {
          "name": "",
          "type": "address"
        }
      ],
      "payable": false,
      "stateMutability": "view",
      "type": "function"
    },
    {
      "inputs": [
        {
          "name": "_arbitrationPrice",
          "type": "uint256"
        }
      ],
      "payable": false,
      "stateMutability": "nonpayable",
      "type": "constructor"
    },
    {
      "anonymous": false,
      "inputs": [
        {
          "indexed": false,
          "name": "_disputeID",
          "type": "uint256"
        }
      ],
      "name": "AppealPossible",
      "type": "event"
    },
    {
      "anonymous": false,
      "inputs": [
        {
          "indexed": true,
          "name": "_disputeID",
          "type": "uint256"
        },
        {
          "indexed": false,
          "name": "_arbitrable",
          "type": "address"
        }
      ],
      "name": "DisputeCreation",
      "type": "event"
    },
    {
      "anonymous": false,
      "inputs": [
        {
          "indexed": true,
          "name": "_disputeID",
          "type": "uint256"
        },
        {
          "indexed": false,
          "name": "_arbitrable",
          "type": "address"
        }
      ],
      "name": "AppealDecision",
      "type": "event"
    },
    {
      "constant": false,
      "inputs": [
        {
          "name": "_arbitrationPrice",
          "type": "uint256"
        }
      ],
      "name": "setArbitrationPrice",
      "outputs": [],
      "payable": false,
      "stateMutability": "nonpayable",
      "type": "function"
    },
    {
      "constant": true,
      "inputs": [
        {
          "name": "_extraData",
          "type": "bytes"
        }
      ],
      "name": "arbitrationCost",
      "outputs": [
        {
          "name": "fee",
          "type": "uint256"
        }
      ],
      "payable": false,
      "stateMutability": "view",
      "type": "function"
    },
    {
      "constant": true,
      "inputs": [
        {
          "name": "_disputeID",
          "type": "uint256"
        },
        {
          "name": "_extraData",
          "type": "bytes"
        }
      ],
      "name": "appealCost",
      "outputs": [
        {
          "name": "fee",
          "type": "uint256"
        }
      ],
      "payable": false,
      "stateMutability": "view",
      "type": "function"
    },
    {
      "constant": false,
      "inputs": [
        {
          "name": "_choices",
          "type": "uint256"
        },
        {
          "name": "_extraData",
          "type": "bytes"
        }
      ],
      "name": "createDispute",
      "outputs": [
        {
          "name": "disputeID",
          "type": "uint256"
        }
      ],
      "payable": true,
      "stateMutability": "payable",
      "type": "function"
    },
    {
      "constant": false,
      "inputs": [
        {
          "name": "_disputeID",
          "type": "uint256"
        },
        {
          "name": "_ruling",
          "type": "uint256"
        }
      ],
      "name": "giveRuling",
      "outputs": [],
      "payable": false,
      "stateMutability": "nonpayable",
      "type": "function"
    },
    {
      "constant": true,
      "inputs": [
        {
          "name": "_disputeID",
          "type": "uint256"
        }
      ],
      "name": "disputeStatus",
      "outputs": [
        {
          "name": "status",
          "type": "uint8"
        }
      ],
      "payable": false,
      "stateMutability": "view",
      "type": "function"
    },
    {
      "constant": true,
      "inputs": [
        {
          "name": "_disputeID",
          "type": "uint256"
        }
      ],
      "name": "currentRuling",
      "outputs": [
        {
          "name": "ruling",
          "type": "uint256"
        }
      ],
      "payable": false,
      "stateMutability": "view",
      "type": "function"
    }
  ],
  "bytecode": "0x6080604052336000806101000a81548173ffffffffffffffffffffffffffffffffffffffff021916908373ffffffffffffffffffffffffffffffffffffffff16021790555034801561005057600080fd5b50604051602080610aff833981018060405281019080805190602001909291905050508060018190555050610a758061008a6000396000f3006080604052600436106100a4576000357c0100000000000000000000000000000000000000000000000000000000900463ffffffff16806310f169e8146100a95780631c3db16d146100f857806349912f8814610139578063564a565d1461019f5780638da5cb5b14610236578063c13517e11461028d578063c97c4d5c14610307578063f23f16e61461033e578063f7434ea9146103c5578063ffb43c4814610442575b600080fd5b3480156100b557600080fd5b506100d46004803603810190808035906020019092919050505061046f565b604051808260028111156100e457fe5b60ff16815260200191505060405180910390f35b34801561010457600080fd5b50610123600480360381019080803590602001909291905050506104a6565b6040518082815260200191505060405180910390f35b61019d60048036038101908080359060200190929190803590602001908201803590602001908080601f01602080910402602001604051908101604052809392919081815260200183838082843782019150505050505091929192905050506104d0565b005b3480156101ab57600080fd5b506101ca60048036038101908080359060200190929190505050610554565b604051808673ffffffffffffffffffffffffffffffffffffffff1673ffffffffffffffffffffffffffffffffffffffff16815260200185815260200184815260200183815260200182600281111561021e57fe5b60ff1681526020019550505050505060405180910390f35b34801561024257600080fd5b5061024b6105c6565b604051808273ffffffffffffffffffffffffffffffffffffffff1673ffffffffffffffffffffffffffffffffffffffff16815260200191505060405180910390f35b6102f160048036038101908080359060200190929190803590602001908201803590602001908080601f01602080910402602001604051908101604052809392919081815260200183838082843782019150505050505091929192905050506105eb565b6040518082815260200191505060405180910390f35b34801561031357600080fd5b5061033c6004803603810190808035906020019092919080359060200190929190505050610772565b005b34801561034a57600080fd5b506103af60048036038101908080359060200190929190803590602001908201803590602001908080601f016020809104026020016040519081016040528093929190818152602001838380828437820191505050505050919291929050505061098c565b6040518082815260200191505060405180910390f35b3480156103d157600080fd5b5061042c600480360381019080803590602001908201803590602001908080601f01602080910402602001604051908101604052809392919081815260200183838082843782019150505050505091929192905050506109b7565b6040518082815260200191505060405180910390f35b34801561044e57600080fd5b5061046d600480360381019080803590602001909291905050506109c3565b005b600060028281548110151561048057fe5b906000526020600020906005020160040160009054906101000a900460ff169050919050565b60006002828154811015156104b757fe5b9060005260206000209060050201600301549050919050565b81816104dc828261098c565b34101515156104ea57600080fd5b837f9c9b64db9e130f48381bf697abf638e73117dbfbfd7a4484f2da3ba188f4187d33604051808273ffffffffffffffffffffffffffffffffffffffff1673ffffffffffffffffffffffffffffffffffffffff16815260200191505060405180910390a250505050565b60028181548110151561056357fe5b90600052602060002090600502016000915090508060000160009054906101000a900473ffffffffffffffffffffffffffffffffffffffff16908060010154908060020154908060030154908060040160009054906101000a900460ff16905085565b6000809054906101000a900473ffffffffffffffffffffffffffffffffffffffff1681565b60006105f78383610a28565b506001600260a0604051908101604052803373ffffffffffffffffffffffffffffffffffffffff168152602001868152602001348152602001600081526020016000600281111561064457fe5b8152509080600181540180825580915050906001820390600052602060002090600502016000909192909190915060008201518160000160006101000a81548173ffffffffffffffffffffffffffffffffffffffff021916908373ffffffffffffffffffffffffffffffffffffffff16021790555060208201518160010155604082015181600201556060820151816003015560808201518160040160006101000a81548160ff021916908360028111156106fb57fe5b02179055505050039050807f141dfc18aa6a56fc816f44f0e9e2f1ebc92b15ab167770e17db5b084c10ed99533604051808273ffffffffffffffffffffffffffffffffffffffff1673ffffffffffffffffffffffffffffffffffffffff16815260200191505060405180910390a280905092915050565b60008060008060009054906101000a900473ffffffffffffffffffffffffffffffffffffffff1673ffffffffffffffffffffffffffffffffffffffff163373ffffffffffffffffffffffffffffffffffffffff161415156107d257600080fd5b6002858154811015156107e157fe5b906000526020600020906005020192508260010154841115151561080457600080fd5b826002015491508260000160009054906101000a900473ffffffffffffffffffffffffffffffffffffffff16905060008360000160006101000a81548173ffffffffffffffffffffffffffffffffffffffff021916908373ffffffffffffffffffffffffffffffffffffffff1602179055506000836002018190555083836003018190555060028360040160006101000a81548160ff021916908360028111156108aa57fe5b02179055503373ffffffffffffffffffffffffffffffffffffffff166108fc839081150290604051600060405180830381858888f193505050501580156108f5573d6000803e3d6000fd5b508073ffffffffffffffffffffffffffffffffffffffff1663311a6c5686866040518363ffffffff167c01000000000000000000000000000000000000000000000000000000000281526004018083815260200182815260200192505050600060405180830381600087803b15801561096d57600080fd5b505af1158015610981573d6000803e3d6000fd5b505050505050505050565b60007f7fffffffffffffffffffffffffffffffffffffffffffffffffffffffffffffff905092915050565b60006001549050919050565b6000809054906101000a900473ffffffffffffffffffffffffffffffffffffffff1673ffffffffffffffffffffffffffffffffffffffff163373ffffffffffffffffffffffffffffffffffffffff16141515610a1e57600080fd5b8060018190555050565b600081610a34816109b7565b3410151515610a4257600080fd5b50929150505600a165627a7a72305820edea47d678ed10e0ff3d0e5724ec10f5ab185aa0417fa20d7f33696e777f94440029",
  "source": "/**\n *  @title Arbitration Standard\n *  @author Clément Lesaege - <clement@lesaege.com>\n *  Bug Bounties: This code hasn't undertaken a bug bounty program yet.\n */\n\npragma solidity ^0.4.15;\n\nimport \"./Arbitrator.sol\";\n\n/** @title Centralized Arbitrator\n *  This is a centralized arbitrator deciding alone of the result of disputes.\n *  No appeals are possible.\n */\ncontract CentralizedArbitrator is Arbitrator {\n    \n    address public owner=msg.sender;\n    uint arbitrationPrice; // Not public because arbitrationCost already acts as an accessor.\n    uint constant NOT_PAYABLE_VALUE = (2**256-2)/2; // High value to be sure that the appeal is too expensive.\n\n    struct Dispute {\n        Arbitrable arbitrated;\n        uint choices;\n        uint fee;\n        uint ruling;\n        DisputeStatus status;\n    }\n    \n    modifier onlyOwner {require(msg.sender==owner); _;}\n    \n    Dispute[] public disputes;\n    \n    /** @dev Constructor. Set the initial arbitration price.\n     *  @param _arbitrationPrice Amount to be paid for arbitration.\n     */\n    function CentralizedArbitrator(uint _arbitrationPrice) public {\n        arbitrationPrice = _arbitrationPrice;\n    }\n    \n    /** @dev Set the arbitration price. Only callable by the owner.\n     *  @param _arbitrationPrice Amount to be paid for arbitration.\n     */\n    function setArbitrationPrice(uint _arbitrationPrice) public onlyOwner {\n        arbitrationPrice = _arbitrationPrice;\n    }\n    \n    /** @dev Cost of arbitration. Accessor to arbitrationPrice.\n     *  @param _extraData Not used by this contract.\n     *  @return fee Amount to be paid.\n     */\n    function arbitrationCost(bytes _extraData) public constant returns(uint fee) {\n        return arbitrationPrice;\n    }\n    \n    /** @dev Cost of appeal. Since it is not possible, it's a high value which can never be paid.\n     *  @param _disputeID ID of the dispute to be appealed. Not used by this contract.\n     *  @param _extraData Not used by this contract.\n     *  @return fee Amount to be paid.\n     */\n    function appealCost(uint _disputeID, bytes _extraData) public constant returns(uint fee) {\n        return NOT_PAYABLE_VALUE;\n    }\n    \n    /** @dev Create a dispute. Must be called by the arbitrable contract.\n     *  Must be paid at least arbitrationCost().\n     *  @param _choices Amount of choices the arbitrator can make in this dispute. When ruling ruling<=choices.\n     *  @param _extraData Can be used to give additional info on the dispute to be created.\n     *  @return disputeID ID of the dispute created.\n     */\n    function createDispute(uint _choices, bytes _extraData) public payable returns(uint disputeID)  {\n        super.createDispute(_choices,_extraData);\n        disputeID = disputes.push(Dispute({\n            arbitrated: Arbitrable(msg.sender),\n            choices: _choices,\n            fee: msg.value,\n            ruling: 0,\n            status: DisputeStatus.Waiting\n        })) - 1; // Create the dispute and return its number.\n\t\tDisputeCreation(disputeID, Arbitrable(msg.sender));\n\t\treturn disputeID;\n    }\n    \n    /** @dev Give a ruling. UNTRUSTED.\n     *  @param _disputeID ID of the dispute to rule.\n     *  @param _ruling Ruling given by the arbitrator. Note that 0 means \"Not able/wanting to make a decision\".\n     */\n    function giveRuling(uint _disputeID, uint _ruling) public onlyOwner {\n        Dispute dispute = disputes[_disputeID];\n        require(_ruling<=dispute.choices);\n        \n        uint fee = dispute.fee;\n        Arbitrable arbitrated = dispute.arbitrated;\n        dispute.arbitrated=Arbitrable(0x0); // Clean up to get gas back and prevent calling it again.\n        dispute.fee=0;\n        dispute.ruling=_ruling;\n        dispute.status=DisputeStatus.Solved;\n        \n        msg.sender.transfer(fee);\n        arbitrated.rule(_disputeID,_ruling);\n    }\n    \n    /** @dev Return the status of a dispute.\n     *  @param _disputeID ID of the dispute to rule.\n     *  @return status The status of the dispute.\n     */\n    function disputeStatus(uint _disputeID) public constant returns(DisputeStatus status) {\n        return disputes[_disputeID].status;\n    }\n    \n    /** @dev Return the ruling of a dispute.\n     *  @param _disputeID ID of the dispute to rule.\n     *  @return ruling The ruling which would or has been given.\n     */\n    function currentRuling(uint _disputeID) public constant returns(uint ruling) {\n        return disputes[_disputeID].ruling;\n    }\n}\n\n",
  "sourcePath": "/Users/epiqueras/Work/kleros/kleros-interaction/contracts/standard/arbitration/CentralizedArbitrator.sol",
  "compiler": {
    "name": "solc",
    "version": "0.4.23+commit.124ca40d.Emscripten.clang"
  },
  "schemaVersion": "2.0.0",
  "updatedAt": "2018-06-26T20:15:53.347Z"
}