{
  "contractName": "ConstantNG",
  "abi": [
    {
      "constant": true,
      "inputs": [
        {
          "name": "_block",
          "type": "uint256"
        }
      ],
      "name": "getUncorrelatedRN",
      "outputs": [
        {
          "name": "RN",
          "type": "uint256"
        }
      ],
      "payable": false,
      "stateMutability": "view",
      "type": "function"
    },
    {
      "constant": false,
      "inputs": [
        {
          "name": "_block",
          "type": "uint256"
        }
      ],
      "name": "requestRN",
      "outputs": [],
      "payable": true,
      "stateMutability": "payable",
      "type": "function"
    },
    {
      "constant": true,
      "inputs": [],
      "name": "number",
      "outputs": [
        {
          "name": "",
          "type": "uint256"
        }
      ],
      "payable": false,
      "stateMutability": "view",
      "type": "function"
    },
    {
      "inputs": [
        {
          "name": "_number",
          "type": "uint256"
        }
      ],
      "payable": false,
      "stateMutability": "nonpayable",
      "type": "constructor"
    },
    {
      "constant": false,
      "inputs": [
        {
          "name": "_block",
          "type": "uint256"
        }
      ],
      "name": "contribute",
      "outputs": [],
      "payable": true,
      "stateMutability": "payable",
      "type": "function"
    },
    {
      "constant": true,
      "inputs": [
        {
          "name": "_block",
          "type": "uint256"
        }
      ],
      "name": "getRN",
      "outputs": [
        {
          "name": "RN",
          "type": "uint256"
        }
      ],
      "payable": false,
      "stateMutability": "view",
      "type": "function"
    }
  ],
  "bytecode": "0x608060405234801561001057600080fd5b5060405160208061027b8339810180604052810190808051906020019092919050505080600081905550506102318061004a6000396000f30060806040526004361061006d576000357c0100000000000000000000000000000000000000000000000000000000900463ffffffff1680631c73601e146100725780637b9c34e0146100b35780638381f58a146100d3578063c1cbbca7146100fe578063ca4742f11461011e575b600080fd5b34801561007e57600080fd5b5061009d6004803603810190808035906020019092919050505061015f565b6040518082815260200191505060405180910390f35b6100d1600480360381019080803590602001909291905050506101e5565b005b3480156100df57600080fd5b506100e86101f1565b6040518082815260200191505060405180910390f35b61011c600480360381019080803590602001909291905050506101f7565b005b34801561012a57600080fd5b50610149600480360381019080803590602001909291905050506101fa565b6040518082815260200191505060405180910390f35b60008061016b836101fa565b9050600081141561017f57600091506101df565b3381604051808373ffffffffffffffffffffffffffffffffffffffff1673ffffffffffffffffffffffffffffffffffffffff166c010000000000000000000000000281526014018281526020019250505060405180910390206001900491505b50919050565b6101ee816101f7565b50565b60005481565b50565b6000805490509190505600a165627a7a723058201ac768be786c1a9b3cb1a766221d55df40586c09c8c78422c8b70ae99a656eb60029",
  "source": "/**\n *  @title Constant Number Generator\n *  @author Clément Lesaege - <clement@lesaege.com>\n *  @dev A Random Number Generator which always return the same number. Usefull in order to make tests.\n */\n\nimport \"./RNG.sol\";\n\npragma solidity ^0.4.15;\n\n contract ConstantNG is RNG{\n\n    uint public number;\n\n    /** @dev Constructor.\n     *  @param _number The number to always return.\n     */\n    constructor(uint _number) public {\n        number = _number;\n    }\n\n    /** @dev Contribute to the reward of a random number. All the ETH will be lost forever.\n     *  @param _block Block the random number is linked to.\n     */\n    function contribute(uint _block) public payable {}\n\n\n    /** @dev Get the \"random number\" (which is always the same).\n     *  @param _block Block the random number is linked to.\n     *  @return RN Random Number. If the number is not ready or has not been required 0 instead.\n     */\n    function getRN(uint _block) public constant returns (uint RN) {\n        return number;\n    }\n\n\n }\n",
  "sourcePath": "/Users/epiqueras/Work/kleros/kleros-interaction/contracts/standard/rng/ConstantNG.sol",
  "compiler": {
    "name": "solc",
    "version": "0.4.24+commit.e67f0147.Emscripten.clang"
  },
  "schemaVersion": "2.0.1",
  "updatedAt": "2018-07-17T16:56:20.275Z"
}