{
  "contractName": "ExperimentalProxy",
  "abi": [
    {
      "constant": true,
      "inputs": [],
      "name": "implementation",
      "outputs": [
        {
          "name": "",
          "type": "address"
        }
      ],
      "payable": false,
      "stateMutability": "view",
      "type": "function"
    },
    {
      "constant": true,
      "inputs": [],
      "name": "storageIsEternal",
      "outputs": [
        {
          "name": "",
          "type": "bool"
        }
      ],
      "payable": false,
      "stateMutability": "view",
      "type": "function"
    },
    {
      "inputs": [
        {
          "name": "_storageIsEternal",
          "type": "bool"
        },
        {
          "name": "_implementation",
          "type": "address"
        }
      ],
      "payable": false,
      "stateMutability": "nonpayable",
      "type": "constructor"
    },
    {
      "payable": true,
      "stateMutability": "payable",
      "type": "fallback"
    }
  ],
  "bytecode": "0x608060405234801561001057600080fd5b5060405160408061037c8339810180604052810190808051906020019092919080519060200190929190505050816000806101000a81548160ff02191690831515021790555080600060016101000a81548173ffffffffffffffffffffffffffffffffffffffff021916908373ffffffffffffffffffffffffffffffffffffffff16021790555050506102d4806100a86000396000f30060806040526004361061004c576000357c0100000000000000000000000000000000000000000000000000000000900463ffffffff1680635c60da1b146101b9578063913d904a14610210575b6000606060006060600073ffffffffffffffffffffffffffffffffffffffff16600060019054906101000a900473ffffffffffffffffffffffffffffffffffffffff1673ffffffffffffffffffffffffffffffffffffffff16141515156100b257600080fd5b6000809054906101000a900460ff1693506000368080601f01602080910402602001604051908101604052809392919081815260200183838082843782019150505050505092506101276000357fffffffff00000000000000000000000000000000000000000000000000000000168461023f565b915060208301835160008660008114610149576000808486895af49150610155565b6000808486348a5af191505b503d60405160208101828252826000823e83600081146101775782975061017b565b8382fd5b505050505050506101b16000357fffffffff0000000000000000000000000000000000000000000000000000000016848361026b565b805160208201f35b3480156101c557600080fd5b506101ce610270565b604051808273ffffffffffffffffffffffffffffffffffffffff1673ffffffffffffffffffffffffffffffffffffffff16815260200191505060405180910390f35b34801561021c57600080fd5b50610225610296565b604051808215151515815260200191505060405180910390f35b60008060019054906101000a900473ffffffffffffffffffffffffffffffffffffffff16905092915050565b505050565b600060019054906101000a900473ffffffffffffffffffffffffffffffffffffffff1681565b6000809054906101000a900460ff16815600a165627a7a723058207113b8b044861c370a6fd5c4d14b24815911f6bc4d916d0390d4db6cc1aea9940029",
  "source": "pragma solidity ^0.4.15;\n\n/**\n *  @title ExperimentalProxy\n *  @author Enrique Piqueras - <epiquerass@gmail.com>\n *  @notice An experimental base proxy contract that forwards all calls to the 'implementation' contract and optionally keeps all storage.\n */\ncontract ExperimentalProxy {\n    /* Storage */\n\n    bool public storageIsEternal;\n    address public implementation;\n\n    /* Constructor */\n\n    /**\n     * @notice Constructs the proxy with the eternal storage flag and an initial 'implementation' contract address.\n     * @param _storageIsEternal Wether this contract should store all storage. I.e. Use 'delegatecall'.\n     * @param _implementation The initial 'implementation' contract address.\n     */\n    constructor(bool _storageIsEternal, address _implementation) public {\n        storageIsEternal = _storageIsEternal;\n        implementation = _implementation;\n    }\n\n    /* Fallback */\n\n    /**\n     * @notice The fallback function that forwards calls to the 'implementation' contract.\n     * @return The result of calling the requested function on the 'implementation' contract.\n     */\n    function () payable external {\n        require(implementation != address(0)); // Make sure address is valid\n\n        // Store necessary data for assembly in local memory\n        bool _storageIsEternal = storageIsEternal;\n        bytes memory _data = msg.data;\n        address _implementation = getImplementation(msg.sig, _data);\n\n        // Return data\n        bytes memory _retData;\n\n        assembly {\n            // Start of payload raw data (skip over size slot)\n            let _dataPtr := add(_data, 0x20)\n\n            // Payload's size\n            let _dataSize := mload(_data)\n\n            // Figure out what OPCODE to use and forward call\n            let _result\n            switch _storageIsEternal\n            case 0 { // Not eternal, use implementation's storage\n                _result := call(gas, _implementation, callvalue, _dataPtr, _dataSize, 0, 0)\n            }\n            default { // Eternal, use current contract's storage\n                _result := delegatecall(gas, _implementation, _dataPtr, _dataSize, 0, 0)\n            }\n\n            // Size of the returned data\n            let _retSize := returndatasize\n\n            let _retPtr := mload(0x40) // Start of free memory\n            let _retDataPtr := add(_retPtr, 0x20) // Make space for 'bytes' size\n\n            // Build `_retData` 'bytes'\n            mstore(_retPtr, _retSize) // Copy size\n            returndatacopy(_retDataPtr, 0, _retSize) // Copy returned data\n\n            // Figure out wether to revert or continue with the returned data\n            switch _result\n            case 0 { // Error\n                revert(_retDataPtr, _retSize)\n            }\n            default { // Success\n                _retData := _retPtr\n            }\n        }\n\n        // Call on-chain handler\n        handleProxySuccess(msg.sig, _data, _retData);\n\n        assembly {\n            return(add(_retData, 0x20), mload(_retData)) // Return returned data\n        }\n    }\n\n    /* Private */\n\n    /**\n     * @notice On-chain handler that gets called with call data and the 'implementation' contract's return data after a call is successfully proxied.\n     * @dev Overwrite this function to handle the results of proxied calls in this contract.\n     * @param _sig The function signature of the called function.\n     * @param _data The data passed into the call.\n     * @param _retData The return data of the 'implementation' contract for the proxied call.\n     */\n    function handleProxySuccess(bytes4 _sig, bytes _data, bytes _retData) private {}\n\n    /* Private Views */\n\n    /**\n     * @notice Function for dynamically getting the 'implementation' contract address.\n     * @dev Overwrite this function to implement custom resolving logic based on the function being called and the data passed in.\n     * @param _sig The function signature of the called function.\n     * @param _data The data passed into the call.\n     * @return The resolved 'implementation' contract address.\n     */\n    function getImplementation(bytes4 _sig, bytes _data) private view returns(address _implementation) { return implementation; }\n}\n",
  "sourcePath": "/Users/epiqueras/Work/kleros/kleros-interaction/contracts/standard/proxy/ExperimentalProxy.sol",
  "compiler": {
    "name": "solc",
    "version": "0.4.24+commit.e67f0147.Emscripten.clang"
  },
  "schemaVersion": "2.0.1",
  "updatedAt": "2018-07-17T16:56:20.269Z"
}