{
  "contractName": "FundingVault",
  "abi": [
    {
      "constant": true,
      "inputs": [],
      "name": "funder",
      "outputs": [
        {
          "name": "",
          "type": "address"
        }
      ],
      "payable": false,
      "stateMutability": "view",
      "type": "function"
    },
    {
      "constant": true,
      "inputs": [],
      "name": "arbitratorExtraData",
      "outputs": [
        {
          "name": "",
          "type": "bytes"
        }
      ],
      "payable": false,
      "stateMutability": "view",
      "type": "function"
    },
    {
      "constant": true,
      "inputs": [],
      "name": "claimToWithdrawTime",
      "outputs": [
        {
          "name": "",
          "type": "uint256"
        }
      ],
      "payable": false,
      "stateMutability": "view",
      "type": "function"
    },
    {
      "constant": false,
      "inputs": [
        {
          "name": "_disputeID",
          "type": "uint256"
        },
        {
          "name": "_ruling",
          "type": "uint256"
        }
      ],
      "name": "rule",
      "outputs": [],
      "payable": false,
      "stateMutability": "nonpayable",
      "type": "function"
    },
    {
      "constant": true,
      "inputs": [],
      "name": "arbitrator",
      "outputs": [
        {
          "name": "",
          "type": "address"
        }
      ],
      "payable": false,
      "stateMutability": "view",
      "type": "function"
    },
    {
      "constant": true,
      "inputs": [],
      "name": "timeout",
      "outputs": [
        {
          "name": "",
          "type": "uint256"
        }
      ],
      "payable": false,
      "stateMutability": "view",
      "type": "function"
    },
    {
      "constant": true,
      "inputs": [],
      "name": "team",
      "outputs": [
        {
          "name": "",
          "type": "address"
        }
      ],
      "payable": false,
      "stateMutability": "view",
      "type": "function"
    },
    {
      "constant": true,
      "inputs": [],
      "name": "additionalTimeToWithdraw",
      "outputs": [
        {
          "name": "",
          "type": "uint256"
        }
      ],
      "payable": false,
      "stateMutability": "view",
      "type": "function"
    },
    {
      "constant": true,
      "inputs": [
        {
          "name": "",
          "type": "uint256"
        }
      ],
      "name": "milestones",
      "outputs": [
        {
          "name": "amount",
          "type": "uint256"
        },
        {
          "name": "amountClaimed",
          "type": "uint256"
        },
        {
          "name": "claimTime",
          "type": "uint256"
        },
        {
          "name": "disputed",
          "type": "bool"
        },
        {
          "name": "feeTeam",
          "type": "uint256"
        },
        {
          "name": "feeHolders",
          "type": "uint256"
        },
        {
          "name": "voteToken",
          "type": "address"
        },
        {
          "name": "disputeID",
          "type": "uint256"
        },
        {
          "name": "lastTotalFeePayment",
          "type": "uint256"
        },
        {
          "name": "lastTotalFeePaymentIsTeam",
          "type": "bool"
        },
        {
          "name": "payerForHolders",
          "type": "address"
        }
      ],
      "payable": false,
      "stateMutability": "view",
      "type": "function"
    },
    {
      "constant": true,
      "inputs": [
        {
          "name": "",
          "type": "uint256"
        }
      ],
      "name": "disputeIDToMilstoneID",
      "outputs": [
        {
          "name": "",
          "type": "uint256"
        }
      ],
      "payable": false,
      "stateMutability": "view",
      "type": "function"
    },
    {
      "constant": true,
      "inputs": [],
      "name": "disputeThreshold",
      "outputs": [
        {
          "name": "",
          "type": "uint256"
        }
      ],
      "payable": false,
      "stateMutability": "view",
      "type": "function"
    },
    {
      "constant": true,
      "inputs": [],
      "name": "token",
      "outputs": [
        {
          "name": "",
          "type": "address"
        }
      ],
      "payable": false,
      "stateMutability": "view",
      "type": "function"
    },
    {
      "inputs": [
        {
          "name": "_arbitrator",
          "type": "address"
        },
        {
          "name": "_arbitratorExtraData",
          "type": "bytes"
        },
        {
          "name": "_contractHash",
          "type": "bytes32"
        },
        {
          "name": "_team",
          "type": "address"
        },
        {
          "name": "_token",
          "type": "address"
        },
        {
          "name": "_funder",
          "type": "address"
        },
        {
          "name": "_disputeThreshold",
          "type": "uint256"
        },
        {
          "name": "_claimToWithdrawTime",
          "type": "uint256"
        },
        {
          "name": "_additionalTimeToWithdraw",
          "type": "uint256"
        },
        {
          "name": "_timeout",
          "type": "uint256"
        }
      ],
      "payable": false,
      "stateMutability": "nonpayable",
      "type": "constructor"
    },
    {
      "anonymous": false,
      "inputs": [
        {
          "indexed": true,
          "name": "_arbitrator",
          "type": "address"
        },
        {
          "indexed": true,
          "name": "_disputeID",
          "type": "uint256"
        },
        {
          "indexed": false,
          "name": "_rulingOptions",
          "type": "string"
        }
      ],
      "name": "Dispute",
      "type": "event"
    },
    {
      "anonymous": false,
      "inputs": [
        {
          "indexed": true,
          "name": "_arbitrator",
          "type": "address"
        },
        {
          "indexed": true,
          "name": "_disputeID",
          "type": "uint256"
        },
        {
          "indexed": false,
          "name": "_ruling",
          "type": "uint256"
        }
      ],
      "name": "Ruling",
      "type": "event"
    },
    {
      "anonymous": false,
      "inputs": [
        {
          "indexed": true,
          "name": "_arbitrator",
          "type": "address"
        },
        {
          "indexed": true,
          "name": "_disputeID",
          "type": "uint256"
        },
        {
          "indexed": false,
          "name": "_party",
          "type": "address"
        },
        {
          "indexed": false,
          "name": "_evidence",
          "type": "string"
        }
      ],
      "name": "Evidence",
      "type": "event"
    },
    {
      "anonymous": false,
      "inputs": [
        {
          "indexed": false,
          "name": "_contractHash",
          "type": "bytes32"
        }
      ],
      "name": "ContractHash",
      "type": "event"
    },
    {
      "constant": false,
      "inputs": [],
      "name": "fundMilestone",
      "outputs": [
        {
          "name": "milestoneID",
          "type": "uint256"
        }
      ],
      "payable": true,
      "stateMutability": "payable",
      "type": "function"
    },
    {
      "constant": false,
      "inputs": [
        {
          "name": "_milestoneID",
          "type": "uint256"
        },
        {
          "name": "_amount",
          "type": "uint256"
        }
      ],
      "name": "claimMilestone",
      "outputs": [],
      "payable": false,
      "stateMutability": "nonpayable",
      "type": "function"
    },
    {
      "constant": false,
      "inputs": [
        {
          "name": "_milestoneID",
          "type": "uint256"
        }
      ],
      "name": "makeVoteToken",
      "outputs": [],
      "payable": false,
      "stateMutability": "nonpayable",
      "type": "function"
    },
    {
      "constant": false,
      "inputs": [
        {
          "name": "_milestoneID",
          "type": "uint256"
        }
      ],
      "name": "payDisputeFeeByHolders",
      "outputs": [],
      "payable": true,
      "stateMutability": "payable",
      "type": "function"
    },
    {
      "constant": false,
      "inputs": [
        {
          "name": "_milestoneID",
          "type": "uint256"
        }
      ],
      "name": "payDisputeFeeByTeam",
      "outputs": [],
      "payable": true,
      "stateMutability": "payable",
      "type": "function"
    },
    {
      "constant": false,
      "inputs": [
        {
          "name": "_milestoneID",
          "type": "uint256"
        }
      ],
      "name": "withdraw",
      "outputs": [],
      "payable": false,
      "stateMutability": "nonpayable",
      "type": "function"
    },
    {
      "constant": false,
      "inputs": [
        {
          "name": "_milestoneID",
          "type": "uint256"
        }
      ],
      "name": "timeoutByTeam",
      "outputs": [],
      "payable": false,
      "stateMutability": "nonpayable",
      "type": "function"
    },
    {
      "constant": false,
      "inputs": [
        {
          "name": "_milestoneID",
          "type": "uint256"
        }
      ],
      "name": "timeoutByHolders",
      "outputs": [],
      "payable": false,
      "stateMutability": "nonpayable",
      "type": "function"
    },
    {
      "constant": false,
      "inputs": [
        {
          "name": "_milestoneID",
          "type": "uint256"
        }
      ],
      "name": "appeal",
      "outputs": [],
      "payable": true,
      "stateMutability": "payable",
      "type": "function"
    },
    {
      "constant": false,
      "inputs": [
        {
          "name": "_newTeam",
          "type": "address"
        }
      ],
      "name": "changeTeam",
      "outputs": [],
      "payable": false,
      "stateMutability": "nonpayable",
      "type": "function"
    }
  ],
  "bytecode": "0x60806040523480156200001157600080fd5b5060405162002fec38038062002fec83398101806040528101908080519060200190929190805182019291906020018051906020019092919080519060200190929190805190602001909291908051906020019092919080519060200190929190805190602001909291908051906020019092919080519060200190929190505050898989826000806101000a81548173ffffffffffffffffffffffffffffffffffffffff021916908373ffffffffffffffffffffffffffffffffffffffff1602179055508160019080519060200190620000ee92919062000412565b507f1892820d22f2ab2b60795935d39550f42562bf8862a0b3c2193b095baa40af218160405180826000191660001916815260200191505060405180910390a150505086600260006101000a81548173ffffffffffffffffffffffffffffffffffffffff021916908373ffffffffffffffffffffffffffffffffffffffff16021790555085600360006101000a81548173ffffffffffffffffffffffffffffffffffffffff021916908373ffffffffffffffffffffffffffffffffffffffff16021790555084600460006101000a81548173ffffffffffffffffffffffffffffffffffffffff021916908373ffffffffffffffffffffffffffffffffffffffff1602179055508360058190555082600681905550816007819055508060088190555060016009610160604051908101604052806000815260200160008152602001600081526020016000151581526020016000815260200160008152602001600073ffffffffffffffffffffffffffffffffffffffff1681526020016000815260200160008152602001600015158152602001600073ffffffffffffffffffffffffffffffffffffffff168152509080600181540180825580915050906001820390600052602060002090600a02016000909192909190915060008201518160000155602082015181600101556040820151816002015560608201518160030160006101000a81548160ff0219169083151502179055506080820151816004015560a0820151816005015560c08201518160060160006101000a81548173ffffffffffffffffffffffffffffffffffffffff021916908373ffffffffffffffffffffffffffffffffffffffff16021790555060e0820151816007015561010082015181600801556101208201518160090160006101000a81548160ff0219169083151502179055506101408201518160090160016101000a81548173ffffffffffffffffffffffffffffffffffffffff021916908373ffffffffffffffffffffffffffffffffffffffff160217905550505003600b819055506000600c60006101000a81548160ff02191690831515021790555050505050505050505050620004c1565b828054600181600116156101000203166002900490600052602060002090601f016020900481019282601f106200045557805160ff191683800117855562000486565b8280016001018555821562000486579182015b828111156200048557825182559160200191906001019062000468565b5b50905062000495919062000499565b5090565b620004be91905b80821115620004ba576000816000905550600101620004a0565b5090565b90565b612b1b80620004d16000396000f300608060405260043610610128576000357c0100000000000000000000000000000000000000000000000000000000900463ffffffff168063041ae8801461012d5780630c7ac7b61461018457806323a2f561146102145780632e1a7d4d1461023f578063311a6c561461026c5780633c804a90146102a357806340d9f30a146102d05780635355e221146102ee5780636cc6cde1146103315780636f75449f1461038857806370dea79a146103a85780637e69b7b0146103d357806385f2aef2146103f35780638948b32a1461044a578063a5fcd0f614610475578063c266aef7146104a2578063e41eb7d4146104d9578063e89e4ed6146104f9578063e8a18145146105e0578063f37e767214610621578063f55ea75f1461064c578063fc0c546a14610679575b600080fd5b34801561013957600080fd5b506101426106d0565b604051808273ffffffffffffffffffffffffffffffffffffffff1673ffffffffffffffffffffffffffffffffffffffff16815260200191505060405180910390f35b34801561019057600080fd5b506101996106f6565b6040518080602001828103825283818151815260200191508051906020019080838360005b838110156101d95780820151818401526020810190506101be565b50505050905090810190601f1680156102065780820380516001836020036101000a031916815260200191505b509250505060405180910390f35b34801561022057600080fd5b50610229610794565b6040518082815260200191505060405180910390f35b34801561024b57600080fd5b5061026a6004803603810190808035906020019092919050505061079a565b005b34801561027857600080fd5b506102a16004803603810190808035906020019092919080359060200190929190505050610cc3565b005b3480156102af57600080fd5b506102ce60048036038101908080359060200190929190505050610d7b565b005b6102d8610f95565b6040518082815260200191505060405180910390f35b3480156102fa57600080fd5b5061032f600480360381019080803573ffffffffffffffffffffffffffffffffffffffff1690602001909291905050506111c8565b005b34801561033d57600080fd5b5061034661129e565b604051808273ffffffffffffffffffffffffffffffffffffffff1673ffffffffffffffffffffffffffffffffffffffff16815260200191505060405180910390f35b6103a6600480360381019080803590602001909291905050506112c3565b005b3480156103b457600080fd5b506103bd61174b565b6040518082815260200191505060405180910390f35b6103f160048036038101908080359060200190929190505050611751565b005b3480156103ff57600080fd5b506104086118ae565b604051808273ffffffffffffffffffffffffffffffffffffffff1673ffffffffffffffffffffffffffffffffffffffff16815260200191505060405180910390f35b34801561045657600080fd5b5061045f6118d4565b6040518082815260200191505060405180910390f35b34801561048157600080fd5b506104a0600480360381019080803590602001909291905050506118da565b005b3480156104ae57600080fd5b506104d76004803603810190808035906020019092919080359060200190929190505050611b79565b005b6104f760048036038101908080359060200190929190505050611c3d565b005b34801561050557600080fd5b50610524600480360381019080803590602001909291905050506120e4565b604051808c81526020018b81526020018a8152602001891515151581526020018881526020018781526020018673ffffffffffffffffffffffffffffffffffffffff1673ffffffffffffffffffffffffffffffffffffffff168152602001858152602001848152602001831515151581526020018273ffffffffffffffffffffffffffffffffffffffff1673ffffffffffffffffffffffffffffffffffffffff1681526020019b50505050505050505050505060405180910390f35b3480156105ec57600080fd5b5061060b600480360381019080803590602001909291905050506121a7565b6040518082815260200191505060405180910390f35b34801561062d57600080fd5b506106366121bf565b6040518082815260200191505060405180910390f35b34801561065857600080fd5b50610677600480360381019080803590602001909291905050506121c5565b005b34801561068557600080fd5b5061068e612385565b604051808273ffffffffffffffffffffffffffffffffffffffff1673ffffffffffffffffffffffffffffffffffffffff16815260200191505060405180910390f35b600460009054906101000a900473ffffffffffffffffffffffffffffffffffffffff1681565b60018054600181600116156101000203166002900480601f01602080910402602001604051908101604052809291908181526020018280546001816001161561010002031660029004801561078c5780601f106107615761010080835404028352916020019161078c565b820191906000526020600020905b81548152906001019060200180831161076f57829003601f168201915b505050505081565b60065481565b60008180600b54141515156107ae57600080fd5b6009838154811015156107bd57fe5b90600052602060002090600a02019150600260009054906101000a900473ffffffffffffffffffffffffffffffffffffffff1673ffffffffffffffffffffffffffffffffffffffff163373ffffffffffffffffffffffffffffffffffffffff1614151561082957600080fd5b8160030160009054906101000a900460ff1615151561084757600080fd5b6103e88260060160009054906101000a900473ffffffffffffffffffffffffffffffffffffffff1673ffffffffffffffffffffffffffffffffffffffff166318160ddd6040518163ffffffff167c0100000000000000000000000000000000000000000000000000000000028152600401602060405180830381600087803b1580156108d257600080fd5b505af11580156108e6573d6000803e3d6000fd5b505050506040513d60208110156108fc57600080fd5b81019080805190602001909291905050506005540281151561091a57fe5b048260060160009054906101000a900473ffffffffffffffffffffffffffffffffffffffff1673ffffffffffffffffffffffffffffffffffffffff166370a08231306040518263ffffffff167c0100000000000000000000000000000000000000000000000000000000028152600401808273ffffffffffffffffffffffffffffffffffffffff1673ffffffffffffffffffffffffffffffffffffffff168152602001915050602060405180830381600087803b1580156109da57600080fd5b505af11580156109ee573d6000803e3d6000fd5b505050506040513d6020811015610a0457600080fd5b8101908080519060200190929190505050101515610a2157600080fd5b8160060160009054906101000a900473ffffffffffffffffffffffffffffffffffffffff1673ffffffffffffffffffffffffffffffffffffffff166318160ddd6040518163ffffffff167c0100000000000000000000000000000000000000000000000000000000028152600401602060405180830381600087803b158015610aa957600080fd5b505af1158015610abd573d6000803e3d6000fd5b505050506040513d6020811015610ad357600080fd5b81019080805190602001909291905050506103e8028260060160009054906101000a900473ffffffffffffffffffffffffffffffffffffffff1673ffffffffffffffffffffffffffffffffffffffff166370a08231306040518263ffffffff167c0100000000000000000000000000000000000000000000000000000000028152600401808273ffffffffffffffffffffffffffffffffffffffff1673ffffffffffffffffffffffffffffffffffffffff168152602001915050602060405180830381600087803b158015610ba757600080fd5b505af1158015610bbb573d6000803e3d6000fd5b505050506040513d6020811015610bd157600080fd5b810190808051906020019092919050505060075402811515610bef57fe5b046006540182600201544203111515610c0757600080fd5b600260009054906101000a900473ffffffffffffffffffffffffffffffffffffffff1673ffffffffffffffffffffffffffffffffffffffff166108fc83600501548460040154856001015401019081150290604051600060405180830381858888f19350505050158015610c7f573d6000803e3d6000fd5b508160010154826000016000828254039250508190555060008260010181905550600082600201819055506000826004018190555060008260050181905550505050565b6000809054906101000a900473ffffffffffffffffffffffffffffffffffffffff1673ffffffffffffffffffffffffffffffffffffffff163373ffffffffffffffffffffffffffffffffffffffff16141515610d1e57600080fd5b813373ffffffffffffffffffffffffffffffffffffffff167f394027a5fa6e098a1191094d1719d6929b9abc535fcc0c8f448d6a4e75622276836040518082815260200191505060405180910390a3610d7782826123ab565b5050565b6000600982815481101515610d8c57fe5b90600052602060002090600a02019050600260009054906101000a900473ffffffffffffffffffffffffffffffffffffffff1673ffffffffffffffffffffffffffffffffffffffff163373ffffffffffffffffffffffffffffffffffffffff16141515610df857600080fd5b8060090160009054906101000a900460ff161515610e1557600080fd5b60085481600801544203111515610e2b57600080fd5b600260009054906101000a900473ffffffffffffffffffffffffffffffffffffffff1673ffffffffffffffffffffffffffffffffffffffff166108fc82600501548360040154846001015401019081150290604051600060405180830381858888f19350505050158015610ea3573d6000803e3d6000fd5b50806001015481600001600082825403925050819055506000816001018190555060008160020181905550600081600401819055506000816005018190555060008160060160006101000a81548173ffffffffffffffffffffffffffffffffffffffff021916908373ffffffffffffffffffffffffffffffffffffffff1602179055506000816008018190555060008160090160006101000a81548160ff02191690831515021790555060008160090160016101000a81548173ffffffffffffffffffffffffffffffffffffffff021916908373ffffffffffffffffffffffffffffffffffffffff1602179055505050565b6000600460009054906101000a900473ffffffffffffffffffffffffffffffffffffffff1673ffffffffffffffffffffffffffffffffffffffff163373ffffffffffffffffffffffffffffffffffffffff16141515610ff357600080fd5b600160096101606040519081016040528034815260200160008152602001600081526020016000151581526020016000815260200160008152602001600073ffffffffffffffffffffffffffffffffffffffff1681526020016000815260200160008152602001600015158152602001600073ffffffffffffffffffffffffffffffffffffffff168152509080600181540180825580915050906001820390600052602060002090600a02016000909192909190915060008201518160000155602082015181600101556040820151816002015560608201518160030160006101000a81548160ff0219169083151502179055506080820151816004015560a0820151816005015560c08201518160060160006101000a81548173ffffffffffffffffffffffffffffffffffffffff021916908373ffffffffffffffffffffffffffffffffffffffff16021790555060e0820151816007015561010082015181600801556101208201518160090160006101000a81548160ff0219169083151502179055506101408201518160090160016101000a81548173ffffffffffffffffffffffffffffffffffffffff021916908373ffffffffffffffffffffffffffffffffffffffff160217905550505003905090565b600460009054906101000a900473ffffffffffffffffffffffffffffffffffffffff1673ffffffffffffffffffffffffffffffffffffffff163373ffffffffffffffffffffffffffffffffffffffff1614151561122457600080fd5b600c60009054906101000a900460ff16151561123f57600080fd5b80600260006101000a81548173ffffffffffffffffffffffffffffffffffffffff021916908373ffffffffffffffffffffffffffffffffffffffff1602179055506000600c60006101000a81548160ff02191690831515021790555050565b6000809054906101000a900473ffffffffffffffffffffffffffffffffffffffff1681565b6000806009838154811015156112d557fe5b90600052602060002090600a020191506000809054906101000a900473ffffffffffffffffffffffffffffffffffffffff1673ffffffffffffffffffffffffffffffffffffffff1663f7434ea960016040518263ffffffff167c010000000000000000000000000000000000000000000000000000000002815260040180806020018281038252838181546001816001161561010002031660029004815260200191508054600181600116156101000203166002900480156113d85780601f106113ad576101008083540402835291602001916113d8565b820191906000526020600020905b8154815290600101906020018083116113bb57829003601f168201915b505092505050602060405180830381600087803b1580156113f857600080fd5b505af115801561140c573d6000803e3d6000fd5b505050506040513d602081101561142257600080fd5b81019080805190602001909291905050509050600260009054906101000a900473ffffffffffffffffffffffffffffffffffffffff1673ffffffffffffffffffffffffffffffffffffffff163373ffffffffffffffffffffffffffffffffffffffff1614151561149157600080fd5b8160030160009054906101000a900460ff161515156114af57600080fd5b6103e88260060160009054906101000a900473ffffffffffffffffffffffffffffffffffffffff1673ffffffffffffffffffffffffffffffffffffffff166318160ddd6040518163ffffffff167c0100000000000000000000000000000000000000000000000000000000028152600401602060405180830381600087803b15801561153a57600080fd5b505af115801561154e573d6000803e3d6000fd5b505050506040513d602081101561156457600080fd5b81019080805190602001909291905050506005540281151561158257fe5b048260060160009054906101000a900473ffffffffffffffffffffffffffffffffffffffff1673ffffffffffffffffffffffffffffffffffffffff166370a08231306040518263ffffffff167c0100000000000000000000000000000000000000000000000000000000028152600401808273ffffffffffffffffffffffffffffffffffffffff1673ffffffffffffffffffffffffffffffffffffffff168152602001915050602060405180830381600087803b15801561164257600080fd5b505af1158015611656573d6000803e3d6000fd5b505050506040513d602081101561166c57600080fd5b81019080805190602001909291905050501015151561168a57600080fd5b80348360040154011015151561169f57600080fd5b3482600401600082825401925050819055508082600501541015156116cd576116c8838261291c565b611746565b6000826008015414156117055742826008018190555060018260090160006101000a81548160ff021916908315150217905550611745565b8160090160009054906101000a900460ff1615156117445760018260090160006101000a81548160ff0219169083151502179055504282600801819055505b5b5b505050565b60085481565b600060098281548110151561176257fe5b90600052602060002090600a020190506000809054906101000a900473ffffffffffffffffffffffffffffffffffffffff1673ffffffffffffffffffffffffffffffffffffffff166349912f8834836007015460016040518463ffffffff167c010000000000000000000000000000000000000000000000000000000002815260040180838152602001806020018281038252838181546001816001161561010002031660029004815260200191508054600181600116156101000203166002900480156118715780601f1061184657610100808354040283529160200191611871565b820191906000526020600020905b81548152906001019060200180831161185457829003601f168201915b505093505050506000604051808303818588803b15801561189157600080fd5b505af11580156118a5573d6000803e3d6000fd5b50505050505050565b600260009054906101000a900473ffffffffffffffffffffffffffffffffffffffff1681565b60075481565b60006009828154811015156118eb57fe5b90600052602060002090600a0201905081600b5414151561191b57600081600201541415151561191a57600080fd5b5b60008160060160009054906101000a900473ffffffffffffffffffffffffffffffffffffffff1673ffffffffffffffffffffffffffffffffffffffff1614151561196457600080fd5b600360009054906101000a900473ffffffffffffffffffffffffffffffffffffffff1673ffffffffffffffffffffffffffffffffffffffff16636638c087600360009054906101000a900473ffffffffffffffffffffffffffffffffffffffff1673ffffffffffffffffffffffffffffffffffffffff1663313ce5676040518163ffffffff167c0100000000000000000000000000000000000000000000000000000000028152600401602060405180830381600087803b158015611a2857600080fd5b505af1158015611a3c573d6000803e3d6000fd5b505050506040513d6020811015611a5257600080fd5b81019080805190602001909291905050504360016040518463ffffffff167c010000000000000000000000000000000000000000000000000000000002815260040180806020018560ff1660ff168152602001806020018581526020018415151515815260200183810383526000815260200160200183810382526000815260200160200195505050505050602060405180830381600087803b158015611af857600080fd5b505af1158015611b0c573d6000803e3d6000fd5b505050506040513d6020811015611b2257600080fd5b81019080805190602001909291905050508160060160006101000a81548173ffffffffffffffffffffffffffffffffffffffff021916908373ffffffffffffffffffffffffffffffffffffffff1602179055505050565b60008280600b5414151515611b8d57600080fd5b600984815481101515611b9c57fe5b90600052602060002090600a02019150600260009054906101000a900473ffffffffffffffffffffffffffffffffffffffff1673ffffffffffffffffffffffffffffffffffffffff163373ffffffffffffffffffffffffffffffffffffffff16141515611c0857600080fd5b60008260020154141515611c1b57600080fd5b82826000015411151515611c2e57600080fd5b42826002018190555050505050565b600080600983815481101515611c4f57fe5b90600052602060002090600a020191506000809054906101000a900473ffffffffffffffffffffffffffffffffffffffff1673ffffffffffffffffffffffffffffffffffffffff1663f7434ea960016040518263ffffffff167c01000000000000000000000000000000000000000000000000000000000281526004018080602001828103825283818154600181600116156101000203166002900481526020019150805460018160011615610100020316600290048015611d525780601f10611d2757610100808354040283529160200191611d52565b820191906000526020600020905b815481529060010190602001808311611d3557829003601f168201915b505092505050602060405180830381600087803b158015611d7257600080fd5b505af1158015611d86573d6000803e3d6000fd5b505050506040513d6020811015611d9c57600080fd5b810190808051906020019092919050505090508160030160009054906101000a900460ff16151515611dcd57600080fd5b6103e88260060160009054906101000a900473ffffffffffffffffffffffffffffffffffffffff1673ffffffffffffffffffffffffffffffffffffffff166318160ddd6040518163ffffffff167c0100000000000000000000000000000000000000000000000000000000028152600401602060405180830381600087803b158015611e5857600080fd5b505af1158015611e6c573d6000803e3d6000fd5b505050506040513d6020811015611e8257600080fd5b810190808051906020019092919050505060055402811515611ea057fe5b048260060160009054906101000a900473ffffffffffffffffffffffffffffffffffffffff1673ffffffffffffffffffffffffffffffffffffffff166370a08231306040518263ffffffff167c0100000000000000000000000000000000000000000000000000000000028152600401808273ffffffffffffffffffffffffffffffffffffffff1673ffffffffffffffffffffffffffffffffffffffff168152602001915050602060405180830381600087803b158015611f6057600080fd5b505af1158015611f74573d6000803e3d6000fd5b505050506040513d6020811015611f8a57600080fd5b810190808051906020019092919050505010151515611fa857600080fd5b808260050154101515611fba57600080fd5b803483600501540110151515611fcf57600080fd5b34826005016000828254019250508190555060008260090160019054906101000a900473ffffffffffffffffffffffffffffffffffffffff1673ffffffffffffffffffffffffffffffffffffffff16141561206857338260090160016101000a81548173ffffffffffffffffffffffffffffffffffffffff021916908373ffffffffffffffffffffffffffffffffffffffff1602179055505b8082600401541015156120845761207f838261291c565b6120df565b60008260080154141561209f574282600801819055506120de565b8160090160009054906101000a900460ff16156120dd5760008260090160006101000a81548160ff0219169083151502179055504282600801819055505b5b5b505050565b6009818154811015156120f357fe5b90600052602060002090600a02016000915090508060000154908060010154908060020154908060030160009054906101000a900460ff16908060040154908060050154908060060160009054906101000a900473ffffffffffffffffffffffffffffffffffffffff16908060070154908060080154908060090160009054906101000a900460ff16908060090160019054906101000a900473ffffffffffffffffffffffffffffffffffffffff1690508b565b600a6020528060005260406000206000915090505481565b60055481565b60006009828154811015156121d657fe5b90600052602060002090600a020190508060090160009054906101000a900460ff1615151561220457600080fd5b6008548160080154420311151561221a57600080fd5b8060090160019054906101000a900473ffffffffffffffffffffffffffffffffffffffff1673ffffffffffffffffffffffffffffffffffffffff166108fc82600501548360040154019081150290604051600060405180830381858888f1935050505015801561228e573d6000803e3d6000fd5b50600081600101819055506000816002018190555060008160030160006101000a81548160ff021916908315150217905550600081600401819055506000816005018190555060008160060160006101000a81548173ffffffffffffffffffffffffffffffffffffffff021916908373ffffffffffffffffffffffffffffffffffffffff1602179055506000816008018190555060008160090160016101000a81548173ffffffffffffffffffffffffffffffffffffffff021916908373ffffffffffffffffffffffffffffffffffffffff1602179055506001600c60006101000a81548160ff0219169083151502179055505050565b600360009054906101000a900473ffffffffffffffffffffffffffffffffffffffff1681565b6000806009600a6000868152602001908152602001600020548154811015156123d057fe5b90600052602060002090600a020191506103e88260060160009054906101000a900473ffffffffffffffffffffffffffffffffffffffff1673ffffffffffffffffffffffffffffffffffffffff166318160ddd6040518163ffffffff167c0100000000000000000000000000000000000000000000000000000000028152600401602060405180830381600087803b15801561246b57600080fd5b505af115801561247f573d6000803e3d6000fd5b505050506040513d602081101561249557600080fd5b8101908080519060200190929190505050600554028115156124b357fe5b048260060160009054906101000a900473ffffffffffffffffffffffffffffffffffffffff1673ffffffffffffffffffffffffffffffffffffffff166370a08231306040518263ffffffff167c0100000000000000000000000000000000000000000000000000000000028152600401808273ffffffffffffffffffffffffffffffffffffffff1673ffffffffffffffffffffffffffffffffffffffff168152602001915050602060405180830381600087803b15801561257357600080fd5b505af1158015612587573d6000803e3d6000fd5b505050506040513d602081101561259d57600080fd5b8101908080519060200190929190505050101515156125bb57600080fd5b600a6000858152602001908152602001600020549050600160ff1683141561276f57600260009054906101000a900473ffffffffffffffffffffffffffffffffffffffff1673ffffffffffffffffffffffffffffffffffffffff166108fc83600501548460040154856001015401019081150290604051600060405180830381858888f19350505050158015612655573d6000803e3d6000fd5b5081600101548260000160008282540392505081905550600082600101819055506000826002018190555060008260030160006101000a81548160ff021916908315150217905550600082600401819055506000826005018190555060008260060160006101000a81548173ffffffffffffffffffffffffffffffffffffffff021916908373ffffffffffffffffffffffffffffffffffffffff160217905550600082600701819055506000826008018190555060008260090160006101000a81548160ff02191690831515021790555060008260090160016101000a81548173ffffffffffffffffffffffffffffffffffffffff021916908373ffffffffffffffffffffffffffffffffffffffff160217905550612916565b600260ff16831415612915578160090160019054906101000a900473ffffffffffffffffffffffffffffffffffffffff1673ffffffffffffffffffffffffffffffffffffffff166108fc83600501548460040154019081150290604051600060405180830381858888f193505050501580156127ef573d6000803e3d6000fd5b50600082600101819055506000826002018190555060008260030160006101000a81548160ff021916908315150217905550600082600401819055506000826005018190555060008260060160006101000a81548173ffffffffffffffffffffffffffffffffffffffff021916908373ffffffffffffffffffffffffffffffffffffffff160217905550600082600701819055506000826008018190555060008260090160006101000a81548160ff02191690831515021790555060008260090160016101000a81548173ffffffffffffffffffffffffffffffffffffffff021916908373ffffffffffffffffffffffffffffffffffffffff16021790555080600b541415612914576001600c60006101000a81548160ff0219169083151502179055505b5b5b50505050565b600060098381548110151561292d57fe5b90600052602060002090600a0201905060018160030160006101000a81548160ff0219169083151502179055508181600401600082825403925050819055506000809054906101000a900473ffffffffffffffffffffffffffffffffffffffff1673ffffffffffffffffffffffffffffffffffffffff1663c13517e1600260016040518363ffffffff167c0100000000000000000000000000000000000000000000000000000000028152600401808360ff16815260200180602001828103825283818154600181600116156101000203166002900481526020019150805460018160011615610100020316600290048015612a6a5780601f10612a3f57610100808354040283529160200191612a6a565b820191906000526020600020905b815481529060010190602001808311612a4d57829003601f168201915b50509350505050602060405180830381600087803b158015612a8b57600080fd5b505af1158015612a9f573d6000803e3d6000fd5b505050506040513d6020811015612ab557600080fd5b8101908080519060200190929190505050816007018190555082600a600083600701548152602001908152602001600020819055505050505600a165627a7a72305820fc52b6c73f86f079078333e89075f0b8c4a201f6d510d9c238d22daf5e6dab4a0029",
  "source": " /**\n *  @title Funding Vault\n *  @author Clment Lesaege - <clement@lesaege.com>\n *  Bug Bounties: This code hasn't undertaken a bug bounty program yet.\n */\n\npragma solidity ^0.4.15;\n\nimport \"../Arbitrable.sol\";\nimport \"minimetoken/contracts/MiniMeToken.sol\";\n\n/** @title Funding Vault\n *  A contract storing the ETH raised in a crowdfunding event.\n *  Funds are delivered when milestones are reached.\n *  The team can claim a milestone is reached. Token holders will have some time to dispute that claim.\n *  When some token holders vote to dispute the claim, extra time is given to other token holders to dispute that claim.\n *  If a sufficient amount of token holders dispute it. A dispute is created and the arbitrator will decide if the milestone has been reached.\n *  When there is a disagreement a vote token is created. Holders should send the voteToken to the Vault to disagree with the milestone.\n *  Token holders can also claim that the team failed to deliver and ask for the remaining ETH to be given back to a different contract.\n *  This contract can be the vault of another team, or a contract to reimburse.\n */\ncontract FundingVault is Arbitrable {\n    address public team;\n    MiniMeToken public token;\n    address public funder;\n    uint public disputeThreshold;\n    uint public claimToWithdrawTime;\n    uint public additionalTimeToWithdraw;\n    uint public timeout;\n    struct Milestone {\n        uint amount; // The maximum amount which can be unlocked for this milestone.\n        uint amountClaimed; // The current amount which is claimed.\n        uint claimTime; // The time the current claim was made. Or 0 if it's not currently claimed.\n        bool disputed; // True if a dispute has been raised.\n        uint feeTeam;  // Arbitration fee paid by the team.\n        uint feeHolders; // Arbitration fee paid by token holders.\n        MiniMeToken voteToken; // Forked token which will be used to vote.\n        uint disputeID; // ID of the dispute if this claim is disputed.\n        uint lastTotalFeePayment; // Time of the last total fee payment, useful for timeouts.\n        bool lastTotalFeePaymentIsTeam; // True if the last interaction is from the team.\n        address payerForHolders; // The address who first paid the arbitration fee and will be refunded in case of victory.\n    }\n    Milestone[] public milestones;\n    mapping(uint => uint) public disputeIDToMilstoneID; // Map (disputeID => milestoneID).\n    uint ousterID; //The ID of the milestone created at construction. To be disputed when the funders claim the team is not doing their job.\n    bool canChangeTeam; //True if the holders have attempted an oust and won the dispute. Allows the funder to select a new team (only once).\n\n    uint8 constant AMOUNT_OF_CHOICES = 2;\n    uint8 constant TEAM_WINS = 1;\n    uint8 constant HOLDERS_WINS = 2;\n\n    /** @dev Constructor. Choose the arbitrator.\n     *  @param _arbitrator The arbitrator of the contract.\n     *  @param _contractHash Keccak256 hash of the plain text contract.\n     *  @param _team The address of the team who will be able to claim milestone completion.\n     *  @param _token The token whose holders are able to dispute milestone claims.\n     *  @param _funder The party putting funds in the vault.\n     *  @param _disputeThreshold The  of tokens required to dispute a milestone.\n     *  @param _claimToWithdrawTime The base time in seconds after a claim is considered non-disputed (i.e  if no token holders dispute it).\n     *  @param _additionalTimeToWithdraw The time in seconds which is added per  of tokens disputing the claim.\n     *  @param _timeout Maximum time to pay arbitration fees after the other side did.\n     */\n    function FundingVault(Arbitrator _arbitrator, bytes _arbitratorExtraData, bytes32 _contractHash, address _team, address _token, address _funder, uint _disputeThreshold, uint _claimToWithdrawTime, uint _additionalTimeToWithdraw, uint _timeout) public Arbitrable(_arbitrator,_arbitratorExtraData,_contractHash) {\n        team=_team;\n        token=MiniMeToken(_token);\n        funder=_funder;\n        disputeThreshold=_disputeThreshold;\n        claimToWithdrawTime=_claimToWithdrawTime;\n        additionalTimeToWithdraw=_additionalTimeToWithdraw;\n        timeout=_timeout;\n        ousterID = milestones.push(Milestone({ //Create a base milestone to be disputed when the funders claim the team is not doing their job.\n               amount:0,\n               amountClaimed:0,\n               claimTime:0,\n               disputed:false,\n               feeTeam:0,\n               feeHolders:0,\n               voteToken:MiniMeToken(0x0),\n               disputeID:0,\n               lastTotalFeePayment:0,\n               lastTotalFeePaymentIsTeam:false,\n               payerForHolders:0x0\n           }))-1;\n       canChangeTeam = false;\n    }\n\n    /** @dev Give the funds for a milestone.\n     *  @return milestoneID The ID of the milestone which was created.\n     */\n    function fundMilestone() public payable returns(uint milestoneID) {\n        require(msg.sender==funder);\n\n        return milestones.push(Milestone({\n                amount:msg.value,\n                amountClaimed:0,\n                claimTime:0,\n                disputed:false,\n                feeTeam:0,\n                feeHolders:0,\n                voteToken:MiniMeToken(0x0),\n                disputeID:0,\n                lastTotalFeePayment:0,\n                lastTotalFeePaymentIsTeam:false,\n                payerForHolders:0x0\n            }))-1;\n    }\n\n     //Restricts Milestone function with functionality not necessary for Ouster.\n     modifier isNotOuster(uint _milestoneID) {\n       require(ousterID != _milestoneID);\n       _;\n     }\n\n    /** @dev Claim funds of a milestone.\n     *  @param _milestoneID The ID of the milestone.\n     *  @param _amount The amount claim. Note that the team can claim less than the amount of a milestone. This allows partial completion claims.\n     */\n    function claimMilestone(uint _milestoneID, uint _amount) public isNotOuster(_milestoneID) {\n        Milestone storage milestone=milestones[_milestoneID];\n        require(msg.sender==team);\n        require(milestone.claimTime==0); // Verify another claim is not active.\n        require(milestone.amount<=_amount);\n\n        milestone.claimTime=now;\n    }\n\n    /** @dev Make a forked token to dispute a claim.\n     *  This avoid creating a token all the time, since most milestones should not be disputed.\n     *  @param _milestoneID The ID of the milestone.\n     */\n    function makeVoteToken(uint _milestoneID) public {\n        Milestone storage milestone=milestones[_milestoneID];\n        if( ousterID != _milestoneID ) { require(milestone.claimTime!=0); } // The milestone is currently claimed by the team, unless this is the ouster.\n        require(address(milestone.voteToken)==0x0); // Token has not already been made.\n\n        milestone.voteToken=MiniMeToken(token.createCloneToken(\n                \"\",\n                token.decimals(),\n                \"\",\n                block.number,\n                true\n                ));\n    }\n\n    /** @dev Pay fee to dispute a milestone. To be called by parties claiming the milestone was not completed.\n     *  The first party to pay the fee entirely will be reimbursed if the dispute is won.\n     *  Note that holders can make a smart contract to crowdfund the fee.\n     *  In the rare event the arbitrationCost is increased, anyone can pay the extra, but it is always the first payer who can be reimbursed.\n     *  @param _milestoneID The milestone which is disputed.\n     */\n    function payDisputeFeeByHolders(uint _milestoneID) public payable {\n        Milestone storage milestone=milestones[_milestoneID];\n        uint arbitrationCost = arbitrator.arbitrationCost(arbitratorExtraData);\n        require(!milestone.disputed); // The milestone is not already disputed.\n        require(milestone.voteToken.balanceOf(this) >= (disputeThreshold*milestone.voteToken.totalSupply())/1000); // There is enough votes.\n        require(milestone.feeHolders<arbitrationCost); // Fee has not be paid before.\n        require(milestone.feeHolders+msg.value>=arbitrationCost); // Enough is paid.\n\n        milestone.feeHolders+=msg.value;\n\n        if (milestone.payerForHolders==0x0)\n            milestone.payerForHolders=msg.sender;\n\n        if (milestone.feeTeam>=arbitrationCost) { // Enough has been paid by all sides.\n            createDispute(_milestoneID,arbitrationCost);\n        } else if (milestone.lastTotalFeePayment==0) { // First time the fee is paid.\n            milestone.lastTotalFeePayment=now;\n        } else if(milestone.lastTotalFeePaymentIsTeam) { // The team was the last one who had paid entirely.\n            milestone.lastTotalFeePaymentIsTeam=false;\n            milestone.lastTotalFeePayment=now;\n        }\n    }\n\n    /** @dev Pay fee to for a milestone dispute. To be called by the team when the holders have enough votes and fee paid.\n     *  @param _milestoneID The milestone which is disputed.\n     */\n    function payDisputeFeeByTeam(uint _milestoneID) public payable {\n        Milestone storage milestone=milestones[_milestoneID];\n        uint arbitrationCost = arbitrator.arbitrationCost(arbitratorExtraData);\n        require(msg.sender==team);\n        require(!milestone.disputed); // A dispute has not been created yet.\n        require(milestone.voteToken.balanceOf(this) >= (disputeThreshold*milestone.voteToken.totalSupply())/1000); // There is enough votes.\n        require(milestone.feeTeam+msg.value>=arbitrationCost); // Make sure enough is paid. Team can't pay partially.\n\n\n        milestone.feeTeam+=msg.value;\n        if (milestone.feeHolders>=arbitrationCost) { // Enough has been paid by all sides.\n                createDispute(_milestoneID,arbitrationCost);\n        }\n        else if (milestone.lastTotalFeePayment==0) { // First time the fee is paid.\n            milestone.lastTotalFeePayment=now;\n            milestone.lastTotalFeePaymentIsTeam=true;\n        } else if(!milestone.lastTotalFeePaymentIsTeam) { // The holders were the last ones who had paid entirely.\n            milestone.lastTotalFeePaymentIsTeam=true;\n            milestone.lastTotalFeePayment=now;\n        }\n    }\n\n    /** @dev Create a dispute.\n     *  @param _milestoneID The milestone which is disputed.\n     *  @param _arbitrationCost The amount which should be paid to the arbitrator.\n     */\n    function createDispute(uint _milestoneID, uint _arbitrationCost) internal {\n        Milestone storage milestone=milestones[_milestoneID];\n        milestone.disputed=true;\n        milestone.feeTeam-=_arbitrationCost; // Remove the fee from the team pool for accounting. Note that at this point it does not matter which fee variable we decrement.\n        milestone.disputeID=arbitrator.createDispute(AMOUNT_OF_CHOICES,arbitratorExtraData);\n        disputeIDToMilstoneID[milestone.disputeID]=_milestoneID;\n    }\n\n    /** @dev Withdraw the money claimed in a milestone.\n     *  To be called when a dispute has not been created within the time limit.\n     *  @param _milestoneID The milestone which is disputed.\n     */\n    function withdraw(uint _milestoneID) public isNotOuster(_milestoneID) {\n        Milestone storage milestone=milestones[_milestoneID];\n        require(msg.sender==team);\n        require(!milestone.disputed);\n        require(milestone.voteToken.balanceOf(this) < (disputeThreshold*milestone.voteToken.totalSupply())/1000); // There is not enough votes.\n        require((now-milestone.claimTime) > claimToWithdrawTime+(additionalTimeToWithdraw*milestone.voteToken.balanceOf(this))/(1000*milestone.voteToken.totalSupply()));\n\n        team.transfer(milestone.amountClaimed+milestone.feeTeam+milestone.feeHolders); // Pay the amount claimed and the unused fees.\n        milestone.amount-=milestone.amountClaimed;\n        milestone.amountClaimed=0;\n        milestone.claimTime=0;\n        milestone.feeTeam=0;\n        milestone.feeHolders=0;\n\n    }\n\n    // TODO: Timeouts\n    /** @dev Timeout to use when the holders don't pay the fee.\n     *  @param _milestoneID The milestone which is disputed.\n     */\n    function timeoutByTeam(uint _milestoneID) public {\n        Milestone storage milestone=milestones[_milestoneID];\n        require(msg.sender==team);\n        require(milestone.lastTotalFeePaymentIsTeam);\n        require(now-milestone.lastTotalFeePayment > timeout);\n\n        team.transfer(milestone.amountClaimed+milestone.feeTeam+milestone.feeHolders); // Pay the amount claimed and the unused fees to the team.\n        milestone.amount-=milestone.amountClaimed;\n        milestone.amountClaimed=0;\n        milestone.claimTime=0;\n        milestone.feeTeam=0;\n        milestone.feeHolders=0;\n        milestone.voteToken=MiniMeToken(0x0);\n        milestone.lastTotalFeePayment=0;\n        milestone.lastTotalFeePaymentIsTeam=false;\n        milestone.payerForHolders=0x0;\n    }\n\n    /** @dev Timeout to use whe the team don't pay the fee.\n     *  @param _milestoneID The milestone which is disputed.\n     */\n    function timeoutByHolders(uint _milestoneID) public {\n        Milestone storage milestone=milestones[_milestoneID];\n        require(!milestone.lastTotalFeePaymentIsTeam);\n        require(now-milestone.lastTotalFeePayment > timeout);\n\n        milestone.payerForHolders.transfer(milestone.feeTeam+milestone.feeHolders); // Pay the unused fees to the payer for holders.\n        milestone.amountClaimed=0;\n        milestone.claimTime=0;\n        milestone.disputed=false;\n        milestone.feeTeam=0;\n        milestone.feeHolders=0;\n        milestone.voteToken=MiniMeToken(0x0);\n        milestone.lastTotalFeePayment=0;\n        milestone.payerForHolders=0x0;\n\n        canChangeTeam = true; //since the team was nonresponsive, the holders are free to change the team.\n    }\n\n    /** @dev Appeal an appealable ruling.\n     *  Transfer the funds to the arbitrator.\n     *  @param _milestoneID The milestone which is disputed.\n     */\n    function appeal(uint _milestoneID) public payable {\n        Milestone storage milestone=milestones[_milestoneID];\n        arbitrator.appeal.value(msg.value)(milestone.disputeID,arbitratorExtraData);\n    }\n\n    /** @dev Execute a ruling of a dispute.\n     *  @param _disputeID ID of the dispute in the Arbitrator contract.\n     *  @param _ruling Ruling given by the arbitrator. Note that 0 is reserved for \"Not able/wanting to make a decision\".\n     */\n    function executeRuling(uint _disputeID, uint _ruling) internal{\n        Milestone storage milestone=milestones[disputeIDToMilstoneID[_disputeID]];\n        require(milestone.voteToken.balanceOf(this) >= (disputeThreshold*milestone.voteToken.totalSupply())/1000); // Make sure there is enough votes to protect against a malicious arbitrator.\n\n        uint _milestoneID = disputeIDToMilstoneID[_disputeID];\n        if (_ruling==TEAM_WINS) {\n            team.transfer(milestone.amountClaimed+milestone.feeTeam+milestone.feeHolders); // Pay the amount claimed and the unused fees to the team.\n            milestone.amount-=milestone.amountClaimed;\n            milestone.amountClaimed=0;\n            milestone.claimTime=0;\n            milestone.disputed=false;\n            milestone.feeTeam=0;\n            milestone.feeHolders=0;\n            milestone.voteToken=MiniMeToken(0x0);\n            milestone.disputeID=0;\n            milestone.lastTotalFeePayment=0;\n            milestone.lastTotalFeePaymentIsTeam=false;\n            milestone.payerForHolders=0x0;\n        } else if (_ruling==HOLDERS_WINS) {\n            milestone.payerForHolders.transfer(milestone.feeTeam+milestone.feeHolders); // Pay the unused fees to the payer for holders.\n            milestone.amountClaimed=0;\n            milestone.claimTime=0;\n            milestone.disputed=false;\n            milestone.feeTeam=0;\n            milestone.feeHolders=0;\n            milestone.voteToken=MiniMeToken(0x0);\n            milestone.disputeID=0;\n            milestone.lastTotalFeePayment=0;\n            milestone.lastTotalFeePaymentIsTeam=false;\n            milestone.payerForHolders=0x0;\n            if( ousterID == _milestoneID ) { //if this is the ouster milestone\n              canChangeTeam = true; //allow the funder to change the team\n            }\n        }\n    }\n\n    /** @dev Change the team. Note that the holders would have to make\n    *   the funder a votable contract if they want a vote on who the new team will be.\n    *   @param _newTeam the new team.\n    */\n    function changeTeam(address _newTeam) public {\n      require(msg.sender == funder); //The sender must be the funder.\n      require(canChangeTeam);\n      team = _newTeam;\n      canChangeTeam = false; //This can only be called once.\n    }\n\n}\n",
  "sourcePath": "/Users/epiqueras/Work/kleros/kleros-interaction/contracts/standard/arbitration/ArbitrableTokens/FundingVault.sol",
  "compiler": {
    "name": "solc",
    "version": "0.4.23+commit.124ca40d.Emscripten.clang"
  },
  "schemaVersion": "2.0.0",
  "updatedAt": "2018-06-26T20:15:53.338Z"
}