{
  "contractName": "MiniMeTokenERC20",
  "abi": [
    {
      "constant": true,
      "inputs": [],
      "name": "name",
      "outputs": [
        {
          "name": "",
          "type": "string"
        }
      ],
      "payable": false,
      "stateMutability": "view",
      "type": "function"
    },
    {
      "constant": true,
      "inputs": [],
      "name": "creationBlock",
      "outputs": [
        {
          "name": "",
          "type": "uint256"
        }
      ],
      "payable": false,
      "stateMutability": "view",
      "type": "function"
    },
    {
      "constant": true,
      "inputs": [],
      "name": "totalSupply",
      "outputs": [
        {
          "name": "",
          "type": "uint256"
        }
      ],
      "payable": false,
      "stateMutability": "view",
      "type": "function"
    },
    {
      "constant": false,
      "inputs": [
        {
          "name": "_from",
          "type": "address"
        },
        {
          "name": "_to",
          "type": "address"
        },
        {
          "name": "_amount",
          "type": "uint256"
        }
      ],
      "name": "transferFrom",
      "outputs": [
        {
          "name": "success",
          "type": "bool"
        }
      ],
      "payable": false,
      "stateMutability": "nonpayable",
      "type": "function"
    },
    {
      "constant": true,
      "inputs": [],
      "name": "decimals",
      "outputs": [
        {
          "name": "",
          "type": "uint8"
        }
      ],
      "payable": false,
      "stateMutability": "view",
      "type": "function"
    },
    {
      "constant": false,
      "inputs": [
        {
          "name": "_newController",
          "type": "address"
        }
      ],
      "name": "changeController",
      "outputs": [],
      "payable": false,
      "stateMutability": "nonpayable",
      "type": "function"
    },
    {
      "constant": true,
      "inputs": [
        {
          "name": "_owner",
          "type": "address"
        },
        {
          "name": "_blockNumber",
          "type": "uint256"
        }
      ],
      "name": "balanceOfAt",
      "outputs": [
        {
          "name": "",
          "type": "uint256"
        }
      ],
      "payable": false,
      "stateMutability": "view",
      "type": "function"
    },
    {
      "constant": true,
      "inputs": [],
      "name": "version",
      "outputs": [
        {
          "name": "",
          "type": "string"
        }
      ],
      "payable": false,
      "stateMutability": "view",
      "type": "function"
    },
    {
      "constant": false,
      "inputs": [
        {
          "name": "_cloneTokenName",
          "type": "string"
        },
        {
          "name": "_cloneDecimalUnits",
          "type": "uint8"
        },
        {
          "name": "_cloneTokenSymbol",
          "type": "string"
        },
        {
          "name": "_snapshotBlock",
          "type": "uint256"
        },
        {
          "name": "_transfersEnabled",
          "type": "bool"
        }
      ],
      "name": "createCloneToken",
      "outputs": [
        {
          "name": "",
          "type": "address"
        }
      ],
      "payable": false,
      "stateMutability": "nonpayable",
      "type": "function"
    },
    {
      "constant": true,
      "inputs": [
        {
          "name": "_owner",
          "type": "address"
        }
      ],
      "name": "balanceOf",
      "outputs": [
        {
          "name": "balance",
          "type": "uint256"
        }
      ],
      "payable": false,
      "stateMutability": "view",
      "type": "function"
    },
    {
      "constant": true,
      "inputs": [],
      "name": "parentToken",
      "outputs": [
        {
          "name": "",
          "type": "address"
        }
      ],
      "payable": false,
      "stateMutability": "view",
      "type": "function"
    },
    {
      "constant": false,
      "inputs": [
        {
          "name": "_owner",
          "type": "address"
        },
        {
          "name": "_amount",
          "type": "uint256"
        }
      ],
      "name": "generateTokens",
      "outputs": [
        {
          "name": "",
          "type": "bool"
        }
      ],
      "payable": false,
      "stateMutability": "nonpayable",
      "type": "function"
    },
    {
      "constant": true,
      "inputs": [],
      "name": "symbol",
      "outputs": [
        {
          "name": "",
          "type": "string"
        }
      ],
      "payable": false,
      "stateMutability": "view",
      "type": "function"
    },
    {
      "constant": true,
      "inputs": [
        {
          "name": "_blockNumber",
          "type": "uint256"
        }
      ],
      "name": "totalSupplyAt",
      "outputs": [
        {
          "name": "",
          "type": "uint256"
        }
      ],
      "payable": false,
      "stateMutability": "view",
      "type": "function"
    },
    {
      "constant": false,
      "inputs": [
        {
          "name": "_to",
          "type": "address"
        },
        {
          "name": "_amount",
          "type": "uint256"
        }
      ],
      "name": "transfer",
      "outputs": [
        {
          "name": "success",
          "type": "bool"
        }
      ],
      "payable": false,
      "stateMutability": "nonpayable",
      "type": "function"
    },
    {
      "constant": true,
      "inputs": [],
      "name": "transfersEnabled",
      "outputs": [
        {
          "name": "",
          "type": "bool"
        }
      ],
      "payable": false,
      "stateMutability": "view",
      "type": "function"
    },
    {
      "constant": true,
      "inputs": [],
      "name": "parentSnapShotBlock",
      "outputs": [
        {
          "name": "",
          "type": "uint256"
        }
      ],
      "payable": false,
      "stateMutability": "view",
      "type": "function"
    },
    {
      "constant": false,
      "inputs": [
        {
          "name": "_spender",
          "type": "address"
        },
        {
          "name": "_amount",
          "type": "uint256"
        },
        {
          "name": "_extraData",
          "type": "bytes"
        }
      ],
      "name": "approveAndCall",
      "outputs": [
        {
          "name": "success",
          "type": "bool"
        }
      ],
      "payable": false,
      "stateMutability": "nonpayable",
      "type": "function"
    },
    {
      "constant": false,
      "inputs": [
        {
          "name": "_owner",
          "type": "address"
        },
        {
          "name": "_amount",
          "type": "uint256"
        }
      ],
      "name": "destroyTokens",
      "outputs": [
        {
          "name": "",
          "type": "bool"
        }
      ],
      "payable": false,
      "stateMutability": "nonpayable",
      "type": "function"
    },
    {
      "constant": true,
      "inputs": [
        {
          "name": "_owner",
          "type": "address"
        },
        {
          "name": "_spender",
          "type": "address"
        }
      ],
      "name": "allowance",
      "outputs": [
        {
          "name": "remaining",
          "type": "uint256"
        }
      ],
      "payable": false,
      "stateMutability": "view",
      "type": "function"
    },
    {
      "constant": false,
      "inputs": [
        {
          "name": "_token",
          "type": "address"
        }
      ],
      "name": "claimTokens",
      "outputs": [],
      "payable": false,
      "stateMutability": "nonpayable",
      "type": "function"
    },
    {
      "constant": true,
      "inputs": [],
      "name": "tokenFactory",
      "outputs": [
        {
          "name": "",
          "type": "address"
        }
      ],
      "payable": false,
      "stateMutability": "view",
      "type": "function"
    },
    {
      "constant": false,
      "inputs": [
        {
          "name": "_transfersEnabled",
          "type": "bool"
        }
      ],
      "name": "enableTransfers",
      "outputs": [],
      "payable": false,
      "stateMutability": "nonpayable",
      "type": "function"
    },
    {
      "constant": true,
      "inputs": [],
      "name": "controller",
      "outputs": [
        {
          "name": "",
          "type": "address"
        }
      ],
      "payable": false,
      "stateMutability": "view",
      "type": "function"
    },
    {
      "inputs": [
        {
          "name": "_tokenFactory",
          "type": "address"
        },
        {
          "name": "_parentToken",
          "type": "address"
        },
        {
          "name": "_parentSnapShotBlock",
          "type": "uint256"
        },
        {
          "name": "_tokenName",
          "type": "string"
        },
        {
          "name": "_decimalUnits",
          "type": "uint8"
        },
        {
          "name": "_tokenSymbol",
          "type": "string"
        },
        {
          "name": "_transfersEnabled",
          "type": "bool"
        }
      ],
      "payable": false,
      "stateMutability": "nonpayable",
      "type": "constructor"
    },
    {
      "payable": true,
      "stateMutability": "payable",
      "type": "fallback"
    },
    {
      "anonymous": false,
      "inputs": [
        {
          "indexed": true,
          "name": "_token",
          "type": "address"
        },
        {
          "indexed": true,
          "name": "_controller",
          "type": "address"
        },
        {
          "indexed": false,
          "name": "_amount",
          "type": "uint256"
        }
      ],
      "name": "ClaimedTokens",
      "type": "event"
    },
    {
      "anonymous": false,
      "inputs": [
        {
          "indexed": true,
          "name": "_from",
          "type": "address"
        },
        {
          "indexed": true,
          "name": "_to",
          "type": "address"
        },
        {
          "indexed": false,
          "name": "_amount",
          "type": "uint256"
        }
      ],
      "name": "Transfer",
      "type": "event"
    },
    {
      "anonymous": false,
      "inputs": [
        {
          "indexed": true,
          "name": "_cloneToken",
          "type": "address"
        },
        {
          "indexed": false,
          "name": "_snapshotBlock",
          "type": "uint256"
        }
      ],
      "name": "NewCloneToken",
      "type": "event"
    },
    {
      "anonymous": false,
      "inputs": [
        {
          "indexed": true,
          "name": "_owner",
          "type": "address"
        },
        {
          "indexed": true,
          "name": "_spender",
          "type": "address"
        },
        {
          "indexed": false,
          "name": "_amount",
          "type": "uint256"
        }
      ],
      "name": "Approval",
      "type": "event"
    },
    {
      "constant": false,
      "inputs": [
        {
          "name": "_spender",
          "type": "address"
        },
        {
          "name": "_amount",
          "type": "uint256"
        }
      ],
      "name": "approve",
      "outputs": [
        {
          "name": "success",
          "type": "bool"
        }
      ],
      "payable": false,
      "stateMutability": "nonpayable",
      "type": "function"
    }
  ],
  "bytecode": "0x60806040526040805190810160405280600781526020017f4d4d545f302e3200000000000000000000000000000000000000000000000000815250600490805190602001906200005192919062000215565b503480156200005f57600080fd5b5060405162002dee38038062002dee8339810180604052810190808051906020019092919080519060200190929190805190602001909291908051820192919060200180519060200190929190805182019291906020018051906020019092919050505086868686868686336000806101000a81548173ffffffffffffffffffffffffffffffffffffffff021916908373ffffffffffffffffffffffffffffffffffffffff16021790555086600b60016101000a81548173ffffffffffffffffffffffffffffffffffffffff021916908373ffffffffffffffffffffffffffffffffffffffff16021790555083600190805190602001906200016392919062000215565b5082600260006101000a81548160ff021916908360ff16021790555081600390805190602001906200019792919062000215565b5085600560006101000a81548173ffffffffffffffffffffffffffffffffffffffff021916908373ffffffffffffffffffffffffffffffffffffffff1602179055508460068190555080600b60006101000a81548160ff021916908315150217905550436007819055505050505050505050505050505050620002c4565b828054600181600116156101000203166002900490600052602060002090601f016020900481019282601f106200025857805160ff191683800117855562000289565b8280016001018555821562000289579182015b82811115620002885782518255916020019190600101906200026b565b5b5090506200029891906200029c565b5090565b620002c191905b80821115620002bd576000816000905550600101620002a3565b5090565b90565b612b1a80620002d46000396000f300608060405260043610610149576000357c0100000000000000000000000000000000000000000000000000000000900463ffffffff16806306fdde0314610283578063095ea7b314610313578063176345141461037857806318160ddd146103a357806323b872dd146103ce578063313ce567146104535780633cebb823146104845780634ee2cd7e146104c757806354fd4d50146105285780636638c087146105b857806370a08231146106ca57806380a5400114610721578063827f32c01461077857806395d89b41146107dd578063981b24d01461086d578063a9059cbb146108ae578063bef97c8714610913578063c5bcc4f114610942578063cae9ca511461096d578063d3ce77fe14610a18578063dd62ed3e14610a7d578063df8de3e714610af4578063e77772fe14610b37578063f41e60c514610b8e578063f77c479114610bbd575b6101736000809054906101000a900473ffffffffffffffffffffffffffffffffffffffff16610c14565b151561017e57600080fd5b6000809054906101000a900473ffffffffffffffffffffffffffffffffffffffff1673ffffffffffffffffffffffffffffffffffffffff1663f48c305434336040518363ffffffff167c0100000000000000000000000000000000000000000000000000000000028152600401808273ffffffffffffffffffffffffffffffffffffffff1673ffffffffffffffffffffffffffffffffffffffff1681526020019150506020604051808303818588803b15801561023a57600080fd5b505af115801561024e573d6000803e3d6000fd5b50505050506040513d602081101561026557600080fd5b8101908080519060200190929190505050151561028157600080fd5b005b34801561028f57600080fd5b50610298610c50565b6040518080602001828103825283818151815260200191508051906020019080838360005b838110156102d85780820151818401526020810190506102bd565b50505050905090810190601f1680156103055780820380516001836020036101000a031916815260200191505b509250505060405180910390f35b34801561031f57600080fd5b5061035e600480360381019080803573ffffffffffffffffffffffffffffffffffffffff16906020019092919080359060200190929190505050610cee565b604051808215151515815260200191505060405180910390f35b34801561038457600080fd5b5061038d610f69565b6040518082815260200191505060405180910390f35b3480156103af57600080fd5b506103b8610f6f565b6040518082815260200191505060405180910390f35b3480156103da57600080fd5b50610439600480360381019080803573ffffffffffffffffffffffffffffffffffffffff169060200190929190803573ffffffffffffffffffffffffffffffffffffffff16906020019092919080359060200190929190505050610f7f565b604051808215151515815260200191505060405180910390f35b34801561045f57600080fd5b5061046861111f565b604051808260ff1660ff16815260200191505060405180910390f35b34801561049057600080fd5b506104c5600480360381019080803573ffffffffffffffffffffffffffffffffffffffff169060200190929190505050611132565b005b3480156104d357600080fd5b50610512600480360381019080803573ffffffffffffffffffffffffffffffffffffffff169060200190929190803590602001909291905050506111d0565b6040518082815260200191505060405180910390f35b34801561053457600080fd5b5061053d61145c565b6040518080602001828103825283818151815260200191508051906020019080838360005b8381101561057d578082015181840152602081019050610562565b50505050905090810190601f1680156105aa5780820380516001836020036101000a031916815260200191505b509250505060405180910390f35b3480156105c457600080fd5b50610688600480360381019080803590602001908201803590602001908080601f0160208091040260200160405190810160405280939291908181526020018383808284378201915050505050509192919290803560ff169060200190929190803590602001908201803590602001908080601f0160208091040260200160405190810160405280939291908181526020018383808284378201915050505050509192919290803590602001909291908035151590602001909291905050506114fa565b604051808273ffffffffffffffffffffffffffffffffffffffff1673ffffffffffffffffffffffffffffffffffffffff16815260200191505060405180910390f35b3480156106d657600080fd5b5061070b600480360381019080803573ffffffffffffffffffffffffffffffffffffffff16906020019092919050505061180e565b6040518082815260200191505060405180910390f35b34801561072d57600080fd5b50610736611821565b604051808273ffffffffffffffffffffffffffffffffffffffff1673ffffffffffffffffffffffffffffffffffffffff16815260200191505060405180910390f35b34801561078457600080fd5b506107c3600480360381019080803573ffffffffffffffffffffffffffffffffffffffff16906020019092919080359060200190929190505050611847565b604051808215151515815260200191505060405180910390f35b3480156107e957600080fd5b506107f2611991565b6040518080602001828103825283818151815260200191508051906020019080838360005b83811015610832578082015181840152602081019050610817565b50505050905090810190601f16801561085f5780820380516001836020036101000a031916815260200191505b509250505060405180910390f35b34801561087957600080fd5b5061089860048036038101908080359060200190929190505050611a2f565b6040518082815260200191505060405180910390f35b3480156108ba57600080fd5b506108f9600480360381019080803573ffffffffffffffffffffffffffffffffffffffff16906020019092919080359060200190929190505050611bcf565b604051808215151515815260200191505060405180910390f35b34801561091f57600080fd5b50610928611bff565b604051808215151515815260200191505060405180910390f35b34801561094e57600080fd5b50610957611c12565b6040518082815260200191505060405180910390f35b34801561097957600080fd5b506109fe600480360381019080803573ffffffffffffffffffffffffffffffffffffffff16906020019092919080359060200190929190803590602001908201803590602001908080601f0160208091040260200160405190810160405280939291908181526020018383808284378201915050505050509192919290505050611c18565b604051808215151515815260200191505060405180910390f35b348015610a2457600080fd5b50610a63600480360381019080803573ffffffffffffffffffffffffffffffffffffffff16906020019092919080359060200190929190505050611d96565b604051808215151515815260200191505060405180910390f35b348015610a8957600080fd5b50610ade600480360381019080803573ffffffffffffffffffffffffffffffffffffffff169060200190929190803573ffffffffffffffffffffffffffffffffffffffff169060200190929190505050611edc565b6040518082815260200191505060405180910390f35b348015610b0057600080fd5b50610b35600480360381019080803573ffffffffffffffffffffffffffffffffffffffff169060200190929190505050611f63565b005b348015610b4357600080fd5b50610b4c6122cb565b604051808273ffffffffffffffffffffffffffffffffffffffff1673ffffffffffffffffffffffffffffffffffffffff16815260200191505060405180910390f35b348015610b9a57600080fd5b50610bbb6004803603810190808035151590602001909291905050506122f1565b005b348015610bc957600080fd5b50610bd2612369565b604051808273ffffffffffffffffffffffffffffffffffffffff1673ffffffffffffffffffffffffffffffffffffffff16815260200191505060405180910390f35b60008060008373ffffffffffffffffffffffffffffffffffffffff161415610c3f5760009150610c4a565b823b90506000811191505b50919050565b60018054600181600116156101000203166002900480601f016020809104026020016040519081016040528092919081815260200182805460018160011615610100020316600290048015610ce65780601f10610cbb57610100808354040283529160200191610ce6565b820191906000526020600020905b815481529060010190602001808311610cc957829003601f168201915b505050505081565b6000600b60009054906101000a900460ff161515610d0b57600080fd5b610d356000809054906101000a900473ffffffffffffffffffffffffffffffffffffffff16610c14565b15610e79576000809054906101000a900473ffffffffffffffffffffffffffffffffffffffff1673ffffffffffffffffffffffffffffffffffffffff1663da682aeb3385856040518463ffffffff167c0100000000000000000000000000000000000000000000000000000000028152600401808473ffffffffffffffffffffffffffffffffffffffff1673ffffffffffffffffffffffffffffffffffffffff1681526020018373ffffffffffffffffffffffffffffffffffffffff1673ffffffffffffffffffffffffffffffffffffffff1681526020018281526020019350505050602060405180830381600087803b158015610e3257600080fd5b505af1158015610e46573d6000803e3d6000fd5b505050506040513d6020811015610e5c57600080fd5b81019080805190602001909291905050501515610e7857600080fd5b5b81600960003373ffffffffffffffffffffffffffffffffffffffff1673ffffffffffffffffffffffffffffffffffffffff16815260200190815260200160002060008573ffffffffffffffffffffffffffffffffffffffff1673ffffffffffffffffffffffffffffffffffffffff168152602001908152602001600020819055508273ffffffffffffffffffffffffffffffffffffffff163373ffffffffffffffffffffffffffffffffffffffff167f8c5be1e5ebec7d5bd14f71427d1e84f3dd0314c0f7b2291e5b200ac8c7c3b925846040518082815260200191505060405180910390a36001905092915050565b60075481565b6000610f7a43611a2f565b905090565b60008060009054906101000a900473ffffffffffffffffffffffffffffffffffffffff1673ffffffffffffffffffffffffffffffffffffffff163373ffffffffffffffffffffffffffffffffffffffff1614151561110a57600b60009054906101000a900460ff161515610ff257600080fd5b81600960008673ffffffffffffffffffffffffffffffffffffffff1673ffffffffffffffffffffffffffffffffffffffff16815260200190815260200160002060003373ffffffffffffffffffffffffffffffffffffffff1673ffffffffffffffffffffffffffffffffffffffff16815260200190815260200160002054101561107f5760009050611118565b81600960008673ffffffffffffffffffffffffffffffffffffffff1673ffffffffffffffffffffffffffffffffffffffff16815260200190815260200160002060003373ffffffffffffffffffffffffffffffffffffffff1673ffffffffffffffffffffffffffffffffffffffff168152602001908152602001600020600082825403925050819055505b61111584848461238e565b90505b9392505050565b600260009054906101000a900460ff1681565b6000809054906101000a900473ffffffffffffffffffffffffffffffffffffffff1673ffffffffffffffffffffffffffffffffffffffff163373ffffffffffffffffffffffffffffffffffffffff1614151561118d57600080fd5b806000806101000a81548173ffffffffffffffffffffffffffffffffffffffff021916908373ffffffffffffffffffffffffffffffffffffffff16021790555050565b600080600860008573ffffffffffffffffffffffffffffffffffffffff1673ffffffffffffffffffffffffffffffffffffffff1681526020019081526020016000208054905014806112a9575081600860008573ffffffffffffffffffffffffffffffffffffffff1673ffffffffffffffffffffffffffffffffffffffff168152602001908152602001600020600081548110151561126b57fe5b9060005260206000200160000160009054906101000a90046fffffffffffffffffffffffffffffffff166fffffffffffffffffffffffffffffffff16115b1561140b576000600560009054906101000a900473ffffffffffffffffffffffffffffffffffffffff1673ffffffffffffffffffffffffffffffffffffffff1614151561140257600560009054906101000a900473ffffffffffffffffffffffffffffffffffffffff1673ffffffffffffffffffffffffffffffffffffffff16634ee2cd7e8461133b856006546126c1565b6040518363ffffffff167c0100000000000000000000000000000000000000000000000000000000028152600401808373ffffffffffffffffffffffffffffffffffffffff1673ffffffffffffffffffffffffffffffffffffffff16815260200182815260200192505050602060405180830381600087803b1580156113c057600080fd5b505af11580156113d4573d6000803e3d6000fd5b505050506040513d60208110156113ea57600080fd5b81019080805190602001909291905050509050611456565b60009050611456565b611453600860008573ffffffffffffffffffffffffffffffffffffffff1673ffffffffffffffffffffffffffffffffffffffff168152602001908152602001600020836126da565b90505b92915050565b60048054600181600116156101000203166002900480601f0160208091040260200160405190810160405280929190818152602001828054600181600116156101000203166002900480156114f25780601f106114c7576101008083540402835291602001916114f2565b820191906000526020600020905b8154815290600101906020018083116114d557829003601f168201915b505050505081565b600080600084141561150a574393505b600b60019054906101000a900473ffffffffffffffffffffffffffffffffffffffff1673ffffffffffffffffffffffffffffffffffffffff16635b7b72c130868a8a8a896040518763ffffffff167c0100000000000000000000000000000000000000000000000000000000028152600401808773ffffffffffffffffffffffffffffffffffffffff1673ffffffffffffffffffffffffffffffffffffffff168152602001868152602001806020018560ff1660ff1681526020018060200184151515158152602001838103835287818151815260200191508051906020019080838360005b8381101561160b5780820151818401526020810190506115f0565b50505050905090810190601f1680156116385780820380516001836020036101000a031916815260200191505b50838103825285818151815260200191508051906020019080838360005b83811015611671578082015181840152602081019050611656565b50505050905090810190601f16801561169e5780820380516001836020036101000a031916815260200191505b5098505050505050505050602060405180830381600087803b1580156116c357600080fd5b505af11580156116d7573d6000803e3d6000fd5b505050506040513d60208110156116ed57600080fd5b810190808051906020019092919050505090508073ffffffffffffffffffffffffffffffffffffffff16633cebb823336040518263ffffffff167c0100000000000000000000000000000000000000000000000000000000028152600401808273ffffffffffffffffffffffffffffffffffffffff1673ffffffffffffffffffffffffffffffffffffffff168152602001915050600060405180830381600087803b15801561179b57600080fd5b505af11580156117af573d6000803e3d6000fd5b505050508073ffffffffffffffffffffffffffffffffffffffff167f086c875b377f900b07ce03575813022f05dd10ed7640b5282cf6d3c3fc352ade856040518082815260200191505060405180910390a28091505095945050505050565b600061181a82436111d0565b9050919050565b600560009054906101000a900473ffffffffffffffffffffffffffffffffffffffff1681565b60008060008060009054906101000a900473ffffffffffffffffffffffffffffffffffffffff1673ffffffffffffffffffffffffffffffffffffffff163373ffffffffffffffffffffffffffffffffffffffff161415156118a757600080fd5b6118af610f6f565b915081848301101515156118c257600080fd5b6118cb8561180e565b905080848201101515156118de57600080fd5b6118eb600a8584016128e9565b611935600860008773ffffffffffffffffffffffffffffffffffffffff1673ffffffffffffffffffffffffffffffffffffffff1681526020019081526020016000208583016128e9565b8473ffffffffffffffffffffffffffffffffffffffff1660007fddf252ad1be2c89b69c2b068fc378daa952ba7f163c4a11628f55a4df523b3ef866040518082815260200191505060405180910390a360019250505092915050565b60038054600181600116156101000203166002900480601f016020809104026020016040519081016040528092919081815260200182805460018160011615610100020316600290048015611a275780601f106119fc57610100808354040283529160200191611a27565b820191906000526020600020905b815481529060010190602001808311611a0a57829003601f168201915b505050505081565b600080600a805490501480611a8e575081600a6000815481101515611a5057fe5b9060005260206000200160000160009054906101000a90046fffffffffffffffffffffffffffffffff166fffffffffffffffffffffffffffffffff16115b15611bbc576000600560009054906101000a900473ffffffffffffffffffffffffffffffffffffffff1673ffffffffffffffffffffffffffffffffffffffff16141515611bb357600560009054906101000a900473ffffffffffffffffffffffffffffffffffffffff1673ffffffffffffffffffffffffffffffffffffffff1663981b24d0611b1f846006546126c1565b6040518263ffffffff167c010000000000000000000000000000000000000000000000000000000002815260040180828152602001915050602060405180830381600087803b158015611b7157600080fd5b505af1158015611b85573d6000803e3d6000fd5b505050506040513d6020811015611b9b57600080fd5b81019080805190602001909291905050509050611bca565b60009050611bca565b611bc7600a836126da565b90505b919050565b6000600b60009054906101000a900460ff161515611bec57600080fd5b611bf733848461238e565b905092915050565b600b60009054906101000a900460ff1681565b60065481565b6000611c248484610cee565b1515611c2f57600080fd5b8373ffffffffffffffffffffffffffffffffffffffff16638f4ffcb1338530866040518563ffffffff167c0100000000000000000000000000000000000000000000000000000000028152600401808573ffffffffffffffffffffffffffffffffffffffff1673ffffffffffffffffffffffffffffffffffffffff1681526020018481526020018373ffffffffffffffffffffffffffffffffffffffff1673ffffffffffffffffffffffffffffffffffffffff16815260200180602001828103825283818151815260200191508051906020019080838360005b83811015611d24578082015181840152602081019050611d09565b50505050905090810190601f168015611d515780820380516001836020036101000a031916815260200191505b5095505050505050600060405180830381600087803b158015611d7357600080fd5b505af1158015611d87573d6000803e3d6000fd5b50505050600190509392505050565b60008060008060009054906101000a900473ffffffffffffffffffffffffffffffffffffffff1673ffffffffffffffffffffffffffffffffffffffff163373ffffffffffffffffffffffffffffffffffffffff16141515611df657600080fd5b611dfe610f6f565b9150838210151515611e0f57600080fd5b611e188561180e565b9050838110151515611e2957600080fd5b611e36600a8584036128e9565b611e80600860008773ffffffffffffffffffffffffffffffffffffffff1673ffffffffffffffffffffffffffffffffffffffff1681526020019081526020016000208583036128e9565b60008573ffffffffffffffffffffffffffffffffffffffff167fddf252ad1be2c89b69c2b068fc378daa952ba7f163c4a11628f55a4df523b3ef866040518082815260200191505060405180910390a360019250505092915050565b6000600960008473ffffffffffffffffffffffffffffffffffffffff1673ffffffffffffffffffffffffffffffffffffffff16815260200190815260200160002060008373ffffffffffffffffffffffffffffffffffffffff1673ffffffffffffffffffffffffffffffffffffffff16815260200190815260200160002054905092915050565b6000806000809054906101000a900473ffffffffffffffffffffffffffffffffffffffff1673ffffffffffffffffffffffffffffffffffffffff163373ffffffffffffffffffffffffffffffffffffffff16141515611fc157600080fd5b60008373ffffffffffffffffffffffffffffffffffffffff161415612064576000809054906101000a900473ffffffffffffffffffffffffffffffffffffffff1673ffffffffffffffffffffffffffffffffffffffff166108fc3073ffffffffffffffffffffffffffffffffffffffff16319081150290604051600060405180830381858888f1935050505015801561205e573d6000803e3d6000fd5b506122c6565b8291508173ffffffffffffffffffffffffffffffffffffffff166370a08231306040518263ffffffff167c0100000000000000000000000000000000000000000000000000000000028152600401808273ffffffffffffffffffffffffffffffffffffffff1673ffffffffffffffffffffffffffffffffffffffff168152602001915050602060405180830381600087803b15801561210257600080fd5b505af1158015612116573d6000803e3d6000fd5b505050506040513d602081101561212c57600080fd5b810190808051906020019092919050505090508173ffffffffffffffffffffffffffffffffffffffff1663a9059cbb6000809054906101000a900473ffffffffffffffffffffffffffffffffffffffff16836040518363ffffffff167c0100000000000000000000000000000000000000000000000000000000028152600401808373ffffffffffffffffffffffffffffffffffffffff1673ffffffffffffffffffffffffffffffffffffffff16815260200182815260200192505050602060405180830381600087803b15801561220357600080fd5b505af1158015612217573d6000803e3d6000fd5b505050506040513d602081101561222d57600080fd5b8101908080519060200190929190505050506000809054906101000a900473ffffffffffffffffffffffffffffffffffffffff1673ffffffffffffffffffffffffffffffffffffffff168373ffffffffffffffffffffffffffffffffffffffff167ff931edb47c50b4b4104c187b5814a9aef5f709e17e2ecf9617e860cacade929c836040518082815260200191505060405180910390a35b505050565b600b60019054906101000a900473ffffffffffffffffffffffffffffffffffffffff1681565b6000809054906101000a900473ffffffffffffffffffffffffffffffffffffffff1673ffffffffffffffffffffffffffffffffffffffff163373ffffffffffffffffffffffffffffffffffffffff1614151561234c57600080fd5b80600b60006101000a81548160ff02191690831515021790555050565b6000809054906101000a900473ffffffffffffffffffffffffffffffffffffffff1681565b6000806000808414156123a457600192506126b8565b436006541015156123b457600080fd5b60008573ffffffffffffffffffffffffffffffffffffffff161415801561240757503073ffffffffffffffffffffffffffffffffffffffff168573ffffffffffffffffffffffffffffffffffffffff1614155b151561241257600080fd5b61241c86436111d0565b91508382101561242f57600092506126b8565b6124596000809054906101000a900473ffffffffffffffffffffffffffffffffffffffff16610c14565b1561259d576000809054906101000a900473ffffffffffffffffffffffffffffffffffffffff1673ffffffffffffffffffffffffffffffffffffffff16634a3931498787876040518463ffffffff167c0100000000000000000000000000000000000000000000000000000000028152600401808473ffffffffffffffffffffffffffffffffffffffff1673ffffffffffffffffffffffffffffffffffffffff1681526020018373ffffffffffffffffffffffffffffffffffffffff1673ffffffffffffffffffffffffffffffffffffffff1681526020018281526020019350505050602060405180830381600087803b15801561255657600080fd5b505af115801561256a573d6000803e3d6000fd5b505050506040513d602081101561258057600080fd5b8101908080519060200190929190505050151561259c57600080fd5b5b6125e7600860008873ffffffffffffffffffffffffffffffffffffffff1673ffffffffffffffffffffffffffffffffffffffff1681526020019081526020016000208584036128e9565b6125f185436111d0565b9050808482011015151561260457600080fd5b61264e600860008773ffffffffffffffffffffffffffffffffffffffff1673ffffffffffffffffffffffffffffffffffffffff1681526020019081526020016000208583016128e9565b8473ffffffffffffffffffffffffffffffffffffffff168673ffffffffffffffffffffffffffffffffffffffff167fddf252ad1be2c89b69c2b068fc378daa952ba7f163c4a11628f55a4df523b3ef866040518082815260200191505060405180910390a3600192505b50509392505050565b60008183106126d057816126d2565b825b905092915050565b6000806000806000868054905014156126f657600093506128e0565b85600187805490500381548110151561270b57fe5b9060005260206000200160000160009054906101000a90046fffffffffffffffffffffffffffffffff166fffffffffffffffffffffffffffffffff16851015156127a75785600187805490500381548110151561276457fe5b9060005260206000200160000160109054906101000a90046fffffffffffffffffffffffffffffffff166fffffffffffffffffffffffffffffffff1693506128e0565b8560008154811015156127b657fe5b9060005260206000200160000160009054906101000a90046fffffffffffffffffffffffffffffffff166fffffffffffffffffffffffffffffffff1685101561280257600093506128e0565b60009250600186805490500391505b8282111561289357600260018484010181151561282a57fe5b04905084868281548110151561283c57fe5b9060005260206000200160000160009054906101000a90046fffffffffffffffffffffffffffffffff166fffffffffffffffffffffffffffffffff161115156128875780925061288e565b6001810391505b612811565b85838154811015156128a157fe5b9060005260206000200160000160109054906101000a90046fffffffffffffffffffffffffffffffff166fffffffffffffffffffffffffffffffff1693505b50505092915050565b60008060008480549050148061294e57504384600186805490500381548110151561291057fe5b9060005260206000200160000160009054906101000a90046fffffffffffffffffffffffffffffffff166fffffffffffffffffffffffffffffffff16105b156129fa57838480548091906001016129679190612a5d565b81548110151561297357fe5b906000526020600020019150438260000160006101000a8154816fffffffffffffffffffffffffffffffff02191690836fffffffffffffffffffffffffffffffff160217905550828260000160106101000a8154816fffffffffffffffffffffffffffffffff02191690836fffffffffffffffffffffffffffffffff160217905550612a57565b836001858054905003815481101515612a0f57fe5b906000526020600020019050828160000160106101000a8154816fffffffffffffffffffffffffffffffff02191690836fffffffffffffffffffffffffffffffff1602179055505b50505050565b815481835581811115612a8457818360005260206000209182019101612a839190612a89565b5b505050565b612aeb91905b80821115612ae757600080820160006101000a8154906fffffffffffffffffffffffffffffffff02191690556000820160106101000a8154906fffffffffffffffffffffffffffffffff021916905550600101612a8f565b5090565b905600a165627a7a723058205e0805ba27a4ae5d6a19a7d78e517eb51bef6b0b897c509b9d7db6a07e75f50f0029",
  "source": " /**\n *  @title Mini Me Token ERC20\n *  Overwrite the MiniMeToken to make it follow ERC20 recommendation.\n *  This is required because the base token reverts when approve is used with the non zero value while allowed is non zero (which not recommended by the standard, see https://github.com/ethereum/EIPs/blob/master/EIPS/eip-20-token-standard.md).\n *  @author Clment Lesaege - <clement@lesaege.com>\n *  Bug Bounties: This code hasn't undertaken a bug bounty program yet.\n */\n\npragma solidity ^0.4.18;\n\nimport \"minimetoken/contracts/MiniMeToken.sol\";\n\ncontract MiniMeTokenERC20 is MiniMeToken {\n\n    /** @notice Constructor to create a MiniMeTokenERC20\n     *  @param _tokenFactory The address of the MiniMeTokenFactory contract that will\n     *   create the Clone token contracts, the token factory needs to be deployed first\n     *  @param _parentToken Address of the parent token, set to 0x0 if it is a new token\n     *  @param _parentSnapShotBlock Block of the parent token that will determine the\n     *   initial distribution of the clone token, set to 0 if it is a new token\n     *  @param _tokenName Name of the new token\n     *  @param _decimalUnits Number of decimals of the new token\n     *  @param _tokenSymbol Token Symbol for the new token\n     *  @param _transfersEnabled If true, tokens will be able to be transferred\n     */\n    function MiniMeTokenERC20(\n        address _tokenFactory,\n        address _parentToken,\n        uint _parentSnapShotBlock,\n        string _tokenName,\n        uint8 _decimalUnits,\n        string _tokenSymbol,\n        bool _transfersEnabled\n    )  MiniMeToken(\n        _tokenFactory,\n        _parentToken,\n        _parentSnapShotBlock,\n        _tokenName,\n        _decimalUnits,\n        _tokenSymbol,\n        _transfersEnabled\n    ) public {}\n    \n    /** @notice `msg.sender` approves `_spender` to spend `_amount` tokens on its behalf.\n      * This is a ERC20 compliant version.\n      * @param _spender The address of the account able to transfer the tokens\n      * @param _amount The amount of tokens to be approved for transfer\n      * @return True if the approval was successful\n      */\n    function approve(address _spender, uint256 _amount) public returns (bool success) {\n        require(transfersEnabled);\n        // Alerts the token controller of the approve function call\n        if (isContract(controller)) {\n            require(TokenController(controller).onApprove(msg.sender, _spender, _amount));\n        }\n\n        allowed[msg.sender][_spender] = _amount;\n        Approval(msg.sender, _spender, _amount);\n        return true;\n    }\n}\n",
  "sourcePath": "/Users/epiqueras/Work/kleros/kleros-interaction/contracts/standard/arbitration/ArbitrableTokens/MiniMeTokenERC20.sol",
  "compiler": {
    "name": "solc",
    "version": "0.4.23+commit.124ca40d.Emscripten.clang"
  },
  "schemaVersion": "2.0.0",
  "updatedAt": "2018-06-26T20:15:53.345Z"
}