{
  "contractName": "MultipleArbitrableTransaction",
  "abi": [
    {
      "constant": true,
      "inputs": [
        {
          "name": "",
          "type": "bytes32"
        }
      ],
      "name": "disputeTxMap",
      "outputs": [
        {
          "name": "",
          "type": "uint256"
        }
      ],
      "payable": false,
      "stateMutability": "view",
      "type": "function"
    },
    {
      "constant": true,
      "inputs": [
        {
          "name": "",
          "type": "uint256"
        }
      ],
      "name": "transactions",
      "outputs": [
        {
          "name": "seller",
          "type": "address"
        },
        {
          "name": "buyer",
          "type": "address"
        },
        {
          "name": "amount",
          "type": "uint256"
        },
        {
          "name": "timeout",
          "type": "uint256"
        },
        {
          "name": "disputeId",
          "type": "uint256"
        },
        {
          "name": "arbitrator",
          "type": "address"
        },
        {
          "name": "arbitratorExtraData",
          "type": "bytes"
        },
        {
          "name": "sellerFee",
          "type": "uint256"
        },
        {
          "name": "buyerFee",
          "type": "uint256"
        },
        {
          "name": "lastInteraction",
          "type": "uint256"
        },
        {
          "name": "status",
          "type": "uint8"
        }
      ],
      "payable": false,
      "stateMutability": "view",
      "type": "function"
    },
    {
      "inputs": [],
      "payable": false,
      "stateMutability": "nonpayable",
      "type": "constructor"
    },
    {
      "anonymous": false,
      "inputs": [
        {
          "indexed": true,
          "name": "_transactionId",
          "type": "uint256"
        },
        {
          "indexed": true,
          "name": "_arbitrator",
          "type": "address"
        },
        {
          "indexed": true,
          "name": "_disputeID",
          "type": "uint256"
        },
        {
          "indexed": false,
          "name": "_rulingOptions",
          "type": "string"
        }
      ],
      "name": "Dispute",
      "type": "event"
    },
    {
      "anonymous": false,
      "inputs": [
        {
          "indexed": true,
          "name": "_transactionId",
          "type": "uint256"
        },
        {
          "indexed": true,
          "name": "_arbitrator",
          "type": "address"
        },
        {
          "indexed": true,
          "name": "_disputeID",
          "type": "uint256"
        },
        {
          "indexed": false,
          "name": "_ruling",
          "type": "uint256"
        }
      ],
      "name": "Ruling",
      "type": "event"
    },
    {
      "anonymous": false,
      "inputs": [
        {
          "indexed": true,
          "name": "_transactionId",
          "type": "uint256"
        },
        {
          "indexed": false,
          "name": "_evidence",
          "type": "string"
        }
      ],
      "name": "MetaEvidence",
      "type": "event"
    },
    {
      "anonymous": false,
      "inputs": [
        {
          "indexed": true,
          "name": "_arbitrator",
          "type": "address"
        },
        {
          "indexed": true,
          "name": "_disputeID",
          "type": "uint256"
        },
        {
          "indexed": false,
          "name": "_transactionId",
          "type": "uint256"
        }
      ],
      "name": "LinkMetaEvidence",
      "type": "event"
    },
    {
      "anonymous": false,
      "inputs": [
        {
          "indexed": true,
          "name": "_arbitrator",
          "type": "address"
        },
        {
          "indexed": true,
          "name": "_disputeID",
          "type": "uint256"
        },
        {
          "indexed": false,
          "name": "_party",
          "type": "address"
        },
        {
          "indexed": false,
          "name": "_evidence",
          "type": "string"
        }
      ],
      "name": "Evidence",
      "type": "event"
    },
    {
      "anonymous": false,
      "inputs": [
        {
          "indexed": true,
          "name": "_transactionId",
          "type": "uint256"
        },
        {
          "indexed": false,
          "name": "_party",
          "type": "uint8"
        }
      ],
      "name": "HasToPayFee",
      "type": "event"
    },
    {
      "constant": false,
      "inputs": [
        {
          "name": "_disputeID",
          "type": "uint256"
        },
        {
          "name": "_ruling",
          "type": "uint256"
        }
      ],
      "name": "rule",
      "outputs": [],
      "payable": false,
      "stateMutability": "nonpayable",
      "type": "function"
    },
    {
      "constant": false,
      "inputs": [
        {
          "name": "_transactionId",
          "type": "uint256"
        }
      ],
      "name": "payArbitrationFeeBySeller",
      "outputs": [],
      "payable": true,
      "stateMutability": "payable",
      "type": "function"
    },
    {
      "constant": false,
      "inputs": [
        {
          "name": "_transactionId",
          "type": "uint256"
        }
      ],
      "name": "payArbitrationFeeByBuyer",
      "outputs": [],
      "payable": true,
      "stateMutability": "payable",
      "type": "function"
    },
    {
      "constant": false,
      "inputs": [
        {
          "name": "_transactionId",
          "type": "uint256"
        }
      ],
      "name": "timeOutBySeller",
      "outputs": [],
      "payable": false,
      "stateMutability": "nonpayable",
      "type": "function"
    },
    {
      "constant": false,
      "inputs": [
        {
          "name": "_transactionId",
          "type": "uint256"
        }
      ],
      "name": "timeOutByBuyer",
      "outputs": [],
      "payable": false,
      "stateMutability": "nonpayable",
      "type": "function"
    },
    {
      "constant": false,
      "inputs": [
        {
          "name": "_transactionId",
          "type": "uint256"
        },
        {
          "name": "_evidence",
          "type": "string"
        }
      ],
      "name": "submitEvidence",
      "outputs": [],
      "payable": false,
      "stateMutability": "nonpayable",
      "type": "function"
    },
    {
      "constant": false,
      "inputs": [
        {
          "name": "_transactionId",
          "type": "uint256"
        },
        {
          "name": "_extraData",
          "type": "bytes"
        }
      ],
      "name": "appeal",
      "outputs": [],
      "payable": true,
      "stateMutability": "payable",
      "type": "function"
    },
    {
      "constant": false,
      "inputs": [
        {
          "name": "_arbitrator",
          "type": "address"
        },
        {
          "name": "_timeout",
          "type": "uint256"
        },
        {
          "name": "_seller",
          "type": "address"
        },
        {
          "name": "_arbitratorExtraData",
          "type": "bytes"
        },
        {
          "name": "_metaEvidence",
          "type": "string"
        }
      ],
      "name": "createTransaction",
      "outputs": [
        {
          "name": "transactionIndex",
          "type": "uint256"
        }
      ],
      "payable": true,
      "stateMutability": "payable",
      "type": "function"
    },
    {
      "constant": false,
      "inputs": [
        {
          "name": "_transactionId",
          "type": "uint256"
        }
      ],
      "name": "withdraw",
      "outputs": [],
      "payable": false,
      "stateMutability": "nonpayable",
      "type": "function"
    },
    {
      "constant": false,
      "inputs": [
        {
          "name": "_transactionId",
          "type": "uint256"
        },
        {
          "name": "_amountReimbursed",
          "type": "uint256"
        }
      ],
      "name": "reimburse",
      "outputs": [],
      "payable": false,
      "stateMutability": "nonpayable",
      "type": "function"
    }
  ],
  "bytecode": "0x608060405234801561001057600080fd5b5061209d806100206000396000f3006080604052600436106100ba576000357c0100000000000000000000000000000000000000000000000000000000900463ffffffff1680631bd1823a146100bf5780632be6d005146100ec5780632e1a7d4d1461010c578063311a6c56146101395780633bf547241461017057806349912f88146101905780637b98336b146101f65780639ace38c21461023b578063a6a7f0eb146103b9578063e77d0bd31461042c578063fbb7e13f14610459578063fe43a99214610559575b600080fd5b3480156100cb57600080fd5b506100ea60048036038101908080359060200190929190505050610590565b005b61010a60048036038101908080359060200190929190505050610673565b005b34801561011857600080fd5b506101376004803603810190808035906020019092919050505061093a565b005b34801561014557600080fd5b5061016e6004803603810190808035906020019092919080359060200190929190505050610a99565b005b61018e60048036038101908080359060200190929190505050610bef565b005b6101f460048036038101908080359060200190929190803590602001908201803590602001908080601f0160208091040260200160405190810160405280939291908181526020018383808284378201915050505050509192919290505050610eb6565b005b34801561020257600080fd5b5061022560048036038101908080356000191690602001909291905050506110b0565b6040518082815260200191505060405180910390f35b34801561024757600080fd5b50610266600480360381019080803590602001909291905050506110c8565b604051808c73ffffffffffffffffffffffffffffffffffffffff1673ffffffffffffffffffffffffffffffffffffffff1681526020018b73ffffffffffffffffffffffffffffffffffffffff1673ffffffffffffffffffffffffffffffffffffffff1681526020018a81526020018981526020018881526020018773ffffffffffffffffffffffffffffffffffffffff1673ffffffffffffffffffffffffffffffffffffffff1681526020018060200186815260200185815260200184815260200183600481111561033457fe5b60ff168152602001828103825287818151815260200191508051906020019080838360005b83811015610374578082015181840152602081019050610359565b50505050905090810190601f1680156103a15780820380516001836020036101000a031916815260200191505b509c5050505050505050505050505060405180910390f35b3480156103c557600080fd5b5061042a60048036038101908080359060200190929190803590602001908201803590602001908080601f0160208091040260200160405190810160405280939291908181526020018383808284378201915050505050509192919290505050611236565b005b34801561043857600080fd5b506104576004803603810190808035906020019092919050505061145a565b005b610543600480360381019080803573ffffffffffffffffffffffffffffffffffffffff16906020019092919080359060200190929190803573ffffffffffffffffffffffffffffffffffffffff169060200190929190803590602001908201803590602001908080601f0160208091040260200160405190810160405280939291908181526020018383808284378201915050505050509192919290803590602001908201803590602001908080601f016020809104026020016040519081016040528093929190818152602001838380828437820191505050505050919291929050505061153d565b6040518082815260200191505060405180910390f35b34801561056557600080fd5b5061058e600480360381019080803590602001909291908035906020019092919050505061181f565b005b600080828154811015156105a057fe5b90600052602060002090600b020190508060000160009054906101000a900473ffffffffffffffffffffffffffffffffffffffff1673ffffffffffffffffffffffffffffffffffffffff163373ffffffffffffffffffffffffffffffffffffffff1614151561060e57600080fd5b6002600481111561061b57fe5b81600a0160009054906101000a900460ff16600481111561063857fe5b14151561064457600080fd5b8060030154816009015401421015151561065d57600080fd5b61066f8160040154600260ff16611932565b5050565b60008060008381548110151561068557fe5b90600052602060002090600b020191508160010160009054906101000a900473ffffffffffffffffffffffffffffffffffffffff1673ffffffffffffffffffffffffffffffffffffffff163373ffffffffffffffffffffffffffffffffffffffff161415156106f357600080fd5b8160050160009054906101000a900473ffffffffffffffffffffffffffffffffffffffff1673ffffffffffffffffffffffffffffffffffffffff1663f7434ea9836006016040518263ffffffff167c010000000000000000000000000000000000000000000000000000000002815260040180806020018281038252838181546001816001161561010002031660029004815260200191508054600181600116156101000203166002900480156107eb5780601f106107c0576101008083540402835291602001916107eb565b820191906000526020600020905b8154815290600101906020018083116107ce57829003601f168201915b505092505050602060405180830381600087803b15801561080b57600080fd5b505af115801561081f573d6000803e3d6000fd5b505050506040513d602081101561083557600080fd5b810190808051906020019092919050505090503482600801600082825401925050819055508082600801541015151561086d57600080fd5b6003600481111561087a57fe5b82600a0160009054906101000a900460ff16600481111561089757fe5b1015156108a357600080fd5b428260090181905550808260070154101561092a57600182600a0160006101000a81548160ff021916908360048111156108d957fe5b0217905550827fc74b9f7dedf2887cd3c113b6d8da9cea19e55c1116e25f1f0e1b72d7543179b560006040518082600181111561091257fe5b60ff16815260200191505060405180910390a2610935565b6109348382611bf0565b5b505050565b6000808281548110151561094a57fe5b90600052602060002090600b020190508060000160009054906101000a900473ffffffffffffffffffffffffffffffffffffffff1673ffffffffffffffffffffffffffffffffffffffff163373ffffffffffffffffffffffffffffffffffffffff161415156109b857600080fd5b806003015481600901540142101515156109d157600080fd5b600060048111156109de57fe5b81600a0160009054906101000a900460ff1660048111156109fb57fe5b141515610a0757600080fd5b8060000160009054906101000a900473ffffffffffffffffffffffffffffffffffffffff1673ffffffffffffffffffffffffffffffffffffffff166108fc82600201549081150290604051600060405180830381858888f193505050505060008160020181905550600481600a0160006101000a81548160ff02191690836004811115610a9057fe5b02179055505050565b600080600160003386604051808373ffffffffffffffffffffffffffffffffffffffff1673ffffffffffffffffffffffffffffffffffffffff166c0100000000000000000000000002815260140182815260200192505050604051809103902060001916600019168152602001908152602001600020549150600082815481101515610b2157fe5b90600052602060002090600b020190508060050160009054906101000a900473ffffffffffffffffffffffffffffffffffffffff1673ffffffffffffffffffffffffffffffffffffffff163373ffffffffffffffffffffffffffffffffffffffff16141515610b8f57600080fd5b833373ffffffffffffffffffffffffffffffffffffffff16837ff3cc21dccfd4f1ded1a89c4e30ac4765d5be852dd3a72e75822543040802e4a7866040518082815260200191505060405180910390a4610be98484611932565b50505050565b600080600083815481101515610c0157fe5b90600052602060002090600b020191508160000160009054906101000a900473ffffffffffffffffffffffffffffffffffffffff1673ffffffffffffffffffffffffffffffffffffffff163373ffffffffffffffffffffffffffffffffffffffff16141515610c6f57600080fd5b8160050160009054906101000a900473ffffffffffffffffffffffffffffffffffffffff1673ffffffffffffffffffffffffffffffffffffffff1663f7434ea9836006016040518263ffffffff167c01000000000000000000000000000000000000000000000000000000000281526004018080602001828103825283818154600181600116156101000203166002900481526020019150805460018160011615610100020316600290048015610d675780601f10610d3c57610100808354040283529160200191610d67565b820191906000526020600020905b815481529060010190602001808311610d4a57829003601f168201915b505092505050602060405180830381600087803b158015610d8757600080fd5b505af1158015610d9b573d6000803e3d6000fd5b505050506040513d6020811015610db157600080fd5b8101908080519060200190929190505050905034826007016000828254019250508190555080826007015410151515610de957600080fd5b60036004811115610df657fe5b82600a0160009054906101000a900460ff166004811115610e1357fe5b101515610e1f57600080fd5b4282600901819055508082600801541015610ea657600282600a0160006101000a81548160ff02191690836004811115610e5557fe5b0217905550827fc74b9f7dedf2887cd3c113b6d8da9cea19e55c1116e25f1f0e1b72d7543179b5600160405180826001811115610e8e57fe5b60ff16815260200191505060405180910390a2610eb1565b610eb08382611bf0565b5b505050565b60008083815481101515610ec657fe5b90600052602060002090600b020190508060010160009054906101000a900473ffffffffffffffffffffffffffffffffffffffff1673ffffffffffffffffffffffffffffffffffffffff163373ffffffffffffffffffffffffffffffffffffffff161480610f8357508060000160009054906101000a900473ffffffffffffffffffffffffffffffffffffffff1673ffffffffffffffffffffffffffffffffffffffff163373ffffffffffffffffffffffffffffffffffffffff16145b1515610f8e57600080fd5b8060050160009054906101000a900473ffffffffffffffffffffffffffffffffffffffff1673ffffffffffffffffffffffffffffffffffffffff166349912f88348360040154856040518463ffffffff167c01000000000000000000000000000000000000000000000000000000000281526004018083815260200180602001828103825283818151815260200191508051906020019080838360005b8381101561104657808201518184015260208101905061102b565b50505050905090810190601f1680156110735780820380516001836020036101000a031916815260200191505b5093505050506000604051808303818588803b15801561109257600080fd5b505af11580156110a6573d6000803e3d6000fd5b5050505050505050565b60016020528060005260406000206000915090505481565b6000818154811015156110d757fe5b90600052602060002090600b02016000915090508060000160009054906101000a900473ffffffffffffffffffffffffffffffffffffffff16908060010160009054906101000a900473ffffffffffffffffffffffffffffffffffffffff16908060020154908060030154908060040154908060050160009054906101000a900473ffffffffffffffffffffffffffffffffffffffff1690806006018054600181600116156101000203166002900480601f0160208091040260200160405190810160405280929190818152602001828054600181600116156101000203166002900480156112075780601f106111dc57610100808354040283529160200191611207565b820191906000526020600020905b8154815290600101906020018083116111ea57829003601f168201915b50505050509080600701549080600801549080600901549080600a0160009054906101000a900460ff1690508b565b6000808381548110151561124657fe5b90600052602060002090600b020190508060010160009054906101000a900473ffffffffffffffffffffffffffffffffffffffff1673ffffffffffffffffffffffffffffffffffffffff163373ffffffffffffffffffffffffffffffffffffffff16148061130357508060000160009054906101000a900473ffffffffffffffffffffffffffffffffffffffff1673ffffffffffffffffffffffffffffffffffffffff163373ffffffffffffffffffffffffffffffffffffffff16145b151561130e57600080fd5b6003600481111561131b57fe5b81600a0160009054906101000a900460ff16600481111561133857fe5b1015151561134557600080fd5b80600401548160050160009054906101000a900473ffffffffffffffffffffffffffffffffffffffff1673ffffffffffffffffffffffffffffffffffffffff167fdccf2f8b2cc26eafcd61905cba744cff4b81d14740725f6376390dc6298a6a3c3385604051808373ffffffffffffffffffffffffffffffffffffffff1673ffffffffffffffffffffffffffffffffffffffff16815260200180602001828103825283818151815260200191508051906020019080838360005b8381101561141a5780820151818401526020810190506113ff565b50505050905090810190601f1680156114475780820380516001836020036101000a031916815260200191505b50935050505060405180910390a3505050565b6000808281548110151561146a57fe5b90600052602060002090600b020190508060010160009054906101000a900473ffffffffffffffffffffffffffffffffffffffff1673ffffffffffffffffffffffffffffffffffffffff163373ffffffffffffffffffffffffffffffffffffffff161415156114d857600080fd5b600160048111156114e557fe5b81600a0160009054906101000a900460ff16600481111561150257fe5b14151561150e57600080fd5b8060030154816009015401421015151561152757600080fd5b6115398160040154600160ff16611932565b5050565b600080610160604051908101604052808673ffffffffffffffffffffffffffffffffffffffff1681526020013373ffffffffffffffffffffffffffffffffffffffff168152602001348152602001878152602001600081526020018873ffffffffffffffffffffffffffffffffffffffff1681526020018581526020016000815260200160008152602001428152602001600060048111156115db57fe5b8152509080600181540180825580915050906001820390600052602060002090600b02016000909192909190915060008201518160000160006101000a81548173ffffffffffffffffffffffffffffffffffffffff021916908373ffffffffffffffffffffffffffffffffffffffff16021790555060208201518160010160006101000a81548173ffffffffffffffffffffffffffffffffffffffff021916908373ffffffffffffffffffffffffffffffffffffffff16021790555060408201518160020155606082015181600301556080820151816004015560a08201518160050160006101000a81548173ffffffffffffffffffffffffffffffffffffffff021916908373ffffffffffffffffffffffffffffffffffffffff16021790555060c0820151816006019080519060200190611718929190611fcc565b5060e082015181600701556101008201518160080155610120820151816009015561014082015181600a0160006101000a81548160ff0219169083600481111561175e57fe5b02179055505050506001600080549050037f61606860eb6c87306811e2695215385101daab53bd6ab4e9f9049aead9363c7d836040518080602001828103825283818151815260200191508051906020019080838360005b838110156117d15780820151818401526020810190506117b6565b50505050905090810190601f1680156117fe5780820380516001836020036101000a031916815260200191505b509250505060405180910390a2600160008054905003905095945050505050565b6000808381548110151561182f57fe5b90600052602060002090600b020190503373ffffffffffffffffffffffffffffffffffffffff168160000160009054906101000a900473ffffffffffffffffffffffffffffffffffffffff1673ffffffffffffffffffffffffffffffffffffffff1614151561189d57600080fd5b806002015482111515156118b057600080fd5b8060010160009054906101000a900473ffffffffffffffffffffffffffffffffffffffff1673ffffffffffffffffffffffffffffffffffffffff166108fc839081150290604051600060405180830381858888f1935050505015801561191a573d6000803e3d6000fd5b50818160020160008282540392505081905550505050565b600080600160003386604051808373ffffffffffffffffffffffffffffffffffffffff1673ffffffffffffffffffffffffffffffffffffffff166c01000000000000000000000000028152601401828152602001925050506040518091039020600019166000191681526020019081526020016000205491506000828154811015156119ba57fe5b90600052602060002090600b020190508060040154841415156119dc57600080fd5b600260ff1683111515156119ef57600080fd5b600260ff16831415611ad6578060000160009054906101000a900473ffffffffffffffffffffffffffffffffffffffff1673ffffffffffffffffffffffffffffffffffffffff166108fc8260080154836007015411611a52578260080154611a58565b82600701545b9081150290604051600060405180830381858888f19350505050508060000160009054906101000a900473ffffffffffffffffffffffffffffffffffffffff1673ffffffffffffffffffffffffffffffffffffffff166108fc82600201549081150290604051600060405180830381858888f1935050505050611bba565b600160ff16831415611bb9578060010160009054906101000a900473ffffffffffffffffffffffffffffffffffffffff1673ffffffffffffffffffffffffffffffffffffffff166108fc8260080154836007015411611b39578260080154611b3f565b82600701545b9081150290604051600060405180830381858888f19350505050508060010160009054906101000a900473ffffffffffffffffffffffffffffffffffffffff1673ffffffffffffffffffffffffffffffffffffffff166108fc82600201549081150290604051600060405180830381858888f19350505050505b5b60008160020181905550600481600a0160006101000a81548160ff02191690836004811115611be557fe5b021790555050505050565b60008083815481101515611c0057fe5b90600052602060002090600b02019050600381600a0160006101000a81548160ff02191690836004811115611c3157fe5b02179055508060050160009054906101000a900473ffffffffffffffffffffffffffffffffffffffff1673ffffffffffffffffffffffffffffffffffffffff1663c13517e1836002846006016040518463ffffffff167c0100000000000000000000000000000000000000000000000000000000028152600401808360ff16815260200180602001828103825283818154600181600116156101000203166002900481526020019150805460018160011615610100020316600290048015611d3a5780601f10611d0f57610100808354040283529160200191611d3a565b820191906000526020600020905b815481529060010190602001808311611d1d57829003601f168201915b505093505050506020604051808303818588803b158015611d5a57600080fd5b505af1158015611d6e573d6000803e3d6000fd5b50505050506040513d6020811015611d8557600080fd5b8101908080519060200190929190505050816004018190555082600160008360050160009054906101000a900473ffffffffffffffffffffffffffffffffffffffff168460040154604051808373ffffffffffffffffffffffffffffffffffffffff1673ffffffffffffffffffffffffffffffffffffffff166c01000000000000000000000000028152601401828152602001925050506040518091039020600019166000191681526020019081526020016000208190555080600401548160050160009054906101000a900473ffffffffffffffffffffffffffffffffffffffff1673ffffffffffffffffffffffffffffffffffffffff16847f48ee6379eff6a461bd453a61f98a54e6554b77e468c3b68d6af19f211963c29d6040805190810160405280601a81526020017f5265696d62757273652062757965723b5061792073656c6c65720000000000008152506040518080602001828103825283818151815260200191508051906020019080838360005b83811015611f16578082015181840152602081019050611efb565b50505050905090810190601f168015611f435780820380516001836020036101000a031916815260200191505b509250505060405180910390a480600401548160050160009054906101000a900473ffffffffffffffffffffffffffffffffffffffff1673ffffffffffffffffffffffffffffffffffffffff167f21da1f02e8071a7680b73ad6e5bc1aee1f8f0620a0a08a0333be1f0ca9dd7fec856040518082815260200191505060405180910390a3505050565b828054600181600116156101000203166002900490600052602060002090601f016020900481019282601f1061200d57805160ff191683800117855561203b565b8280016001018555821561203b579182015b8281111561203a57825182559160200191906001019061201f565b5b509050612048919061204c565b5090565b61206e91905b8082111561206a576000816000905550600101612052565b5090565b905600a165627a7a72305820260bf9280f15eab19a004cf535b68bbdef1027d43ab90506f354a15de8dc361b0029",
  "source": "/**\n *  @title Multiple Arbitrable Transaction\n *  Bug Bounties: This code hasn't undertaken a bug bounty program yet.\n */\n\n\npragma solidity ^0.4.15;\nimport \"./Arbitrator.sol\";\n\n/** @title Multiple Arbitrable Transaction\n *  This is a a contract for multiple arbitrated transactions which can be reversed by an arbitrator.\n *  This can be used for buying goods, services and for paying freelancers.\n *  Parties are identified as \"seller\" and \"buyer\".\n */\n contract MultipleArbitrableTransaction {\n    string constant RULING_OPTIONS = \"Reimburse buyer;Pay seller\";\n    uint8 constant AMOUNT_OF_CHOICES = 2;\n    uint8 constant BUYER_WINS = 1;\n    uint8 constant SELLER_WINS = 2;\n\n    enum Party {Seller, Buyer}\n\n    enum Status {NoDispute, WaitingSeller, WaitingBuyer, DisputeCreated, Resolved}\n\n    struct Transaction {\n        address seller;\n        address buyer;\n        uint256 amount;\n        uint256 timeout; // Time in seconds a party can take before being considered unresponding and lose the dispute.\n        uint disputeId;\n        Arbitrator arbitrator;\n        bytes arbitratorExtraData;\n        uint sellerFee; // Total fees paid by the seller.\n        uint buyerFee; // Total fees paid by the buyer.\n        uint lastInteraction; // Last interaction for the dispute procedure.\n        Status status;\n    }\n\n    Transaction[] public transactions;\n\n    mapping (bytes32 => uint) public disputeTxMap;\n\n    /** @dev Constructor.\n     */\n    constructor() public {\n    }\n\n    /** @dev To be raised when a dispute is created. The main purpose of this event is to let the arbitrator know the meaning ruling IDs.\n     *  @param _transactionId The index of the transaction in dispute.\n     *  @param _arbitrator The arbitrator of the contract.\n     *  @param _disputeID ID of the dispute in the Arbitrator contract.\n     *  @param _rulingOptions Map ruling IDs to short description of the ruling in a CSV format using \";\" as a delimiter. Note that ruling IDs start a 1. For example \"Send funds to buyer;Send funds to seller\", means that ruling 1 will make the contract send funds to the buyer and 2 to the seller.\n     */\n    event Dispute(uint indexed _transactionId, Arbitrator indexed _arbitrator, uint indexed _disputeID, string _rulingOptions);\n\n    /** @dev To be raised when a ruling is given.\n     *  @param _transactionId The index of the transaction in dispute.\n     *  @param _arbitrator The arbitrator giving the ruling.\n     *  @param _disputeID ID of the dispute in the Arbitrator contract.\n     *  @param _ruling The ruling which was given.\n     */\n    event Ruling(uint indexed _transactionId, Arbitrator indexed _arbitrator, uint indexed _disputeID, uint _ruling);\n\n    /** @dev To be emmited when meta-evidence is submitted.\n     *  @param _transactionId The index of the transaction.\n     *  @param _evidence A link to the meta-evidence JSON.\n     */\n    event MetaEvidence(uint indexed _transactionId, string _evidence);\n\n    /** @dev To be emmited when a dispute is created to link the correct meta-evidence to the disputeID.\n     *  @param _arbitrator The arbitrator of the contract.\n     *  @param _disputeID ID of the dispute in the Arbitrator contract.\n     *  @param _transactionId The index of the transaction.\n     */\n    event LinkMetaEvidence(Arbitrator indexed _arbitrator, uint indexed _disputeID, uint _transactionId);\n\n    /** @dev To be raised when evidence are submitted. Should point to the ressource (evidences are not to be stored on chain due to gas considerations).\n     *  @param _arbitrator The arbitrator of the contract.\n     *  @param _disputeID ID of the dispute in the Arbitrator contract.\n     *  @param _party The address of the party submiting the evidence. Note that 0 is kept for evidences not submitted by any party.\n     *  @param _evidence A link to evidence or if it is short the evidence itself. Can be web link (\"http://X\"), IPFS (\"ipfs:/X\") or another storing service (using the URI, see https://en.wikipedia.org/wiki/Uniform_Resource_Identifier ). One usecase of short evidence is to include the hash of the plain English contract.\n     */\n    event Evidence(Arbitrator indexed _arbitrator, uint indexed _disputeID, address _party, string _evidence);\n\n    /** @dev Indicate that a party has to pay a fee or would otherwise be considered as loosing.\n     *  @param _transactionId The index of the transaction.\n     *  @param _party The party who has to pay.\n     */\n    event HasToPayFee(uint indexed _transactionId, Party _party);\n\n    /** @dev Give a ruling for a dispute. Must be called by the arbitrator.\n     *  The purpose of this function is to ensure that the address calling it has the right to rule on the contract.\n     *  @param _disputeID ID of the dispute in the Arbitrator contract.\n     *  @param _ruling Ruling given by the arbitrator. Note that 0 is reserved for \"Not able/wanting to make a decision\".\n     */\n    function rule(uint _disputeID, uint _ruling) public {\n        uint transactionId = disputeTxMap[keccak256(msg.sender,_disputeID)];\n        Transaction storage transaction = transactions[transactionId];\n        require(msg.sender==address(transaction.arbitrator));\n\n        emit Ruling(transactionId, Arbitrator(msg.sender),_disputeID,_ruling);\n\n        executeRuling(_disputeID,_ruling);\n    }\n\n    /** @dev Pay the arbitration fee to raise a dispute. To be called by the seller. UNTRUSTED.\n     *  Note that the arbitrator can have createDispute throw, which will make this function throw and therefore lead to a party being timed-out.\n     *  This is not a vulnerability as the arbitrator can rule in favor of one party anyway.\n     *  @param _transactionId The index of the transaction.\n     */\n    function payArbitrationFeeBySeller(uint _transactionId) public payable {\n        Transaction storage transaction = transactions[_transactionId];\n        require(msg.sender == transaction.seller);\n\n\n        uint arbitrationCost = transaction.arbitrator.arbitrationCost(transaction.arbitratorExtraData);\n        transaction.sellerFee += msg.value;\n        require(transaction.sellerFee >= arbitrationCost); // Require that the total pay at least the arbitration cost.\n        require(transaction.status < Status.DisputeCreated); // Make sure a dispute has not been created yet.\n\n        transaction.lastInteraction = now;\n        if (transaction.buyerFee < arbitrationCost) { // The partyB still has to pay. This can also happens if he has paid, but arbitrationCost has increased.\n            transaction.status = Status.WaitingBuyer;\n            emit HasToPayFee(_transactionId, Party.Buyer);\n        } else { // The partyB has also paid the fee. We create the dispute\n            raiseDispute(_transactionId, arbitrationCost);\n        }\n    }\n\n    /** @dev Pay the arbitration fee to raise a dispute. To be called by the buyer. UNTRUSTED.\n     *  Note that this function mirror payArbitrationFeeBySeller.\n     *  @param _transactionId The index of the transaction.\n     */\n    function payArbitrationFeeByBuyer(uint _transactionId) public payable {\n        Transaction storage transaction = transactions[_transactionId];\n        require(msg.sender == transaction.buyer);\n\n        uint arbitrationCost = transaction.arbitrator.arbitrationCost(transaction.arbitratorExtraData);\n        transaction.buyerFee += msg.value;\n        require(transaction.buyerFee >= arbitrationCost); // Require that the total pay at least the arbitration cost.\n        require(transaction.status < Status.DisputeCreated); // Make sure a dispute has not been created yet.\n\n        transaction.lastInteraction = now;\n        if (transaction.sellerFee < arbitrationCost) { // The partyA still has to pay. This can also happens if he has paid, but arbitrationCost has increased.\n            transaction.status = Status.WaitingSeller;\n            emit HasToPayFee(_transactionId, Party.Seller);\n        } else { // The partyA has also paid the fee. We create the dispute\n            raiseDispute(_transactionId, arbitrationCost);\n        }\n    }\n\n    /** @dev Create a dispute. UNTRUSTED.\n     *  @param _transactionId The index of the transaction.\n     *  @param _arbitrationCost Amount to pay the arbitrator.\n     */\n    function raiseDispute(uint _transactionId, uint _arbitrationCost) internal {\n        Transaction storage transaction = transactions[_transactionId];\n        transaction.status = Status.DisputeCreated;\n        transaction.disputeId = transaction.arbitrator.createDispute.value(_arbitrationCost)(AMOUNT_OF_CHOICES,transaction.arbitratorExtraData);\n        disputeTxMap[keccak256(transaction.arbitrator, transaction.disputeId)] = _transactionId;\n        emit Dispute(_transactionId, transaction.arbitrator, transaction.disputeId,RULING_OPTIONS);\n        emit LinkMetaEvidence(transaction.arbitrator,transaction.disputeId,_transactionId);\n    }\n\n    /** @dev Reimburse partyA if partyB fails to pay the fee.\n     *  @param _transactionId The index of the transaction.\n     */\n    function timeOutBySeller(uint _transactionId) public {\n        Transaction storage transaction = transactions[_transactionId];\n        require(msg.sender == transaction.seller);\n\n\n        require(transaction.status==Status.WaitingBuyer);\n        require(now>=transaction.lastInteraction+transaction.timeout);\n\n        executeRuling(transaction.disputeId, SELLER_WINS);\n    }\n\n    /** @dev Pay partyB if partyA fails to pay the fee.\n     *  @param _transactionId The index of the transaction.\n     */\n    function timeOutByBuyer(uint _transactionId) public {\n        Transaction storage transaction = transactions[_transactionId];\n        require(msg.sender == transaction.buyer);\n\n\n        require(transaction.status == Status.WaitingSeller);\n        require(now>=transaction.lastInteraction+transaction.timeout);\n\n        executeRuling(transaction.disputeId,BUYER_WINS);\n    }\n\n    /** @dev Submit a reference to evidence. EVENT.\n     *  @param _transactionId The index of the transaction.\n     *  @param _evidence A link to an evidence using its URI.\n     */\n    function submitEvidence(uint _transactionId, string _evidence) public {\n        Transaction storage transaction = transactions[_transactionId];\n        require(msg.sender == transaction.buyer || msg.sender == transaction.seller);\n\n        require(transaction.status>=Status.DisputeCreated);\n        emit Evidence(transaction.arbitrator,transaction.disputeId,msg.sender,_evidence);\n    }\n\n    /** @dev Appeal an appealable ruling.\n     *  Transfer the funds to the arbitrator.\n     *  Note that no checks are required as the checks are done by the arbitrator.\n     *  @param _transactionId The index of the transaction.\n     *  @param _extraData Extra data for the arbitrator appeal procedure.\n     */\n    function appeal(uint _transactionId, bytes _extraData) payable public {\n        Transaction storage transaction = transactions[_transactionId];\n        require(msg.sender == transaction.buyer || msg.sender == transaction.seller);\n\n        transaction.arbitrator.appeal.value(msg.value)(transaction.disputeId,_extraData);\n    }\n\n    /** @dev\n     *  @param _arbitrator The arbitrator of the contract.\n     *  @param _timeout Time after which a party automatically loose a dispute.\n     *  @param _seller The recipient of the transaction.\n     *  @param _arbitratorExtraData Extra data for the arbitrator.\n     *  @param _metaEvidence Link to the meta-evidence.\n     */\n    function createTransaction(Arbitrator _arbitrator, uint _timeout, address _seller, bytes _arbitratorExtraData, string _metaEvidence) payable public returns (uint transactionIndex) {\n        transactions.push(Transaction({\n            seller: _seller,\n            buyer: msg.sender,\n            amount: msg.value,\n            timeout: _timeout,\n            arbitrator: _arbitrator,\n            arbitratorExtraData: _arbitratorExtraData,\n            disputeId: 0,\n            sellerFee: 0,\n            buyerFee: 0,\n            lastInteraction: now,\n            status: Status.NoDispute\n        }));\n        emit MetaEvidence(transactions.length - 1, _metaEvidence);\n        return transactions.length - 1;\n    }\n\n\n    /** @dev Transfer the transaction's amount to the seller if the timeout has passed\n     *  @param _transactionId The index of the transaction.\n     */\n    function withdraw(uint _transactionId) public {\n        Transaction storage transaction = transactions[_transactionId];\n        require(msg.sender == transaction.seller);\n        require(now >= transaction.lastInteraction+transaction.timeout);\n        require(transaction.status == Status.NoDispute);\n\n        transaction.seller.send(transaction.amount);\n        transaction.amount = 0;\n\n        transaction.status = Status.Resolved;\n    }\n\n    /** @dev Reimburse party A. To be called if the good or service can't be fully provided.\n     *  @param _transactionId The index of the transaction.\n     *  @param _amountReimbursed Amount to reimburse in wei.\n     */\n    function reimburse(uint _transactionId, uint _amountReimbursed) public {\n        Transaction storage transaction = transactions[_transactionId];\n        require(transaction.seller == msg.sender);\n        require(_amountReimbursed <= transaction.amount);\n\n        transaction.buyer.transfer(_amountReimbursed);\n        transaction.amount -= _amountReimbursed;\n    }\n\n    /** @dev Execute a ruling of a dispute. It reimburse the fee to the winning party.\n     *  This need to be extended by contract inheriting from it.\n     *  @param _disputeID ID of the dispute in the Arbitrator contract.\n     *  @param _ruling Ruling given by the arbitrator. 1 : Reimburse the partyA. 2 : Pay the partyB.\n     */\n    function executeRuling(uint _disputeID, uint _ruling) internal {\n        uint transactionId = disputeTxMap[keccak256(msg.sender,_disputeID)];\n        Transaction storage transaction = transactions[transactionId];\n\n        require(_disputeID == transaction.disputeId);\n        require(_ruling <= AMOUNT_OF_CHOICES);\n\n        // Give the arbitration fee back.\n        // Note that we use send to prevent a party from blocking the execution.\n        if (_ruling == SELLER_WINS) {\n            transaction.seller.send(transaction.sellerFee > transaction.buyerFee ? transaction.sellerFee : transaction.buyerFee); // In both cases sends the highest amount paid to avoid ETH to be stuck in the contract if the arbitrator lowers its fee.\n            transaction.seller.send(transaction.amount);\n        } else if (_ruling == BUYER_WINS) {\n            transaction.buyer.send(transaction.sellerFee > transaction.buyerFee ? transaction.sellerFee : transaction.buyerFee);\n            transaction.buyer.send(transaction.amount);\n        }\n\n        transaction.amount = 0;\n        transaction.status = Status.Resolved;\n    }\n}\n",
  "sourcePath": "/Users/epiqueras/Work/kleros/kleros-interaction/contracts/standard/arbitration/MultipleArbitrableTransaction.sol",
  "compiler": {
    "name": "solc",
    "version": "0.4.24+commit.e67f0147.Emscripten.clang"
  },
  "schemaVersion": "2.0.1",
  "updatedAt": "2018-07-17T16:56:20.166Z"
}