{
  "contractName": "PermissionList",
  "abi": [
    {
      "constant": false,
      "inputs": [],
      "name": "renounceOwnership",
      "outputs": [],
      "payable": false,
      "stateMutability": "nonpayable",
      "type": "function"
    },
    {
      "constant": true,
      "inputs": [],
      "name": "owner",
      "outputs": [
        {
          "name": "",
          "type": "address"
        }
      ],
      "payable": false,
      "stateMutability": "view",
      "type": "function"
    },
    {
      "constant": false,
      "inputs": [
        {
          "name": "_newOwner",
          "type": "address"
        }
      ],
      "name": "transferOwnership",
      "outputs": [],
      "payable": false,
      "stateMutability": "nonpayable",
      "type": "function"
    },
    {
      "inputs": [
        {
          "name": "_blacklist",
          "type": "bool"
        }
      ],
      "payable": false,
      "stateMutability": "nonpayable",
      "type": "constructor"
    },
    {
      "anonymous": false,
      "inputs": [
        {
          "indexed": true,
          "name": "previousOwner",
          "type": "address"
        }
      ],
      "name": "OwnershipRenounced",
      "type": "event"
    },
    {
      "anonymous": false,
      "inputs": [
        {
          "indexed": true,
          "name": "previousOwner",
          "type": "address"
        },
        {
          "indexed": true,
          "name": "newOwner",
          "type": "address"
        }
      ],
      "name": "OwnershipTransferred",
      "type": "event"
    },
    {
      "constant": false,
      "inputs": [
        {
          "name": "_value",
          "type": "bytes32"
        }
      ],
      "name": "add",
      "outputs": [],
      "payable": false,
      "stateMutability": "nonpayable",
      "type": "function"
    },
    {
      "constant": false,
      "inputs": [
        {
          "name": "_value",
          "type": "bytes32"
        }
      ],
      "name": "remove",
      "outputs": [],
      "payable": false,
      "stateMutability": "nonpayable",
      "type": "function"
    },
    {
      "constant": true,
      "inputs": [
        {
          "name": "_value",
          "type": "bytes32"
        }
      ],
      "name": "isPermitted",
      "outputs": [
        {
          "name": "allowed",
          "type": "bool"
        }
      ],
      "payable": false,
      "stateMutability": "view",
      "type": "function"
    }
  ],
  "bytecode": "0x608060405234801561001057600080fd5b5060405160208061067f83398101806040528101908080519060200190929190505050336000806101000a81548173ffffffffffffffffffffffffffffffffffffffff021916908373ffffffffffffffffffffffffffffffffffffffff16021790555080600060146101000a81548160ff021916908315150217905550506105e28061009d6000396000f300608060405260043610610078576000357c0100000000000000000000000000000000000000000000000000000000900463ffffffff168063446bffba1461007d578063715018a6146100ae5780638da5cb5b146100c557806395bc26731461011c578063beabdb7b1461014d578063f2fde38b14610196575b600080fd5b34801561008957600080fd5b506100ac60048036038101908080356000191690602001909291905050506101d9565b005b3480156100ba57600080fd5b506100c361026a565b005b3480156100d157600080fd5b506100da61036c565b604051808273ffffffffffffffffffffffffffffffffffffffff1673ffffffffffffffffffffffffffffffffffffffff16815260200191505060405180910390f35b34801561012857600080fd5b5061014b6004803603810190808035600019169060200190929190505050610391565b005b34801561015957600080fd5b5061017c6004803603810190808035600019169060200190929190505050610423565b604051808215151515815260200191505060405180910390f35b3480156101a257600080fd5b506101d7600480360381019080803573ffffffffffffffffffffffffffffffffffffffff169060200190929190505050610455565b005b6000809054906101000a900473ffffffffffffffffffffffffffffffffffffffff1673ffffffffffffffffffffffffffffffffffffffff163373ffffffffffffffffffffffffffffffffffffffff1614151561023457600080fd5b6001806000836000191660001916815260200190815260200160002060006101000a81548160ff02191690831515021790555050565b6000809054906101000a900473ffffffffffffffffffffffffffffffffffffffff1673ffffffffffffffffffffffffffffffffffffffff163373ffffffffffffffffffffffffffffffffffffffff161415156102c557600080fd5b6000809054906101000a900473ffffffffffffffffffffffffffffffffffffffff1673ffffffffffffffffffffffffffffffffffffffff167ff8df31144d9c2f0f6b59d69b8b98abd5459d07f2742c4df920b25aae33c6482060405160405180910390a260008060006101000a81548173ffffffffffffffffffffffffffffffffffffffff021916908373ffffffffffffffffffffffffffffffffffffffff160217905550565b6000809054906101000a900473ffffffffffffffffffffffffffffffffffffffff1681565b6000809054906101000a900473ffffffffffffffffffffffffffffffffffffffff1673ffffffffffffffffffffffffffffffffffffffff163373ffffffffffffffffffffffffffffffffffffffff161415156103ec57600080fd5b600060016000836000191660001916815260200190815260200160002060006101000a81548160ff02191690831515021790555050565b600060016000836000191660001916815260200190815260200160002060009054906101000a900460ff169050919050565b6000809054906101000a900473ffffffffffffffffffffffffffffffffffffffff1673ffffffffffffffffffffffffffffffffffffffff163373ffffffffffffffffffffffffffffffffffffffff161415156104b057600080fd5b6104b9816104bc565b50565b600073ffffffffffffffffffffffffffffffffffffffff168173ffffffffffffffffffffffffffffffffffffffff16141515156104f857600080fd5b8073ffffffffffffffffffffffffffffffffffffffff166000809054906101000a900473ffffffffffffffffffffffffffffffffffffffff1673ffffffffffffffffffffffffffffffffffffffff167f8be0079c531659141344cd1fd0a4f28419497f9722a3daafe3b4186f6b6457e060405160405180910390a3806000806101000a81548173ffffffffffffffffffffffffffffffffffffffff021916908373ffffffffffffffffffffffffffffffffffffffff160217905550505600a165627a7a7230582085ea4da397167f805f02433decc0efaed1ec8da07485813b852f98a2d01985220029",
  "source": "/**\n *  @title Permission List\n *  @author Clément Lesaege - <clement@lesaege.com>\n */\n\npragma solidity ^0.4.15;\n\nimport \"zeppelin-solidity/contracts/ownership/Ownable.sol\";\nimport \"./PermissionInterface.sol\";\n\n/**\n *  @title Permission List\n *  This is a permission list for arbitrary values. The owner can add or remove values. \n */\ncontract PermissionList is Ownable, PermissionInterface {\n    /* Storage */\n    \n    bool blacklist; // True if the list should function as a blacklist, false if it should function as a whitelist.\n    mapping(bytes32 => bool) list; // True if the value is registered.\n\n    /* Constructor */\n\n    /**\n     *  @dev Constructs the permission list and sets the type.\n     *  @param _blacklist True if the list should function as a blacklist, false if it should function as a whitelist.\n     */\n    function PermissionList(bool _blacklist) public {\n        blacklist = _blacklist;\n    }\n\n    /* Public */\n    \n    function add(bytes32 _value) public onlyOwner {\n        list[_value] = true;\n    }\n    \n    function remove(bytes32 _value) public onlyOwner {\n        list[_value] = false;\n    }\n\n    /* Public Views */\n    \n    /**\n     *  @dev Return true if the value is allowed.\n     *  @param _value The value we want to check.\n     *  @return allowed True if the value is allowed, false otherwise.\n     */\n    function isPermitted(bytes32 _value) public view returns (bool allowed) {\n        return list[_value];\n    }\n}\n",
  "sourcePath": "/Users/epiqueras/Work/kleros/kleros-interaction/contracts/standard/permission/PermissionList.sol",
  "compiler": {
    "name": "solc",
    "version": "0.4.23+commit.124ca40d.Emscripten.clang"
  },
  "schemaVersion": "2.0.0",
  "updatedAt": "2018-06-26T20:15:53.359Z"
}