{
  "contractName": "Rental",
  "abi": [
    {
      "constant": true,
      "inputs": [],
      "name": "damagesClaimedByPartyA",
      "outputs": [
        {
          "name": "",
          "type": "uint256"
        }
      ],
      "payable": false,
      "stateMutability": "view",
      "type": "function"
    },
    {
      "constant": false,
      "inputs": [
        {
          "name": "_extraData",
          "type": "bytes"
        }
      ],
      "name": "appeal",
      "outputs": [],
      "payable": true,
      "stateMutability": "payable",
      "type": "function"
    },
    {
      "constant": true,
      "inputs": [],
      "name": "arbitratorExtraData",
      "outputs": [
        {
          "name": "",
          "type": "bytes"
        }
      ],
      "payable": false,
      "stateMutability": "view",
      "type": "function"
    },
    {
      "constant": true,
      "inputs": [],
      "name": "partyA",
      "outputs": [
        {
          "name": "",
          "type": "address"
        }
      ],
      "payable": false,
      "stateMutability": "view",
      "type": "function"
    },
    {
      "constant": false,
      "inputs": [],
      "name": "timeOutByPartyA",
      "outputs": [],
      "payable": false,
      "stateMutability": "nonpayable",
      "type": "function"
    },
    {
      "constant": true,
      "inputs": [],
      "name": "status",
      "outputs": [
        {
          "name": "",
          "type": "uint8"
        }
      ],
      "payable": false,
      "stateMutability": "view",
      "type": "function"
    },
    {
      "constant": true,
      "inputs": [],
      "name": "partyB",
      "outputs": [
        {
          "name": "",
          "type": "address"
        }
      ],
      "payable": false,
      "stateMutability": "view",
      "type": "function"
    },
    {
      "constant": false,
      "inputs": [
        {
          "name": "_disputeID",
          "type": "uint256"
        },
        {
          "name": "_ruling",
          "type": "uint256"
        }
      ],
      "name": "rule",
      "outputs": [],
      "payable": false,
      "stateMutability": "nonpayable",
      "type": "function"
    },
    {
      "constant": true,
      "inputs": [],
      "name": "partyAFee",
      "outputs": [
        {
          "name": "",
          "type": "uint256"
        }
      ],
      "payable": false,
      "stateMutability": "view",
      "type": "function"
    },
    {
      "constant": true,
      "inputs": [],
      "name": "partyBFee",
      "outputs": [
        {
          "name": "",
          "type": "uint256"
        }
      ],
      "payable": false,
      "stateMutability": "view",
      "type": "function"
    },
    {
      "constant": true,
      "inputs": [],
      "name": "arbitrator",
      "outputs": [
        {
          "name": "",
          "type": "address"
        }
      ],
      "payable": false,
      "stateMutability": "view",
      "type": "function"
    },
    {
      "constant": true,
      "inputs": [],
      "name": "timeout",
      "outputs": [
        {
          "name": "",
          "type": "uint256"
        }
      ],
      "payable": false,
      "stateMutability": "view",
      "type": "function"
    },
    {
      "constant": true,
      "inputs": [],
      "name": "damagesClaimedByPartyB",
      "outputs": [
        {
          "name": "",
          "type": "uint256"
        }
      ],
      "payable": false,
      "stateMutability": "view",
      "type": "function"
    },
    {
      "constant": false,
      "inputs": [],
      "name": "timeOutByPartyB",
      "outputs": [],
      "payable": false,
      "stateMutability": "nonpayable",
      "type": "function"
    },
    {
      "constant": true,
      "inputs": [],
      "name": "lastInteraction",
      "outputs": [
        {
          "name": "",
          "type": "uint256"
        }
      ],
      "payable": false,
      "stateMutability": "view",
      "type": "function"
    },
    {
      "constant": false,
      "inputs": [],
      "name": "payArbitrationFeeByPartyA",
      "outputs": [],
      "payable": true,
      "stateMutability": "payable",
      "type": "function"
    },
    {
      "constant": true,
      "inputs": [],
      "name": "amount",
      "outputs": [
        {
          "name": "",
          "type": "uint256"
        }
      ],
      "payable": false,
      "stateMutability": "view",
      "type": "function"
    },
    {
      "constant": true,
      "inputs": [],
      "name": "disputeID",
      "outputs": [
        {
          "name": "",
          "type": "uint256"
        }
      ],
      "payable": false,
      "stateMutability": "view",
      "type": "function"
    },
    {
      "constant": false,
      "inputs": [],
      "name": "payArbitrationFeeByPartyB",
      "outputs": [],
      "payable": true,
      "stateMutability": "payable",
      "type": "function"
    },
    {
      "constant": false,
      "inputs": [
        {
          "name": "_evidence",
          "type": "string"
        }
      ],
      "name": "submitEvidence",
      "outputs": [],
      "payable": false,
      "stateMutability": "nonpayable",
      "type": "function"
    },
    {
      "inputs": [
        {
          "name": "_arbitrator",
          "type": "address"
        },
        {
          "name": "_hashContract",
          "type": "bytes32"
        },
        {
          "name": "_timeout",
          "type": "uint256"
        },
        {
          "name": "_partyB",
          "type": "address"
        },
        {
          "name": "_arbitratorExtraData",
          "type": "bytes"
        }
      ],
      "payable": true,
      "stateMutability": "payable",
      "type": "constructor"
    },
    {
      "anonymous": false,
      "inputs": [
        {
          "indexed": false,
          "name": "_party",
          "type": "uint8"
        }
      ],
      "name": "HasToPayFee",
      "type": "event"
    },
    {
      "anonymous": false,
      "inputs": [
        {
          "indexed": true,
          "name": "_arbitrator",
          "type": "address"
        },
        {
          "indexed": true,
          "name": "_disputeID",
          "type": "uint256"
        },
        {
          "indexed": false,
          "name": "_rulingOptions",
          "type": "string"
        }
      ],
      "name": "Dispute",
      "type": "event"
    },
    {
      "anonymous": false,
      "inputs": [
        {
          "indexed": true,
          "name": "_arbitrator",
          "type": "address"
        },
        {
          "indexed": true,
          "name": "_disputeID",
          "type": "uint256"
        },
        {
          "indexed": false,
          "name": "_ruling",
          "type": "uint256"
        }
      ],
      "name": "Ruling",
      "type": "event"
    },
    {
      "anonymous": false,
      "inputs": [
        {
          "indexed": true,
          "name": "_arbitrator",
          "type": "address"
        },
        {
          "indexed": true,
          "name": "_disputeID",
          "type": "uint256"
        },
        {
          "indexed": false,
          "name": "_party",
          "type": "address"
        },
        {
          "indexed": false,
          "name": "_evidence",
          "type": "string"
        }
      ],
      "name": "Evidence",
      "type": "event"
    },
    {
      "anonymous": false,
      "inputs": [
        {
          "indexed": false,
          "name": "_contractHash",
          "type": "bytes32"
        }
      ],
      "name": "ContractHash",
      "type": "event"
    },
    {
      "constant": false,
      "inputs": [
        {
          "name": "_damages",
          "type": "uint256"
        }
      ],
      "name": "claimDamages",
      "outputs": [],
      "payable": false,
      "stateMutability": "nonpayable",
      "type": "function"
    },
    {
      "constant": false,
      "inputs": [],
      "name": "forfeitDeposit",
      "outputs": [],
      "payable": false,
      "stateMutability": "nonpayable",
      "type": "function"
    },
    {
      "constant": false,
      "inputs": [],
      "name": "unlockDeposit",
      "outputs": [],
      "payable": false,
      "stateMutability": "nonpayable",
      "type": "function"
    }
  ],
  "bytecode": "0x608060405260405162001e9a38038062001e9a83398101806040528101908080519060200190929190805190602001909291908051906020019092919080519060200190929190805182019291905050508484848484848185826000806101000a81548173ffffffffffffffffffffffffffffffffffffffff021916908373ffffffffffffffffffffffffffffffffffffffff1602179055508160019080519060200190620000b09291906200019c565b507f1892820d22f2ab2b60795935d39550f42562bf8862a0b3c2193b095baa40af218160405180826000191660001916815260200191505060405180910390a15050508260028190555033600360006101000a81548173ffffffffffffffffffffffffffffffffffffffff021916908373ffffffffffffffffffffffffffffffffffffffff16021790555081600460006101000a81548173ffffffffffffffffffffffffffffffffffffffff021916908373ffffffffffffffffffffffffffffffffffffffff160217905550505050505034600a6000828254019250508190555050505050506200024b565b828054600181600116156101000203166002900490600052602060002090601f016020900481019282601f10620001df57805160ff191683800117855562000210565b8280016001018555821562000210579182015b828111156200020f578251825591602001919060010190620001f2565b5b5090506200021f919062000223565b5090565b6200024891905b80821115620002445760008160009055506001016200022a565b5090565b90565b611c3f806200025b6000396000f300608060405260043610610133576000357c0100000000000000000000000000000000000000000000000000000000900463ffffffff1680630379e15714610138578063069fae2a146101635780630c7ac7b6146101bf57806310e1d8ca1461024f57806319e2641e146102a6578063200d2ed2146102bd57806329040113146102f6578063311a6c561461034d578063377a368c146103845780634b40c9741461039b578063512491f1146103c65780636cc6cde1146103f157806370dea79a146104485780637d1057ad14610473578063853c80ce1461049e5780638f71a265146104b5578063939998be146104e0578063a0109631146104f7578063a989eeb614610501578063aa8c217c1461052e578063b0a1e2b414610559578063b1bcce3a14610584578063bac91e2e1461058e575b600080fd5b34801561014457600080fd5b5061014d6105f7565b6040518082815260200191505060405180910390f35b6101bd600480360381019080803590602001908201803590602001908080601f01602080910402602001604051908101604052809392919081815260200183838082843782019150505050505091929192905050506105fd565b005b3480156101cb57600080fd5b506101d46107cc565b6040518080602001828103825283818151815260200191508051906020019080838360005b838110156102145780820151818401526020810190506101f9565b50505050905090810190601f1680156102415780820380516001836020036101000a031916815260200191505b509250505060405180910390f35b34801561025b57600080fd5b5061026461086a565b604051808273ffffffffffffffffffffffffffffffffffffffff1673ffffffffffffffffffffffffffffffffffffffff16815260200191505060405180910390f35b3480156102b257600080fd5b506102bb610890565b005b3480156102c957600080fd5b506102d2610947565b604051808260048111156102e257fe5b60ff16815260200191505060405180910390f35b34801561030257600080fd5b5061030b61095a565b604051808273ffffffffffffffffffffffffffffffffffffffff1673ffffffffffffffffffffffffffffffffffffffff16815260200191505060405180910390f35b34801561035957600080fd5b506103826004803603810190808035906020019092919080359060200190929190505050610980565b005b34801561039057600080fd5b50610399610a38565b005b3480156103a757600080fd5b506103b0610b09565b6040518082815260200191505060405180910390f35b3480156103d257600080fd5b506103db610b0f565b6040518082815260200191505060405180910390f35b3480156103fd57600080fd5b50610406610b15565b604051808273ffffffffffffffffffffffffffffffffffffffff1673ffffffffffffffffffffffffffffffffffffffff16815260200191505060405180910390f35b34801561045457600080fd5b5061045d610b3a565b6040518082815260200191505060405180910390f35b34801561047f57600080fd5b50610488610b40565b6040518082815260200191505060405180910390f35b3480156104aa57600080fd5b506104b3610b46565b005b3480156104c157600080fd5b506104ca610bfd565b6040518082815260200191505060405180910390f35b3480156104ec57600080fd5b506104f5610c03565b005b6104ff610cd4565b005b34801561050d57600080fd5b5061052c60048036038101908080359060200190929190505050610f63565b005b34801561053a57600080fd5b506105436111f2565b6040518082815260200191505060405180910390f35b34801561056557600080fd5b5061056e6111f8565b6040518082815260200191505060405180910390f35b61058c6111fe565b005b34801561059a57600080fd5b506105f5600480360381019080803590602001908201803590602001908080601f016020809104026020016040519081016040528093929190818152602001838380828437820191505050505050919291929050505061148d565b005b600b5481565b600360009054906101000a900473ffffffffffffffffffffffffffffffffffffffff1673ffffffffffffffffffffffffffffffffffffffff163373ffffffffffffffffffffffffffffffffffffffff1614806106a65750600460009054906101000a900473ffffffffffffffffffffffffffffffffffffffff1673ffffffffffffffffffffffffffffffffffffffff163373ffffffffffffffffffffffffffffffffffffffff16145b15156106b157600080fd5b6000809054906101000a900473ffffffffffffffffffffffffffffffffffffffff1673ffffffffffffffffffffffffffffffffffffffff166349912f8834600854846040518463ffffffff167c01000000000000000000000000000000000000000000000000000000000281526004018083815260200180602001828103825283818151815260200191508051906020019080838360005b83811015610764578082015181840152602081019050610749565b50505050905090810190601f1680156107915780820380516001836020036101000a031916815260200191505b5093505050506000604051808303818588803b1580156107b057600080fd5b505af11580156107c4573d6000803e3d6000fd5b505050505050565b60018054600181600116156101000203166002900480601f0160208091040260200160405190810160405280929190818152602001828054600181600116156101000203166002900480156108625780601f1061083757610100808354040283529160200191610862565b820191906000526020600020905b81548152906001019060200180831161084557829003601f168201915b505050505081565b600360009054906101000a900473ffffffffffffffffffffffffffffffffffffffff1681565b600360009054906101000a900473ffffffffffffffffffffffffffffffffffffffff1673ffffffffffffffffffffffffffffffffffffffff163373ffffffffffffffffffffffffffffffffffffffff161415156108ec57600080fd5b600260048111156108f957fe5b600960009054906101000a900460ff16600481111561091457fe5b14151561092057600080fd5b60025460075401421015151561093557600080fd5b610945600854600160ff16611684565b565b600960009054906101000a900460ff1681565b600460009054906101000a900473ffffffffffffffffffffffffffffffffffffffff1681565b6000809054906101000a900473ffffffffffffffffffffffffffffffffffffffff1673ffffffffffffffffffffffffffffffffffffffff163373ffffffffffffffffffffffffffffffffffffffff161415156109db57600080fd5b813373ffffffffffffffffffffffffffffffffffffffff167f394027a5fa6e098a1191094d1719d6929b9abc535fcc0c8f448d6a4e75622276836040518082815260200191505060405180910390a3610a348282611684565b5050565b600460009054906101000a900473ffffffffffffffffffffffffffffffffffffffff1673ffffffffffffffffffffffffffffffffffffffff163373ffffffffffffffffffffffffffffffffffffffff16141515610a9457600080fd5b600360009054906101000a900473ffffffffffffffffffffffffffffffffffffffff1673ffffffffffffffffffffffffffffffffffffffff166108fc600a549081150290604051600060405180830381858888f19350505050158015610afe573d6000803e3d6000fd5b506000600a81905550565b60055481565b60065481565b6000809054906101000a900473ffffffffffffffffffffffffffffffffffffffff1681565b60025481565b600c5481565b600460009054906101000a900473ffffffffffffffffffffffffffffffffffffffff1673ffffffffffffffffffffffffffffffffffffffff163373ffffffffffffffffffffffffffffffffffffffff16141515610ba257600080fd5b60016004811115610baf57fe5b600960009054906101000a900460ff166004811115610bca57fe5b141515610bd657600080fd5b600254600754014210151515610beb57600080fd5b610bfb600854600260ff16611684565b565b60075481565b600360009054906101000a900473ffffffffffffffffffffffffffffffffffffffff1673ffffffffffffffffffffffffffffffffffffffff163373ffffffffffffffffffffffffffffffffffffffff16141515610c5f57600080fd5b600460009054906101000a900473ffffffffffffffffffffffffffffffffffffffff1673ffffffffffffffffffffffffffffffffffffffff166108fc600a549081150290604051600060405180830381858888f19350505050158015610cc9573d6000803e3d6000fd5b506000600a81905550565b6000600360009054906101000a900473ffffffffffffffffffffffffffffffffffffffff1673ffffffffffffffffffffffffffffffffffffffff163373ffffffffffffffffffffffffffffffffffffffff16141515610d3257600080fd5b6000809054906101000a900473ffffffffffffffffffffffffffffffffffffffff1673ffffffffffffffffffffffffffffffffffffffff1663f7434ea960016040518263ffffffff167c01000000000000000000000000000000000000000000000000000000000281526004018080602001828103825283818154600181600116156101000203166002900481526020019150805460018160011615610100020316600290048015610e255780601f10610dfa57610100808354040283529160200191610e25565b820191906000526020600020905b815481529060010190602001808311610e0857829003601f168201915b505092505050602060405180830381600087803b158015610e4557600080fd5b505af1158015610e59573d6000803e3d6000fd5b505050506040513d6020811015610e6f57600080fd5b810190808051906020019092919050505090503460056000828254019250508190555080600554141515610ea257600080fd5b60036004811115610eaf57fe5b600960009054906101000a900460ff166004811115610eca57fe5b101515610ed657600080fd5b42600781905550806006541015610f56576002600960006101000a81548160ff02191690836004811115610f0657fe5b02179055507fba8db766b5582c21593909b57af48297714ea2c508bfff6c537ce36bb853e568600160405180826001811115610f3e57fe5b60ff16815260200191505060405180910390a1610f60565b610f5f81611839565b5b50565b600360009054906101000a900473ffffffffffffffffffffffffffffffffffffffff1673ffffffffffffffffffffffffffffffffffffffff163373ffffffffffffffffffffffffffffffffffffffff16148061100c5750600460009054906101000a900473ffffffffffffffffffffffffffffffffffffffff1673ffffffffffffffffffffffffffffffffffffffff163373ffffffffffffffffffffffffffffffffffffffff16145b151561101757600080fd5b6003600481111561102457fe5b600960009054906101000a900460ff16600481111561103f57fe5b10151561104b57600080fd5b6000811415151561105b57600080fd5b600a54811115151561106c57600080fd5b600360009054906101000a900473ffffffffffffffffffffffffffffffffffffffff1673ffffffffffffffffffffffffffffffffffffffff163373ffffffffffffffffffffffffffffffffffffffff1614156110ce5780600b819055506110d6565b80600c819055505b600c54600b5414156111ef57600360009054906101000a900473ffffffffffffffffffffffffffffffffffffffff1673ffffffffffffffffffffffffffffffffffffffff166108fc600554600c54600a5403019081150290604051600060405180830381858888f1935050505050600460009054906101000a900473ffffffffffffffffffffffffffffffffffffffff1673ffffffffffffffffffffffffffffffffffffffff166108fc600654600c54019081150290604051600060405180830381858888f19350505050506000600b819055506000600c81905550600060058190555060006006819055506000600a819055506004600960006101000a81548160ff021916908360048111156111e957fe5b02179055505b50565b600a5481565b60085481565b6000600460009054906101000a900473ffffffffffffffffffffffffffffffffffffffff1673ffffffffffffffffffffffffffffffffffffffff163373ffffffffffffffffffffffffffffffffffffffff1614151561125c57600080fd5b6000809054906101000a900473ffffffffffffffffffffffffffffffffffffffff1673ffffffffffffffffffffffffffffffffffffffff1663f7434ea960016040518263ffffffff167c0100000000000000000000000000000000000000000000000000000000028152600401808060200182810382528381815460018160011615610100020316600290048152602001915080546001816001161561010002031660029004801561134f5780601f106113245761010080835404028352916020019161134f565b820191906000526020600020905b81548152906001019060200180831161133257829003601f168201915b505092505050602060405180830381600087803b15801561136f57600080fd5b505af1158015611383573d6000803e3d6000fd5b505050506040513d602081101561139957600080fd5b8101908080519060200190929190505050905034600660008282540192505081905550806006541415156113cc57600080fd5b600360048111156113d957fe5b600960009054906101000a900460ff1660048111156113f457fe5b10151561140057600080fd5b42600781905550806005541015611480576001600960006101000a81548160ff0219169083600481111561143057fe5b02179055507fba8db766b5582c21593909b57af48297714ea2c508bfff6c537ce36bb853e56860006040518082600181111561146857fe5b60ff16815260200191505060405180910390a161148a565b61148981611839565b5b50565b600360009054906101000a900473ffffffffffffffffffffffffffffffffffffffff1673ffffffffffffffffffffffffffffffffffffffff163373ffffffffffffffffffffffffffffffffffffffff1614806115365750600460009054906101000a900473ffffffffffffffffffffffffffffffffffffffff1673ffffffffffffffffffffffffffffffffffffffff163373ffffffffffffffffffffffffffffffffffffffff16145b151561154157600080fd5b6003600481111561154e57fe5b600960009054906101000a900460ff16600481111561156957fe5b1015151561157657600080fd5b6008546000809054906101000a900473ffffffffffffffffffffffffffffffffffffffff1673ffffffffffffffffffffffffffffffffffffffff167fdccf2f8b2cc26eafcd61905cba744cff4b81d14740725f6376390dc6298a6a3c3384604051808373ffffffffffffffffffffffffffffffffffffffff1673ffffffffffffffffffffffffffffffffffffffff16815260200180602001828103825283818151815260200191508051906020019080838360005b8381101561164657808201518184015260208101905061162b565b50505050905090810190601f1680156116735780820380516001836020036101000a031916815260200191505b50935050505060405180910390a350565b61168e8282611acd565b600160ff1681141561175757600360009054906101000a900473ffffffffffffffffffffffffffffffffffffffff1673ffffffffffffffffffffffffffffffffffffffff166108fc600b54600a54039081150290604051600060405180830381858888f1935050505050600460009054906101000a900473ffffffffffffffffffffffffffffffffffffffff1673ffffffffffffffffffffffffffffffffffffffff166108fc600b549081150290604051600060405180830381858888f193505050505061181d565b600260ff1681141561181c57600360009054906101000a900473ffffffffffffffffffffffffffffffffffffffff1673ffffffffffffffffffffffffffffffffffffffff166108fc600c54600a54039081150290604051600060405180830381858888f1935050505050600460009054906101000a900473ffffffffffffffffffffffffffffffffffffffff1673ffffffffffffffffffffffffffffffffffffffff166108fc600c549081150290604051600060405180830381858888f19350505050505b5b6000600a819055506000600b819055506000600c819055505050565b6003600960006101000a81548160ff0219169083600481111561185857fe5b02179055506000809054906101000a900473ffffffffffffffffffffffffffffffffffffffff1673ffffffffffffffffffffffffffffffffffffffff1663c13517e182600260016040518463ffffffff167c0100000000000000000000000000000000000000000000000000000000028152600401808360ff1681526020018060200182810382528381815460018160011615610100020316600290048152602001915080546001816001161561010002031660029004801561195c5780601f106119315761010080835404028352916020019161195c565b820191906000526020600020905b81548152906001019060200180831161193f57829003601f168201915b505093505050506020604051808303818588803b15801561197c57600080fd5b505af1158015611990573d6000803e3d6000fd5b50505050506040513d60208110156119a757600080fd5b81019080805190602001909291905050506008819055506008546000809054906101000a900473ffffffffffffffffffffffffffffffffffffffff1673ffffffffffffffffffffffffffffffffffffffff167f775071bee3f2d409883bcb9dfcef6befa9343668ab341f76fcc5817b52a126116040805190810160405280601981526020017f506172747920412077696e733b506172747920422077696e73000000000000008152506040518080602001828103825283818151815260200191508051906020019080838360005b83811015611a90578082015181840152602081019050611a75565b50505050905090810190601f168015611abd5780820380516001836020036101000a031916815260200191505b509250505060405180910390a350565b60085482141515611add57600080fd5b600260ff168111151515611af057600080fd5b600160ff16811415611b6f57600360009054906101000a900473ffffffffffffffffffffffffffffffffffffffff1673ffffffffffffffffffffffffffffffffffffffff166108fc60065460055411611b4b57600654611b4f565b6005545b9081150290604051600060405180830381858888f1935050505050611beb565b600260ff16811415611bea57600460009054906101000a900473ffffffffffffffffffffffffffffffffffffffff1673ffffffffffffffffffffffffffffffffffffffff166108fc60065460055411611bca57600654611bce565b6005545b9081150290604051600060405180830381858888f19350505050505b5b6004600960006101000a81548160ff02191690836004811115611c0a57fe5b021790555050505600a165627a7a7230582032b49b1977a7d996e0aad4f4bd01c5e6428d847dfc32bc428738df7e8af584470029",
  "source": "/**\n *  @title Rental\n *  @author Clément Lesaege - <clement@lesaege.com>\n *  Bug Bounties: This code hasn't undertaken a bug bounty program yet.\n */\n\n\npragma solidity ^0.4.15;\nimport \"./TwoPartyArbitrable.sol\";\n\n/** @title Rental\n *  This is a a contract for rental agreement.\n *  This can be used to rent objects or properties.\n *  Party A is the renter. Party B is the owner.\n *  Party A put a deposit. If everything goes well, it will be given back. \n *  Otherwize parties can claim an amount of damages. If they disagree, the arbitrator will have to solve this dispute.\n */\n contract Rental is TwoPartyArbitrable {\n    string constant RULING_OPTIONS = \"Rule for party A (renter);Rule for Party B (owner)\";\n    \n    uint public amount; // Amount sent by party A.\n    uint public damagesClaimedByPartyA; // The amount party A agrees to pay to compensate damages.\n    uint public damagesClaimedByPartyB; // The amount party B claims to compensate damages.\n    \n    /** @dev Constructor. Choose the arbitrator. Should be called by party A (the payer).\n     *  @param _arbitrator The arbitrator of the contract.\n     *  @param _hashContract Keccak hash of the plain English contract.\n     *  @param _timeout Time after which a party automatically loose a dispute.\n     *  @param _partyB The owner.\n     *  @param _arbitratorExtraData Extra data for the arbitrator.\n     */\n    function Rental(Arbitrator _arbitrator, bytes32 _hashContract, uint _timeout, address _partyB, bytes _arbitratorExtraData) public TwoPartyArbitrable(_arbitrator,_hashContract,_timeout,_partyB,_arbitratorExtraData) payable {\n        amount+=msg.value;\n    }\n\n    /** @dev Claim an amount of damages.\n     *  Must be called before the dispute is created.\n     *  If the amount agreed is the same for both, pay it.\n     *  @param _damages The amount asked or agreed to be paid.\n     */\n    function claimDamages(uint _damages) public onlyParty {\n        require(status<Status.DisputeCreated); // Make sure that parties can't change when a dispute already started.\n        require(_damages!=0); // Needed to avoid claiming 0 first and triggering an agreement. Use forfeitDeposit and unlockDeposit for the cases where 0 is claimed.\n        require(_damages<=amount); // Make sure not to claim more than the contract has.\n        \n        if (msg.sender==partyA)\n            damagesClaimedByPartyA=_damages;\n        else\n            damagesClaimedByPartyB=_damages;\n            \n        if (damagesClaimedByPartyA==damagesClaimedByPartyB) { // If there is an agreement.\n            partyA.send((amount-damagesClaimedByPartyB)+partyAFee);\n            partyB.send(damagesClaimedByPartyB+partyBFee);\n            damagesClaimedByPartyA=0;\n            damagesClaimedByPartyB=0;\n            partyAFee=0;\n            partyBFee=0;\n            amount=0;\n            status=Status.Resolved;\n        }\n    }\n    \n\n    \n\n    /** @dev Forfeit the deposit to party B.\n     *  To be called if the good has been completely broken or that the property damages exceed the deposit.\n     */\n    function forfeitDeposit() public onlyPartyA {\n        partyB.transfer(amount);\n        amount=0;\n    }\n    \n    /** @dev Unlock party A deposit. To be called if the good or property has been returned without damages.\n     */\n    function unlockDeposit() public onlyPartyB {\n        partyA.transfer(amount);\n        amount=0;\n    }\n    \n    /** @dev Execute a ruling of a dispute. It reimburse the fee to the winning party.\n     *  This need to be extended by contract inheriting from it.\n     *  @param _disputeID ID of the dispute in the Arbitrator contract.\n     *  @param _ruling Ruling given by the arbitrator. 1 : Rule for party A (renter). 2 : Rule for Party B (owner).\n     */\n    function executeRuling(uint _disputeID, uint _ruling) internal {\n        super.executeRuling(_disputeID,_ruling);\n        if (_ruling==PARTY_A_WINS) {\n            partyA.send(amount-damagesClaimedByPartyA);\n            partyB.send(damagesClaimedByPartyA);\n        }\n        else if (_ruling==PARTY_B_WINS) {\n            partyA.send(amount-damagesClaimedByPartyB);\n            partyB.send(damagesClaimedByPartyB);\n        }\n        \n        amount=0;\n        damagesClaimedByPartyA=0;\n        damagesClaimedByPartyB=0;\n    }\n    \n    \n }\n \n",
  "sourcePath": "/Users/epiqueras/Work/kleros/kleros-interaction/contracts/standard/arbitration/Rental.sol",
  "compiler": {
    "name": "solc",
    "version": "0.4.23+commit.124ca40d.Emscripten.clang"
  },
  "schemaVersion": "2.0.0",
  "updatedAt": "2018-06-26T20:15:53.348Z"
}