{
  "contractName": "TrustedRNG",
  "abi": [
    {
      "constant": true,
      "inputs": [
        {
          "name": "_block",
          "type": "uint256"
        }
      ],
      "name": "getUncorrelatedRN",
      "outputs": [
        {
          "name": "RN",
          "type": "uint256"
        }
      ],
      "payable": false,
      "stateMutability": "view",
      "type": "function"
    },
    {
      "constant": false,
      "inputs": [
        {
          "name": "_block",
          "type": "uint256"
        }
      ],
      "name": "requestRN",
      "outputs": [],
      "payable": true,
      "stateMutability": "payable",
      "type": "function"
    },
    {
      "constant": true,
      "inputs": [],
      "name": "owner",
      "outputs": [
        {
          "name": "",
          "type": "address"
        }
      ],
      "payable": false,
      "stateMutability": "view",
      "type": "function"
    },
    {
      "constant": true,
      "inputs": [
        {
          "name": "",
          "type": "uint256"
        }
      ],
      "name": "reward",
      "outputs": [
        {
          "name": "",
          "type": "uint256"
        }
      ],
      "payable": false,
      "stateMutability": "view",
      "type": "function"
    },
    {
      "constant": true,
      "inputs": [
        {
          "name": "",
          "type": "uint256"
        }
      ],
      "name": "randomNumber",
      "outputs": [
        {
          "name": "",
          "type": "uint256"
        }
      ],
      "payable": false,
      "stateMutability": "view",
      "type": "function"
    },
    {
      "constant": false,
      "inputs": [
        {
          "name": "_block",
          "type": "uint256"
        }
      ],
      "name": "contribute",
      "outputs": [],
      "payable": true,
      "stateMutability": "payable",
      "type": "function"
    },
    {
      "constant": false,
      "inputs": [
        {
          "name": "_block",
          "type": "uint256"
        },
        {
          "name": "_RN",
          "type": "uint256"
        }
      ],
      "name": "giveRN",
      "outputs": [],
      "payable": false,
      "stateMutability": "nonpayable",
      "type": "function"
    },
    {
      "constant": true,
      "inputs": [
        {
          "name": "_block",
          "type": "uint256"
        }
      ],
      "name": "getRN",
      "outputs": [
        {
          "name": "RN",
          "type": "uint256"
        }
      ],
      "payable": false,
      "stateMutability": "view",
      "type": "function"
    }
  ],
  "bytecode": "0x6080604052336000806101000a81548173ffffffffffffffffffffffffffffffffffffffff021916908373ffffffffffffffffffffffffffffffffffffffff16021790555034801561005057600080fd5b5061054f806100606000396000f30060806040526004361061008e576000357c0100000000000000000000000000000000000000000000000000000000900463ffffffff1680631c73601e146100935780637b9c34e0146100d45780638da5cb5b146100f4578063a9fb763c1461014b578063c1cbbca71461018c578063ca4742f1146101ac578063ef655ebb146101ed578063f970dd0214610224575b600080fd5b34801561009f57600080fd5b506100be60048036038101908080359060200190929190505050610265565b6040518082815260200191505060405180910390f35b6100f2600480360381019080803590602001909291905050506102eb565b005b34801561010057600080fd5b506101096102f7565b604051808273ffffffffffffffffffffffffffffffffffffffff1673ffffffffffffffffffffffffffffffffffffffff16815260200191505060405180910390f35b34801561015757600080fd5b506101766004803603810190808035906020019092919050505061031c565b6040518082815260200191505060405180910390f35b6101aa60048036038101908080359060200190929190505050610334565b005b3480156101b857600080fd5b506101d7600480360381019080803590602001909291905050506103d2565b6040518082815260200191505060405180910390f35b3480156101f957600080fd5b5061022260048036038101908080359060200190929190803590602001909291905050506103ef565b005b34801561023057600080fd5b5061024f6004803603810190808035906020019092919050505061050b565b6040518082815260200191505060405180910390f35b600080610271836103d2565b9050600081141561028557600091506102e5565b3381604051808373ffffffffffffffffffffffffffffffffffffffff1673ffffffffffffffffffffffffffffffffffffffff166c010000000000000000000000000281526014018281526020019250505060405180910390206001900491505b50919050565b6102f481610334565b50565b6000809054906101000a900473ffffffffffffffffffffffffffffffffffffffff1681565b60026020528060005260406000206000915090505481565b600060016000838152602001908152602001600020541415156103ad576000809054906101000a900473ffffffffffffffffffffffffffffffffffffffff1673ffffffffffffffffffffffffffffffffffffffff166108fc349081150290604051600060405180830381858888f19350505050506103cf565b3460026000838152602001908152602001600020600082825401925050819055505b50565b600060016000838152602001908152602001600020549050919050565b6000809054906101000a900473ffffffffffffffffffffffffffffffffffffffff1673ffffffffffffffffffffffffffffffffffffffff163373ffffffffffffffffffffffffffffffffffffffff1614151561044a57600080fd5b6000600160008481526020019081526020016000205414151561046c57600080fd5b6000809054906101000a900473ffffffffffffffffffffffffffffffffffffffff1673ffffffffffffffffffffffffffffffffffffffff166108fc60026000858152602001908152602001600020549081150290604051600060405180830381858888f1935050505050806001600084815260200190815260200160002081905550600060026000848152602001908152602001600020819055505050565b600160205280600052604060002060009150905054815600a165627a7a72305820f53e7054d51fe6fd43763d17f154e33cb36bb56f6a81ac0d643b1fe38a52dcd10029",
  "source": "/**\n *  @title Random Number Generator based on a trusted party.\n *  @author Clément Lesaege - <clement@lesaege.com>\n *  \n *  This contract implement the RNG standard and rely on a trusted party to give a random number.\n * \n */\npragma solidity ^0.4.15;\n \nimport \"./RNG.sol\";\n\n/** Simple Random Number Generator based on a trusted third party.\n *  The trusted third party determine the random number and get all the contributions.\n */\ncontract TrustedRNG is RNG {\n    \n    address public owner=msg.sender; // The operator of this RNG.\n    mapping (uint => uint) public randomNumber; // RN[block] is the random number for this block 0 otherwise.\n    mapping (uint => uint) public reward; // reward[block] is the amount to be paid to the party w.\n    \n    modifier onlyOwner() {require(msg.sender==owner); _;}\n    \n    /** @dev Contribute to the reward of a random number.\n     *  @param _block Block the random number is linked to.\n     */\n    function contribute(uint _block) public payable {\n        if (randomNumber[_block]!=0)\n            owner.send(msg.value); // The random number has already been given, pay the operator. If send fails it's not an issue.\n        else \n            reward[_block]+=msg.value;\n    }\n    \n    /** @dev Give a random number. To be called by the operator.\n     *  @param _block Block the random number is linked to.\n     *  @param _RN The random number given by the trusted party.\n     */\n    function giveRN(uint _block, uint _RN) public onlyOwner {\n        require(randomNumber[_block]==0); // Prevent the operator from changing a RN.\n        \n        owner.send(reward[_block]); // If send fails it's not an issue.\n        randomNumber[_block]=_RN;\n        reward[_block]=0;\n    }\n    \n    /** @dev Get the random number.\n     *  @param _block Block the random number is linked to.\n     *  @return RN Random Number. If the number is not ready or has not been requested 0 instead.\n     */\n    function getRN(uint _block) public constant returns (uint RN) {\n        return randomNumber[_block];\n    }\n    \n}\n",
  "sourcePath": "/Users/epiqueras/Work/kleros/kleros-interaction/contracts/standard/rng/TrustedRNG.sol",
  "compiler": {
    "name": "solc",
    "version": "0.4.23+commit.124ca40d.Emscripten.clang"
  },
  "schemaVersion": "2.0.0",
  "updatedAt": "2018-06-26T20:15:53.363Z"
}