{
  "contractName": "TwoPartyArbitrable",
  "abi": [
    {
      "constant": true,
      "inputs": [],
      "name": "arbitratorExtraData",
      "outputs": [
        {
          "name": "",
          "type": "bytes"
        }
      ],
      "payable": false,
      "stateMutability": "view",
      "type": "function"
    },
    {
      "constant": true,
      "inputs": [],
      "name": "partyA",
      "outputs": [
        {
          "name": "",
          "type": "address"
        }
      ],
      "payable": false,
      "stateMutability": "view",
      "type": "function"
    },
    {
      "constant": true,
      "inputs": [],
      "name": "status",
      "outputs": [
        {
          "name": "",
          "type": "uint8"
        }
      ],
      "payable": false,
      "stateMutability": "view",
      "type": "function"
    },
    {
      "constant": true,
      "inputs": [],
      "name": "partyB",
      "outputs": [
        {
          "name": "",
          "type": "address"
        }
      ],
      "payable": false,
      "stateMutability": "view",
      "type": "function"
    },
    {
      "constant": false,
      "inputs": [
        {
          "name": "_disputeID",
          "type": "uint256"
        },
        {
          "name": "_ruling",
          "type": "uint256"
        }
      ],
      "name": "rule",
      "outputs": [],
      "payable": false,
      "stateMutability": "nonpayable",
      "type": "function"
    },
    {
      "constant": true,
      "inputs": [],
      "name": "partyAFee",
      "outputs": [
        {
          "name": "",
          "type": "uint256"
        }
      ],
      "payable": false,
      "stateMutability": "view",
      "type": "function"
    },
    {
      "constant": true,
      "inputs": [],
      "name": "partyBFee",
      "outputs": [
        {
          "name": "",
          "type": "uint256"
        }
      ],
      "payable": false,
      "stateMutability": "view",
      "type": "function"
    },
    {
      "constant": true,
      "inputs": [],
      "name": "arbitrator",
      "outputs": [
        {
          "name": "",
          "type": "address"
        }
      ],
      "payable": false,
      "stateMutability": "view",
      "type": "function"
    },
    {
      "constant": true,
      "inputs": [],
      "name": "timeout",
      "outputs": [
        {
          "name": "",
          "type": "uint256"
        }
      ],
      "payable": false,
      "stateMutability": "view",
      "type": "function"
    },
    {
      "constant": true,
      "inputs": [],
      "name": "lastInteraction",
      "outputs": [
        {
          "name": "",
          "type": "uint256"
        }
      ],
      "payable": false,
      "stateMutability": "view",
      "type": "function"
    },
    {
      "constant": true,
      "inputs": [],
      "name": "disputeID",
      "outputs": [
        {
          "name": "",
          "type": "uint256"
        }
      ],
      "payable": false,
      "stateMutability": "view",
      "type": "function"
    },
    {
      "inputs": [
        {
          "name": "_arbitrator",
          "type": "address"
        },
        {
          "name": "_hashContract",
          "type": "bytes32"
        },
        {
          "name": "_timeout",
          "type": "uint256"
        },
        {
          "name": "_partyB",
          "type": "address"
        },
        {
          "name": "_arbitratorExtraData",
          "type": "bytes"
        }
      ],
      "payable": false,
      "stateMutability": "nonpayable",
      "type": "constructor"
    },
    {
      "anonymous": false,
      "inputs": [
        {
          "indexed": false,
          "name": "_party",
          "type": "uint8"
        }
      ],
      "name": "HasToPayFee",
      "type": "event"
    },
    {
      "anonymous": false,
      "inputs": [
        {
          "indexed": true,
          "name": "_arbitrator",
          "type": "address"
        },
        {
          "indexed": true,
          "name": "_disputeID",
          "type": "uint256"
        },
        {
          "indexed": false,
          "name": "_rulingOptions",
          "type": "string"
        }
      ],
      "name": "Dispute",
      "type": "event"
    },
    {
      "anonymous": false,
      "inputs": [
        {
          "indexed": true,
          "name": "_arbitrator",
          "type": "address"
        },
        {
          "indexed": true,
          "name": "_disputeID",
          "type": "uint256"
        },
        {
          "indexed": false,
          "name": "_ruling",
          "type": "uint256"
        }
      ],
      "name": "Ruling",
      "type": "event"
    },
    {
      "anonymous": false,
      "inputs": [
        {
          "indexed": true,
          "name": "_arbitrator",
          "type": "address"
        },
        {
          "indexed": true,
          "name": "_disputeID",
          "type": "uint256"
        },
        {
          "indexed": false,
          "name": "_party",
          "type": "address"
        },
        {
          "indexed": false,
          "name": "_evidence",
          "type": "string"
        }
      ],
      "name": "Evidence",
      "type": "event"
    },
    {
      "anonymous": false,
      "inputs": [
        {
          "indexed": false,
          "name": "_contractHash",
          "type": "bytes32"
        }
      ],
      "name": "ContractHash",
      "type": "event"
    },
    {
      "constant": false,
      "inputs": [],
      "name": "payArbitrationFeeByPartyA",
      "outputs": [],
      "payable": true,
      "stateMutability": "payable",
      "type": "function"
    },
    {
      "constant": false,
      "inputs": [],
      "name": "payArbitrationFeeByPartyB",
      "outputs": [],
      "payable": true,
      "stateMutability": "payable",
      "type": "function"
    },
    {
      "constant": false,
      "inputs": [],
      "name": "timeOutByPartyA",
      "outputs": [],
      "payable": false,
      "stateMutability": "nonpayable",
      "type": "function"
    },
    {
      "constant": false,
      "inputs": [],
      "name": "timeOutByPartyB",
      "outputs": [],
      "payable": false,
      "stateMutability": "nonpayable",
      "type": "function"
    },
    {
      "constant": false,
      "inputs": [
        {
          "name": "_evidence",
          "type": "string"
        }
      ],
      "name": "submitEvidence",
      "outputs": [],
      "payable": false,
      "stateMutability": "nonpayable",
      "type": "function"
    },
    {
      "constant": false,
      "inputs": [
        {
          "name": "_extraData",
          "type": "bytes"
        }
      ],
      "name": "appeal",
      "outputs": [],
      "payable": true,
      "stateMutability": "payable",
      "type": "function"
    }
  ],
  "bytecode": "0x60806040523480156200001157600080fd5b5060405162001778380380620017788339810180604052810190808051906020019092919080519060200190929190805190602001909291908051906020019092919080518201929190505050848185826000806101000a81548173ffffffffffffffffffffffffffffffffffffffff021916908373ffffffffffffffffffffffffffffffffffffffff1602179055508160019080519060200190620000b992919062000190565b507f1892820d22f2ab2b60795935d39550f42562bf8862a0b3c2193b095baa40af218160405180826000191660001916815260200191505060405180910390a15050508260028190555033600360006101000a81548173ffffffffffffffffffffffffffffffffffffffff021916908373ffffffffffffffffffffffffffffffffffffffff16021790555081600460006101000a81548173ffffffffffffffffffffffffffffffffffffffff021916908373ffffffffffffffffffffffffffffffffffffffff16021790555050505050506200023f565b828054600181600116156101000203166002900490600052602060002090601f016020900481019282601f10620001d357805160ff191683800117855562000204565b8280016001018555821562000204579182015b8281111562000203578251825591602001919060010190620001e6565b5b50905062000213919062000217565b5090565b6200023c91905b80821115620002385760008160009055506001016200021e565b5090565b90565b611529806200024f6000396000f3006080604052600436106100f1576000357c0100000000000000000000000000000000000000000000000000000000900463ffffffff168063069fae2a146100f65780630c7ac7b61461015257806310e1d8ca146101e257806319e2641e14610239578063200d2ed2146102505780632904011314610289578063311a6c56146102e05780634b40c97414610317578063512491f1146103425780636cc6cde11461036d57806370dea79a146103c4578063853c80ce146103ef5780638f71a26514610406578063a010963114610431578063b0a1e2b41461043b578063b1bcce3a14610466578063bac91e2e14610470575b600080fd5b610150600480360381019080803590602001908201803590602001908080601f01602080910402602001604051908101604052809392919081815260200183838082843782019150505050505091929192905050506104d9565b005b34801561015e57600080fd5b506101676106a8565b6040518080602001828103825283818151815260200191508051906020019080838360005b838110156101a757808201518184015260208101905061018c565b50505050905090810190601f1680156101d45780820380516001836020036101000a031916815260200191505b509250505060405180910390f35b3480156101ee57600080fd5b506101f7610746565b604051808273ffffffffffffffffffffffffffffffffffffffff1673ffffffffffffffffffffffffffffffffffffffff16815260200191505060405180910390f35b34801561024557600080fd5b5061024e61076c565b005b34801561025c57600080fd5b50610265610823565b6040518082600481111561027557fe5b60ff16815260200191505060405180910390f35b34801561029557600080fd5b5061029e610836565b604051808273ffffffffffffffffffffffffffffffffffffffff1673ffffffffffffffffffffffffffffffffffffffff16815260200191505060405180910390f35b3480156102ec57600080fd5b50610315600480360381019080803590602001909291908035906020019092919050505061085c565b005b34801561032357600080fd5b5061032c610914565b6040518082815260200191505060405180910390f35b34801561034e57600080fd5b5061035761091a565b6040518082815260200191505060405180910390f35b34801561037957600080fd5b50610382610920565b604051808273ffffffffffffffffffffffffffffffffffffffff1673ffffffffffffffffffffffffffffffffffffffff16815260200191505060405180910390f35b3480156103d057600080fd5b506103d9610945565b6040518082815260200191505060405180910390f35b3480156103fb57600080fd5b5061040461094b565b005b34801561041257600080fd5b5061041b610a02565b6040518082815260200191505060405180910390f35b610439610a08565b005b34801561044757600080fd5b50610450610c97565b6040518082815260200191505060405180910390f35b61046e610c9d565b005b34801561047c57600080fd5b506104d7600480360381019080803590602001908201803590602001908080601f0160208091040260200160405190810160405280939291908181526020018383808284378201915050505050509192919290505050610f2c565b005b600360009054906101000a900473ffffffffffffffffffffffffffffffffffffffff1673ffffffffffffffffffffffffffffffffffffffff163373ffffffffffffffffffffffffffffffffffffffff1614806105825750600460009054906101000a900473ffffffffffffffffffffffffffffffffffffffff1673ffffffffffffffffffffffffffffffffffffffff163373ffffffffffffffffffffffffffffffffffffffff16145b151561058d57600080fd5b6000809054906101000a900473ffffffffffffffffffffffffffffffffffffffff1673ffffffffffffffffffffffffffffffffffffffff166349912f8834600854846040518463ffffffff167c01000000000000000000000000000000000000000000000000000000000281526004018083815260200180602001828103825283818151815260200191508051906020019080838360005b83811015610640578082015181840152602081019050610625565b50505050905090810190601f16801561066d5780820380516001836020036101000a031916815260200191505b5093505050506000604051808303818588803b15801561068c57600080fd5b505af11580156106a0573d6000803e3d6000fd5b505050505050565b60018054600181600116156101000203166002900480601f01602080910402602001604051908101604052809291908181526020018280546001816001161561010002031660029004801561073e5780601f106107135761010080835404028352916020019161073e565b820191906000526020600020905b81548152906001019060200180831161072157829003601f168201915b505050505081565b600360009054906101000a900473ffffffffffffffffffffffffffffffffffffffff1681565b600360009054906101000a900473ffffffffffffffffffffffffffffffffffffffff1673ffffffffffffffffffffffffffffffffffffffff163373ffffffffffffffffffffffffffffffffffffffff161415156107c857600080fd5b600260048111156107d557fe5b600960009054906101000a900460ff1660048111156107f057fe5b1415156107fc57600080fd5b60025460075401421015151561081157600080fd5b610821600854600160ff16611123565b565b600960009054906101000a900460ff1681565b600460009054906101000a900473ffffffffffffffffffffffffffffffffffffffff1681565b6000809054906101000a900473ffffffffffffffffffffffffffffffffffffffff1673ffffffffffffffffffffffffffffffffffffffff163373ffffffffffffffffffffffffffffffffffffffff161415156108b757600080fd5b813373ffffffffffffffffffffffffffffffffffffffff167f394027a5fa6e098a1191094d1719d6929b9abc535fcc0c8f448d6a4e75622276836040518082815260200191505060405180910390a36109108282611123565b5050565b60055481565b60065481565b6000809054906101000a900473ffffffffffffffffffffffffffffffffffffffff1681565b60025481565b600460009054906101000a900473ffffffffffffffffffffffffffffffffffffffff1673ffffffffffffffffffffffffffffffffffffffff163373ffffffffffffffffffffffffffffffffffffffff161415156109a757600080fd5b600160048111156109b457fe5b600960009054906101000a900460ff1660048111156109cf57fe5b1415156109db57600080fd5b6002546007540142101515156109f057600080fd5b610a00600854600260ff16611123565b565b60075481565b6000600360009054906101000a900473ffffffffffffffffffffffffffffffffffffffff1673ffffffffffffffffffffffffffffffffffffffff163373ffffffffffffffffffffffffffffffffffffffff16141515610a6657600080fd5b6000809054906101000a900473ffffffffffffffffffffffffffffffffffffffff1673ffffffffffffffffffffffffffffffffffffffff1663f7434ea960016040518263ffffffff167c01000000000000000000000000000000000000000000000000000000000281526004018080602001828103825283818154600181600116156101000203166002900481526020019150805460018160011615610100020316600290048015610b595780601f10610b2e57610100808354040283529160200191610b59565b820191906000526020600020905b815481529060010190602001808311610b3c57829003601f168201915b505092505050602060405180830381600087803b158015610b7957600080fd5b505af1158015610b8d573d6000803e3d6000fd5b505050506040513d6020811015610ba357600080fd5b810190808051906020019092919050505090503460056000828254019250508190555080600554141515610bd657600080fd5b60036004811115610be357fe5b600960009054906101000a900460ff166004811115610bfe57fe5b101515610c0a57600080fd5b42600781905550806006541015610c8a576002600960006101000a81548160ff02191690836004811115610c3a57fe5b02179055507fba8db766b5582c21593909b57af48297714ea2c508bfff6c537ce36bb853e568600160405180826001811115610c7257fe5b60ff16815260200191505060405180910390a1610c94565b610c9381611269565b5b50565b60085481565b6000600460009054906101000a900473ffffffffffffffffffffffffffffffffffffffff1673ffffffffffffffffffffffffffffffffffffffff163373ffffffffffffffffffffffffffffffffffffffff16141515610cfb57600080fd5b6000809054906101000a900473ffffffffffffffffffffffffffffffffffffffff1673ffffffffffffffffffffffffffffffffffffffff1663f7434ea960016040518263ffffffff167c01000000000000000000000000000000000000000000000000000000000281526004018080602001828103825283818154600181600116156101000203166002900481526020019150805460018160011615610100020316600290048015610dee5780601f10610dc357610100808354040283529160200191610dee565b820191906000526020600020905b815481529060010190602001808311610dd157829003601f168201915b505092505050602060405180830381600087803b158015610e0e57600080fd5b505af1158015610e22573d6000803e3d6000fd5b505050506040513d6020811015610e3857600080fd5b810190808051906020019092919050505090503460066000828254019250508190555080600654141515610e6b57600080fd5b60036004811115610e7857fe5b600960009054906101000a900460ff166004811115610e9357fe5b101515610e9f57600080fd5b42600781905550806005541015610f1f576001600960006101000a81548160ff02191690836004811115610ecf57fe5b02179055507fba8db766b5582c21593909b57af48297714ea2c508bfff6c537ce36bb853e568600060405180826001811115610f0757fe5b60ff16815260200191505060405180910390a1610f29565b610f2881611269565b5b50565b600360009054906101000a900473ffffffffffffffffffffffffffffffffffffffff1673ffffffffffffffffffffffffffffffffffffffff163373ffffffffffffffffffffffffffffffffffffffff161480610fd55750600460009054906101000a900473ffffffffffffffffffffffffffffffffffffffff1673ffffffffffffffffffffffffffffffffffffffff163373ffffffffffffffffffffffffffffffffffffffff16145b1515610fe057600080fd5b60036004811115610fed57fe5b600960009054906101000a900460ff16600481111561100857fe5b1015151561101557600080fd5b6008546000809054906101000a900473ffffffffffffffffffffffffffffffffffffffff1673ffffffffffffffffffffffffffffffffffffffff167fdccf2f8b2cc26eafcd61905cba744cff4b81d14740725f6376390dc6298a6a3c3384604051808373ffffffffffffffffffffffffffffffffffffffff1673ffffffffffffffffffffffffffffffffffffffff16815260200180602001828103825283818151815260200191508051906020019080838360005b838110156110e55780820151818401526020810190506110ca565b50505050905090810190601f1680156111125780820380516001836020036101000a031916815260200191505b50935050505060405180910390a350565b6008548214151561113357600080fd5b600260ff16811115151561114657600080fd5b600160ff168114156111c557600360009054906101000a900473ffffffffffffffffffffffffffffffffffffffff1673ffffffffffffffffffffffffffffffffffffffff166108fc600654600554116111a1576006546111a5565b6005545b9081150290604051600060405180830381858888f1935050505050611241565b600260ff1681141561124057600460009054906101000a900473ffffffffffffffffffffffffffffffffffffffff1673ffffffffffffffffffffffffffffffffffffffff166108fc6006546005541161122057600654611224565b6005545b9081150290604051600060405180830381858888f19350505050505b5b6004600960006101000a81548160ff0219169083600481111561126057fe5b02179055505050565b6003600960006101000a81548160ff0219169083600481111561128857fe5b02179055506000809054906101000a900473ffffffffffffffffffffffffffffffffffffffff1673ffffffffffffffffffffffffffffffffffffffff1663c13517e182600260016040518463ffffffff167c0100000000000000000000000000000000000000000000000000000000028152600401808360ff1681526020018060200182810382528381815460018160011615610100020316600290048152602001915080546001816001161561010002031660029004801561138c5780601f106113615761010080835404028352916020019161138c565b820191906000526020600020905b81548152906001019060200180831161136f57829003601f168201915b505093505050506020604051808303818588803b1580156113ac57600080fd5b505af11580156113c0573d6000803e3d6000fd5b50505050506040513d60208110156113d757600080fd5b81019080805190602001909291905050506008819055506008546000809054906101000a900473ffffffffffffffffffffffffffffffffffffffff1673ffffffffffffffffffffffffffffffffffffffff167f775071bee3f2d409883bcb9dfcef6befa9343668ab341f76fcc5817b52a126116040805190810160405280601981526020017f506172747920412077696e733b506172747920422077696e73000000000000008152506040518080602001828103825283818151815260200191508051906020019080838360005b838110156114c05780820151818401526020810190506114a5565b50505050905090810190601f1680156114ed5780820380516001836020036101000a031916815260200191505b509250505060405180910390a3505600a165627a7a72305820ff68c034ae8f49adea480705fce8d4fbfeee49df85e69d579b9d0832660722e40029",
  "source": "/**\n *  @title Two-Party Arbitrable\n *  @author Clément Lesaege - <clement@lesaege.com>\n *  Bug Bounties: This code hasn't undertaken a bug bounty program yet.\n */\n\n\npragma solidity ^0.4.15;\nimport \"./Arbitrable.sol\";\n\n\n/** @title Two-Party Arbitrable\n *  @dev A contract between two parties which can be arbitrated. Both parties has to pay for the arbitration fee. The winning party will get its fee refunded.\n *  To develop a contract inheriting from this one, you need to:\n *  - Redefine RULING_OPTIONS to explain the consequences of the possible rulings.\n *  - Redefine executeRuling while still calling super.executeRuling to implement the results of the arbitration.\n */\ncontract TwoPartyArbitrable is Arbitrable {\n    uint public timeout; // Time in second a party can take before being considered unresponding and lose the dispute.\n    address public partyA;\n    address public partyB;\n    uint public partyAFee; // Total fees paid by the partyA.\n    uint public partyBFee; // Total fees paid by the partyB.\n    uint public lastInteraction; // Last interaction for the dispute procedure.\n    uint public disputeID;\n    enum Status {NoDispute, WaitingPartyA, WaitingPartyB, DisputeCreated, Resolved}\n    Status public status;\n    \n    uint8 constant AMOUNT_OF_CHOICES = 2;\n    uint8 constant PARTY_A_WINS = 1;\n    uint8 constant PARTY_B_WINS = 2;\n    string constant RULING_OPTIONS = \"Party A wins;Party B wins\"; // A plain English of what rulings do. Need to be redefined by the child class.\n    \n    modifier onlyPartyA{ require(msg.sender==partyA); _; }\n    modifier onlyPartyB{ require(msg.sender==partyB); _; }\n    modifier onlyParty{ require(msg.sender==partyA || msg.sender==partyB); _; }\n    \n    enum Party {PartyA, PartyB}\n    \n    /** @dev Indicate that a party has to pay a fee or would otherwise be considered as loosing.\n     *  @param _party The party who has to pay.\n     */\n    event HasToPayFee(Party _party);\n    \n    /** @dev Constructor. Choose the arbitrator.\n     *  @param _arbitrator The arbitrator of the contract.\n     *  @param _hashContract Keccak hash of the plain English contract.\n     *  @param _timeout Time after which a party automatically loose a dispute.\n     *  @param _partyB The recipient of the transaction.\n     *  @param _arbitratorExtraData Extra data for the arbitrator.\n     */\n    function TwoPartyArbitrable(Arbitrator _arbitrator, bytes32 _hashContract, uint _timeout, address _partyB, bytes _arbitratorExtraData) Arbitrable(_arbitrator,_arbitratorExtraData,_hashContract) {\n        timeout=_timeout;\n        partyA=msg.sender;\n        partyB=_partyB;\n    }\n    \n    \n    /** @dev Pay the arbitration fee to raise a dispute. To be called by the party A. UNTRUSTED.\n     *  Note that the arbitrator can have createDispute throw, which will make this function throw and therefore lead to a party being timed-out.\n     *  This is not a vulnerability as the arbitrator can rule in favor of one party anyway.\n     */\n    function payArbitrationFeeByPartyA() payable onlyPartyA {\n        uint arbitrationCost=arbitrator.arbitrationCost(arbitratorExtraData);\n        partyAFee+=msg.value;\n        require(partyAFee == arbitrationCost); // Require that the total pay at least the arbitration cost.\n        require(status<Status.DisputeCreated); // Make sure a dispute has not been created yet.\n        \n        lastInteraction=now;\n        if (partyBFee < arbitrationCost) { // The partyB still has to pay. This can also happens if he has paid, but arbitrationCost has increased.\n            status=Status.WaitingPartyB;\n            HasToPayFee(Party.PartyB);\n        } else { // The partyB has also paid the fee. We create the dispute\n            raiseDispute(arbitrationCost);\n        }\n    }\n    \n    \n    /** @dev Pay the arbitration fee to raise a dispute. To be called by the party B. UNTRUSTED.\n     *  Note that this function mirror payArbitrationFeeByPartyA.\n     */\n    function payArbitrationFeeByPartyB() payable onlyPartyB {\n        uint arbitrationCost=arbitrator.arbitrationCost(arbitratorExtraData);\n        partyBFee+=msg.value;\n        require(partyBFee == arbitrationCost); // Require that the total pay at least the arbitration cost.\n        require(status<Status.DisputeCreated); // Make sure a dispute has not been created yet.\n        \n        lastInteraction=now;\n        if (partyAFee < arbitrationCost) { // The partyA still has to pay. This can also happens if he has paid, but arbitrationCost has increased.\n            status=Status.WaitingPartyA;\n            HasToPayFee(Party.PartyA);\n        } else { // The partyA has also paid the fee. We create the dispute\n            raiseDispute(arbitrationCost);\n        }\n    }\n    \n    /** @dev Create a dispute. UNTRUSTED.\n     *  @param _arbitrationCost Amount to pay the arbitrator.\n     */\n    function raiseDispute(uint _arbitrationCost) internal {\n        status=Status.DisputeCreated;\n        disputeID=arbitrator.createDispute.value(_arbitrationCost)(AMOUNT_OF_CHOICES,arbitratorExtraData);\n        Dispute(arbitrator,disputeID,RULING_OPTIONS);\n    }\n    \n    /** @dev Reimburse partyA if partyB fails to pay the fee.\n     */\n    function timeOutByPartyA() onlyPartyA {\n        require(status==Status.WaitingPartyB);\n        require(now>=lastInteraction+timeout);\n        \n        executeRuling(disputeID,PARTY_A_WINS);\n    }\n    \n    /** @dev Pay partyB if partyA fails to pay the fee.\n     */\n    function timeOutByPartyB() onlyPartyB {\n        require(status==Status.WaitingPartyA);\n        require(now>=lastInteraction+timeout);\n        \n        executeRuling(disputeID,PARTY_B_WINS);\n    }\n    \n    /** @dev Submit a reference to evidence. EVENT.\n     *  @param _evidence A link to an evidence using its URI.\n     */\n    function submitEvidence(string _evidence) onlyParty {\n        require(status>=Status.DisputeCreated);\n        Evidence(arbitrator,disputeID,msg.sender,_evidence);\n    }\n    \n    /** @dev Appeal an appealable ruling.\n     *  Transfer the funds to the arbitrator.\n     *  Note that no checks are required as the checks are done by the arbitrator.\n     *  @param _extraData Extra data for the arbitrator appeal procedure.\n     */\n    function appeal(bytes _extraData) onlyParty payable {\n        arbitrator.appeal.value(msg.value)(disputeID,_extraData);\n    }\n    \n    /** @dev Execute a ruling of a dispute. It reimburse the fee to the winning party.\n     *  This need to be extended by contract inheriting from it.\n     *  @param _disputeID ID of the dispute in the Arbitrator contract.\n     *  @param _ruling Ruling given by the arbitrator. 1 : Reimburse the partyA. 2 : Pay the partyB.\n     */\n    function executeRuling(uint _disputeID, uint _ruling) internal {\n        require(_disputeID==disputeID);\n        require(_ruling<=AMOUNT_OF_CHOICES);\n        \n        // Give the arbitration fee back.\n        // Note that we use send to prevent a party from blocking the execution.\n        if (_ruling==PARTY_A_WINS)\n            partyA.send(partyAFee > partyBFee ? partyAFee : partyBFee); // In both cases sends the highest amount paid to avoid ETH to be stuck in the contract if the arbitrator lowers its fee.\n        else if (_ruling==PARTY_B_WINS)\n            partyB.send(partyAFee > partyBFee ? partyAFee : partyBFee);\n        status=Status.Resolved;\n    }\n    \n}\n",
  "sourcePath": "/Users/epiqueras/Work/kleros/kleros-interaction/contracts/standard/arbitration/TwoPartyArbitrable.sol",
  "compiler": {
    "name": "solc",
    "version": "0.4.23+commit.124ca40d.Emscripten.clang"
  },
  "schemaVersion": "2.0.0",
  "updatedAt": "2018-06-26T20:15:53.350Z"
}