{
  "contractName": "VersioningProxy",
  "abi": [
    {
      "constant": true,
      "inputs": [
        {
          "name": "",
          "type": "uint256"
        }
      ],
      "name": "tags",
      "outputs": [
        {
          "name": "",
          "type": "bytes32"
        }
      ],
      "payable": false,
      "stateMutability": "view",
      "type": "function"
    },
    {
      "constant": true,
      "inputs": [],
      "name": "stable",
      "outputs": [
        {
          "name": "tag",
          "type": "bytes32"
        },
        {
          "name": "_address",
          "type": "address"
        }
      ],
      "payable": false,
      "stateMutability": "view",
      "type": "function"
    },
    {
      "constant": true,
      "inputs": [],
      "name": "implementation",
      "outputs": [
        {
          "name": "",
          "type": "address"
        }
      ],
      "payable": false,
      "stateMutability": "view",
      "type": "function"
    },
    {
      "constant": true,
      "inputs": [
        {
          "name": "",
          "type": "bytes32"
        }
      ],
      "name": "addresses",
      "outputs": [
        {
          "name": "",
          "type": "address"
        }
      ],
      "payable": false,
      "stateMutability": "view",
      "type": "function"
    },
    {
      "constant": true,
      "inputs": [],
      "name": "owner",
      "outputs": [
        {
          "name": "",
          "type": "address"
        }
      ],
      "payable": false,
      "stateMutability": "view",
      "type": "function"
    },
    {
      "inputs": [
        {
          "name": "_firstTag",
          "type": "bytes32"
        },
        {
          "name": "_firstAddress",
          "type": "address"
        }
      ],
      "payable": false,
      "stateMutability": "nonpayable",
      "type": "constructor"
    },
    {
      "anonymous": false,
      "inputs": [
        {
          "indexed": false,
          "name": "_prevTag",
          "type": "bytes32"
        },
        {
          "indexed": false,
          "name": "_prevAddress",
          "type": "address"
        },
        {
          "indexed": false,
          "name": "_nextTag",
          "type": "bytes32"
        },
        {
          "indexed": false,
          "name": "_nextAddress",
          "type": "address"
        }
      ],
      "name": "OnStableChange",
      "type": "event"
    },
    {
      "constant": false,
      "inputs": [],
      "name": "rollback",
      "outputs": [
        {
          "name": "_success",
          "type": "bool"
        }
      ],
      "payable": false,
      "stateMutability": "nonpayable",
      "type": "function"
    },
    {
      "constant": true,
      "inputs": [],
      "name": "allTags",
      "outputs": [
        {
          "name": "_tags",
          "type": "bytes32[]"
        }
      ],
      "payable": false,
      "stateMutability": "view",
      "type": "function"
    },
    {
      "constant": false,
      "inputs": [
        {
          "name": "_nextTag",
          "type": "bytes32"
        },
        {
          "name": "_nextAddress",
          "type": "address"
        }
      ],
      "name": "publish",
      "outputs": [],
      "payable": false,
      "stateMutability": "nonpayable",
      "type": "function"
    },
    {
      "constant": false,
      "inputs": [
        {
          "name": "_nextTag",
          "type": "bytes32"
        }
      ],
      "name": "setStable",
      "outputs": [],
      "payable": false,
      "stateMutability": "nonpayable",
      "type": "function"
    }
  ],
  "bytecode": "0x6080604052336000806101000a81548173ffffffffffffffffffffffffffffffffffffffff021916908373ffffffffffffffffffffffffffffffffffffffff16021790555034801561005057600080fd5b50604051604080610dcd833981018060405281019080805190602001909291908051906020019092919050505080600160006101000a81548173ffffffffffffffffffffffffffffffffffffffff021916908373ffffffffffffffffffffffffffffffffffffffff1602179055506100d782826100de640100000000026401000000009004565b5050610495565b3373ffffffffffffffffffffffffffffffffffffffff166000809054906101000a900473ffffffffffffffffffffffffffffffffffffffff1673ffffffffffffffffffffffffffffffffffffffff1614151561013957600080fd5b60028290806001815401808255809150509060018203906000526020600020016000909192909190915090600019169055508060036000846000191660001916815260200190815260200160002060006101000a81548173ffffffffffffffffffffffffffffffffffffffff021916908373ffffffffffffffffffffffffffffffffffffffff1602179055506101dd826101e1640100000000026401000000009004565b5050565b60008060003373ffffffffffffffffffffffffffffffffffffffff166000809054906101000a900473ffffffffffffffffffffffffffffffffffffffff1673ffffffffffffffffffffffffffffffffffffffff1614151561024157600080fd5b60036000856000191660001916815260200190815260200160002060009054906101000a900473ffffffffffffffffffffffffffffffffffffffff169250600073ffffffffffffffffffffffffffffffffffffffff168373ffffffffffffffffffffffffffffffffffffffff16141515156102bb57600080fd5b6004600001549150600460010160009054906101000a900473ffffffffffffffffffffffffffffffffffffffff1690506040805190810160405280856000191681526020018473ffffffffffffffffffffffffffffffffffffffff1681525060046000820151816000019060001916905560208201518160010160006101000a81548173ffffffffffffffffffffffffffffffffffffffff021916908373ffffffffffffffffffffffffffffffffffffffff1602179055509050506103918282868661048f640100000000026401000000009004565b7f4f08c95ff89163f080e17ce39ace3dcf153ad5485ff5cd5657bddbc22f116e11828286866040518085600019166000191681526020018473ffffffffffffffffffffffffffffffffffffffff1673ffffffffffffffffffffffffffffffffffffffff16815260200183600019166000191681526020018273ffffffffffffffffffffffffffffffffffffffff1673ffffffffffffffffffffffffffffffffffffffff16815260200194505050505060405180910390a182600160006101000a81548173ffffffffffffffffffffffffffffffffffffffff021916908373ffffffffffffffffffffffffffffffffffffffff16021790555050505050565b50505050565b610929806104a46000396000f300608060405260043610610099576000357c0100000000000000000000000000000000000000000000000000000000900463ffffffff16806320822abc1461009e57806322be3de1146100e75780635c60da1b1461014d57806368248983146101a4578063699f200f146101f55780638da5cb5b146102665780639afd9d78146102bd578063d646fa4b146102ec578063e675be401461031d575b600080fd5b3480156100aa57600080fd5b506100c960048036038101908080359060200190929190505050610389565b60405180826000191660001916815260200191505060405180910390f35b3480156100f357600080fd5b506100fc6103ac565b6040518083600019166000191681526020018273ffffffffffffffffffffffffffffffffffffffff1673ffffffffffffffffffffffffffffffffffffffff1681526020019250505060405180910390f35b34801561015957600080fd5b506101626103de565b604051808273ffffffffffffffffffffffffffffffffffffffff1673ffffffffffffffffffffffffffffffffffffffff16815260200191505060405180910390f35b3480156101b057600080fd5b506101f36004803603810190808035600019169060200190929190803573ffffffffffffffffffffffffffffffffffffffff169060200190929190505050610404565b005b34801561020157600080fd5b5061022460048036038101908080356000191690602001909291905050506104f8565b604051808273ffffffffffffffffffffffffffffffffffffffff1673ffffffffffffffffffffffffffffffffffffffff16815260200191505060405180910390f35b34801561027257600080fd5b5061027b61052b565b604051808273ffffffffffffffffffffffffffffffffffffffff1673ffffffffffffffffffffffffffffffffffffffff16815260200191505060405180910390f35b3480156102c957600080fd5b506102d2610550565b604051808215151515815260200191505060405180910390f35b3480156102f857600080fd5b5061031b60048036038101908080356000191690602001909291905050506105fc565b005b34801561032957600080fd5b5061033261089b565b6040518080602001828103825283818151815260200191508051906020019060200280838360005b8381101561037557808201518184015260208101905061035a565b505050509050019250505060405180910390f35b60028181548110151561039857fe5b906000526020600020016000915090505481565b60048060000154908060010160009054906101000a900473ffffffffffffffffffffffffffffffffffffffff16905082565b600160009054906101000a900473ffffffffffffffffffffffffffffffffffffffff1681565b3373ffffffffffffffffffffffffffffffffffffffff166000809054906101000a900473ffffffffffffffffffffffffffffffffffffffff1673ffffffffffffffffffffffffffffffffffffffff1614151561045f57600080fd5b60028290806001815401808255809150509060018203906000526020600020016000909192909190915090600019169055508060036000846000191660001916815260200190815260200160002060006101000a81548173ffffffffffffffffffffffffffffffffffffffff021916908373ffffffffffffffffffffffffffffffffffffffff1602179055506104f4826105fc565b5050565b60036020528060005260406000206000915054906101000a900473ffffffffffffffffffffffffffffffffffffffff1681565b6000809054906101000a900473ffffffffffffffffffffffffffffffffffffffff1681565b60008060003373ffffffffffffffffffffffffffffffffffffffff166000809054906101000a900473ffffffffffffffffffffffffffffffffffffffff1673ffffffffffffffffffffffffffffffffffffffff161415156105b057600080fd5b60028054905091506002821115156105cb57600092506105f7565b60028083038154811015156105dc57fe5b906000526020600020015490506105f2816105fc565b600192505b505090565b60008060003373ffffffffffffffffffffffffffffffffffffffff166000809054906101000a900473ffffffffffffffffffffffffffffffffffffffff1673ffffffffffffffffffffffffffffffffffffffff1614151561065c57600080fd5b60036000856000191660001916815260200190815260200160002060009054906101000a900473ffffffffffffffffffffffffffffffffffffffff169250600073ffffffffffffffffffffffffffffffffffffffff168373ffffffffffffffffffffffffffffffffffffffff16141515156106d657600080fd5b6004600001549150600460010160009054906101000a900473ffffffffffffffffffffffffffffffffffffffff1690506040805190810160405280856000191681526020018473ffffffffffffffffffffffffffffffffffffffff1681525060046000820151816000019060001916905560208201518160010160006101000a81548173ffffffffffffffffffffffffffffffffffffffff021916908373ffffffffffffffffffffffffffffffffffffffff16021790555090505061079d828286866108f7565b7f4f08c95ff89163f080e17ce39ace3dcf153ad5485ff5cd5657bddbc22f116e11828286866040518085600019166000191681526020018473ffffffffffffffffffffffffffffffffffffffff1673ffffffffffffffffffffffffffffffffffffffff16815260200183600019166000191681526020018273ffffffffffffffffffffffffffffffffffffffff1673ffffffffffffffffffffffffffffffffffffffff16815260200194505050505060405180910390a182600160006101000a81548173ffffffffffffffffffffffffffffffffffffffff021916908373ffffffffffffffffffffffffffffffffffffffff16021790555050505050565b606060028054806020026020016040519081016040528092919081815260200182805480156108ed57602002820191906000526020600020905b815460001916815260200190600101908083116108d5575b5050505050905090565b505050505600a165627a7a72305820769112b74ae430b6ed6746c5029c3090974a5406192f1679ae9f491e63cbfda00029",
  "source": "pragma solidity ^0.4.15;\n\n/**\n *  @title VersioningProxy\n *  @author Enrique Piqueras - <epiquerass@gmail.com>\n *  @notice A base contract for managing the deployment of versions of another contract, the managed contract.\n */\ncontract VersioningProxy {\n    /* Structs */\n\n    struct Deployment {\n        bytes32 tag;\n        address _address;\n    }\n\n    /* Events */\n\n    /**\n     * @notice Called whenever 'stable' changes for off-chain handling.\n     * @param _prevTag The previous 'stable' managed contract version tag.\n     * @param _prevAddress The previous 'stable' managed contract address.\n     * @param _nextTag The next 'stable' managed contract version tag.\n     * @param _nextAddress The next 'stable' managed contract address.\n     */\n    event OnStableChange(bytes32 _prevTag, address _prevAddress, bytes32 _nextTag, address _nextAddress);\n\n    /* Storage */\n\n    // Owner and Creation Metadata\n    address public owner = msg.sender;\n\n    // Deployments\n    address public implementation; // Proxy standard target address\n    bytes32[] public tags; // We keep this so we can iterate over versions\n    mapping (bytes32 => address) public addresses;\n    Deployment public stable;\n\n    /* Modifiers */\n\n    /**\n     *  @dev Makes a function only callable by the owner of this contract.\n     */\n    modifier onlyOwner {\n        require(owner == msg.sender);\n        _;\n    }\n\n    /* Constructor */\n\n    /**\n     *  @notice Constructs the versioning proxy with the proxy eternal storage flag and the first version of the managed contract, `firstTag`, at `firstAddress`.\n     *  @param _firstTag The version tag of the first version of the managed contract.\n     *  @param _firstAddress The address of the first verion of the managed contract.\n     */\n    function VersioningProxy(bytes32 _firstTag, address _firstAddress) public {\n        implementation = _firstAddress;\n        publish(_firstTag, _firstAddress);\n    }\n\n    /* External */\n\n    /**\n     * @notice Rolls back 'stable' to the previous deployment, and returns true, if one exists, returns false otherwise.\n     * @return True if there was a previous version and the rollback succeeded, false otherwise.\n     */\n    function rollback() external onlyOwner returns(bool _success) {\n        uint256 tagsLen = tags.length;\n        if (tagsLen <= 2) // We don't have a previous deployment, return false\n            return false;\n\n        // Roll back and return true\n        bytes32 prevTag = tags[tagsLen - 2];\n        setStable(prevTag);\n        return true;\n    }\n\n    /* External Views */\n\n    /**\n     * @notice Returns all deployed version tags.\n     * @return All of the deployed version tags.\n     */\n    function allTags() external view returns(bytes32[] _tags) {\n        return tags;\n    }\n\n    /* Public */\n\n    /**\n     *  @notice Publishes the next version of the managed contract, `nextTag`, at `nextAddress`.\n     *  @param _nextTag The next version tag.\n     *  @param _nextAddress The next address of the managed contract.\n     */\n    function publish(bytes32 _nextTag, address _nextAddress) public onlyOwner {\n        // Publish\n        tags.push(_nextTag); // Push next tag\n        addresses[_nextTag] = _nextAddress; // Set next address\n\n        // Set 'stable'\n        setStable(_nextTag);\n    }\n\n    /**\n     *  @notice Sets the value of 'stable' to the address of `nextTag`.\n     *  @param _nextTag The already published version tag.\n     */\n    function setStable(bytes32 _nextTag) public onlyOwner {\n        // Make sure this version has already been published\n        address nextAddress = addresses[_nextTag];\n        require(nextAddress != address(0));\n\n        // Save current tag and address for handlers\n        bytes32 prevTag = stable.tag;\n        address prevAddress = stable._address;\n    \n        // Set 'stable'\n        stable = Deployment({tag: _nextTag, _address: nextAddress});\n\n        // Call handler and fire event\n        handleStableChange(prevTag, prevAddress, _nextTag, nextAddress); // on-chain\n        OnStableChange(prevTag, prevAddress, _nextTag, nextAddress); // off-chain\n\n        // Change proxy target\n        implementation = nextAddress;\n    }\n\n    /* Private */\n\n    /**\n     * @notice Called whenever 'stable' changes for on-chain handling.\n     * @dev Overwrite this function to handle 'stable' changes on-chain.\n     * @param _prevTag The previous 'stable' managed contract version tag.\n     * @param _prevAddress The previous 'stable' managed contract address.\n     * @param _nextTag The next 'stable' managed contract version tag.\n     * @param _nextAddress The next 'stable' managed contract address.\n     */\n    function handleStableChange(bytes32 _prevTag, address _prevAddress, bytes32 _nextTag, address _nextAddress) private {}\n}\n",
  "sourcePath": "/Users/epiqueras/Work/kleros/kleros-interaction/contracts/standard/proxy/VersioningProxy.sol",
  "compiler": {
    "name": "solc",
    "version": "0.4.23+commit.124ca40d.Emscripten.clang"
  },
  "schemaVersion": "2.0.0",
  "updatedAt": "2018-06-26T20:15:53.361Z"
}